:020000040800F2
:1000000050040020751800087D0100087F010008D9
:1000100083010008870100088B0100080000000030
:100020000000000000000000000000008F01000838
:1000300091010008000000009301000895010008EC
:100040008D1C00088F1800088F1800088F180008F2
:100050008F1800088F1800088F1800088F180008E4
:100060008F1800088F1800088F1800088F180008D4
:100070008F1800088F1800088F1800088F180008C4
:100080008F1800088F1800088F1800088F180008B4
:100090008F1800088F1800088F1800088F180008A4
:1000A0008F1800088F1800088F1800088F18000894
:1000B0008F1800088F1800088F1800088F18000884
:1000C0008F1800088F1800088F1800088F18000874
:1000D0008F1800088F1800088F1800088F18000864
:1000E0008F1800088F1800088F1800088F18000854
:1000F0008F1800088F1800088F1800088F18000844
:100100008F1800088F1800088F1800088F18000833
:100110008F1800088F1800088F1800088F18000823
:100120008F1800088F1800088F1800088F18000813
:10013000DFF80CD002F0ACFB004800476701000874
:100140005004002000E0401E0028FCD1704707E06A
:10015000002100E0491C4CF250329142FAD3401E7B
:100160000028F5D1704701F098FD01F008FE04E089
:1001700001F0C0FF0120FFF7EAFFF9E7704700BF79
:10018000FEE700BFFEE700BFFEE700BFFEE77047E7
:10019000704770477047000000210020674A1268CE
:1001A00042F48032654B1A6000BF644A126802F460
:1001B0000030491C10B9B1F5A06FF6D15F4A126842
:1001C00012F4003F01D0012000E00020012842D1BC
:1001D0005B4A126842F01002594B1A601A461268C4
:1001E00022F003021A601A46126842F002021A60F4
:1001F000524A5268514B5A601A4652685A601A461F
:10020000526842F480625A601A46526822F47C12A4
:100210005A601A46526842F4E8125A601A46126846
:1002200042F080721A6000BF444A126812F0007FE8
:10023000FAD0424A526822F00302404B5A601A46F2
:10024000526842F002025A6000BF3C4A526802F013
:100250000C02082AF9D1704710B5FFF79DFF10BDB9
:1002600010B53648006840F001003449086008467F
:1002700040683449084031494860084600683249BE
:1002800008402E4908600846006820F48020086075
:100290000846406820F4FE0048604FF41F00886064
:1002A000FFF7DAFF4FF000602849086010BD10B575
:1002B000002100200022214B5B6803F00C0121B1DA
:1002C000042906D0082928D107E0214B214C2360BE
:1002D00027E01F4B1F4C236023E0184B5B6803F49F
:1002E0007010164B5B6803F48032022303EB9040DE
:1002F00022B9194B4343174C23600DE00F4B5B6849
:1003000013F4003F04D0144B4343124C236003E02A
:100310000F4B43430F4C236003E00D4B0D4C236008
:1003200000BF00BF054B5B68C3F303130B4CE15CDC
:10033000084B1B68CB40074C236010BD00100240E7
:10034000002002400000FFF8FFFFF6FE08ED00E08D
:1003500000127A000000002000093D000400002087
:1003600010B50446CA48844208D10121042000F097
:1003700023FB0021042000F01FFB46E0C548844217
:1003800008D10121082000F017FB0021082000F00F
:1003900013FB3AE0C048844208D10121102000F04C
:1003A0000BFB0021102000F007FB2EE0BB4884422D
:1003B00008D10121202000F0FFFA0021202000F0C8
:1003C000FBFA22E0B648844208D10121402000F027
:1003D000F3FA0021402000F0EFFA16E0B148844221
:1003E00008D10121802000F0E7FA0021802000F0F0
:1003F000E3FA0AE0AC48844207D10121801500F0FD
:10040000DBFA0021A01500F0D7FA10BD10B50121CC
:10041000084600F0D1FA0021012000F0CDFA10BD0D
:100420002DE9F0410246002500260020002300248B
:10043000002791F803C00CF00F0591F803C01CF0E1
:10044000100F03D091F802C04CEA050591F800C0E6
:10045000BCF1000F31D0146800202BE04FF0010CEC
:100460000CFA00F3B1F800C00CEA03069E4220D15A
:1004700083004FF00F0C0CFA03F7BC4305FA03FCA2
:100480004CEA040491F803C0BCF1280F06D14FF0E8
:10049000010C0CFA00FCC2F814C00AE091F803C089
:1004A000BCF1480F05D14FF0010C0CFA00FCC2F86A
:1004B00010C0401C0828D1D31460B1F800C0BCF1B2
:1004C000FF0F34DD546800202EE000F1080C4FF0DF
:1004D000010808FA0CF3B1F800C00CEA03069E42CA
:1004E00021D183004FF00F0C0CFA03F7BC4305FA3F
:1004F00003FC4CEA040491F803C0BCF1280F05D1B9
:1005000000F1080C08FA0CF8C2F8148091F803C046
:10051000BCF1480F07D100F1080C4FF0010808FAB0
:100520000CF8C2F81080401C0828CED35460BDE8F7
:10053000F0814FF6FF710180022181700421C170AA
:1005400070470246002093680B4201D0012000E072
:10055000002070470146886880B27047024600203C
:10056000D3680B4201D0012000E000207047014613
:10057000C86880B2704701617047416170470AB135
:10058000016100E041617047C16070474FF4803203
:100590000A43826181618261826982697047024691
:1005A0000020424B18684FF68073184040EA021052
:1005B00008433E4B186070473D49C8617047F0B52D
:1005C0000A46002300240021002500F00046B6F171
:1005D000004F02D1354EF16901E0344E7168C0F32D
:1005E000034583B200F44016B6F5401F08D121F050
:1005F00070612E4E766826F070662C4F7E6012E099
:1006000000F48016B6F5801F06D1032606FA05F41D
:10061000A14341F0706106E0460D360103FA06F68B
:10062000B14341F0706122B1460D360103FA06F67E
:10063000314300F00046B6F1004F02D11B4EF1618C
:1006400001E01A4E7160F0BD30B500228B071C0F1F
:100650000F2303FA04F2154B08338C1053F824309F
:100660009343124C08348D1044F8253023468C10E7
:1006700053F824308C07240F00FA04F423430B4C66
:1006800008348D1044F8253030BD0A4908607047A1
:1006900000080140000C014000100140001401401E
:1006A00000180140001C01400020014000000140F2
:1006B00000002042DC002042DB48006840F00100DE
:1006C000D949086008464068D8490840D64948607A
:1006D00008460068D6490840D349086008460068C3
:1006E00020F4802008600846406820F4FE0048603E
:1006F0004FF41F0088607047CB49096821F48031AE
:10070000C94A11601146096821F480211160B0F5D1
:10071000803F03D0B0F5802F0ED106E0C2490968B2
:1007200041F48031C04A116007E0BF49096841F4D3
:10073000A021BD4A116000E000BF00BF704710B5A6
:1007400001460022002300204A11012A02D1B64CA2
:10075000236806E0022A02D1B34C236A01E0B24CBE
:10076000636A01F01F02012494401C4201D0012061
:1007700000E0002010BD70B500240025002600BF59
:100780003120FFF7DCFF0646641CB4F5A06F01D0F2
:10079000002EF5D03120FFF7D2FF08B1012500E08F
:1007A0000025284670BD014600209F4A106820F0B1
:1007B000F80040EAC100106070479E490860704729
:1007C00002460020984B586820F47C1042EA01034E
:1007D0001843954B58607047964908667047014624
:1007E0000020914A506820F0030008435060704791
:1007F0008D48406800F00C007047014600208A4A8E
:10080000506820F0F0000843506070470146002017
:10081000854A506820F4E060084350607047014604
:100820000020814A506820F4605040EAC1005060C6
:10083000704729B17C4A527A02437B4B5A7204E0DA
:10084000794A527A8243784B5A7270477A490860E3
:10085000704701460020744A506820F44040084325
:10086000506070470021754A11706F4A82F820105D
:10087000012802D0042808D103E001216F4A117039
:1008800004E005216D4A117000E000BF00BF704711
:100890006B49086070476449096A0143624A116202
:1008A0007047674944390860704730B5002100221D
:1008B000002400235C4D6D6805F00C0121B1042972
:1008C00005D0082923D105E05E4D056022E05D4D8D
:1008D00005601FE0544D6D6805F47012524D6D684F
:1008E00005F48034022505EB92421CB9564D554360
:1008F00005600BE04C4D6D6815F4003F03D0524D80
:100900005543056002E04F4D5543056002E04D4DF3
:10091000056000BF00BF444D6D6805F0F001090996
:100920004A4D6B5C0568DD4045603F4D6D6805F4E0
:10093000E061090A454D6B5C4568DD4085603A4DD4
:100940006D6805F46051C90A404D6B5C4568DD4037
:10095000C560354D6D6805F44041890B3C4D6B5CBD
:10096000C568B5FBF3F5056130BD29B12E4A526962
:1009700002432D4B5A6104E02B4A526982432A4BB1
:100980005A61704729B1284A92690243264B9A61FD
:1009900004E0254A92698243234B9A61704729B14A
:1009A000214AD2690243204BDA6104E01E4AD2692F
:1009B00082431D4BDA61704729B11B4AD26802435A
:1009C000194BDA6004E0184AD2688243164BDA60A9
:1009D000704729B1144A12690243134B1A6104E0AB
:1009E000114A12698243104B1A6170471449403909
:1009F000086070470F49C86470470B49C871704759
:100A00000948406A40F080700749486270470146D3
:100A10000020054A92680A4201D0012000E000202F
:100A20007047014988727047001002400000FFF8CB
:100A3000FFFFF6FE00004242D80042422010024072
:100A40008004424200127A0000093D001400002098
:100A50002400002010B50446BE48844208D101217C
:100A60008014FFF7A9FF0021A014FFF7A5FF16E0EF
:100A7000B948844208D101210014FFF7AAFF0021E0
:100A80002014FFF7A6FF0AE0B448844207D10121F1
:100A9000C013FFF79EFF0021E013FFF79AFF10BD80
:100AA00010B50022028802F441520B884C8823437F
:100AB0008C882343CC8823430C8923434C892343CC
:100AC0008C892343CC8923431A430280838B4FF2C2
:100AD000FF74234083830B8A038210BD2DE9F04FFE
:100AE00085B005460C464FF0000902274FF000087C
:100AF0004FF0010B0026B246A88B4FF24001084090
:100B0000A88302202884B5F81C90A068022801D18F
:100B100000BF38E0A08810B94FF0010B01E04FF0A2
:100B2000020B8D48854200D100E000BF6846FFF708
:100B3000BCFEDDF800A0E088B0F5007F0AD14FEAE6
:100B40001A2000EB80004000A168B0FBF1F0401DCE
:100B500086B20BE04FEA4B10BAFBF0F000EB8000DE
:100B60004000A168B0FBF1F0401D86B20A20B6FB40
:100B7000F0F606F00108A6EB0800C0F34F074FF6A9
:100B8000FF7000EA0828022F01DBFF2F02DD022799
:100B90004FF00008E08840EA080038432884A08825
:100BA000A1890843618808432188084340F4006014
:100BB00040EA0909A5F81C9005B0BDE8F08F0021B6
:100BC000018041808180C180018141818181C18119
:100BD0000721018270470021018041808180C1800E
:100BE0000221816000218181704721B1028842F099
:100BF0004002028004E002884FF6BF731A40028070
:100C0000704721B1828B42F48062828304E0828B40
:100C10004FF6FF331A408283704730B5002400231B
:100C20000C110125A540ABB21AB185881D43858002
:100C300002E085889D43858030BD1AB183880B43CF
:100C4000838002E083888B43838070478181704773
:100C5000014688897047A1F57E42FF3A04D0028898
:100C600042F48072028004E002884FF6FF631A406B
:100C70000280704721B1828842F00402828004E041
:100C800082884FF6FB731A408280704702884FF2C9
:100C9000FF731A40028002880A430280704701886D
:100CA00041F480510180704721B1028842F4005222
:100CB000028004E002884DF6FF731A4002807047FC
:100CC00002460020012901D0108B00E0908A704775
:100CD0000146088A7047B1F5804F04D1028842F47A
:100CE0008042028004E002884BF6FF731A400280C3
:100CF00070470246002013890B4201D0012000E01A
:100D000000207047CA4302817047F0B502460020B8
:100D100000240023002501F00F070126BE40B4B2D5
:100D20000B1101269E40B3B2968806EA0305168988
:100D3000264202D00DB1012000E00020F0BD10B528
:100D4000002201F00F040123A3409AB2D343038190
:100D500010BD00000030014000380040003C004061
:100D600010B50446FB48844209D101218803FFF7EE
:100D700023FE00214FF48040FFF71EFE32E0F648CC
:100D8000844209D101214804FFF723FE00214FF4DA
:100D90000030FFF71EFE25E0F048844209D1012112
:100DA0008804FFF716FE00214FF48020FFF711FEA4
:100DB00018E0EB48844209D10121C804FFF709FE7D
:100DC00000214FF40020FFF704FE0BE0E5488442C9
:100DD00008D101210805FFF7FCFD00214FF4801028
:100DE000FFF7F7FD10BD2DE9F04786B005460E462A
:100DF0000024A24600BFA1460027B08900B100BF71
:100E00002F462C8A4CF6FF700440F08804432C8255
:100E1000AC894EF6F3100440B088318908437189DB
:100E200008430443AC81AC8A4FF6FF400440B089CC
:100E30000443AC8201A8FFF738FDC648874202D1BF
:100E4000DDF810A001E0DDF80CA0A88910F4004F37
:100E500008D00AEBCA0000EB0A1031684900B0FB69
:100E6000F1F807E00AEBCA0000EB0A1031688900CC
:100E7000B0FBF1F86420B8FBF0F004012009642114
:100E800001FB1089A88910F4004F08D0322000EB34
:100E9000C900B0FBF1F000F00700044308E0322085
:100EA00000EB09106421B0FBF1F000F00F000443E7
:100EB0002C8106B0BDE8F0874FF416510160002187
:100EC0008180C18001810C21418100218181704795
:100ED00010B502460020108A4FF2FF0318400B881D
:100EE0004C8823438C882343CC88234318431082A7
:100EF00010BD0021018041808180C180704721B1F7
:100F0000828942F40052828104E082894DF6FF73A7
:100F10001A4082817047F0B5034600240026002560
:100F20000020A1F510676A3F00D100BF1846C1F349
:100F3000421401F01F06012707FA06F5012C01D122
:100F40000C3004E0022C01D1103000E014301AB152
:100F500007682F43076002E00768AF430760F0BDF2
:100F60001AB1838A0B43838202E0838A8B43838294
:100F70007047028A4FF6F0731A400282028A0A43CF
:100F80000282704782894FF2FF731A408281828900
:100F90000A438281704721B1828942F00202828134
:100FA00004E082894FF6FD731A4082817047028AFD
:100FB0004FF6DF731A400282028A0A4302827047A8
:100FC00021B1028A42F48042028204E0028A4BF696
:100FD000FF731A4002827047C1F308028280704793
:100FE00001468888C0F308007047818941F00101FB
:100FF00081817047028BD2B20283028B42EA0122C6
:1010000002837047028B02F47F420283028B0A4301
:101010000283704721B1828A42F02002828204E07A
:10102000828A4FF6DF731A408282704721B1828A2A
:1010300042F01002828204E0828A4FF6EF731A4077
:101040008282704721B1828A42F00802828204E0E3
:10105000828A4FF6F7731A408282704721B18289E3
:1010600042F40042828103E08289C2F30E0282814F
:10107000704721B1828A42F40062828204E0828A4F
:101080004FF2FF731A4082827047828A4FF6FB73D9
:101090001A408282828A0A438282704721B1828A00
:1010A00042F00202828204E0828A4FF6FD731A4007
:1010B0008282704702460020B1F5007F00D100BF58
:1010C00013880B4201D0012000E00020704701F49A
:1010D0000072B2F5007F00D100BFCA4302807047A2
:1010E00070B502460024002300250020A1F51066FB
:1010F0006A3E00D100BFC1F3421501F01F03012673
:1011000006FA03F3012D02D19689334006E0022D41
:1011100002D1168A334001E0968A33400C12012630
:1011200006FA04F41688344013B10CB1012000E033
:10113000002070BD10B500220023A1F510646A3CA8
:1011400000D100BF0A1201249440A3B2DC43048002
:1011500010BD00000038014000440040004800403D
:10116000004C00400050004031490143314A1160B9
:10117000704770B5002100230F22C4780CB32D4CAA
:10118000246804F4E064C4F5E064210AC1F10403B6
:10119000CA40447804FA03F18478144021430901D9
:1011A000254C0678A155047804F01F050124AC40B5
:1011B00005786D114FF0E02606EB8505C5F8004176
:1011C00009E0047804F01F050124AC401B4D0678AB
:1011D000761145F8264070BD194A0A400243154B66
:1011E0001B1F1A60704739B1124A121D1268024360
:1011F000104B1B1D1A6006E00E4A121D1268824336
:101200000C4B1B1D1A607047042808D14FF0E021D9
:10121000096941F004014FF0E022116107E04FF04D
:10122000E021096921F004014FF0E02211617047CB
:101230000000FA050CED00E000E400E080E100E0D1
:1012400080FFFF1F10B50121C802FFF7C2FB00217C
:101250004FF40060FFF7BDFB10BD0021164A126875
:1012600022F4C0710143144A116070470021124AF0
:10127000126822F07F0100F07F0211430E4A1160D4
:10128000704701200D490860704700F07F010A4A4D
:10129000121F1160704740F08001074A121F116051
:1012A00070470548001D0068C0B270470020024921
:1012B000091D086070470000042C0040A48005420E
:1012C00001460020FE4A106800F038000843106014
:1012D0007047FB49096821F00801F94A116011467D
:1012E0000968014311607047F549096821F0100150
:1012F000F34A116011460968014311607047F148D3
:10130000EF494860F04848607047EE48EC49486053
:10131000ED4848607047EA48006940F08000E849BD
:1013200008617047E648006940F08000E4490861C0
:1013300070470420E249C96811F0010F01D0012073
:101340000EE0DF49C96811F0040F01D0022007E068
:10135000DB49C96811F0100F01D0032000E0042020
:10136000704700B502460423FFF7E3FF034603E09E
:10137000FFF7DFFF0346521E012B01D1002AF7D1F0
:1013800002B90523184600BD30B5044604254FF4C4
:101390003020FFF7E6FF0546042D17D1C848006945
:1013A00040F00200C649086108464461006940F007
:1013B000400008614FF43020FFF7D3FF0546C048D6
:1013C000006941F6FD710840BD490861284630BDFD
:1013D00010B504244FF43020FFF7C3FF0446042C5B
:1013E00016D1B748006940F00400B54908610846C5
:1013F000006940F0400008614FF43020FFF7B1FF72
:101400000446AF48006941F6FB710840AC490861E9
:10141000204610BD00B502460423FFF78AFF0346AD
:1014200003E0FFF786FF0346521E012B01D1002A7D
:10143000F7D102B90523184600BD10B504244FF4B6
:101440003020FFF7E7FF0446042C16D19C480069C2
:1014500040F004009A4908610846006940F04000E5
:1014600008614FF43020FFF7D5FF04469448006927
:1014700041F6FB71084092490861204610BD0020EA
:101480008F49C96911F0020F01D0012000E000204E
:10149000704730B5A5250424FFF7F1FF00B1002502
:1014A0004FF43020FFF75DFF0446042C3AD1854805
:1014B00083498860844888600846006940F02000BD
:1014C00008610846006940F0400008614FF4302090
:1014D000FFF747FF0446042C1BD17948006941F609
:1014E000DF710840764908610846006940F0100045
:1014F000086176480580E002FFF733FF0446052CBB
:1015000010D06F48006941F6EF7108406C490861DE
:1015100008E0052C06D06A48006941F6EF710840E2
:1015200067490861204630BDF0B504460D460426E3
:101530000027F002FFF715FF0646042E22D160486F
:10154000006940F001005E4908612580F002FFF764
:1015500008FF0646042E0ED1A71C280C3880F00286
:10156000FFF7FFFE06465648006941F6FE71084047
:101570005349086106E05248006941F6FE7108408F
:101580004F4908613046F0BD70B504460D4604264B
:10159000F002FFF7E6FE0646042E11D14848006926
:1015A00040F00100464908612580F002FFF7D9FEAE
:1015B00006464348006941F6FE710840404908610B
:1015C000304670BD70B505460E460424E002FFF7B4
:1015D000C8FE0446042C17D13A48394988603A4875
:1015E00088600846006940F0100008612E80E00223
:1015F000FFF7B7FE0446052C06D03148006941F6D6
:10160000EF7108402E490861204670BD2DE9F04376
:1016100004464FF6FF763746B046B1460425E4430C
:10162000E6B2C4F30727C4F307484FEA1469E80297
:10163000FFF797FE0546042D40D1224820498860D7
:10164000214888600846006940F010000861FF2EBC
:1016500006D01E4808300680E802FFF782FE0546E5
:10166000042D08D1FF2F06D018480A300780E80261
:10167000FFF777FE0546042D0AD1B8F1FF0F07D01A
:1016800012480C30A0F80080E802FFF76AFE054619
:10169000042D0AD1B9F1FF0F07D00C480E30A0F885
:1016A0000090E802FFF75DFE0546052D06D00448D0
:1016B000006941F6EF71084001490861284607E0DA
:1016C0000020024023016745AB89EFCD00F8FF1FE2
:1016D000BDE8F08330B5054604244FF43020FFF711
:1016E00040FE0446042C41D15E485F4988605F4853
:1016F00088600846006940F02000086108460069DB
:1017000040F0400008614FF43020FFF72AFE044605
:10171000042C22D15448006941F6DF710840524937
:1017200008610846006940F0100008611DB1002002
:101730004F49088002E0A5204D4908804FF4302031
:10174000FFF70FFE0446052C10D04748006941F60C
:10175000EF7108404449086108E0052C06D0424872
:10176000006941F6DF7108403F490861204630BDFD
:10177000F0B505460E46174604243A483A498860B3
:101780003A488860E002FFF7ECFD0446042C19D1CA
:101790003548006940F010003349086147F0F8000F
:1017A000304328433249891C0880E002FFF7D9FD05
:1017B0000446052C06D02C48006941F6EF7108401C
:1017C000294908612046F0BD2748C0698008704754
:1017D0002548006A704700202349096811F0200F4E
:1017E00001D0012000E00020704729B11E4A126993
:1017F00002431D4B1A6104E01B4A126982431A4BD3
:101800001A61704701460020012908D1164AD269A1
:1018100012F0010F01D0012008E0002006E0124A7A
:10182000D2680A4201D0012000E0002070470E4932
:10183000C860704704200C49C96811F0010F01D03D
:1018400001200EE00849C96811F0040F01D0022000
:1018500007E00549C96811F0100F01D0032000E02E
:10186000042070472301674500200240AB89EFCD7B
:1018700000F8FF1F0648804706480047FEE7FEE7DE
:10188000FEE7FEE7FEE7FEE7FEE7FEE7FEE7FEE730
:10189000610200083101000810B5FEF70DFF4FF49A
:1018A0008030FEF729FFFEF766FF044600BF002CDC
:1018B000FDD00020FEF7A1FF0020FEF7A7FF0020CB
:1018C000FEF7ADFF4FF4E0114FF48030FEF778FFE4
:1018D0000120FEF781FF00BF3920FEF730FF00280E
:1018E000FAD00220FEF77BFF00BFFEF781FF082839
:1018F000FBD10020FEF761FF01210420FFF742F831
:1019000001210820FFF73EF801211020FFF73AF8E7
:1019100001212020FFF736F801214020FFF732F89F
:1019200001210846FFF72EF810BD10B5002000F089
:10193000F8F80420FFF768FC002000F0D7F842F226
:10194000283000F0CFF810BD10B586B004464FF433
:101950000070ADF8140003208DF8160018208DF8E3
:10196000170005A95B48FEF75BFD4FF48060ADF8FA
:10197000140004208DF8170005A95648FEF750FD05
:1019800001218803FEF7FEFF01940020ADF8080056
:10199000ADF80A00ADF80C00ADF810000C20ADF861
:1019A0000E0001A94C48FFF71EFA01214A48FFF733
:1019B000A6FA06B010BD70B504460D464021464853
:1019C000FFF785FBA1B24448FFF706FB00BF4021AB
:1019D0004148FFF76FFB0028F9D0204670BD70B575
:1019E0000446002000F082F8012000F07FF807E0B4
:1019F000002503E0102000F0ABF80546002DF9D0DB
:101A00002000A4F10104F3D1801E00F06FF870BD36
:101A100000B587B0E020ADF8180018208DF81B0045
:101A200003208DF81A0006A92A48FEF7F9FC0121C7
:101A30000803FEF7A7FF00212848FFF7D6F800208B
:101A4000ADF804004FF48270ADF806000020ADF848
:101A50000800ADF80A00ADF80C004FF40070ADF8C6
:101A60000E000020ADF81000ADF812000720ADF810
:101A7000140001A91A48FFF713F801211848FFF7CD
:101A8000B4F807B000BD10B5044600BF02211448E9
:101A9000FFF72FF90028F9D021461148FFF7D6F8B3
:101AA00010BD10B500BF02210D48FFF722F9002834
:101AB000F9D000210A48FFF7C9F800BF0121084802
:101AC000FFF717F90028F9D00548FFF7C1F8C0B2B1
:101AD00010BD0000000801400038014000380040FF
:101AE000003001404FF0E02148617047012808D1E3
:101AF0004FF0E021096941F001014FF0E02211614E
:101B00000EE0811C08D14FF0E021096921F00101AC
:101B10004FF0E022116103E000214FF0E0229161DB
:101B2000704740B14FF0E021096941F002014FF0E8
:101B3000E022116107E04FF0E021096921F0020184
:101B40004FF0E022116170474FF0E020806970474C
:101B500010B50146002200230020CB10022B03D138
:101B60004FF0E024226902E04FF0E024E269012412
:101B70008C40144201D0012000E0002010BD000084
:101B800010B5FEF799FD4FF48030FEF7B5FDFEF776
:101B9000F2FD4749087008460078012826D1002048
:101BA000FEF72BFE0020FEF73AFE4FF48060FEF7B2
:101BB0002DFE0220FFF784FB1020FFF795FB4FF46A
:101BC000E0114FF48030FEF7FBFD0120FEF704FE2C
:101BD00000BF3920FEF7B3FD0028FAD00220FEF73F
:101BE000FEFD00BFFEF704FE0828FBD101210C20FA
:101BF000FEF7C8FE01213020FEF7C4FE0121C020FF
:101C0000FEF7C0FE012140F20110FEF7BBFE10BD41
:101C100008B54020ADF8000003208DF80200142024
:101C20008DF8030069462348FEF7FAFB8020ADF8E3
:101C3000000003208DF8020014208DF8030069468F
:101C40001C48FEF7EDFB08BD08B54FF4E060FFF758
:101C50008BFA00208DF800008DF801006846FFF730
:101C600088FA08BD10B50121C802FEF798FE4FF4AE
:101C7000C070FFF7F2FA4120FFF7F8FA5020FFF7A3
:101C80000AFBFFF713FBFFF7FCFA10BD10B550205D
:101C9000FFF7FBFAFFF70AFB10BD10B5FFF7FCFDDD
:101CA0004FF41650FFF750FEFFF7B2FF10BD0000D3
:101CB00028000020000C014041F2883000E0401E66
:101CC0000028FCD1704710B504462146F948FFF7BB
:101CD00083F900BF4021F748FFF7ECF90028F9D05D
:101CE00010BD70B506460C46154600F0A4FA08B9BA
:101CF000002070BD304600F038FB00F00FFB18B933
:101D000000F0C3FA0020F4E7204600F02EFB00F0BC
:101D100005FB284600F029FB00F000FB00F0B5FAB7
:101D2000FFF7CAFF0120E4E770B504460D4600F056
:101D300082FA08B9002070BD204600F016FB00F0C2
:101D4000EDFA30B900F0A1FA0120DB49087000205B
:101D5000F1E7284600F009FB00F0E0FA00F06BFA2A
:101D6000611CC8B200F001FB00F0D8FA00F025FBBE
:101D7000064600F0BBFA00F088FA3046DBE710B503
:101D800000226B21D020FFF7ACFF07221921D020C1
:101D9000FFF7A7FF06221A21D020FFF7A2FF182283
:101DA0001B21D020FFF79DFF01221C21D020FFF72F
:101DB00098FF10BD2DE9F0474421D020FFF7B4FF74
:101DC000BE4908704321D020FFF7AEFFBB494870E1
:101DD00008460078497840EA012000B2B8490880F6
:101DE0000846B0F9000000F027FC06464FF06632C6
:101DF000B44B00F0B2FB044600F048FC00B2B0491E
:101E000008804621D020FFF78FFFAC49887045211C
:101E1000D020FFF789FFA949C87008468078C978A3
:101E200040EA012000B2A84908800846B0F9000045
:101E300000F002FC06464FF06632A24B00F08DFB2C
:101E4000044600F023FC00B29F4908804821D020BE
:101E5000FFF76AFF994908714721D020FFF764FF17
:101E60009649487108460079497940EA012000B254
:101E7000964908800846B0F9000000F0DDFB0646F0
:101E80004FF066328F4B00F068FB044600F0FEFB1B
:101E900000B28E4908804221D020FFF745FF8749D4
:101EA00088714121D020FFF73FFF8449C87108465F
:101EB0008079C97940EA012000B285490880084646
:101EC000B0F9000043F29031084400F0B5FB8046C1
:101ED0000022804B00F041FB064600227E4B00F0C2
:101EE00095FA044600F0D2FB00B279490880B1F9B6
:101EF0000010A1F1200000F09FFB0746774A784BC5
:101F000000F02BFB054600F0E0FB044600F0A5FBCB
:101F100000B26F490880BDE8F0872DE9F047442101
:101F2000D020FFF701FF654908704321D020FFF75B
:101F3000FBFE6249487008460078497840EA012073
:101F400000B2684908800846B0F9000000F074FB50
:101F500006464FF066325B4B00F0FFFA044600F095
:101F600095FB00B25F4908804621D020FFF7DCFED8
:101F7000524988704521D020FFF7D6FE4F49C870DE
:101F800008468078C97840EA012000B256490880A6
:101F90000846B0F9000000F04FFB06464FF06632ED
:101FA000484B00F0DAFA044600F070FB00B24E49EC
:101FB00008804821D020FFF7B7FE4049087147212B
:101FC000D020FFF7B1FE3D494871084600794979B4
:101FD00040EA012000B2454908800846B0F90000F7
:101FE00000F02AFB06464FF06632364B00F0B5FA99
:101FF000044600F04BFB00B23C4908804221D0204F
:10200000FFF792FE2D4988714121D020FFF78CFE09
:102010002A49C87108468079C97940EA012000B28E
:102020002B4908800846B0F9000043F2903108447B
:1020300000F002FB80460022264B00F08EFA064696
:102040000022254B00F0E2F9044600F01FFB00B22D
:102050001F490880B1F90010A1F1200000F0ECFA4E
:1020600007461E4A1E4B00F078FA054600F02DFB8D
:10207000044600F0F2FA00B215490880BDE8F08786
:1020800070B50546284600F015FC3A20FFF71BFE08
:10209000002405E01649085DFFF715FE601CC4B278
:1020A000042CF7DB2020FFF70EFE2020FFF70BFEAD
:1020B00070BD0000003801402A00002044000020CC
:1020C0003600002066663040380000203A000020CC
:1020D0003C0000200080714000804140CDCCCCCC41
:1020E000CCCCFC3F30000020320000203400002027
:1020F0002B00002010B5FFF75DFE2848B0F9001056
:10210000274800F067F827A0FFF7BAFF2848B0F982
:102110000010234800F05EF826A0FFF7B1FF264824
:10212000B0F900101E4800F055F824A0FFF7A8FFF2
:102130002348B0F900101A4800F04CF821A0FFF72E
:102140009FFFFFF7EAFE1548B0F90010144800F0B1
:1021500041F81DA0FFF794FF1548B0F90010104892
:1021600000F038F813A0FFF78BFF1348B0F9001008
:102170000B4800F02FF811A0FFF782FF1048B0F9CC
:102180000010074800F026F80EA0FFF779FF0D2099
:10219000FFF799FD0A20FFF796FD10BD30000020E3
:1021A0002B00002058E58AA0E9809FE5BAA6000030
:1021B0003200002059000000340000205A000000C6
:1021C0003C0000205400000058E8A792E9809FE5F9
:1021D000BAA60000002904DA4A4211B22D22027088
:1021E00001E020220270642291FBF2F23032D3B27D
:1021F000421C10461370642291FBF2F302FB131190
:102200000A2291FBF2F23032D3B2421C1046137014
:102210000A2291FBF2F302FB131101F13002D3B257
:10222000421C1046137070471E2001E0411EC8B2C8
:102230000028FBD1704700B580207349086040201A
:102240000860FFF7F1FF70480838006808B90120FE
:1022500000E0002010F0800F01D0002000BD8020A1
:102260006949091D0860FFF7DFFF67480838006803
:1022700010F0800F01D00020F0E780206249091D96
:102280000860FFF7D1FF0120E8E700B540205E4974
:10229000091D0860FFF7C8FF80205B49091D086021
:1022A000FFF7C2FF402058490860FFF7BDFF8020BC
:1022B00055490860FFF7B8FF00BD00B540205249FE
:1022C000091D0860FFF7B0FF80204F49091D086015
:1022D000FFF7AAFF40204C490860FFF7A5FF402008
:1022E0004949091D0860FFF79FFF00BD00B5402068
:1022F0004549091D0860FFF797FF802042490860A3
:10230000FFF792FF402040490860FFF78DFF402013
:102310003D49091D0860FFF787FF00BD00B540205B
:102320003949091D0860FFF77FFF802036490860A2
:10233000FFF77AFF402034490860FFF775FF324805
:102340000838006810F0800F07D040202E49091D82
:102350000860FFF769FF002000BD40202A49091DE1
:102360000860FFF761FF0120F6E700B50246082389
:1023700019E040202449091D0860FFF755FF12F0BD
:10238000800F03D080202049086003E080201E4990
:10239000091D08605006020EFFF746FF40201A494B
:1023A0000860FFF741FF1800A3F10101CBB2E0D1B3
:1023B00040201549091D086000BD00B50823002212
:1023C00080201149086014E05006020E40200E499A
:1023D000091D0860FFF728FF40200B490860FFF740
:1023E00023FF09480838006810F0800F01D042F040
:1023F00001021800A3F10101CBB2E5D1402002494E
:10240000091D0860104600BD100C01402DE9FE4F6B
:10241000804681EA0300C00F0C46009021F0004185
:1024200023F00045B8EB0200A94105D24046214601
:1024300090461C460B46024623F00040104304D150
:102440004046214603B0BDE8F08F270DC7F30A00D0
:10245000C3F30A510290401A0190402866DAC3F390
:10246000130040F4801B0098924620B10023D2EB69
:10247000030A63EB0B0B01985946C0F1400250462A
:1024800000F03FF906460D4650465946019A00F0C5
:1024900057F910EB08006141002487EA115284EAE1
:1024A000E7731A433BD0009A3AB3019A012A4FEAE4
:1024B000075210DC001B61EB02014FF0004202EA00
:1024C0000752CDE90042001C41F5801132462B46EF
:1024D00000F08BF9B6E7001B61EB0201001C41F52F
:1024E000801300185B412018A2F5001747EB030189
:1024F00040EAD570B6196D4111E06D084FEA360615
:1025000045EAC0754FEA0752001B61EB0201001C4F
:1025100041F5801149084FEA300000195141324617
:102520002B4603B0BDE8F04F00F052B900980122ED
:1025300040000023D0EB020263EBE07300982146D9
:102540004FEAE074B8EB000061EB0401E9E783F0C7
:1025500000435BE781F0004158E72DE9F04D81EA47
:10256000030404F0004B21F0004514464FF0000A2C
:1025700023F0004150EA050220D054EA01021DD0A8
:10258000C5F30A570246C5F31303C1F31300C1F3A1
:102590000A5640F4801543F48013A7EB0608101B7D
:1025A000D64608F2FD3873EB050002D308F10108A6
:1025B00001E092185B41B8F1000F03DA00200146F8
:1025C000BDE8F08D00204FF48011064684460EE0F1
:1025D000171B73EB050705D3121B63EB05030643BB
:1025E0004CEA010C49084FEA300092185B4150EA6E
:1025F0000107EDD152EA030012D082EA040083EA17
:102600000501084303D100224FF0004308E0101BEE
:10261000AB4102D20122002302E06FF0010253100D
:102620001AEB06004CEB085110EB0A0041EB0B01D2
:10263000BDE8F04D00F0CCB80EB5C10F80EAE070F7
:102640000844CA07002140F233438DE80E000A46D1
:102650000B4600F0CAF803B000BD00F0004220F0C5
:102660000040C10DC0F3160040F400007F2901DADC
:1026700000207047962903DCC1F19601C84001E0B3
:1026800096398840002AF4D04042704770B5C1F3B3
:102690000A5201F000450024C1F3130140F2FF3358
:1026A00041F480119A4201DA002070BD40F23343B8
:1026B0009A42A2F2334203DC524200F031F800E0C9
:1026C00090402C43F1D0404270BD01F0004330B443
:1026D00021F0004150EA010206D00A0DA2F5607215
:1026E000C1F31301002A02DC30BC00207047440F04
:1026F00044EAC104C100E01830BC00EBC25000F055
:1027000031B8202A04DB203A00FA02F10020704799
:102710009140C2F1200320FA03F31943904070471F
:10272000202A04DB203A21FA02F00021704721FA26
:1027300002F3D040C2F1200291400843194670478D
:10274000202A06DBCB17203A41FA02F043EAE07375
:1027500006E041FA02F3D040C2F120029140084362
:10276000194670470029A8BF7047401C490008BFA0
:1027700020F00100704710B4B0FA80FC00FA0CF0B1
:1027800050EA010404BF10BC704749B1CCF12004E9
:1027900021FA04F411FA0CF118BF01212143084376
:1027A000A3EB0C01CB1D0106000A002BBEBF0020CD
:1027B00010BC704700EBC35010440029A4BF10BCEC
:1027C0007047401C490008BF20F0010010BC704752
:1027D00010B5002B08DA401C41F1000192185B4152
:1027E0001A4301D120F0010010BD2DE9F04D9246B1
:1027F0009B4611B1B1FA81F202E0B0FA80F22032C8
:102800009046FFF77EFF04460F4640EA0A0041EA81
:102810000B0153465A46084303D120463946BDE8CA
:10282000F08D114653EA010015D0C8F14002504620
:10283000FFF776FF05460E46504659464246FFF7DB
:1028400060FF084301D0012000E00020054346EA74
:10285000E0762C4337430A984FEA4453A0EB080034
:102860004FEAD4240A304FF0000244EA47544FEABA
:10287000D72502D500200146D1E70105101969418D
:10288000DDE9084500196941BDE8F04DA0E7000009
:10289000064C074D06E0E06840F0010394E80700AD
:1028A00098471034AC42F6D3FDF746FC04290008E3
:1028B00024290008014A024900F013B8B71900089A
:1028C0004000002002E008C8121F08C1002AFAD107
:1028D00070477047002001E001C1121F002AFBD1A0
:1028E00070472DE9F04116460F460446002503E0E7
:1028F0003946B0476D1C641C20780028F8D1284662
:10290000BDE8F081242900080000002044000000F8
:10291000C428000868290008440000200C040000B6
:10292000D428000800A24A040000000000000000B3
:102930000102030406070809000000000102030465
:10294000010203040607080902040608000000004B
:102950000000000000000000000000000000000077
:0829600000000000000000006F
:0400000508000131BD
:00000001FF
