:020000040800F2
:1000000030040020511100085B0200085D02000866
:100010006102000865020008690200080000000093
:100020000000000000000000000000006D02000859
:100030006F0200080000000071020008730200084F
:100040006B1100086B1100086B1100086B110008A0
:100050006B1100086B1100086B1100080902000801
:100060006B1100086B1100086B1100086B11000880
:100070006B1100086B1100086B1100086B11000870
:100080006B1100086B1100086B1100086B11000860
:100090006B1100086B1100086B1100086B11000850
:1000A0006B1100086B1100086B1100086B11000840
:1000B0006B1100086B1100086B1100086B11000830
:1000C0006B1100086B1100086B1100086B11000820
:1000D0006B1100086B1100086B1100086B11000810
:1000E0006B1100086B1100086B1100086B11000800
:1000F0006B1100086B1100086B1100086B110008F0
:100100006B1100086B1100086B1100086B110008DF
:100110006B1100086B1100086B1100086B110008CF
:100120006B1100086B1100086B1100086B110008BF
:10013000DFF80CD001F060F9004800479D0100088D
:10014000300400201CB50121002000F0FBFA022041
:1001500000F0F5FF00208DF8040010208DF8050058
:100160000220009001208DF80600684600F070FF24
:100170001CBD08B54FF4A06000F0EEFE07208DF81E
:10018000000000208DF801008DF8020001208DF89C
:100190000300684600F0E5FE08BD704708B500F0B2
:1001A000E9FF01F030F84FF4165001F038F8FFF78E
:1001B000C9FFFFF7DEFF4FF48060ADF800001020AC
:1001C0008DF8030003208DF8020069460C4800F00A
:1001D000A5F90220ADF8000048208DF803000320A7
:1001E0008DF802006946074800F098F906E0022001
:1001F00000F07DFF4FF47A7001F078F8F7E7000027
:10020000000C01400008014010B51AA001F006F9E9
:100210000A2001F04FF84FF48061194800F01CFAF1
:1002200008B9012000E000200446214615A001F095
:10023000F5F84FF48061124800F00EFA08B9012079
:1002400000E00020044622464FF480610C4800F094
:1002500014FA022000F073FF10BD704700BFFEE7E4
:1002600000BFFEE700BFFEE700BFFEE77047704734
:10027000704770470ABDF8C8EBD6D0B6CF3500003E
:10028000000C01400A4750494F3130BFDAD6C32530
:100290006400000000210020674A126842F48032A6
:1002A000654B1A6000BF644A126802F40030491CB2
:1002B00010B9B1F5A06FF6D15F4A126812F4003F91
:1002C00001D0012000E00020012842D15B4A1268E1
:1002D00042F01002594B1A601A46126822F00302CB
:1002E0001A601A46126842F002021A60524A5268B4
:1002F000514B5A601A4652685A601A46526842F484
:1003000080625A601A46526822F47C125A601A4679
:10031000526842F4E8125A601A46126842F080723B
:100320001A6000BF444A126812F0007FFAD0424AB5
:10033000526822F00302404B5A601A46526842F05B
:1003400002025A6000BF3C4A526802F00C02082ABE
:10035000F9D1704710B5FFF79DFF10BD10B53648B5
:10036000006840F00100344908600846406834499C
:1003700008403149486008460068324908402E4923
:1003800008600846006820F480200860084640683D
:1003900020F4FE0048604FF41F008860FFF7DAFF8A
:1003A0004FF000602849086010BD10B50021002002
:1003B0000022214B5B6803F00C0121B1042906D017
:1003C000082928D107E0214B214C236027E01F4B4F
:1003D0001F4C236023E0184B5B6803F47010164B2E
:1003E0005B6803F48032022303EB904022B9194B7F
:1003F0004343174C23600DE00F4B5B6813F4003F41
:1004000004D0144B4343124C236003E00F4B43438F
:100410000F4C236003E00D4B0D4C236000BF00BF69
:10042000054B5B68C3F303130B4CE15C084B1B6883
:10043000CB40074C236010BD00100240002002405A
:100440000000FFF8FFFFF6FE08ED00E000127A0062
:100450000000002000093D000400002010B5044603
:10046000CA48844208D10121042000F023FB002166
:10047000042000F01FFB46E0C548844208D101215A
:10048000082000F017FB0021082000F013FB3AE0E1
:10049000C048844208D10121102000F00BFB00214C
:1004A000102000F007FB2EE0BB48844208D1012158
:1004B000202000F0FFFA0021202000F0FBFA22E0CB
:1004C000B648844208D10121402000F0F3FA00210F
:1004D000402000F0EFFA16E0B148844208D1012133
:1004E000802000F0E7FA0021802000F0E3FA0AE023
:1004F000AC48844207D10121801500F0DBFA0021CD
:10050000A01500F0D7FA10BD10B50121084600F083
:10051000D1FA0021012000F0CDFA10BD2DE9F04103
:10052000024600250026002000230024002791F821
:1005300003C00CF00F0591F803C01CF0100F03D09E
:1005400091F802C04CEA050591F800C0BCF1000F1B
:1005500031D0146800202BE04FF0010C0CFA00F3AE
:10056000B1F800C00CEA03069E4220D183004FF090
:100570000F0C0CFA03F7BC4305FA03FC4CEA040425
:1005800091F803C0BCF1280F06D14FF0010C0CFA12
:1005900000FCC2F814C00AE091F803C0BCF1480F97
:1005A00005D14FF0010C0CFA00FCC2F810C0401C41
:1005B0000828D1D31460B1F800C0BCF1FF0F34DDBE
:1005C000546800202EE000F1080C4FF0010808FAF2
:1005D0000CF3B1F800C00CEA03069E4221D183005F
:1005E0004FF00F0C0CFA03F7BC4305FA03FC4CEA7E
:1005F000040491F803C0BCF1280F05D100F1080CE8
:1006000008FA0CF8C2F8148091F803C0BCF1480F46
:1006100007D100F1080C4FF0010808FA0CF8C2F8F5
:100620001080401C0828CED35460BDE8F0814FF6FE
:10063000FF710180022181700421C1707047024660
:10064000002093680B4201D0012000E00020704799
:100650000146886880B2704702460020D3680B428A
:1006600001D0012000E0002070470146C86880B238
:10067000704701617047416170470AB1016100E054
:1006800041617047C16070474FF480320A43826114
:100690008161826182698269704702460020424B13
:1006A00018684FF68073184040EA021008433E4B2A
:1006B000186070473D49C8617047F0B50A4600238D
:1006C00000240021002500F00046B6F1004F02D1C1
:1006D000354EF16901E0344E7168C0F3034583B2D1
:1006E00000F44016B6F5401F08D121F070612E4E7F
:1006F000766826F070662C4F7E6012E000F480165B
:10070000B6F5801F06D1032606FA05F4A14341F091
:10071000706106E0460D360103FA06F6B14341F07A
:10072000706122B1460D360103FA06F6314300F03E
:100730000046B6F1004F02D11B4EF16101E01A4EA6
:100740007160F0BD30B500228B071C0F0F2303FA38
:1007500004F2154B08338C1053F824309343124C99
:1007600008348D1044F8253023468C1053F824307B
:100770008C07240F00FA04F423430B4C08348D102B
:1007800044F8253030BD0A49086070470008014030
:10079000000C01400010014000140140001801400D
:1007A000001C0140002001400000014000002042E8
:1007B000DC002042DB48006840F00100D9490860B5
:1007C00008464068D8490840D6494860084600684D
:1007D000D6490840D34908600846006820F48020C4
:1007E00008600846406820F4FE0048604FF41F008F
:1007F00088607047CB49096821F48031C94A11608B
:100800001146096821F480211160B0F5803F03D0C2
:10081000B0F5802F0ED106E0C249096841F480315D
:10082000C04A116007E0BF49096841F4A021BD4AF0
:10083000116000E000BF00BF704710B50146002204
:10084000002300204A11012A02D1B64C236806E099
:10085000022A02D1B34C236A01E0B24C636A01F070
:100860001F02012494401C4201D0012000E000201E
:1008700010BD70B500240025002600BF3120FFF711
:10088000DCFF0646641CB4F5A06F01D0002EF5D045
:100890003120FFF7D2FF08B1012500E000252846EE
:1008A00070BD014600209F4A106820F0F80040EA21
:1008B000C100106070479E490860704702460020E2
:1008C000984B586820F47C1042EA01031843954B7A
:1008D0005860704796490866704701460020914A63
:1008E000506820F003000843506070478D4840680E
:1008F00000F00C007047014600208A4A506820F042
:10090000F00008435060704701460020854A506857
:1009100020F4E06008435060704701460020814A9F
:10092000506820F4605040EAC1005060704729B11F
:100930007C4A527A02437B4B5A7204E0794A527ADB
:100940008243784B5A7270477A4908607047014673
:100950000020744A506820F44040084350607047BB
:100960000021754A11706F4A82F82010012802D0C8
:10097000042808D103E001216F4A117004E0052129
:100980006D4A117000E000BF00BF70476B490860FE
:1009900070476449096A0143624A116270476749B6
:1009A00044390860704730B500210022002400233C
:1009B0005C4D6D6805F00C0121B1042905D00829B2
:1009C00023D105E05E4D056022E05D4D05601FE02E
:1009D000544D6D6805F47012524D6D6805F4803405
:1009E000022505EB92421CB9564D554305600BE0BC
:1009F0004C4D6D6815F4003F03D0524D55430560D2
:100A000002E04F4D5543056002E04D4D056000BFCB
:100A100000BF444D6D6805F0F00109094A4D6B5C5B
:100A20000568DD4045603F4D6D6805F4E061090AE9
:100A3000454D6B5C4568DD4085603A4D6D6805F459
:100A40006051C90A404D6B5C4568DD40C560354D5D
:100A50006D6805F44041890B3C4D6B5CC568B5FB86
:100A6000F3F5056130BD29B12E4A526902432D4B81
:100A70005A6104E02B4A526982432A4B5A617047FB
:100A800029B1284A92690243264B9A6104E0254A1B
:100A900092698243234B9A61704729B1214AD269F6
:100AA0000243204BDA6104E01E4AD26982431D4BA7
:100AB000DA61704729B11B4AD2680243194BDA60E8
:100AC00004E0184AD2688243164BDA60704729B1B5
:100AD000144A12690243134B1A6104E0114A126965
:100AE0008243104B1A6170471449403908607047BF
:100AF0000F49C86470470B49C87170470948406A7C
:100B000040F0807007494862704701460020054A5E
:100B100092680A4201D0012000E00020704701499C
:100B200088727047001002400000FFF8FFFFF6FED9
:100B300000004242D800424220100240800442425B
:100B400000127A0000093D0014000020240000205B
:100B500010B50446FB48844209D101218803FFF700
:100B6000A9FF00214FF48040FFF7A4FF32E0F648D0
:100B7000844209D101214804FFF7A9FF00214FF465
:100B80000030FFF7A4FF25E0F048844209D101219D
:100B90008804FFF79CFF00214FF48020FFF797FFA8
:100BA00018E0EB48844209D10121C804FFF78FFF08
:100BB00000214FF40020FFF78AFF0BE0E548844254
:100BC00008D101210805FFF782FF00214FF48010B2
:100BD000FFF77DFF10BD2DE9F04786B005460E46B4
:100BE0000024A24600BFA1460027B08900B100BF83
:100BF0002F462C8A4CF6FF700440F08804432C8268
:100C0000AC894EF6F3100440B088318908437189ED
:100C100008430443AC81AC8A4FF6FF400440B089DE
:100C20000443AC8201A8FFF7BEFEC648874202D14A
:100C3000DDF810A001E0DDF80CA0A88910F4004F49
:100C400008D00AEBCA0000EB0A1031684900B0FB7B
:100C5000F1F807E00AEBCA0000EB0A1031688900DE
:100C6000B0FBF1F86420B8FBF0F004012009642126
:100C700001FB1089A88910F4004F08D0322000EB46
:100C8000C900B0FBF1F000F00700044308E0322097
:100C900000EB09106421B0FBF1F000F00F000443F9
:100CA0002C8106B0BDE8F0874FF416510160002199
:100CB0008180C18001810C214181002181817047A7
:100CC00010B502460020108A4FF2FF0318400B882F
:100CD0004C8823438C882343CC88234318431082B9
:100CE00010BD0021018041808180C180704721B109
:100CF000828942F40052828104E082894DF6FF73BA
:100D00001A4082817047F0B5034600240026002572
:100D10000020A1F510676A3F00D100BF1846C1F35B
:100D2000421401F01F06012707FA06F5012C01D134
:100D30000C3004E0022C01D1103000E014301AB164
:100D400007682F43076002E00768AF430760F0BD04
:100D50001AB1838A0B43838202E0838A8B438382A6
:100D60007047028A4FF6F0731A400282028A0A43E1
:100D70000282704782894FF2FF731A408281828912
:100D80000A438281704721B1828942F00202828146
:100D900004E082894FF6FD731A4082817047028A0F
:100DA0004FF6DF731A400282028A0A4302827047BA
:100DB00021B1028A42F48042028204E0028A4BF6A8
:100DC000FF731A4002827047C1F3080282807047A5
:100DD00001468888C0F308007047818941F001010D
:100DE00081817047028BD2B20283028B42EA0122D8
:100DF00002837047028B02F47F420283028B0A4314
:100E00000283704721B1828A42F02002828204E08C
:100E1000828A4FF6DF731A408282704721B1828A3C
:100E200042F01002828204E0828A4FF6EF731A4089
:100E30008282704721B1828A42F00802828204E0F5
:100E4000828A4FF6F7731A408282704721B18289F5
:100E500042F40042828103E08289C2F30E02828161
:100E6000704721B1828A42F40062828204E0828A61
:100E70004FF2FF731A4082827047828A4FF6FB73EB
:100E80001A408282828A0A438282704721B1828A12
:100E900042F00202828204E0828A4FF6FD731A4019
:100EA0008282704702460020B1F5007F00D100BF6A
:100EB00013880B4201D0012000E00020704701F4AC
:100EC0000072B2F5007F00D100BFCA4302807047B4
:100ED00070B502460024002300250020A1F510660D
:100EE0006A3E00D100BFC1F3421501F01F03012685
:100EF00006FA03F3012D02D19689334006E0022D54
:100F000002D1168A334001E0968A33400C12012642
:100F100006FA04F41688344013B10CB1012000E045
:100F2000002070BD10B500220023A1F510646A3CBA
:100F300000D100BF0A1201249440A3B2DC43048014
:100F400010BD00000038014000440040004800404F
:100F5000004C00400050004031490143314A1160CB
:100F6000704770B5002100230F22C4780CB32D4CBC
:100F7000246804F4E064C4F5E064210AC1F10403C8
:100F8000CA40447804FA03F18478144021430901EB
:100F9000254C0678A155047804F01F050124AC40C7
:100FA00005786D114FF0E02606EB8505C5F8004188
:100FB00009E0047804F01F050124AC401B4D0678BD
:100FC000761145F8264070BD194A0A400243154B78
:100FD0001B1F1A60704739B1124A121D1268024372
:100FE000104B1B1D1A6006E00E4A121D1268824348
:100FF0000C4B1B1D1A607047042808D14FF0E021EC
:10100000096941F004014FF0E022116107E04FF05F
:10101000E021096921F004014FF0E02211617047DD
:101020000000FA050CED00E000E400E080E100E0E3
:1010300080FFFF1F002044490860091D0860091D4A
:101040000860091D086041483F4914310860704735
:1010500000213D498279002A3AD00A461268036885
:101060009A430B461A600A1D126803689A430B1DC7
:101070001A60027911440A6803681A430A60324A06
:101080000832126803689A432F4B08331A601A1DFE
:10109000126803689A432C4B0C331A604279102A69
:1010A0000ED11A1F126803681A43274B08331A60BF
:1010B0001A1D126803681A43234B0C331A600DE0A3
:1010C0002149427911440A6803681A430A6005E01D
:1010D000027911440A6803689A430A607047002144
:1010E000016001710C214171002181717047164925
:1010F000103109680143144A1032116070470146EB
:101100000020114A143212680A4201D0012000E086
:10111000002070470C4914310860704701460020D8
:101120000022094B1B6803EA0102074B14331B68BA
:101130000B4202D00AB1012000E0002070470249B2
:10114000143108607047000000040140FFFF0F00E9
:101150000648804706480047FEE7FEE7FEE7FEE751
:10116000FEE7FEE7FEE7FEE7FEE7FEE75D030008B9
:101170003101000810B5FFF71DFB4FF48030FFF779
:1011800039FBFFF776FB044600BF002CFDD00020A2
:10119000FFF7B1FB0020FFF7B7FB0020FFF7BDFB17
:1011A0004FF4E0114FF48030FFF788FB0120FFF788
:1011B00091FB00BF3920FFF740FB0028FAD0022046
:1011C000FFF78BFB00BFFFF791FB0828FBD1002046
:1011D000FFF771FB01210420FFF752FC01210820D9
:1011E000FFF74EFC01211020FFF74AFC01212020CF
:1011F000FFF746FC01214020FFF742FC0121084691
:10120000FFF73EFC10BD10B5002000F0B0F86FF005
:101210000400FFF7F1FE002000F08EF810BD10B5BD
:1012200086B004464FF40070ADF8140003208DF82A
:10123000160018208DF8170005A93B48FFF76EF936
:101240004FF48060ADF8140004208DF8170005A954
:101250003548FFF763F901218803FFF711FC01947A
:101260000020ADF80800ADF80A00ADF80C00ADF8AC
:1012700010000C20ADF80E0001A92C48FFF7ABFCC4
:1012800001212A48FFF733FD06B010BD70B50446B2
:101290000D4640212548FFF712FEA1B22348FFF773
:1012A00093FD00BF40212148FFF7FCFD0028F9D045
:1012B000204670BD70B50446092000F039F80020C2
:1012C00000F03AF8012000F037F807E0002503E0CD
:1012D000102000F063F80546002DF9D02000A4F19D
:1012E0000104F3D1801E00F027F870BD70B50446EC
:1012F00042F2283000F01CF8002000F01DF8012018
:1013000000F01AF807E0002503E0102000F046F88E
:101310000546002DF9D02000A4F10104F3D1801E70
:1013200000F00AF870BD00000008014000380140DC
:101330004FF0E02148617047012808D14FF0E021CB
:10134000096941F001014FF0E02211610EE0811CBA
:1013500008D14FF0E021096921F001014FF0E022AE
:10136000116103E000214FF0E0229161704740B12C
:101370004FF0E021096941F002014FF0E0221161D4
:1013800007E04FF0E021096921F002014FF0E0226F
:10139000116170474FF0E0208069704710B5014639
:1013A000002200230020CB10022B03D14FF0E024B9
:1013B000226902E04FF0E024E26901248C401442EB
:1013C00001D0012000E0002010BD30B50B460146E1
:1013D00000202022012409E021FA02F59D4205D3D4
:1013E00003FA02F5491B04FA02F52844151EA2F17E
:1013F0000102F1DC30BD0000064C074D06E0E0685C
:1014000040F0010394E8070098471034AC42F6D34B
:10141000FEF792FEB0150008D01500080FB4054B7A
:1014200010B503A9044A029800F018F810BC5DF842
:1014300014FB00008D1200082800002002E008C8FC
:10144000121F08C1002AFAD170477047002001E03E
:1014500001C1121F002AFBD1704700002DE9FF4F88
:1014600089B09A460446002597E0252833D1002705
:10147000641C4E49B84601222378203B02FA03F04F
:10148000084202D00743641CF6E720782E2819D1C1
:1014900014F8010F47F004072A280ED06FF02F022E
:1014A0002078A0F1300109290CD808EB880102EB63
:1014B000410100EB0108641CF2E70A98641C50F833
:1014C000048B0A90207800286BD0642808D0692803
:1014D00006D0752820D052460B9990476D1C5BE0D2
:1014E0000A994FF00A0901C90A91002804DAC0F1EB
:1014F00000004FF02D0102E0390504D52B218DF8B5
:101500002010012103E0F90704D02021F7E78B46E2
:1015100008AE0EE00021FAE70A994FF00A0901C966
:101520000A91F7E74946FFF750FF01F1300106F84D
:10153000011D0028F6D1ADEB060000F12009780767
:1015400001D44FF00108C84502DDA8EB090000E016
:1015500000208046002706E008A85246C05D0B998F
:1015600090476D1C7F1C5F45F6DB04E0302052463F
:101570000B9990476D1CB8F10001A8F10108F5DC4A
:1015800005E016F8010B52460B9990476D1CB9F116
:101590000001A9F10109F4DC641C207800287FF423
:1015A00064AF0DB02846BDE8F08F000009280100A7
:1015B000D0150008000000202C0000003C1400089A
:1015C000FC1500082C000020040400004C14000846
:1015D00000A24A0400000000000000000102030411
:1015E00006070809000000000102030401020304C9
:0C15F000060708090204060800000000BD
:0400000508000131BD
:00000001FF
