:020000040800F2
:10000000B0180020D92000082503000827030008A5
:100010002B0300082F030008330300080000000032
:10002000000000000000000000000000370300088E
:1000300039030008000000003B0300083D030008EE
:10004000F3200008F3200008F3200008F320000844
:10005000F3200008F3200008F3200008F320000834
:10006000F3200008F320000867030008F3200008CD
:10007000F3200008F3200008F3200008F320000814
:10008000F3200008F3200008F3200008F320000804
:10009000F3200008F3200008F32000087103000893
:1000A000F3200008F3200008F3200008F3200008E4
:1000B000F32000083F03000853030008F320000862
:1000C000F3200008F3200008F3200008F3200008C4
:1000D000F320000885030008F3200008F32000083F
:1000E000F3200008F3200008F3200008F3200008A4
:1000F000F3200008F3200008F3200008F320000894
:10010000F3200008F3200008F3200008F320000883
:10011000B5030008F3200008F3200008F3200008CE
:10012000F3200008F3200008F3200008F320000863
:10013000DFF80CD004F058FE00480047E501000845
:10014000B018002010B565480078C04363490870B6
:10015000084602784FF48061614800F044FB5F4834
:10016000027804215F4800F03EFB10BD70B55E4987
:100170000968D1F8C4005D4904F06BFA054604F043
:1001800085FC04B258480068234614220121D0F8A7
:10019000D45055480068A84755490968D1F8C400AB
:1001A000524904F056FA054604F070FC04B2504877
:1001B0000068234614220221D0F8D4504C4800682D
:1001C000A84749490968D1F8C400484904F041FAF0
:1001D000064604F0A7FC044622460B4645A004F060
:1001E00043FE70BD0EB502F0CAFA02F0A2FD02F0A5
:1001F00089FF03F072F902F067F802F019F904F0D0
:1002000010F93FA004F030FEC8230022114601A8D7
:1002100002F06EF901203D4B0090DDE9011202F081
:10022000FFFA00234FF4FA72194601A802F060F9B0
:100230000020AFF2EF0300900220DDE9011202F08E
:10024000EFFA3349087000230A22194601A802F088
:100250004FF900202F4B00900320DDE9011202F03E
:10026000DFFA00233222194601A802F041F90020EA
:10027000294B00900420DDE9011202F0D1FA00239D
:100280001A46052101A802F033F90020AFF223132A
:1002900000900520DDE9011202F0C2FA00231922C4
:1002A000194601A802F024F900201C4B00900620FA
:1002B000DDE9011202F0B4FA00231922194601A85F
:1002C00002F016F90020164B00900720DDE901121C
:1002D00002F0A6FA01E002F047FBFCE70100002073
:1002E000000C01400014014068000020000034436D
:1002F0006C00002073706565643A25660D0A000085
:100300006D61696E20646F6E650D0A00032D000833
:1003100000000020E5310008F5320008A33900088C
:10032000613F0008704700BFFEE700BFFEE700BF67
:10033000FEE700BFFEE7704770477047704710B593
:1003400001202849096808760121274801F032FE7A
:1003500010BD10B5012025490968087601212448FF
:1003600001F028FE10BD10B5102001F0ACFE10BD4C
:1003700010B5202001F096FE012802D1202001F0C6
:10038000A2FE10BD10B540F225511A4800F056FEED
:1003900078B12021174800F048FE164800F0CEFD45
:1003A0000446204602F00BFD40F22551114800F0B2
:1003B0006FFE10BD10B5002440F225510E4800F02C
:1003C0003DFE68B10C4800F0B9FDC4B221460B48AF
:1003D000006802F070FF40F22551074800F058FE17
:1003E00010BD000068000020000400406C000020E8
:1003F0000008004000380140004C00405C00002034
:1004000000210020674A126842F48032654B1A606E
:1004100000BF644A126802F40030491C10B9B1F5FB
:10042000A06FF6D15F4A126812F4003F01D001209C
:1004300000E00020012842D15B4A126842F010021D
:10044000594B1A601A46126822F003021A601A46C3
:10045000126842F002021A60524A5268514B5A60C6
:100460001A4652685A601A46526842F480625A60CC
:100470001A46526822F47C125A601A46526842F4B4
:10048000E8125A601A46126842F080721A6000BF81
:10049000444A126812F0007FFAD0424A526822F0B1
:1004A0000302404B5A601A46526842F002025A60F8
:1004B00000BF3C4A526802F00C02082AF9D170478A
:1004C00010B5FFF79DFF10BD10B53648006840F02D
:1004D0000100344908600846406834490840314901
:1004E000486008460068324908402E4908600846BE
:1004F000006820F4802008600846406820F4FE0070
:1005000048604FF41F008860FFF7DAFF4FF000608B
:100510002849086010BD10B5002100200022214BA1
:100520005B6803F00C0121B1042906D0082928D109
:1005300007E0214B214C236027E01F4B1F4C236019
:1005400023E0184B5B6803F47010164B5B6803F4F0
:100550008032022303EB904022B9194B4343174CDE
:1005600023600DE00F4B5B6813F4003F04D0144B85
:100570004343124C236003E00F4B43430F4C236073
:1005800003E00D4B0D4C236000BF00BF054B5B68C3
:10059000C3F303130B4CE15C084B1B68CB40074CC7
:1005A000236010BD00100240002002400000FFF850
:1005B000FFFFF6FE08ED00E000127A0004000020C4
:1005C00000093D000800002010B50446CA488442D6
:1005D00008D10121042000F023FB0021042000F0B9
:1005E0001FFB46E0C548844208D10121082000F0E5
:1005F00017FB0021082000F013FB3AE0C0488442BA
:1006000008D10121102000F00BFB0021102000F088
:1006100007FB2EE0BB48844208D10121202000F0D6
:10062000FFFA0021202000F0FBFA22E0B6488442C5
:1006300008D10121402000F0F3FA0021402000F011
:10064000EFFA16E0B148844208D10121802000F081
:10065000E7FA0021802000F0E3FA0AE0AC48844287
:1006600007D10121801500F0DBFA0021A01500F070
:10067000D7FA10BD10B50121084600F0D1FA0021CB
:10068000012000F0CDFA10BD2DE9F0410246002511
:100690000026002000230024002791F803C00CF05E
:1006A0000F0591F803C01CF0100F03D091F802C0A1
:1006B0004CEA050591F800C0BCF1000F31D0146878
:1006C00000202BE04FF0010C0CFA00F3B1F800C051
:1006D0000CEA03069E4220D183004FF00F0C0CFA67
:1006E00003F7BC4305FA03FC4CEA040491F803C089
:1006F000BCF1280F06D14FF0010C0CFA00FCC2F837
:1007000014C00AE091F803C0BCF1480F05D14FF0C6
:10071000010C0CFA00FCC2F810C0401C0828D1D310
:100720001460B1F800C0BCF1FF0F34DD5468002044
:100730002EE000F1080C4FF0010808FA0CF3B1F8B4
:1007400000C00CEA03069E4221D183004FF00F0C3B
:100750000CFA03F7BC4305FA03FC4CEA040491F8D5
:1007600003C0BCF1280F05D100F1080C08FA0CF801
:10077000C2F8148091F803C0BCF1480F07D100F112
:10078000080C4FF0010808FA0CF8C2F81080401C61
:100790000828CED35460BDE8F0814FF6FF71018088
:1007A000022181700421C1707047024600209368C5
:1007B0000B4201D0012000E000207047014688680C
:1007C00080B2704702460020D3680B4201D001205E
:1007D00000E0002070470146C86880B270470161A0
:1007E0007047416170470AB1016100E041617047A3
:1007F000C16070474FF480320A4382618161826137
:1008000082698269704702460020424B18684FF6A1
:100810008073184040EA021008433E4B186070474E
:100820003D49C8617047F0B50A4600230024002105
:10083000002500F00046B6F1004F02D1354EF169B7
:1008400001E0344E7168C0F3034583B200F44016F2
:10085000B6F5401F08D121F070612E4E766826F063
:1008600070662C4F7E6012E000F48016B6F5801F93
:1008700006D1032606FA05F4A14341F0706106E0B3
:10088000460D360103FA06F6B14341F0706122B11C
:10089000460D360103FA06F6314300F00046B6F184
:1008A000004F02D11B4EF16101E01A4E7160F0BDA4
:1008B00030B500228B071C0F0F2303FA04F2154BEF
:1008C00008338C1053F824309343124C08348D10A5
:1008D00044F8253023468C1053F824308C07240F1D
:1008E00000FA04F423430B4C08348D1044F82530EF
:1008F00030BD0A490860704700080140000C014003
:10090000001001400014014000180140001C01408B
:10091000002001400000014000002042DC00204295
:10092000DB48006840F00100D9490860084640688B
:10093000D8490840D649486008460068D64908406A
:10094000D34908600846006820F480200860084603
:10095000406820F4FE0048604FF41F008860704734
:10096000CB49096821F48031C94A116011460968F0
:1009700021F480211160B0F5803F03D0B0F5802FC5
:100980000ED106E0C249096841F48031C04A1160C5
:1009900007E0BF49096841F4A021BD4A116000E0A9
:1009A00000BF00BF704710B50146002200230020A1
:1009B0004A11012A02D1B64C236806E0022A02D16C
:1009C000B34C236A01E0B24C636A01F01F020124B8
:1009D00094401C4201D0012000E0002010BD70B501
:1009E00000240025002600BF3120FFF7DCFF06466B
:1009F000641CB4F5A06F01D0002EF5D03120FFF7B4
:100A0000D2FF08B1012500E00025284670BD01464F
:100A100000209F4A106820F0F80040EAC1001060F2
:100A200070479E490860704702460020984B5868FE
:100A300020F47C1042EA01031843954B586070473C
:100A400096490866704701460020914A506820F098
:100A500003000843506070478D48406800F00C0068
:100A60007047014600208A4A506820F0F000084391
:100A70005060704701460020854A506820F4E060CD
:100A800008435060704701460020814A506820F4B6
:100A9000605040EAC1005060704729B17C4A527AE8
:100AA00002437B4B5A7204E0794A527A8243784B74
:100AB0005A7270477A490860704701460020744AAC
:100AC000506820F440400843506070470021754A48
:100AD00011706F4A82F82010012802D0042808D132
:100AE00003E001216F4A117004E005216D4A117085
:100AF00000E000BF00BF70476B4908607047644961
:100B0000096A0143624A11627047674944390860C3
:100B1000704730B500210022002400235C4D6D6831
:100B200005F00C0121B1042905D0082923D105E0E5
:100B30005E4D056022E05D4D05601FE0544D6D681F
:100B400005F47012524D6D6805F48034022505EBF2
:100B500092421CB9564D554305600BE04C4D6D68F3
:100B600015F4003F03D0524D5543056002E04F4D50
:100B70005543056002E04D4D056000BF00BF444D88
:100B80006D6805F0F00109094A4D6B5C0568DD40B0
:100B900045603F4D6D6805F4E061090A454D6B5CA9
:100BA0004568DD4085603A4D6D6805F46051C90ABD
:100BB000404D6B5C4568DD40C560354D6D6805F4A2
:100BC0004041890B3C4D6B5CC568B5FBF3F5056195
:100BD00030BD29B12E4A526902432D4B5A6104E0BF
:100BE0002B4A526982432A4B5A61704729B1284ADD
:100BF00092690243264B9A6104E0254A9269824336
:100C0000234B9A61704729B1214AD2690243204B94
:100C1000DA6104E01E4AD26982431D4BDA617047F3
:100C200029B11B4AD2680243194BDA6004E0184A22
:100C3000D2688243164BDA60704729B1144A1269B0
:100C40000243134B1A6104E0114A12698243104BAC
:100C50001A61704714494039086070470F49C864E9
:100C600070470B49C87170470948406A40F080706E
:100C700007494862704701460020054A92680A42C7
:100C800001D0012000E000207047014988727047C0
:100C9000001002400000FFF8FFFFF6FE0000424295
:100CA000D8004242201002408004424200127A00E2
:100CB00000093D00180000202800002010B504465F
:100CC000FB48844209D101218803FFF7A9FF0021D5
:100CD0004FF48040FFF7A4FF32E0F648844209D188
:100CE00001214804FFF7A9FF00214FF40030FFF76E
:100CF000A4FF25E0F048844209D101218804FFF7D0
:100D00009CFF00214FF48020FFF797FF18E0EB488D
:100D1000844209D10121C804FFF78FFF00214FF45D
:100D20000020FFF78AFF0BE0E548844208D101214B
:100D30000805FFF782FF00214FF48010FFF77DFFC9
:100D400010BD2DE9F04786B005460E460024A246A8
:100D500000BFA1460027B08900B100BF2F462C8AF2
:100D60004CF6FF700440F08804432C82AC894EF6A8
:100D7000F3100440B0883189084371890843044363
:100D8000AC81AC8A4FF6FF400440B0890443AC828A
:100D900001A8FFF7BEFEC648874202D1DDF810A0C9
:100DA00001E0DDF80CA0A88910F4004F08D00AEB90
:100DB000CA0000EB0A1031684900B0FBF1F807E007
:100DC0000AEBCA0000EB0A1031688900B0FBF1F8A9
:100DD0006420B8FBF0F004012009642101FB1089B4
:100DE000A88910F4004F08D0322000EBC900B0FBF6
:100DF000F1F000F00700044308E0322000EB091096
:100E00006421B0FBF1F000F00F0004432C8106B028
:100E1000BDE8F0874FF41651016000218180C18048
:100E200001810C21418100218181704710B502466A
:100E30000020108A4FF2FF0318400B884C88234390
:100E40008C882343CC8823431843108210BD002193
:100E5000018041808180C180704721B1828942F444
:100E60000052828104E082894DF6FF731A4082812C
:100E70007047F0B503460024002600250020A1F5A8
:100E800010676A3F00D100BF1846C1F3421401F059
:100E90001F06012707FA06F5012C01D10C3004E0EA
:100EA000022C01D1103000E014301AB107682F4332
:100EB000076002E00768AF430760F0BD1AB1838A9C
:100EC0000B43838202E0838A8B4383827047028ACA
:100ED0004FF6F0731A400282028A0A430282704778
:100EE00082894FF2FF731A40828182890A4382818C
:100EF000704721B1828942F00202828104E0828936
:100F00004FF6FD731A4082817047028A4FF6DF73F5
:100F10001A400282028A0A430282704721B1028A81
:100F200042F48042028204E0028A4BF6FF731A40C8
:100F300002827047C1F308028280704701468888A8
:100F4000C0F308007047818941F001018181704739
:100F5000028BD2B20283028B42EA012202837047E3
:100F6000028B02F47F420283028B0A4302837047A2
:100F700021B1828A42F02002828204E0828A4FF606
:100F8000DF731A408282704721B1828A42F01002D8
:100F9000828204E0828A4FF6EF731A4082827047A1
:100FA00021B1828A42F00802828204E0828A4FF6EE
:100FB000F7731A408282704721B1828942F400425D
:100FC000828103E08289C2F30E028281704721B1DF
:100FD000828A42F40062828204E0828A4FF2FF73C6
:100FE0001A4082827047828A4FF6FB731A408282CF
:100FF000828A0A438282704721B1828A42F00202C9
:10100000828204E0828A4FF6FD731A408282704722
:1010100002460020B1F5007F00D100BF13880B42CB
:1010200001D0012000E00020704701F40072B2F509
:10103000007F00D100BFCA430280704770B50246EE
:101040000024002300250020A1F510666A3E00D18F
:1010500000BFC1F3421501F01F03012606FA03F396
:10106000012D02D19689334006E0022D02D1168A65
:10107000334001E0968A33400C12012606FA04F44C
:101080001688344013B10CB1012000E0002070BD7F
:1010900010B500220023A1F510646A3C00D100BF06
:1010A0000A1201249440A3B2DC43048010BD000066
:1010B000003801400044004000480040004C00401F
:1010C0000050004031490143314A1160704770B50A
:1010D000002100230F22C4780CB32D4C246804F4A3
:1010E000E064C4F5E064210AC1F10403CA40447815
:1010F00004FA03F18478144021430901254C067851
:10110000A155047804F01F050124AC4005786D1149
:101110004FF0E02606EB8505C5F8004109E00478AC
:1011200004F01F050124AC401B4D0678761145F8EC
:10113000264070BD194A0A400243154B1B1F1A6016
:10114000704739B1124A121D12680243104B1B1D21
:101150001A6006E00E4A121D126882430C4B1B1DDA
:101160001A607047042808D14FF0E021096941F066
:1011700004014FF0E022116107E04FF0E02109691E
:1011800021F004014FF0E022116170470000FA05E0
:101190000CED00E000E400E080E100E080FFFF1FD4
:1011A00010B50446FE48844208D10121C014FFF75F
:1011B00037FD0021E014FFF733FDC4E0B4F1804FA8
:1011C00008D101210846FFF738FD00210120FFF773
:1011D00034FDB8E0F348844208D101210220FFF732
:1011E0002CFD00210220FFF728FDACE0EE488442F0
:1011F00008D101210420FFF720FD00210420FFF782
:101200001CFDA0E0E948844208D101210820FFF735
:1012100014FD00210820FFF710FD94E0E44884420B
:1012200008D101211020FFF708FD00211020FFF751
:1012300004FD88E0DF48844208D101212020FFF727
:10124000FCFC00212020FFF7F8FC7CE0DA48844217
:1012500008D101214014FFF7E3FC00216014FFF7DF
:10126000DFFC70E0D548844209D10121C804FFF7B2
:10127000D7FC00214FF40020FFF7D2FC63E0D048F8
:10128000844209D101210805FFF7CAFC00214FF46F
:101290008010FFF7C5FC56E0CA48844209D10121FD
:1012A0004805FFF7BDFC00214FF40010FFF7B8FC24
:1012B00049E0C548844208D101214020FFF7BDFC28
:1012C00000214020FFF7B9FC3DE0C048844208D12E
:1012D00001218020FFF7B1FC00218020FFF7ADFC49
:1012E00031E0BB48844208D101218015FFF7A5FCFD
:1012F0000021A015FFF7A1FC25E0B648844209D1E2
:1013000001210804FFF78CFC00214FF48030FFF727
:1013100087FC18E0B048844209D101214804FFF756
:101320007FFC00214FF40030FFF77AFC0BE0AB4864
:10133000844208D101218804FFF772FC00214FF498
:101340008020FFF76DFC10BD00220288944B98426C
:101350000ED0994B98420BD0B0F1804F08D0914BF2
:10136000984205D0904B984202D0904B984204D1BD
:101370004FF68F731A404B881A438D4B984207D013
:101380008C4B984204D04FF6FF431A40CB881A4347
:1013900002808B8883850B880385814B98420BD014
:1013A000854B984208D08B4B984205D08A4B984287
:1013B00002D08A4B984201D10B7A038601238382A3
:1013C000704770B5002400220023058C4FF6FE768E
:1013D00035400584028C8388048B4FF68F752C4032
:1013E000B51E2C400D882C43751E2A400D892A43BA
:1013F0004D882A436A4DA8420BD06F4DA84208D0B1
:10140000744DA84205D0744DA84202D0734DA84235
:1014100013D14FF6F7752A404D892A434FF6FB75D5
:101420002A408D882A434FF6FF652B404FF6FF5523
:101430002B408D892B43CD892B4383800483CD881A
:101440008586028470BD70B5002400220023058CBF
:101450004FF6EF7635400584028C8388048B48F67E
:10146000FF752C404FF6FF452C400D884FF6FF7658
:1014700006EA05252C434FF6DF752A400D8906EA5A
:1014800005152A434D8806EA05152A43444DA8420E
:1014900002D0494DA8421DD14FF67F752A404D8993
:1014A0004FF6FF7606EA05152A434FF6BF752A4028
:1014B0008D8806EA05152A434FF6FF352B404FF27B
:1014C000FF752B408D8906EA85052B43CD8906EAF9
:1014D00085052B4383800483CD880587028470BDF6
:1014E00070B5002400220023058C4FF6FF663540BE
:1014F0000584028C8388848B4FF68F752C404FF6C1
:10150000FC752C400D882C434FF6FF552A400D8961
:101510004FF6FF7606EA05252A434D8806EA05259B
:101520002A431F4DA84202D0234DA8421DD14FF29D
:10153000FF752A404D894FF6FF7606EA05252A43B6
:101540004FF6FF352A408D8806EA05252A434EF6D8
:10155000FF752B404DF6FF752B408D8906EA05156A
:101560002B43CD8906EA05152B4383808483CD88E0
:101570008587028470BD70B5002200230024058C8D
:101580004EF6FF7635400584038C8488828B48F6BE
:10159000FF752A404FF6FF452A400D8820E00000E5
:1015A000002C01400004004000080040000C0040F6
:1015B000001000400014004000340140004C014085
:1015C000005001400054014000180040001C004041
:1015D000002000400040014000440140004801401C
:1015E0004FF6FF7606EA05252A434DF6FF752B4098
:1015F0000D8906EA05352B434D8806EA05352B4350
:10160000FA4DA84202D0FA4DA84208D14BF6FF7518
:101610002C408D894FF6FF7606EA85152C43848091
:101620008283CD88A0F84050038470BD828B4FF236
:10163000FF331A408283828B4FF6FF7303EA012344
:101640001A4382837047F0B50C46154600220021EC
:101650000026078C4EF6FF7C07EA0C070784828B76
:10166000018C4FF6FF7707EA043640F6FF473A4011
:101670004FF6FF7707EA05273A434FF6FF7707EA69
:1016800003373A43D94FB8420ED0D94FB8420BD0A6
:10169000B0F1804F08D0D74FB84205D0D64FB842EE
:1016A00002D0D64FB84206D14DF6FF77394046F406
:1016B0008057394305E047F6FF57394044F48057D7
:1016C000394382830184F0BD828B4FF6F3731A4055
:1016D0008283828B0A4382837047F0B50C4615469D
:1016E000002200210026078C4FF6FF6C07EA0C074A
:1016F0000784828B018C4FF6FF7707EA04264FF6AA
:101700000C773A404FF6FF7707EA03172F433A4327
:10171000B64FB8420ED0B64FB8420BD0B0F1804FA2
:1017200008D0B44FB84205D0B34FB84202D0B34F3F
:10173000B84206D14FF6FF57394046F48077394317
:1017400005E04FF2FF57394044F4807739438283F4
:101750000184F0BD028B4FF2FF331A400283028BEB
:101760004FF6FF7303EA01231A4302837047F0B573
:101770000C461546002200210026078C4FF6EF7C10
:1017800007EA0C070784028B018C4FF6FF7707EA04
:10179000041640F6FF473A404FF6FF7707EA033753
:1017A0003A434FF6FF7707EA05273A438F4FB8428F
:1017B0000ED08F4FB8420BD0B0F1804F08D08D4F74
:1017C000B84205D08C4FB84202D08C4FB84206D1F7
:1017D0004FF6DF77394046F01007394305E04FF602
:1017E0005F77394044F01007394302830184F0BD2C
:1017F000028B4FF6F3731A400283028B0A43028373
:101800007047F0B50C46154600220021068C4FF6B5
:10181000FE773E400684028B018C4FF60C763240F8
:101820007E1C06EA03162E433243704EB0420ED0A1
:101830006F4EB0420BD0B0F1804F08D06D4EB04229
:1018400005D06D4EB04202D06C4EB04206D14FF67C
:10185000FD76314044F00106314305E04FF6F57660
:10186000314044F00106314302830184F0BD70B57C
:1018700005460C465D4885420ED05D4885420BD03A
:10188000B5F1804F08D05B48854205D05A48854263
:1018900002D05A48854200D100E000BF208850B9EC
:1018A0002389A28861882846FFF7ABFFE188284694
:1018B000FFF79EFF25E0208804280AD12389A2880B
:1018C00061882846FFF753FFE1882846FFF742FF6B
:1018D00017E0208808280AD12389A2886188284631
:1018E000FFF7FBFEE1882846FFF7EEFE09E02389BB
:1018F000A28861882846FFF7A6FEE1882846FFF700
:1019000095FE70BD2DE9F04105460C4600260127E5
:10191000608808B9022600E00026A088012801D1CD
:10192000022700E001272088A0B92389A2886188C6
:101930002846FFF766FFE1882846FFF759FF23890D
:101940003A4631462846FFF712FFE1882846FFF75E
:1019500001FF13E02389A28861882846FFF707FF6B
:10196000E1882846FFF7F6FE23893A4631462846A5
:10197000FFF747FFE1882846FFF73AFFBDE8F0810F
:101980000A884B881A438B881A43CB881A430B89E1
:101990001A434B891A438B891A43A0F84420704795
:1019A0004FF6FF71818000210180C180418001726A
:1019B00070470021018041808180C1800181418187
:1019C0008181C18170470021018041800121818096
:1019D0000021C18001817047002101804180818008
:1019E000C18001814181818170470000002C01404C
:1019F000003401400004004000080040000C00409A
:101A000021B1028842F00102028004E002884FF610
:101A1000FE731A400280704731B1B0F8442042F49E
:101A20000042A0F8442005E0B0F84420C2F30E02C2
:101A3000A0F8442070471AB183890B43838102E0E8
:101A400083898B43838170478182704741EA020317
:101A5000A0F8483070471AB183890B43838102E0B4
:101A600083898B438381704701894FF6F872114057
:101A7000018170470A46002101894FF68F73194092
:101A800011430181704730B504460D462946204672
:101A9000FFF7F0FF208940F00700208130BD2DE9DD
:101AA000F04104460D4616461F46602D06D13B46C2
:101AB000012231462046FFF75AFE05E03B4601224F
:101AC00031462046FFF79DFE29462046FFF7D2FF0C
:101AD000208940F007002081BDE8F08130B50C4638
:101AE00000210189C9B24FF6FF7505EA03251543A8
:101AF00025432943018130BD2DE9F04105460E46BD
:101B000017469846002443463A4631462846FFF792
:101B1000E5FF2C894FF6F870044044F007044FF6B7
:101B20008F70044044F070042C81BDE8F081F0B562
:101B300004460D4616461F463B4632462946204679
:101B4000FFF7CCFF208940F480402081F0BD018563
:101B5000828270470A46002101884FF68F73194030
:101B6000114301807047F0B50C4615461E46002112
:101B7000002200230189028B038C4FF6F87739404D
:101B800021434FF6FC473A4040F201173A434FF6E3
:101B9000DD773B404FF6FF7707EA06172F433B43BD
:101BA000018102830384F0BD0A460021018B4FF6B8
:101BB0008F7319401143018370470A460021018B3E
:101BC00048F6FF7319404FF6FF7303EA02231943E7
:101BD000018370470A460021818B4FF68F731940AD
:101BE0001143818370470A460021818B48F6FF73B9
:101BF00019404FF6FF7303EA0223194381837047AC
:101C000021B1028842F08002028004E002884FF68F
:101C10007F731A400280704721B1828842F004022B
:101C2000828004E082884FF6FB731A4082807047FE
:101C300021B1828842F00802828004E082884FF657
:101C4000F7731A408280704721B1828842F0010206
:101C5000828004E082884FF6FE731A4082807047CB
:101C60000A460021018B4FF6F77319401143018397
:101C700070470A460021018B4FF2FF7319404FF65F
:101C8000FF7303EA02231943018370470A460021C8
:101C9000818B4FF6F77319401143818370470A46D1
:101CA0000021818B4FF2FF7319404FF6FF7303EA57
:101CB00002231943818370470A460021018B4FF6A6
:101CC000FB7319401143018370470A460021018BC1
:101CD0004FF6FF3319404FF6FF7303EA022319430F
:101CE000018370470A460021818B4FF6FB73194030
:101CF0001143818370470A460021818B4FF6FF33E1
:101D000019404FF6FF7303EA02231943818370479A
:101D10000A460021018B4FF67F731940114301835E
:101D200070470A460021018BC1F30E014FF6FF7385
:101D300003EA02231943018370470A460021818B7D
:101D40004FF67F7319401143818370470A46002183
:101D5000818BC1F30E014FF6FF7303EA022319438F
:101D6000818370470A460021018C4FF6FD731940AC
:101D70001143018470470A460021018C4FF6F77326
:101D800019401143018470470A460021018C4FF627
:101D9000DF7319404FF6FF7303EA021319430184FE
:101DA00070470A460021018C4FF67F7319404FF6A9
:101DB000FF7303EA02131943018470470A460021A6
:101DC000018C4FF6FF5319404FF6FF7303EA0223CD
:101DD0001943018470470A460021018C4FF2FF73BA
:101DE00019404FF6FF7303EA022319430184704739
:101DF0000A460021018C4DF6FF7319404FF6FF7320
:101E000003EA023319430184704730B500230124EB
:101E10008C40A3B2048C9C430484048C02FA01F528
:101E2000ADB22C43048430BD30B5002304248C4073
:101E3000A3B2048C9C430484048C02FA01F5ADB275
:101E40002C43048430BD70B503460020002418469E
:101E5000183001258D40ACB21D8CA5431D8409B1FD
:101E6000082909D100EB6100056825F070050560BF
:101E70000568154305600EE00D1FC5F34E052844A7
:101E8000056825F4E045056005684FF6FF7606EA2B
:101E900002263543056070BD21B1028842F002027E
:101EA000028004E002884FF6FD731A4002807047FA
:101EB00021B1028842F00402028004E002884FF659
:101EC000FB731A400280704721B1828842F0800281
:101ED000828004E082884FF67F731A4082807047C8
:101EE00002884FF6F7731A40028002880A43028084
:101EF000704782884FF68F731A40828082880A4327
:101F00008280704702894FF6F8731A400281028975
:101F10000A430281704702894FF67F731A4002819B
:101F200002890A4302817047818470478185704726
:101F3000818670470187704781877047A0F84010FD
:101F4000704702884FF6FF431A40028002880A4316
:101F5000028070470146888E70470146088F70479F
:101F60000146888F70470146B1F84000704701462E
:101F7000888C70470146088D704702460020138AFE
:101F80000B4201D0012000E000207047CA430282CA
:101F9000704730B50246002000230024158A05EA68
:101FA0000103958905EA010413B10CB1012000E099
:101FB000002030BDCA43028270470000002044491F
:101FC0000860091D0860091D0860091D0860414876
:101FD0003F4914310860704700213D498279002A49
:101FE0003AD00A46126803689A430B461A600A1DE3
:101FF000126803689A430B1D1A60027911440A683B
:1020000003681A430A60324A0832126803689A4326
:102010002F4B08331A601A1D126803689A432C4B21
:102020000C331A604279102A0ED11A1F1268036805
:102030001A43274B08331A601A1D126803681A43A3
:10204000234B0C331A600DE02149427911440A6890
:1020500003681A430A6005E0027911440A680368BC
:102060009A430A6070470021016001710C2141719F
:102070000021817170471649103109680143144AE3
:1020800010321160704701460020114A1432126864
:102090000A4201D0012000E0002070470C491431B1
:1020A00008607047014600200022094B1B6803EAC4
:1020B0000102074B14331B680B4202D00AB1012006
:1020C00000E00020704702491431086070470000AA
:1020D00000040140FFFF0F00064880470648004704
:1020E000FEE7FEE7FEE7FEE7FEE7FEE7FEE7FEE7C8
:1020F000FEE7FEE7C90400083101000808B5042026
:10210000ADF8000010208DF8030003208DF80200C8
:1021100069469948FEF7B8FA01F089FC02F05BF9CC
:1021200008BD704700B585B001218803FEF75EFD4C
:102130000121C804FEF767FD4FF40070ADF81000F0
:1021400003208DF8120018208DF8130004A98B4885
:10215000FEF79AFA4FF48060ADF8100004208DF875
:10216000130004A98548FEF78FFA4FF48060ADF89C
:10217000100003208DF8120018208DF8130004A918
:102180007F48FEF781FA4FF40060ADF8100004209C
:102190008DF8130004A97A48FEF776FA7948FEF71D
:1021A0008DFD4FF4E13000900020ADF80400ADF853
:1021B0000600ADF80800ADF80C000C20ADF80A00E0
:1021C00069467048FEF7BDFD6F48FEF777FD4FF496
:1021D0001650009069466C48FEF7B3FD40F2255159
:1021E0006848FEF755FF40F225516748FEF750FF5B
:1021F00040F225516548FEF74BFF012240F2255180
:102200006048FEF736FE012240F225515E48FEF797
:1022100030FE01215B48FEF720FE01215A48FEF7FF
:102220001CFE05B000BD10B559A002F01DFE10BD8A
:1022300010B55EA002F018FE10BD10B500F07DFFD5
:1022400001F012FC10BD08B54FF44070FEF73AFFE4
:102250001D208DF8000000208DF8010001208DF870
:1022600003006846FEF733FF1E208DF800000120B2
:102270008DF801008DF803006846FEF728FF252041
:102280008DF8000002208DF8010001208DF8030078
:102290006846FEF71CFF34208DF8000003208DF8FF
:1022A000010001208DF803006846FEF710FF27208B
:1022B0008DF8000004208DF8010001208DF8030046
:1022C0006846FEF704FF08BD10B5FEF729FB4FF482
:1022D0008030FEF745FBFEF782FB044600BF002C72
:1022E000FDD00020FEF7BDFB0020FEF7C3FB002061
:1022F000FEF7C9FB4FF4E0114FF48030FEF794FB7A
:102300000120FEF79DFB00BF3920FEF74CFB0028A3
:10231000FAD00220FEF797FB00BFFEF79DFB0828CE
:10232000FBD10020FEF77DFB01210420FEF75EFCBF
:1023300001210820FEF75AFC01211020FEF756FC6F
:1023400001212020FEF752FC01214020FEF74EFC27
:1023500001210846FEF74AFCFFF775FFFFF7CEFEA6
:10236000FFF7DFFEFFF7DEFEFFF75DFFFFF760FF21
:10237000FFF763FF10BD000000140140000801409A
:102380000010014000380140004C0040004800406F
:10239000455854495F436F6E666967757261746929
:1023A0006F6E20444F4E45210D0A00005350495F87
:1023B000436F6E66696775726174696F6E20444F12
:1023C0004E45210D0A0000000020FE490968C90899
:1023D000FD4AB1FBF2F14FF0E0229269B2FBF1F15C
:1023E000F94A501A511088420CDAF849097849B173
:1023F0000021F64A1170F6490968F34A1144F44A7B
:10240000116008E0F349884205DDF049097811B907
:102410000121EE4A1170EE4909680144EE4A9142E9
:1024200002DB0021EA4A1160E94909680844704763
:1024300070B5E4480068C108B1F1807F00D31DE0A9
:1024400021F07F40401E4FF0E022506150170F22D4
:10245000002807DA13071D0EE04B00F00F04241FBD
:102460001D5503E013071C0EDD4B1C5400BF00205C
:102470004FF0E02290610720106100BF6FF0040070
:10248000FEF770FE70BD1CB5CF4A91FBF2F212B29E
:10249000ADF80020CC4A91FBF2F302FB13124FF48B
:1024A0007A7392FBF3F212B2ADF80220C64A91FBA6
:1024B000F2F302FB13124FF47A7392FBF3F403FB73
:1024C000142212B2ADF80420009A0260BDF8042074
:1024D00082801CBD30B50446FFF776FF05462946CD
:1024E0002046FFF7D0FF30BD00B5FFF76DFF00BD00
:1024F0001CB50024009401943B2905DCB2F57A7FD9
:1025000002DAB3F57A7F05DB009C0460BDF8044075
:1025100084801CBD0CB2ADF8004014B2ADF802408E
:102520001CB2ADF80440009C0460BDF804408480F7
:1025300000BFEEE71CB50B8814881B1B1BB2ADF85F
:1025400000304B8854881B1B1BB2ADF802308B88BF
:1025500094881B1B1BB2ADF80430BDF90430002B6E
:102560000CDABDF802305B1E1BB2ADF80230BDF8CC
:10257000043003F57A731BB2ADF80430BDF90230B4
:10258000002B0CDABDF800305B1E1BB2ADF800303A
:10259000BDF8023003F57A731BB2ADF80230BDF915
:1025A0000030002B05DABDF800303C331BB2ADF82B
:1025B0000030009B0360BDF8043083801CBD0246E0
:1025C0008A4203DA501A844B18447047501AFCE7C9
:1025D0000146B1F900007C4A5043B1F9022002EBF8
:1025E0004203C3EBC21200EBC200B1F90420104455
:1025F000704730B50446FFF7E7FE054600BFFFF71A
:10260000E3FE431B002B01DA73480344A342F6D3D5
:1026100030BD30B503464FF47A704343FFF7D4FE24
:10262000054600BFFFF7D0FE441B002C01DA6A48C4
:1026300004449C42F6D330BD30B50346694883421A
:1026400000DD30BD60484343FFF7BEFE044600BFD7
:10265000FFF7BAFE051B002D01DA5F4805449D42D5
:10266000F6DB00BFEDE703B5BDF900003B2809DC50
:10267000BDF90200B0F57A7F04DABDF90400B0F5C7
:102680007A7F00DB0CBDBDF90000FFF7D5FFBDF977
:102690000200FFF7BEFFBDF90400FFF7AAFF00BF6D
:1026A000F0E730B503460C4615460022002100BF76
:1026B00009E04D4800EB0210807B10B94A4800EB5E
:1026C0000211501CC2B20A2AF3DB09B9002030BD46
:1026D000012088730C71CD80002088814881088199
:1026E0000B600846F3E770B504460D46A089E18803
:1026F000884202D14FF0FF3070BD238926792168CE
:1027000003FB06103246294601F027FF2089401CB2
:1027100080B2E18890FBF1F201FB12002081A089D8
:10272000401CA0810020E7E770B504460D46A08953
:1027300010B94FF0FF3070BD63892679206803FB24
:1027400006013246284601F008FF6089401C80B22D
:10275000E18890FBF1F201FB12006081A089401E2C
:10276000A0810020E7E70146888970470146C888B4
:102770008A89801A80B270470021817370470020D7
:1027800000211A4A1268916200BF46E0FF2100EB67
:10279000400202EBC002164B03F82210002100EBAE
:1027A000400202EBC00203EB8202516200EB4002E6
:1027B00002EBC00203EB8202516000EB400202EB2D
:1027C000C00217E00400002040420F00300000204B
:1027D0002C00002020A107000087930318ED00E0E3
:1027E00000E400E0C04484037803002034000020AB
:1027F0001804002003EB8202116100EB400202EB9F
:10280000C00203EB8202516100EB400202EBC00206
:1028100003EB82029162411CC8B20F28B6DB7047FD
:102820002DE9FF4780469946DDF830A0002500BF1E
:1028300033E005EB450000EBC500AA4901EB800041
:1028400090F90000401C26D105EB450000EBC500C7
:1028500001EB800468B2207084F8018084F802A043
:1028600001A8FFF7B5FE6060FFF7AEFDE060C4F8B9
:10287000249000206083A083A062FFF7A5FD206163
:1028800099480078401C9849087008460078C0F1C3
:102890000F00487003E0681CC5B20F2DC9DB00BFF4
:1028A0000F2D04D14FF0FF3004B0BDE8F0878F4802
:1028B0000068806AD8B968B205EB450101EBC50133
:1028C000884A02F82100002005EB450101EBC50113
:1028D00002EB8101886205EB450000EBC500114663
:1028E00001EB80008149096888620020DCE77F48AD
:1028F00007680068866A00BF60687168884202DD08
:10290000A662BC6209E0B06A18B9B4620020A06295
:1029100003E03746B66A002EEED100BF94F90000FE
:10292000C2E710B50246714803680068816A00BFBB
:1029300091F90000904211D1886A9862FF200870D6
:102940000020486268480078401E674C207020468E
:102950000078C0F10F006070002010BD0B46896A3E
:102960000029E5D1481EF8E72DE9F0415F480068ED
:10297000846A00260025002745E0FFF725FD05466F
:102980002846E168FFF71BFE0646206A28B1206A48
:10299000B04237DC0020206234E06068B04231DCB5
:1029A00017B9514845600127A07808B9E56004E0EF
:1029B000A078012801D1A068E060FFF705FD206143
:1029C000606A08B1606A8047FFF7FEFC6061A08A18
:1029D000218A401A20836168E0680844444990FBDA
:1029E000F1F201FB1200A060FFF7EEFCA168884243
:1029F00001DD012000E00020618B08446083A08B92
:102A0000401CA083A46A002CB7D18FB1FFF7DCFC77
:102A1000354988600A4651689068FFF7D0FD324911
:102A2000C86008460069C96808442F490861002742
:102A3000BDE8F0812DE9F04105460E46174617B96D
:102A40000020BDE8F08105EB450000EBC5002549FD
:102A500001EB8004206A00B92662FFF785FF206A37
:102A600008B90020EDE70120EBE77CB51F480468BA
:102A70000EE0608BA18BCDE90010238B94F901103F
:102A80001CA0626802F0F0F900206083A083A46AB1
:102A9000002CEED1FFF798FC054624480168284633
:102AA000FFF78DFD214908600F4800696421484304
:102AB0001E49096890FBF1F01C490860FFF784FC8F
:102AC00005460948037819482946026818A002F00B
:102AD000CBF9FFF779FC154908600020024908612D
:102AE0007CBD000018040020AC060020340000204B
:102AF00000879303B1E0BAC53A256409BCE4B8F491
:102B00003A256409B5A5B4CECAB1BCE43A25640936
:102B1000D4CBD0D0B4CECAFD3A256409B3ACCAB187
:102B2000B4CECAFD3A2564090D0A00003800002021
:102B3000B5B1C7B0CAB1BCE4A3BA25647573A3AC80
:102B4000435055CAB9D3C3C2CAA3BA256425252C9C
:102B5000C8CECEF1CAFDC1BFA3BA2564200D0A0DAF
:102B60000A0D0A0D0A0D0A0000200021FB4A11700F
:102B7000FB4A1170FB4A1170FB4A117000BF04E060
:102B80000021FA4A1154411CC8B23228F8DB7047C0
:102B90000146FD2903D0F82901D0FE2901D10120E9
:102BA00070470020FCE713B50C466946F048006802
:102BB000FFF799FD00981CBD0146F82907D0FD29B3
:102BC00002D0FE2909D105E04FF67D6070474FF62F
:102BD0007860FBE74FF67E60F8E70846F6E70146C7
:102BE00000220023012205E0881C805C184483B287
:102BF000501CC2B291F90000801E9042F4DCD8B2A1
:102C000070472DE9F04105460024AF1C00BF3EE0AF
:102C1000012C2BDD95F90000401EA04226DD385D19
:102C2000FFF7B6FF10B3385DFFF7C6FF064600BFDB
:102C30004021D048FEF7ECF90028F9D04021CD48DA
:102C4000FEF7F3F93112CB48FEF774F900BF4021CB
:102C5000C848FEF7DDF90028F9D04021C548FEF745
:102C6000E4F9F1B2C348FEF765F90EE000BF402178
:102C7000C048FEF7CDF90028F9D04021BD48FEF745
:102C8000D4F9395DBB48FEF755F9601CC4B295F91B
:102C90000000A042BCDC0020BDE8F0812DE9FC4131
:102CA00005460024AF1C00BF24E0012C1BDD95F974
:102CB0000000401EA04216DD385DFFF769FF90B1AD
:102CC000385DFFF779FF064630120190F0B20090B0
:102CD00001A9A7480068FFF706FD6946A4480068F7
:102CE000FFF701FD04E03919A1480068FFF7FBFC7C
:102CF000601CC4B295F90000A042D6DC0020BDE8FB
:102D0000FC8108B569469A480068FFF70DFD78B95F
:102D100000BF40219748FEF77BF90028F9D04021F9
:102D20009448FEF782F9009881B29248FEF702F9C2
:102D300008BD10B54FF47A7201218F48FFF7B1FC3E
:102D40008B49086032221C218C48FFF7AAFC8C4971
:102D50000860FFF709FF8B4C0B202070012060708A
:102D6000894860618948A0611C3406202070607029
:102D7000874860618748A0611C340F2020700420C0
:102D80006070854860618548A06110BD2DE9F04103
:102D900088B007460C4615461E46DDF838808DF88B
:102DA000044068B28DF805000696CDF81C801C2200
:102DB00001A9384601F0D1FB08B0BDE8F0812DE94A
:102DC000F0410546002400270026FD2D0CD1634864
:102DD000007818B9FD20614908700BE0FFF7C4FEC8
:102DE000FD205E49087005E05C48007810B90020BD
:102DF000BDE8F081FE2D02D05A480078C8B159488C
:102E0000007888B1782D06D07D2D02D07E2D06D198
:102E100003E0FD2503E0F82501E0FE2500BF00BF2B
:102E200000205049087009E001204E490870002038
:102E3000DEE7F82D02D101204B490870484890F98F
:102E400000200078401C40B2454B1870474885541C
:102E500045480078002847D00124002050490880C8
:102E600008E04248005D4E49098808444C49088002
:102E7000601CC4B23A4890F90000801EA042F0DC09
:102E80003A4F7F1C00241CE03878C4EBC4013D4A53
:102E900002EB810191F90110884210D1C4EBC4000A
:102EA000114601EB800090F900002D4991F90010C6
:102EB000884204D1C4EBC400114601EB8006601CBB
:102EC000C4B2032CE0DB16B9FFF74EFE0CE096F916
:102ED00000202649B01C01F040FB3146284800681C
:102EE000FFF701FCFFF740FE002081E730B589B015
:102EF00005460020034602220521009002A8FFF7A4
:102F000045FF0DF10A04FD20207002206070254865
:102F10000078A07023480078401C2249087002A85D
:102F2000FFF75DFEE070F820207102A8FFF7B6FE03
:102F300009B030BD70B50546AC1C1A480078607306
:102F400018480078401C174908702846FFF747FECC
:102F500020742846FFF7A2FE70BD00004300002049
:102F60003D000020440000203E000020B80C00205E
:102F70004800002000380140EA0C002040070020F3
:102F80004C000020EC060020BB3D00084D3D000831
:102F9000293F0008033F00088D3E0008193E000845
:102FA000400000204200002070B50546AC1CFD200A
:102FB00020700320607038480078E072364800784E
:102FC000401C354908702846FFF709FE2073F82099
:102FD00060732846FFF762FE70BD70B50546AC1CF5
:102FE000FD202070042060702B480078E0732A4890
:102FF0000078401C284908702846FFF7F0FD20742F
:10300000F82060742846FFF749FE70BD70B590B097
:1030100004460026A07808B910B070BD6078022878
:1030200001D1A67908E06078032801D1267A03E06F
:103030006078012800D1A67A0020034605220821E5
:10304000009002A8FFF7A2FE1C2202A909A801F025
:1030500084FA0DF12605FD20287005206870AE70F9
:103060006078E870002028710B48007868710A4881
:103070000078401C0849087009A8FFF7B0FDA87146
:10308000F820E87109A8FFF709FE1C21204601F08D
:103090007DFA00BFC0E70000420000202DE9F047A4
:1030A00004460D46284601F0DBFC8146A16801F08C
:1030B000D0FA8046664901F074FA074601F0FFFC39
:1030C00086B22079012806D0022809D003280CD026
:1030D000042814D10EE031462068FEF729FF0EE0E7
:1030E00031462068FEF726FF09E031462068FEF7EA
:1030F00023FF04E031462068FEF720FF00BF00BF39
:10310000BDE8F0875348544908600320087140F235
:103110004650C88051488860AFF27F0088624D48B1
:103120004F4908600420087140F24650C8804B485F
:103130008860AFF297008862704700B589B00121BE
:103140000820FDF760FD0C20ADF8200018208DF858
:10315000230003208DF8220008A94248FDF794FAC5
:103160003C48FEF71DF83B48FEF77EFC44F6206025
:10317000ADF818003C4800683C49B0FBF1F080B263
:10318000ADF814000020ADF81A00ADF8160005A93E
:103190003048FEF7D9F86020ADF804000120ADF802
:1031A00006000020ADF80C0044F62060ADF80A00DF
:1031B00001A92848FEF794F908212648FEF766FD84
:1031C00001A92448FEF7D7F908212248FEF767FD38
:1031D00001212048FEF714FD01211E48FEF710FCD6
:1031E00009B000BD10B5224800680078022800D15F
:1031F00010BD20480068826A1F4801781D48006899
:1032000090471E480068826A1B4801781B48006886
:103210009047194800788C2803D10120184908707C
:1032200006E015480078282802D1002014490870CB
:103230001348007828B110480078401E0E490870E5
:1032400004E00D480078401C0B49087000BFCFE730
:103250000000AF43000C0040D41000201CC7B14058
:1032600000110020000801400400002040420F002F
:103270005C00002050000020580000205400002076
:103280005900002070B504460D46552D02D100208E
:1032900060802071657100BF40213A48FDF7B8FE9B
:1032A0000028F9D029463748FDF744FE402135482B
:1032B000FDF7BBFE70BD4279502A03D1A1F12D026A
:1032C000427016E04279552A13D102794AB94180F9
:1032D00042884FF6FF7303EA022242800122027104
:1032E00007E00279012A04D142880A43428002227F
:1032F0000271704708B524480068007902282CD173
:10330000214800684088642804DA02201E490968C0
:1033100008700DE01C4800684088962804DA0120F7
:1033200019490968087003E0002017490968087006
:1033300015480068408800901348006843787F2251
:1033400012A1164801F0A0FD0221012000F00DFF9E
:10335000124A0021084600F0AFFF1148007828B15A
:10336000502109480068FFF78DFF04E05521064809
:103370000068FFF787FF0A480078C04308490870D3
:1033800008BD0000004C00405C0000204325633A6B
:1033900025642C6D6D3A25640D0A00002C11002067
:1033A0006000002010B50446AC20015904F17800FB
:1033B000884704F14000616F884747F6FF70A4F822
:1033C000B000A4F8B20047F6FF71A068FEF7ACFDAC
:1033D00010BD70B504460D4684F8CD5094F8CF006A
:1033E00060B105F00102A18A2069FDF7FCF905F042
:1033F0000202E18A2069FDF7F6F90BE005F002020E
:10340000A18A2069FDF7EFF905F00102E18A206940
:10341000FDF7E9F994F8CD00F0B9207B012806D03A
:10342000022809D003280CD0042814D10EE0002172
:103430006068FEF77DFD0EE000216068FEF77AFD12
:1034400009E000216068FEF777FD04E00021606874
:10345000FEF774FD00BF00BF70BD2DE9F0410446CA
:103460000D4617461E46022084F83800294620469D
:10347000FFF7AFFF38B2A4F8BE002046FFF792FF77
:10348000012D05D147F6FF703044A4F8C00006E0D6
:10349000022D04D147F6FF70801BA4F8C000BDE8E0
:1034A000F08110B50446A068FEF761FDA4F8B000F5
:1034B000B4F8B00010BD70B504460E4615460120A4
:1034C00084F8380031462046FFF783FF28B2A4F87D
:1034D000BE002046FFF766FF70BD1CB5DC21F94831
:1034E000006801F053F8DC21F748006801F04EF85D
:1034F0000020F44909680870F448F24909688860B6
:103500000005F049096848600120EE490968087320
:10351000EF48EC49096808610120EA490968888296
:103520000220E8490968C882EA48012100234203D1
:10353000CDE90010E849E3480068403000F0EAFBBC
:10354000E648012100231A46CDE90010E449DD4890
:103550000068783000F0DEFB0120DB490968087064
:10356000E048D94909688860C004D74909684860BB
:103570000220D54909680873D548D349096808610C
:103580000420D149096888820820CF490968C88287
:103590000120CD49096881F8CF00CE4801210023E0
:1035A0004203CDE90010CC49C7480068403000F024
:1035B000B1FBCA48012100231A46CDE90010C849D1
:1035C000C1480068783000F0A5FB47F6FF70BE499F
:1035D0000968A1F8B000BB490968A1F8B000BA4970
:1035E0000968A1F8B200B7490968A1F8B2004FF024
:1035F0007E50B5490968C863B2490968C863AFF22B
:103600004910B1490968C1F8D000AE490968C1F84C
:10361000D000AFF27110AC490968C1F8D800A949CF
:103620000968C1F8D800AFF2CD10A7490968C1F800
:10363000D400A4490968C1F8D400AB48A24909687C
:10364000C1F8C4009F490968C1F8C4001CBD2DE938
:10365000F04104460E4604F17805207858B999489F
:103660000068B0F8B00098490968B1F8B010401A85
:10367000C4F8B8000DE0207801280AD1924800680B
:10368000B0F8B0008F490968B1F8B010401AC4F81A
:10369000B800D4F8B80001F0DAF9074632463946E6
:1036A00028462B6B984794F8CC00012802D1686A11
:1036B00068620AE094F8CC00022804D1686A80F0BD
:1036C0000040686201E000206862686ABDE8F0813D
:1036D0002DE9F04105460E4605F14004D5F8B40049
:1036E00001F0B5F90746324639462046236B984724
:1036F0007E49606A01F034FA02D27C48606206E0DA
:103700000021606A01F022FA01D200206062606A42
:10371000BDE8F0812DE9FF5F824600200390029012
:103720009AF8CD0008B9BDE8FF9F5046DAF8D810E6
:1037300088479AF81800F0B100208AF81800BAF803
:10374000B200B0F5004F0ADBBAF8B2004FF6FF71D5
:10375000081ABAF8B0100844CAF8B40012E0BAF86F
:10376000B0004FF6FF71081ABAF8B2100844404290
:10377000CAF8B40006E0BAF8B000BAF8B210401ABD
:10378000CAF8B400BAF8B000AAF8B200DAF8B40087
:10379000002803DD01208AF8CC000FE0DAF8B4003D
:1037A000002808DA02208AF8CC00DAF8B400404297
:1037B000CAF8B40002E000208AF8CC009AF8380079
:1037C000012822D13F48006890F8CD003E490968A1
:1037D00091F8CD10884204D100215046FFF737FF01
:1037E0000390BAF9BE0001F032F90646DAF83C104F
:1037F00000F02FFF0546039900F0D3FE0446214652
:103800005046FFF765FF029097E09AF838000228CB
:1038100056D1BAF8C010BAF8B020881A01D40146BF
:1038200000E04142B1F5FA7F2BDABAF9BE0001F0AF
:103830001CF9CDE90001BAF8C000BAF8B010B0EB3D
:10384000010B01D4594601E0CBF10001084601F01B
:103850000CF906460022264B01F08AF88046DDE985
:10386000002301F013F8044601F03DF900B2AAF874
:10387000BC00BAF9BC000A2807DA0A20AAF8BC0082
:1038800003E0BAF8BE00AAF8BC00BAF8C00047F6D8
:10389000FF71884235DABAF8C000BAF8B010884231
:1038A00028DABAF9BC0001F0D2F80546DAF83C1083
:1038B00000F0CFFE044621465046FFF709FF029074
:1038C0003BE00000680000206C0000200004004085
:1038D0000010014000007A44000034420000C84259
:1038E000CDCC4C3E000800405555054100C0794400
:1038F00000407F40002211465046DAF8D030984709
:103900001BE0BAF8C000BAF8B01088420FDDBAF96F
:10391000BC0001F09CF80546DAF83C1000F099FE76
:10392000044621465046FFF7D3FE029005E00022F0
:1039300011465046DAF8D0309847029801F0A6F8C0
:1039400000B2AAF8CA009AF80C00012806D0022892
:103950000CD0032812D0042820D117E0BAF8CA20CE
:1039600091B2DAF80400FEF7E3FA17E0BAF8CA20D9
:1039700091B2DAF80400FEF7DDFA0FE0BAF8CA20D7
:1039800091B2DAF80400FEF7D7FA07E0BAF8CA20D5
:1039900091B2DAF80400FEF7D1FA00BF00BF00BF11
:1039A000C1E610B5984800680078022821D1DC22D1
:1039B00096480168964800F0D0FDDC2295480168E1
:1039C000954800F0CAFD9148006800221146D0F8E1
:1039D000D0308E48006898478E4800680022114613
:1039E000D0F8D0308B480068984701208B49087088
:1039F00010BD85480068007888B98848007870B1A3
:103A0000002086490870DC2281498048006800F067
:103A1000A4FDDC2280497F48006800F09EFD8048BC
:103A2000FFF778FE7F48FFF775FE00BFE0E708B5B7
:103A300076480068808A75490968C98A08437549CB
:103A40000968898A084373490968C98A0843ADF837
:103A5000000010208DF8030001208DF80200694657
:103A60007148FCF711FE08BD00B58BB00121084676
:103A7000FDF7C9F80320ADF8280018208DF82B00B9
:103A800003208DF82A000AA96848FCF7FDFD4FF0D5
:103A90008040FDF785FB4FF08040FDF7E5FF4FF4D8
:103AA0007A70ADF820004820ADF81C000020ADF879
:103AB0002200ADF81E0007A94FF08040FDF744FC3E
:103AC0006020ADF80C000120ADF80E000020ADF82C
:103AD00014004FF47A70ADF8120003A9C006FDF788
:103AE00070FC0821C806FEF7BBF84FF47A70ADF8F9
:103AF000120003A9C006FDF7A6FC0821C806FEF7C0
:103B0000B8F801218807FEF77BF801218807FDF747
:103B100077FF01210620FDF776F8C020ADF82800D8
:103B200004208DF82B0003208DF82A000AA93F48B5
:103B3000FCF7AAFD0AA93E48FCF7A6FD3D48FDF7A3
:103B40002FFB3D48FDF72CFB4FF6FF70ADF8200032
:103B50000020ADF81C00ADF82200ADF81E0007A94A
:103B60003448FDF7F1FB07A93348FDF7EDFB0023CF
:103B70001A4603212F48FDF7F6FF00231A460321BA
:103B80002D48FDF7F0FF6846FDF71DFF0320ADF857
:103B9000080069462748FDF76AFE69462648FDF792
:103BA00066FE01212348FEF72BF801212248FEF78B
:103BB00027F801211F48FEF7FDF901211E48FEF7F5
:103BC000F9F9012211461B48FDF735FF0122114684
:103BD0001948FDF730FF01211648FDF711FF0121BB
:103BE0001548FDF70DFF09490968886847F6FF7118
:103BF000FEF79AF907490968886847F6FF71FEF7EA
:103C000093F90BB000BD00005C00002068000020AC
:103C1000F41200206C000020D0130020700000205F
:103C20003C11002018120020001001400008014043
:103C3000000C014000040040000800402DE9F0475E
:103C400004460D461646002726606560D4E900014B
:103C500000F0F9FCA060A168E06900F0A2FCE0615E
:103C6000D4E9020100F0EFFC8246A16900F0F1FC0A
:103C70008046A168206900F0ECFC8146414600F0D6
:103C800090FC0746E169606900F0E3FC8046394634
:103C900000F087FC6062A068E06094F82C0088B3B4
:103CA000D4E9090100F05CFF07D3A06A80F0004866
:103CB0004046616A00F054FF25D20021606900F09F
:103CC00045FF08D03946A06A00F0BDFC8046616916
:103CD00000F0F5FCE061D4E9090100F041FF02D2F7
:103CE000A06A60620BE0A06A80F000484046616A0A
:103CF00000F036FF03D2A06A80F000406062A06A44
:103D0000BDE8F087FFE7606AFAE70021C160C161A2
:103D1000816070472DE9F04704460D4616461F4660
:103D2000DDE908893821204600F030FC2561666114
:103D3000A761AFF2F7002063AFF23100606384F84F
:103D40002C80C4F82890BDE8F08700007CB50546BB
:103D5000AC1C94F90200012803DB94F9020003284B
:103D600007DD94F902108BA001F07EF84FF0FF30D0
:103D70007CBD94F90500002803DB94F905000328B5
:103D800007DD94F9051089A001F06EF86FF00100CD
:103D9000EEE7207AE179A27941EA0221CDE900102B
:103DA0002079E67840EA062294F9053094F9021069
:103DB00084A001F059F80020DAE770B50546AC1C84
:103DC00090A001F051F89448006800F11C061C22F4
:103DD0002946304600F0C1FB1C2231468F4800685E
:103DE0001C3000F0BAFB2079E67840EA0622A17880
:103DF0008A480068D0F8D030884800689847E07951
:103E0000A67940EA0622617983480068D0F8D0306C
:103E100081480068984770BD7FB50546AC1CA07806
:103E2000012802DBA078032807DDA17859A001F062
:103E30001BF84FF0FF3004B070BDE079012802DBC1
:103E4000E079032806DD617958A001F00DF86FF0E4
:103E50000100F0E7207BE17AA27A41EA0221627A4E
:103E6000237A42EA0322E379CDE90032CDE9021058
:103E7000A079667940EA06232079E67840EA0622AE
:103E8000A178674800F0F0FF0020D4E72DE9F04169
:103E90000546AC1C63A000F0E7FF5F48006800F136
:103EA0001C061C222946304600F057FB1C223146D6
:103EB0005A4800681C3000F050FBA079677940EA4E
:103EC000072003B22079E77840EA0722A178534817
:103ED0000068D0F8D46051480068B047E07AA77A0B
:103EE00040EA072003B2607A277A40EA0722E179A4
:103EF00049480068D0F8D46047480068B047BDE83A
:103F0000F08170B50546AC1CA078B42806DDA17818
:103F10004BA000F0A9FF4FF0FF3070BDA1784EA07C
:103F200000F0A2FF0020F8E770B50446A51C4FA0E2
:103F300000F09AFF1C222146384800681C3000F02F
:103F40000CFBA9784E480068826A4D48006890478B
:103F5000A9784C480068826A4A480068904770BD5A
:103F600000B587B00BE0059820B1684606998847F0
:103F700000B10BE0059810B168460599884769467D
:103F800041480068FEF7D0FB0028ECD000BF07B026
:103F900000BD0000D7F3C2D6B7BDCFF2B2CECAFD86
:103FA000B3F6B4EDA3BA25640D0A0000D3D2C2D68D
:103FB000B7BDCFF2B2CECAFDB3F6B4EDA3BA256455
:103FC0000D0A00000D0A0D0A0D0AD7F3C2D6B7BDBF
:103FD000CFF2A3BA256420CBD9B6C8A3BA25640D05
:103FE0000AD3D2C2D6B7BDCFF2A3BA256420CBD9AB
:103FF000B6C8A3BA25640D0AD0F2BAC5A3BA25641F
:104000000D0A00000D0AD6B4D0D0D4CBB6AFD6B8C6
:10401000C1EE0D0A000000006C00002068000020C6
:104020007C5700080D0AD6B4D0D0CBABC2D6D7D4BB
:10403000B6A8D2E5C2EBCAFDC3FCC1EE0D0A000072
:10404000B6E6BBFABDC7B6C8B2CECAFDB3F6B4ED8C
:10405000A3BA25640D0A00000D0AB6E6BBFABDC777
:10406000B6C8A3BA25640D0A000000000D0AD6B434
:10407000D0D0B6E6BBFAD6B8C1EE0D0A00000000FB
:1040800050000020540000204C00002070B5044671
:104090000E4626B14021FE48FCF7A1FB03E040217B
:1040A000FB48FCF79EFB4FF48051FA48FCF799FB64
:1040B00000251BE04FF40051F648FCF792FB14F08A
:1040C000800F05D04FF40041F248FCF788FB04E074
:1040D0004FF40041EF48FCF784FB4FF40051ED48EA
:1040E000FCF77DFB6006040E681CC5B2082DE1DB01
:1040F0004FF48051E748FCF772FB4021E448FCF79D
:104100006EFB70BD70B504460D4605F1B001C8B236
:104110000021FFF7BBFF102141EA14100021FFF737
:10412000B5FF04F00F0141F001000021FFF7AEFFE1
:1041300070BD10B500218D20FFF7A8FF00211420CD
:10414000FFF7A4FF0021AF20FFF7A0FF10BD10B5BF
:1041500000218D20FFF79AFF00211020FFF796FF26
:104160000021AE20FFF792FF10BD2DE9F04105467A
:104170000F46681EC4B219E004F1B001C8B20021B4
:10418000FFF784FF00210846FFF780FF0021102081
:10419000FFF77CFF002605E001210020FFF776FFF6
:1041A000701CC6B2802EF7DB601CC4B2BC42E3DBDD
:1041B000BDE8F0812DE9F04107460E469046002506
:1041C0000024A8F12000C5B27F2F02DD0027B01C1B
:1041D000C6B231463846FFF795FF002408E004EBED
:1041E0000511AD4A505C0121FFF750FF601CC4B2BD
:1041F000082CF4DB701CC1B23846FFF783FF0024A3
:1042000009E004EB05110831A34A505C0121FFF7D6
:104210003DFF601CC4B2082CF3DBBDE8F08110B593
:104220000246012000E050430B00A1F10104E1B27D
:10423000F9D110BD2DE9FF5F074691461D460E9E40
:104240004FF0000A002433E0281B401EC1B20A20B0
:10425000FFF7E5FFB9FBF0F00A21B0FBF1F201FB3B
:104260001208BAF1000F13D1681EA04210DDB8F198
:10427000000F0BD1B34606EBDB71491001FB047153
:10428000C8B220220199FFF795FF0FE04FF0010A15
:10429000B34606EBDB71491001FB0471C8B208F1AB
:1042A0003001CAB20199FFF785FF00BF601CC4B29C
:1042B000AC42C9DBBDE8FF9F2DE9F04106460F4641
:1042C0001546002417E0285D0D2802D0285D0A2835
:1042D00002D1601CC4B211E02A5D39463046FFF7B6
:1042E00069FF06F10800C6B2782E02DD0026B81C70
:1042F000C7B2601CC4B2285D0028E4D100BFBDE88D
:10430000F0812DE9F04180460E46154600273146E2
:104310004046FFF7F7FE00240AE0604A02EB8511F1
:10432000085D0121FFF7B2FE781CC7B2601CC4B261
:10433000102CF2DB701CC1B24046FFF7E3FE0024F4
:104340000CE06900491C554A02EB4111085D01214E
:10435000FFF79CFE781CC7B2601CC4B2102CF0DBC7
:10436000BDE8F0812DE9F05F06460F4690461C46F9
:10437000DDF828A04FF0000BE11704EB5171C910D4
:10438000B4EBC10105D12046E11704EB5171CD100A
:1043900005E02046E11704EB5171C9104D1C3D4664
:1043A00015E029463046FFF7ADFEB1460BE0594611
:1043B0000BF1010B1AF801000121FFF767FE09F16B
:1043C000010000F0FF09C145F1DB681CC5B2A54240
:1043D000E7DBBDE8F09F08B54020ADF800001020F5
:1043E0008DF8030003208DF8020069462848FCF789
:1043F0004BF94FF47040ADF8000010208DF8030029
:1044000003208DF8020069462248FCF73DF94FF47D
:1044100070412048FCF7E3F940211D48FCF7DFF923
:1044200008BD10B54FF480411A48FCF7D8F9642054
:10443000FEF7EFF84FF480411648FCF7D2F9C82098
:10444000FEF7E7F84FF480411248FCF7C8F9002165
:10445000AE20FFF71BFE00210846FFF717FE0021E4
:104460001020FFF713FE00214020FFF70FFE002170
:104470008120FFF70BFE0021CF20FFF707FE002170
:10448000A120FFF703FE0021C820FFF7FFFD07E092
:1044900000100140000C0140F259000831020020D8
:1044A0000021A620FFF7F2FD0021A820FFF7EEFD76
:1044B00000213F20FFF7EAFD0021D320FFF7E6FDB2
:1044C00000210846FFF7E2FD0021D520FFF7DEFDC1
:1044D00000218020FFF7DAFD0021D920FFF7D6FD6B
:1044E0000021F120FFF7D2FD0021DA20FFF7CEFDF9
:1044F00000211220FFF7CAFD0021DB20FFF7C6FDD7
:1045000000214020FFF7C2FD00212020FFF7BEFD63
:1045100000210220FFF7BAFD00218D20FFF7B6FD34
:1045200000211420FFF7B2FD0021A420FFF7AEFD0B
:104530000021A620FFF7AAFD0021AF20FFF7A6FD6E
:104540000021AF20FFF7A2FD08210120FFF70DFE9B
:1045500000210846FFF7D6FD10BD40EA01039B0786
:1045600003D009E008C9121F08C0042AFAD203E0E8
:1045700011F8013B00F8013B521EF9D27047D2B24C
:1045800001E000F8012B491EFBD270470022F6E73C
:1045900010B513460A4604461946FFF7F0FF2046B9
:1045A00010BDF0B480EA0102D40F4200B2EB410F1B
:1045B00002D20246084611464A0042D0C30DDDB27F
:1045C000C1F3C752AD1A202D35DAC1F3160141F4FB
:1045D000000204B15242C5F1200602FA06F12A4156
:1045E0001044B3EBD05F23D0C4B1012DA0EBC35076
:1045F00009DCF0BC4FF0004202EAC35200F50000B3
:10460000DBB200F038BB400000F1807000EBC3501B
:10461000A0F1807040EAD170490009E0490841EA00
:10462000C071A0EBC35000F50000400800EBC35080
:10463000F0BC00F017BB6142012202EB4101001BFC
:10464000F6E7F0BC704781F00041AAE780F0004037
:10465000A7E780EA010210B502F00043400026D02F
:104660004A0023D04FEA106101EB1261C0F35600FB
:10467000C2F3560240F4000042F40002A0FB022004
:10468000A1F17F014FEA0040140401D000F10100C4
:1046900050EA124001D44000491EC2B20C0604EB9D
:1046A000D010401C4008802A02D003E0002010BD3A
:1046B00020F00100002900DA0020184310BD30B4BA
:1046C00080EA010202F0004530F0004221F0004093
:1046D00015D0A0B1C0F3C753C2F3C754C2F316013B
:1046E000C0F31600E41A41F4000140F400027D34E6
:1046F000914201D3641C00E04900002C02DA30BC76
:10470000002070474FF400000023914201D3891A22
:10471000034340084FEA4101F7D151B1914202D120
:104720004FF0004105E002D24FF0010101E06FF0CF
:10473000010103EBC450284430BC00F093BA2DE9CA
:10474000FE4F804681EA0300C00F0C46009021F026
:10475000004123F00045B8EB0200A94105D24046D4
:10476000214690461C460B46024623F0004010436B
:1047700004D14046214603B0BDE8F08F270DC7F3B2
:104780000A00C3F30A510290401A0190402866DAE9
:10479000C3F3130040F4801B0098924620B100231D
:1047A000D2EB030A63EB0B0B01985946C0F14002B0
:1047B000504600F026FA06460D4650465946019AE4
:1047C00000F03EFA10EB08006141002487EA115224
:1047D00084EAE7731A433BD0009A3AB3019A012A5C
:1047E0004FEA075210DC001B61EB02014FF0004260
:1047F00002EA0752CDE90042001C41F58011324621
:104800002B4600F072FAB6E7001B61EB0201001CB8
:1048100041F5801300185B412018A2F5001747EB03
:10482000030140EAD570B6196D4111E06D084FEAF9
:10483000360645EAC0754FEA0752001B61EB0201DC
:10484000001C41F5801149084FEA30000019514120
:1048500032462B4603B0BDE8F04F00F039BA00985D
:10486000012240000023D0EB020263EBE0730098CA
:1048700021464FEAE074B8EB000061EB0401E9E780
:1048800083F000435BE781F0004158E72DE9FE4FDC
:1048900081EA030404F0004421F0004100944FF049
:1048A000000B23F0004350EA010402D052EA030453
:1048B00004D10020014603B0BDE8F08FC3F30A54D1
:1048C000C1F30A552C44A4F2F3340194A0FB025422
:1048D000C1F3130141F48011C3F3130343F48013B4
:1048E00001FB024400FB034E840A970A44EA815408
:1048F00047EA8357A4FB076802958D0A05FB0785E5
:104900004FEA932C04FB0C542705029D4FEA0658EE
:1049100047EA1637B5EB08056EEB070C870E920ECB
:1049200047EA811742EA8312A7FB0201B6EB0B01AB
:1049300064EB00042B0D43EA0C335E1844EB1C506F
:10494000DA465146E7FB0201C5F313044FEA0B3385
:1049500043EA14534FEA0432019C43EA0603A4F1EC
:104960000C040294009CCDE900B400F0BEF9A2E76B
:104970002DE9F04D81EA030404F0004B21F00045DD
:1049800014464FF0000A23F0004150EA050220D0FF
:1049900054EA01021DD0C5F30A570246C5F31303BA
:1049A000C1F31300C1F30A5640F4801543F4801399
:1049B000A7EB0608101BD64608F2FD3873EB05007E
:1049C00002D308F1010801E092185B41B8F1000F31
:1049D00003DA00200146BDE8F08D00204FF480117D
:1049E000064684460EE0171B73EB050705D3121B22
:1049F00063EB050306434CEA010C49084FEA30001B
:104A000092185B4150EA0107EDD152EA030012D03F
:104A100082EA040083EA0501084303D100224FF033
:104A2000004308E0101BAB4102D20122002302E048
:104A30006FF0010253101AEB06004CEB085110EB1B
:104A40000A0041EB0B01BDE8F04D00F041B9C10F88
:104A500080EAE0700844CA079623002100F00BB9F1
:104A600096230022114600F006B90EB5C10F80EA68
:104A7000E0700844CA07002140F233438DE80E007D
:104A80000A460B4600F031F903B000BD00F00042C9
:104A900020F00040C10DC0F3160040F400007F2953
:104AA00001DA00207047962903DCC1F19601C84065
:104AB00001E096398840002AF4D04042704720F047
:104AC0000040C10DC0F3160040F400007F2901DA58
:104AD00000207047962903DCC1F19601C840704759
:104AE00096398840704770B5C1F30A5201F000450D
:104AF0000024C1F3130140F2FF3341F480119A42C4
:104B000001DA002070BD40F233439A42A2F23342F0
:104B100003DC524200F084F800E090402C43F1D0D6
:104B2000404270BD00F0004230F000400AD0C10D9C
:104B300001F56071C0F3160042EA0151C208400756
:104B4000114370470020014670470000002801DB38
:104B5000C0F10040002901DBC1F1004181427047F2
:104B6000002801DBC0F10040002901DBC1F1004158
:104B70008842704730B50B460146002020220124B0
:104B800009E021FA02F59D4205D303FA02F5491B1B
:104B900004FA02F52844151EA2F10102F1DC30BD31
:104BA0002DE9F05F0546002092469B468846064662
:104BB000814640241BE0284641464746224600F0F5
:104BC0002FF853465A46C01A914110D31146184641
:104BD000224600F016F82D1A67EB01084F462246D0
:104BE0000120002100F00DF817EB00094E41201EB6
:104BF000A4F10104DFDC484631462A464346BDE8BD
:104C0000F09F202A04DB203A00FA02F100207047CE
:104C10009140C2F1200320FA03F3194390407047FA
:104C2000202A04DB203A21FA02F00021704721FA01
:104C300002F3D040C2F12002914008431946704768
:104C4000202A06DBCB17203A41FA02F043EAE07350
:104C500006E041FA02F3D040C2F12002914008433D
:104C6000194670470029A8BF7047401C490008BF7B
:104C700020F00100704710B4B0FA80FC00FA0CF08C
:104C800050EA010404BF10BC704749B1CCF12004C4
:104C900021FA04F411FA0CF118BF01212143084351
:104CA000A3EB0C01CB1D0106000A002BBEBF0020A8
:104CB00010BC704700EBC35010440029A4BF10BCC7
:104CC0007047401C490008BF20F0010010BC70472D
:104CD00010B5002B08DA401C41F1000192185B412D
:104CE0001A4301D120F0010010BD2DE9F04D92468C
:104CF0009B4611B1B1FA81F202E0B0FA80F22032A3
:104D00009046FFF77EFF04460F4640EA0A0041EA5C
:104D10000B0153465A46084303D120463946BDE8A5
:104D2000F08D114653EA010015D0C8F140025046FB
:104D3000FFF776FF05460E46504659464246FFF7B6
:104D400060FF084301D0012000E00020054346EA4F
:104D5000E0762C4337430A984FEA4453A0EB08000F
:104D60004FEAD4240A304FF0000244EA47544FEA95
:104D7000D72502D500200146D1E701051019694168
:104D8000DDE9084500196941BDE8F04DA0E7C1F330
:104D90000A52C1F3130140F2FF3341F480119A42E9
:104DA00002DA00200146704740F233439A42A2F2F1
:104DB000334202DC5242FFF733BFFFF722BF00004D
:104DC00030B5002904DB4FF00044404264EB0101A0
:104DD000002B04DB4FF00044524264EB0303994282
:104DE00008BF904230BD0000064C074D06E0E06869
:104DF00040F0010394E8070098471034AC42F6D322
:104E0000FBF79AF9F45F00081460000870B501EB35
:104E1000020410F8015B15F0070301D110F8013B03
:104E20002A1106D110F8012B03E010F8016B01F8EC
:104E3000016B5B1EF9D12B0705D40023521E0FD442
:104E400001F8013BFAE710F8013B02F10202A1EB85
:104E5000030303E013F8015B01F8015B521EF9D56F
:104E6000A142D6D3002070BD0FB4054B10B503A9E5
:104E7000044A029800F0DAF810BC5DF814FB000058
:104E8000A72B0008740300200FB4084B10B504A929
:104E900002AA039800F0CAF8044602A9002000F014
:104EA00068FC204610BC5DF814FB00007357000836
:104EB00002E008C8121F08C1002AFAD170477047E3
:104EC000002001E001C1121F002AFBD17047000041
:104ED0002DE9FF5FDDE90220010DDDF838B0024366
:104EE00010D10F9801244CA2012808D0002100986D
:104EF0000F9BC0E90021C0E90243BDE8FF9F6FEAB4
:104F00000B01F4E7A1F2FF3144F6105041430D14B8
:104F10000F9801280ED0A5EB0B00401C4FF00004A9
:104F20003E4EDFF8FC90B0F1000AA04605DACAF167
:104F3000000717E0CBF10000F0E7074612E0F807A2
:104F400007D02246334640464946FFF79FFC80463D
:104F500089462246334610461946FFF797FC044619
:104F60000E467F10002FEAD1DDE90201BAF1000FF1
:104F700042464B4602DAFFF789FC01E0FFF7F8FCF6
:104F800004460E460022274BFFF71AFF03D84FF0C6
:104F9000FF30014607E00022234B20463146FFF751
:104FA000CEFBFFF7F4FE102409E0002C0ADB0A22F6
:104FB0000023FFF7F5FD019B30321A55641E50EABD
:104FC0000102F2D1641C019AC4F1110314440F9A36
:104FD000012A09D00122084301D15B450FDD4FF0C2
:104FE000000205F101050DE0084303D1A3EB0B0519
:104FF0006D1E09E000204FF0110B0F9088E701DAD9
:1050000000226D1E002A83D000980F99C0E902315A
:10501000C0E9004571E700003000000000002440B6
:105020000000F03F0000F0430000E03F2DE9FF4F9B
:1050300095B09B4689460646002512E2252878D180
:105040000024761CF94A2746012105943378203B39
:1050500001FA03F0104202D00443761CF6E73078E0
:105060002A2811D06FF02F033078A0F13002092ADE
:1050700016D8059A44F0020402EB820203EB4202C6
:105080001044761C0590EFE759F8042B0592002A8E
:1050900003DA504244F40054059044F00204761CB4
:1050A00030782E2816D116F8010F44F004042A286F
:1050B0000DD06FF02F023078A0F13003092B09D802
:1050C00007EB870302EB4303C718761CF3E759F895
:1050D000047B761C30786C280FD006DC4C2817D067
:1050E00068280DD06A2814D104E0742810D07A28DA
:1050F0000FD10DE044F400140AE044F4801401E000
:1051000044F440147278824202D1761C04F5801473
:10511000761C307866280BD013DC582877D009DC51
:10512000002875D04528F6D04628F4D047281AD153
:105130009FE118E0632835D0642879D0652812D122
:1051400097E1702873D008DC6728F1D069286FD008
:105150006E280DD06F2806D1B5E073282CD07528A5
:1051600075D0782874D05A46179990476D1C76E10F
:10517000C4F30250022809D003280DD0D9F800103A
:1051800004280DD00D6009F1040968E1D9F8001078
:10519000EA17C1E90052F6E7D9F800100D80F2E7EE
:1051A0000D70F0E719F8041B8DF8001000208DF841
:1051B0000100EA46012003E059F804AB4FF0FF304C
:1051C00061074FF0000102D40DE008F101018846AB
:1051D000B9420FDA8045F8DB1AF808100029F4D13B
:1051E00008E008F1010188468142FADB1AF808104C
:1051F0000029F6D105985B46A0EB08072146384602
:10520000179A00F09EFA284400EB080507E04DE0ED
:105210002BE10DE01AF8010B5A4617999047B8F1A7
:105220000108F7D25B4621463846179A14E142E05E
:105230000A220092C4F302524FF0000A022A08D058
:1052400059F804CB032A4FEAEC710AD00DE029E0AB
:105250002AE009F1070121F00702F2E802C19146B4
:1052600009E00FFA8CFC4FEAEC71042A03D14FFAE3
:105270008CFC4FEAEC71002907DA0A460021DCF1C8
:10528000000C61EB02012D2202E0220504D52B2245
:105290008DF80420012203E0E20701D02022F7E785
:1052A000904653E00A2102E010220DE010214FF059
:1052B000000A00910BE010224FF0000A44F00404B1
:1052C0000827009203E008224FF0000A0092C4F37E
:1052D0000252022A05D059F804CB0021032A08D033
:1052E00009E009F1070121F00702F2E802C1914645
:1052F00005E01FFA8CFC042A01D10CF0FF0C4FF0E2
:105300000008220722D5702827D0009B83F01003C5
:1053100053EA0A0309D15CEA010206D030228DF873
:1053200004208DF8050002229046009B83F00803BC
:1053300053EA0A030AD15CEA010201D1620705D5EA
:1053400030228DF804204FF001087F1E582809D024
:1053500037A003900EA8029013E040228DF804209D
:105360000122E1E737A0F4E753466046009AFFF7D1
:1053700017FC84460398825C0298A0F10100029019
:1053800002705CEA0100EFD1029806A9A1EB0000CF
:1053900000F1200A600702D524F4803400E00127E0
:1053A000574502DDA7EB0A0000E0002000EB0A01F0
:1053B000009005984144A0EB01000590E00306D45D
:1053C0005B462146179A059800F0BBF90544002773
:1053D00006E001A85A46C05D179990476D1C7F1CD6
:1053E0004745F6DBE0030CD55B462146179A059846
:1053F00000F0A7F9054404E030205A461799904779
:105400006D1C0099481E00900029F5DC08E0029808
:1054100002995A460078491C0291179990476D1CD1
:10542000BAF10001AAF1010AF1DC6BE109280100DF
:10543000303132333435363738396162636465660A
:1054400000000000303132333435363738394142CC
:10545000434445460000000000F060F9054406F1B1
:105460000106307800287FF4E9AD19B02846BDE880
:10547000F08F620700D4062709F1070222F0070C1B
:10548000FCE80223E14603F000485FEA080C02D082
:105490000FF27C2C0DE05FEA045C02D50FF2742C55
:1054A00007E05FEAC47C02D00FF26C2C01E0AFF29F
:1054B000700C4FF0FF3823F00043CDF850C0652842
:1054C0000CD006DC452809D046281DD047283ED1FF
:1054D0003EE0662818D0672839D139E00021112F25
:1054E00001DB112000E0781CCDE9000106A90EA81F
:1054F000FFF7EEFCDDE90F010E9A03910021009207
:1055000007F1010A04914EE04FF000400097CDE909
:10551000011006A90EA8FFF7DBFCDDE90F020392DC
:105520000E9B11990022DDF80CA00093049219B98A
:1055300007F1010100EB010AB7EB0A0004D4C0F146
:10554000FF3007F1010A0490AAEB0700019046E042
:10555000012F00DA01270021112F01DD112000E0C9
:105560003846CDE9000106A90EA8FFF7B1FCDDE938
:105570000F010E9A0391002104910092BA4621076F
:105580000CD40399514500DA8A46BAF1010F05DDC2
:10559000009AAAF10101515C302908D0B84202DA20
:1055A00010F1040F06DA0121CDE9011017E0AAF18C
:1055B0000101E9E7002805DC049901440491AAEB04
:1055C000000102E0411C514500DD8A460499A0EB30
:1055D000010000F1010001904FF00040029020070F
:1055E00004D40198504501DBCDF8048000208DF8EB
:1055F0004F0002980DF14F07B0F1004F25D02B203E
:105600000E9002984FF0020800280CDA40420290F7
:105610002D200E9007E00A210298FFF7ABFA3031F7
:10562000029007F8011DB8F10001A8F10108F2DCB1
:1056300002980028EFD1791E0E980870307800F09B
:10564000200040F0450007F8020D12A8A0EB07006B
:1056500000F107081498007800B1012000EB0A015E
:10566000019801EBE07105984144A0EB0100A0F125
:1056700001000590E00306D45B462146179A059881
:1056800000F05FF805441498007820B15A46179945
:10569000904705F10105E00323D55B462146179AA3
:1056A000059800F04EF805441BE00498002807DB3D
:1056B0000399814204DD04990098405C179901E048
:1056C000179930205A46904704986D1C401C04904E
:1056D0000198401E019004D12E205A4617999047F8
:1056E0006D1CBAF10001AAF1010ADEDC05E017F831
:1056F000010B5A46179990476D1CB8F10001A8F1AB
:105700000108F4DC5B462146179A0598A4E60000E0
:105710002D0000002B000000200000002DE9F041CA
:10572000044600251E461746880405D406E039467F
:105730002020B04705F10105641EF8D52846BDE8D4
:10574000F0812DE9F041044600251E469046C8032D
:1057500001D5302700E02027880405D506E0414622
:105760003846B04705F10105641EF8D52846BDE866
:10577000F0810A68531C0B6010707047D7F3C2D6D3
:10578000B7BDCFF2A3BA256420CBD9B6C8A3BA253A
:105790006420B1E0C2EBA3BA2564200D0AD3D2C2C3
:1057A000D6B7BDCFF2A3BA256420CBD9B6C8A3BA69
:1057B000256420B1E0C2EBA3BA2564200D0A20D0F5
:1057C000F2BAC5A3BA25640D0A000000000000006B
:1057D0000000002F000000000700070000147F14E5
:1057E0007F1400242A7F2A120062640813230036E3
:1057F0004955225000000503000000001C22410012
:10580000000041221C000014083E08140008083E55
:105810000808000000A06000000808080808000050
:1058200060600000002010080402003E5149453E1F
:105830000000427F4000004261514946002141453D
:105840004B31001814127F10002745454539003CA4
:105850004A49493000017109050300364949493672
:1058600000064949291E0000363600000000563661
:105870000000000814224100001414141414000045
:105880004122140800020151090600324959513ED3
:10589000007C1211127C007F49494936003E41418B
:1058A0004122007F4141221C007F49494941007F3C
:1058B00009090901003E4149497A007F0808087F2B
:1058C0000000417F4100002040413F01007F08145B
:1058D0002241007F40404040007F020C027F007F59
:1058E0000408107F003E4141413E007F090909063E
:1058F000003E4151215E007F091929460046494971
:1059000049310001017F0101003F4040403F001F3D
:105910002040201F003F4038403F006314081463BC
:1059200000070870080700615149454300007F41A6
:10593000410000552A552A55000041417F000004CE
:105940000201020400404040404000000102040007
:10595000002054545478007F48444438003844446C
:10596000442000384444487F0038545454180008F8
:105970007E0901020018A4A4A47C007F0804047816
:105980000000447D4000004080847D00007F10289E
:1059900044000000417F4000007C04180478007C33
:1059A0000804047800384444443800FC24242418B3
:1059B0000018242418FC007C0804040800485454EF
:1059C000542000043F444020003C4040207C001C08
:1059D0002040201C003C4030403C0044281028441B
:1059E000001CA0A0A07C004464544C441414141463
:1059F000141400000000000000000000000000007F
:105A00000000000000F8000000000000003330003B
:105A1000000000100C06100C060000000000000042
:105A2000000040C07840C0784000043F04043F04B8
:105A30000400007088FC08300000001820FF211EC0
:105A40000000F008F000E018000000211C031E21F7
:105A50001E0000F00888700000001E212324192772
:105A6000211010160E0000000000000000000000D1
:105A70000000000000E018040200000000071820E9
:105A8000400000020418E000000000402018070059
:105A90000000404080F0804040000202010F0102FF
:105AA0000200000000F0000000000101011F0101E0
:105AB0000100000000000000000080B07000000045
:105AC00000000000000000000000000101010101D1
:105AD0000101000000000000000000303000000064
