:020000040800F2
:1000000070080020C1110008E9020008EB02000896
:10001000EF020008F3020008F702000800000000E9
:10002000000000000000000000000000FD020008C9
:10003000FB02000800000000FF02000801030008A6
:10004000030300080503000807030008090300086C
:100050000B0300080D0300080F030008110300083C
:10006000130300081503000817030008190300080C
:100070001B0300081D0300081F03000821030008DC
:1000800023030008250300082703000829030008AC
:100090002B0300082D0300082F030008310300087C
:1000A000330300083503000837030008390300084C
:1000B0003B0300083D0300083F030008410300081C
:1000C00043030008450300084703000849030008EC
:1000D0004B0300084D0300084F03000851030008BC
:1000E000530300085503000857030008590300088C
:1000F0005B0300085D0300085F030008610300085C
:10010000630300086503000867030008690300082B
:100110006B0300086D0300086F03000871030008FB
:1001200073030008750300087703000879030008CB
:1001300000F002F800F03AF80AA090E8000C8244BF
:100140008344AAF10107DA4501D100F02FF8AFF29C
:10015000090EBAE80F0013F0010F18BFFB1A43F0A5
:1001600001031847EC1200000C130000103A24BFE2
:1001700078C878C1FAD8520724BF30C830C144BF0C
:1001800004680C607047000000230024002500264E
:10019000103A28BF78C1FBD8520728BF30C148BFEA
:1001A0000B6070471FB51FBD10B510BD01F00FF9F2
:1001B0001146FFF7F7FF00F060F801F02DF903B4E6
:1001C000FFF7F2FF03BC01F031F9000038B5044637
:1001D0004148007888B14FF48060ADF800001020ED
:1001E0008DF8030003208DF8020069463B4800F0BB
:1001F0002DF900203849087000BF2CB94FF48061F8
:10020000364800F0CDF904E04FF48061334800F047
:10021000C9F938BD1FB5044600940020ADF80400AC
:10022000ADF80600ADF80800ADF80C000C20ADF8F4
:100230000A0069462A4800F056FC0121284800F0CF
:10024000C0FC1FBD08B54FF40070ADF800000320DE
:100250008DF8020018208DF803006946214800F04F
:10026000F5F84FF48060ADF8000004208DF803002D
:1002700069461C4800F0EAF808BD08B500F0B2FF76
:1002800001F003F8FFF7DEFF4FF41650FFF7C2FF4F
:100290004FF48060ADF8000010208DF803000320BB
:1002A0008DF8020069460D4800F0D0F813E04FF4D5
:1002B00080610A4800F074F94FF48061074800F04B
:1002C00062F94FF48061054800F06CF94FF48061E9
:1002D000024800F058F9EAE700000020000C014055
:1002E0000038014000080140704700BFFEE700BF32
:1002F000FEE700BFFEE700BFFEE7704770477047AC
:100300007047704770477047704770477047704735
:100310007047704770477047704770477047704725
:100320007047704770477047704770477047704715
:100330007047704770477047704770477047704705
:1003400070477047704770477047704770477047F5
:1003500070477047704770477047704770477047E5
:1003600070477047704770477047704770477047D5
:1003700070477047704770477047000010B50446DB
:10038000C449601A8C422FD009DCC348201810D011
:10039000B0F5806F16D0B0F5006F4AD11BE0B0F514
:1003A000806F2AD0B0F5006F30D0B0F5406F40D1EB
:1003B00035E00121042000F0FBFA0021042000F0C8
:1003C000F7FA37E00121082000F0F2FA00210820B6
:1003D00000F0EEFA2EE00121102000F0E9FA0021F1
:1003E000102000F0E5FA25E00121202000F0E0FADD
:1003F0000021202000F0DCFA1CE00121402000F068
:10040000D7FA0021402000F0D3FA13E00121802028
:1004100000F0CEFA0021802000F0CAFA0AE00121A3
:10042000080200F0C5FA00214FF4807000F0C0FA15
:1004300000E000BF00BF10BD10B50121084600F06C
:10044000B7FA0021012000F0B3FA10BD2DE9F04108
:10045000024600250026002000230024002791F8F2
:1004600003C00CF00F0591F803C01CF0100F03D06F
:1004700091F802C04CEA050591F800C0BCF1000FEC
:1004800030D0146800202AE04FF0010C0CFA00F381
:10049000B1F800C00CEA03069E421FD183004FF062
:1004A0000F0C0CFA03F7BC4305FA03FC4CEA0404F6
:1004B00091F803C0BCF1280F05D14FF0010C0CFAE4
:1004C00000FCC2F814C091F803C0BCF1480F05D17C
:1004D0004FF0010C0CFA00FCC2F810C0401C0828B8
:1004E000D2D31460B1F800C0BCF1FF0F34DD546802
:1004F00000202EE000F1080C4FF0010808FA0CF380
:10050000B1F800C00CEA03069E4221D183004FF0EF
:100510000F0C0CFA03F7BC4305FA03FC4CEA040485
:1005200091F803C0BCF1280F05D100F1080C08FABE
:100530000CF8C2F8148091F803C0BCF1480F07D141
:1005400000F1080C4FF0010808FA0CF8C2F810800E
:10055000401C0828CED35460BDE8F0814FF6FF71EF
:100560000180022181700421C17070470246002081
:1005700093680B4201D0012000E000207047014643
:10058000886880B2704702460020D3680B4201D0D1
:10059000012000E0002070470146C86880B2704723
:1005A00001617047416170470AB1016100E041613A
:1005B0007047C16070474FF480320A4382618161A5
:1005C000826182698269704702460020334B186855
:1005D0004FF68073184040EA021008432F4B186012
:1005E00070472F49C8617047F0B50A4600230024C0
:1005F00000210025294E7168C0F3034583B200F441
:100600004016B6F5401F08D121F07061234E766880
:1006100026F07066214F7E6012E000F48016B6F579
:10062000801F06D1032606FA05F4A14341F070614C
:1006300006E0460D360103FA06F6B14341F070615B
:1006400022B1460D360103FA06F63143134E7160AE
:10065000F0BD30B500228B071C0F0F2303FA04F204
:100660000E4B08338C1053F8243093430B4C083452
:100670008D1044F8253023468C1053F824308C0715
:10068000240F00FA04F42343044C08348D1044F87A
:10069000253030BD0014014000F8FEBF00000140CD
:1006A00000002042DE48006840F00100DC4908609C
:1006B00008464068DB490840D94948600846006858
:1006C000D9490840D64908600846006820F48020CF
:1006D00008600846406820F4FE00486000208860FA
:1006E0007047CF49096821F48031CD4A1160114625
:1006F000096821F480211160B0F5803F03D0B0F586
:10070000802F0ED106E0C649096841F48031C44A01
:10071000116007E0C249096841F4A021C04A116094
:1007200000E000BF00BF704710B501460022002363
:1007300000204A11012A02D1B94C236806E0022A9E
:1007400002D1B74C236A01E0B54C636A01F01F0285
:10075000012494401C4201D0012000E0002010BD83
:1007600010B5002400BF3120FFF7DEFFAF4908704D
:10077000AF480068401CAE490860AC48007828B912
:1007800008460068A0F58071FF39ECD13120FFF7F1
:10079000CBFF08B1012400E00024204610BD014633
:1007A00000209F4A106820F0F80040EAC100106065
:1007B0007047A0490860704702460020984B58686F
:1007C00020F47C1042EA01031843954B58607047AF
:1007D00098490866704701460020914A506820F009
:1007E00003000843506070478D48406800F00C00DB
:1007F0007047014600208A4A506820F0F000084304
:100800005060704701460020854A506820F4E0603F
:1008100008435060704701460020814A506820F428
:10082000605040EAC1005060704729B17C4A527A5A
:1008300002437B4B5A7204E0794A527A8243784BE6
:100840005A7270477C490860704701460020744A1C
:10085000506820F440400843506070470021774AB8
:1008600011706F4A82F82010012802D0042808D1A4
:1008700003E00121714A117004E005216F4A1170F3
:1008800000E000BF00BF70476D49086070476449D1
:10089000096A0143624A1162704769494439086034
:1008A000704730B500210022002400235C4D6D68A4
:1008B00005F00C0121B1042905D0082923D105E058
:1008C000604D056022E05F4D05601FE0544D6D688E
:1008D00005F47012022505EB9242514D6D6805F446
:1008E00080341CB9584D554305600BE04C4D6D6884
:1008F00015F4003F03D0544D5543056002E0514DBF
:100900005543056002E04F4D056000BF00BF444DF8
:100910006D6805F0F00109094C4D6B5C0568DD4020
:1009200045603F4D6D6805F4E061090A474D6B5C19
:100930004568DD4085603A4D6D6805F46051C90A2F
:10094000424D6B5C4568DD40C560354D6D6805F412
:100950004041890B3E4D6B5CC568B5FBF3F5056105
:1009600030BD29B12E4A526902432D4B5A6104E031
:100970002B4A526982432A4B5A61704729B1284A4F
:1009800092690243264B9A6104E0254A92698243A8
:10099000234B9A61704729B1214AD2690243204B07
:1009A000DA6104E01E4AD26982431D4BDA61704766
:1009B00029B11B4AD2680243194BDA6004E0184A95
:1009C000D2688243164BDA60704729B1144A126923
:1009D0000243134B1A6104E0114A12698243104B1F
:1009E0001A61704716494039086070471149C86458
:1009F00070470B49C87170470948406A40F08070E1
:100A000007494862704701460020054A92680A4239
:100A100001D0012000E00020704701498872704732
:100A2000001002400000FFF8FFFFF6FE0800002063
:100A30000400002000004242D80042422010024040
:100A40008004424200127A0000093D003A14000876
:100A50004A14000810B50446D749601A8C422BD0BE
:100A600006DCD648201813D0B0F5806F38D119E0D5
:100A7000B0F5806F2AD0B0F56C4F31D101218803D9
:100A8000FFF796FF00214FF48040FFF791FF28E029
:100A900001214804FFF799FF00214FF40030FFF7D0
:100AA00094FF1EE001218804FFF78FFF00214FF41F
:100AB0008020FFF78AFF14E00121C804FFF785FFBB
:100AC00000214FF40020FFF780FF0AE00121080514
:100AD000FFF77BFF00214FF48010FFF776FF00E067
:100AE00000BF00BF10BD2DE9F04786B005460E4699
:100AF0000024A24600BF00BF00272F462C8A4CF6D8
:100B0000FF700440F08804432C82AC894EF6F31049
:100B10000440B08831890843718908430443AC819B
:100B2000AC8A4FF6FF400440B0890443AC8201A870
:100B3000FFF7B7FEA248874202D1DDF810A001E01E
:100B4000DDF80CA00AEBCA0000EB0A10316889003E
:100B5000B0FBF1F86420B8FBF0F004012009642137
:100B600001FB1089322000EB0910B0FBF1F000F01E
:100B70000F0004432C8106B0BDE8F0874FF41651F6
:100B8000016000218180C18001810C21418100210F
:100B90008181704710B502460020108A4FF2FF0392
:100BA00018400B884C8823438C882343CC882343EC
:100BB0001843108210BD0021018041808180C180D6
:100BC000704721B1828942F40052828104E0828917
:100BD0004DF6FF731A4082817047F0B5034600243A
:100BE0000026002500201846C1F3421401F01F061C
:100BF000012707FA06F5012C01D10C3004E0022C84
:100C000001D1103000E014301AB107682F4307609B
:100C100002E00768AF430760F0BD1AB1838A0B4357
:100C2000838202E0838A8B4383827047028A4FF675
:100C3000F0731A400282028A0A4302827047828954
:100C40004FF2FF731A40828182890A438281704782
:100C500021B1828942F00202828104E082894FF64A
:100C6000FD731A4082817047028A4FF6DF731A4083
:100C70000282028A0A430282704721B1028A42F448
:100C80008042028204E0028A4BF6FF731A4002821D
:100C90007047C1F308028280704701468888C0F31C
:100CA00008007047818941F0010181817047028B02
:100CB000D2B20283028B42EA012202837047028B86
:100CC00002F47F420283028B0A430283704721B100
:100CD000828A42F02002828204E0828A4FF6DF7329
:100CE0001A408282704721B1828A42F010028282C9
:100CF00004E0828A4FF6EF731A408282704721B176
:100D0000828A42F00802828204E0828A4FF6F773F8
:100D10001A4082827047828A4FF6FB731A408282A1
:100D2000828A0A438282704721B1828A42F002029B
:100D3000828204E0828A4FF6FD731A4082827047F5
:100D40000246002013880B4201D0012000E0002061
:100D50007047CA430280704770B502460B460024B4
:100D6000002100250020C3F3421503F01F010126D6
:100D700006FA01F1012D02D19689314006E0022DDB
:100D800002D1168A314001E0968A31401C120126B8
:100D900006FA04F41688344011B10CB1012000E0C9
:100DA000002070BD10B5002200230A1201249440D7
:100DB000A3B2DC43048010BD004C004000BCFFBF68
:100DC00000380140042808D14FF0E021096941F0C2
:100DD00004014FF0E022116107E04FF0E0210969C2
:100DE00021F004014FF0E022116170474FF0E02143
:100DF00048617047012808D14FF0E021096941F0AE
:100E000001014FF0E02211610EE0811C08D14FF08A
:100E1000E021096921F001014FF0E022116103E0B6
:100E200000214FF0E0229161704740B14FF0E02186
:100E3000096941F002014FF0E022116107E04FF033
:100E4000E021096921F002014FF0E02211617047B1
:100E50004FF0E0208069704710B501460022002362
:100E60000020CB10022B03D14FF0E024226902E0D6
:100E70004FF0E024E26901248C40144201D00120AB
:100E800000E0002010BD000010B50446CB4820183B
:100E90000FD0B0F5806F16D0B0F5784F1DD101217D
:100EA0000803FFF785FD00214FF48050FFF780FD18
:100EB00014E001218803FFF788FD00214FF48040F2
:100EC000FFF783FD0AE00121C803FFF77EFD002143
:100ED0004FF40040FFF779FD00E000BF00BF10BDF8
:100EE00010B50022028802F441520B884C8823433B
:100EF0008C882343CC8823430C8923434C89234388
:100F00008C892343CC8923431A430280838B4FF27D
:100F1000FF74234083830B8A038210BD2DE9F047C1
:100F200086B005460C464FF0000902274FF0000836
:100F30004FF0010A0026A88B4FF240010840A88319
:100F400002202884B5F81C902089022801D100BF16
:100F500031E0A08810B94FF0010A01E04FF0020A19
:100F600001A8FFF79EFCE088B0F5007F0AD1019848
:100F700000EB8000400021890902B0FBF1F0401D28
:100F800086B20BE04FEA4A1021894843019901EBF0
:100F900081014900B1FBF0F0401D86B20A20B6FB8A
:100FA000F0F606F00108A6EB0800C0F34F074FF675
:100FB000FF7000EA0828022F01DBFF2F02DD022765
:100FC0004FF0000847EA0800E18808432884208899
:100FD00040F4006061880843A188084361890843A0
:100FE00040EA0909A5F81C9006B0BDE8F087002189
:100FF000018041808180C180018141818181C181E5
:101000000721018270470021018041808180C180D9
:101010000221018100214181704721B1028842F003
:101020004002028004E002884FF6BF731A4002803B
:10103000704721B1828B42F48062828304E0828B0C
:101040004FF6FF331A408283704730B500240023E7
:101050000C110125A540ABB21AB185881D438580CE
:1010600002E085889D43858030BD1AB183880B439B
:10107000838002E083888B4383807047818170473F
:10108000014688897047A1F57E42FF3A04D0028864
:1010900042F48072028004E002884FF6FF631A4037
:1010A0000280704721B1828842F00402828004E00D
:1010B00082884FF6FB731A408280704702884FF295
:1010C000FF731A40028002880A4302807047018839
:1010D00041F480510180704721B1028842F40052EE
:1010E000028004E002884DF6FF731A4002807047C8
:1010F00002460020012901D0108B00E0908A704741
:101100000146088A7047B1F5804F04D1028842F445
:101110008042028004E002884BF6FF731A4002808E
:1011200070470246002013890B4201D0012000E0E5
:1011300000207047202905D10289028842F0400230
:10114000028007E0402901D0082901D1028901E08D
:10115000CA4302817047F0B50246002000240023F4
:10116000002501F00F070126BE40B4B20B11012685
:101170009E40B3B2968806EA03051689264202D03D
:101180000DB1012000E00020F0BD10B5002255296E
:1011900005D10389038843F0400303800CE05629FE
:1011A00001D0532901D1038906E001F00F04012386
:1011B000A3409AB2D343038110BD000000C8FFBF13
:1011C0000348004703480449044A054B70470000A0
:1011D0003101000870000020700800207004002019
:1011E0007004002010B5FFF75DFA4FF48030FFF770
:1011F00078FA00BF3120FFF797FA0028FAD00020D4
:10120000FFF7F7FA0020FFF706FB4FF48060FFF7C7
:10121000F9FA4FF4E0114FF48030FFF7CDFA0120D6
:10122000FFF7D6FA00BF3920FFF77EFA0028FAD080
:101230000220FFF7D0FA00BFFFF7D6FA0828FBD14B
:1012400001210420FFF79AFB01211020FFF796FBF4
:1012500001210846FFF792FB01218803FFF78EFB6F
:1012600010BD70B504460D4640215348FFF771FD8F
:10127000A1B25148FFF70DFD00BF40214E48FFF7D6
:101280005FFD0028F9D0204670BD10B50020FFF7A3
:10129000CCFD6FF00400FFF795FD0020FFF7AAFDDD
:1012A00042F22830FFF7A2FD10BD70B504460020C1
:1012B000FFF7A0FD0120FFF79DFD07E0002503E0FB
:1012C0001020FFF7C9FD0546002DF9D02000A4F13C
:1012D0000104F3D1801EFFF78DFD70BD00B587B00E
:1012E0004FF6FF70ADF8180018208DF81B00032092
:1012F0008DF81A0006A93148FFF7A8F80121080364
:10130000FFF73CFB00212E48FFF787FE0020ADF8D9
:1013100004004FF48270ADF806000020ADF808001C
:10132000ADF80A00ADF80C004FF40070ADF80E00F7
:101330002820ADF810000020ADF812000720ADF80D
:10134000140001A91F48FFF7CBFD01211D48FFF73D
:1013500064FE07B000BD10B5044600BF0221194865
:10136000FFF7DFFE0028F9D021461648FFF786FE7A
:1013700000BF01211348FFF7D4FE0028F9D011481F
:10138000FFF77EFE10BD10B500BF02210D48FFF72C
:10139000C8FE0028F9D000210A48FFF76FFE00BF01
:1013A00001210848FFF7BDFE0028F9D00548FFF7E6
:1013B00067FEC0B210BD00000038014000080140C7
:1013C0000038004000300140704770477047754654
:1013D00000F028F8AE4605006946534620F00700A5
:1013E000854618B020B5FFF7EDFEBDE820404FF070
:1013F00000064FF000074FF000084FF0000B21F0FF
:101400000701AC46ACE8C009ACE8C009ACE8C009CB
:10141000ACE8C0098D4670470446AFF30080204613
:10142000FEF7CDFE004870470C000020014918204F
:10143000ABBEFEE72600020070470000000001027C
:101440000304010203040607080902040608000059
:1014500070140008000000200C0000006C0100085F
:101460007C1400080C0000206408000088010008BB
:0C1470000100000000000000000000006F
:0400000508000131BD
:00000001FF
