:020000040800F2
:100000004813002035150008B9020008BB0200089B
:10001000BF020008C3020008C70200080000000079
:10002000000000000000000000000000CB020008FB
:10003000CD02000800000000CF0200084D150008A6
:100040004F1500084F1500084F1500084F15000800
:100050004F1500084F1500084F1500084F150008F0
:100060004F1500084F1500084F1500084F150008E0
:100070004F1500084F1500084F1500084F150008D0
:100080004F1500084F1500084F1500084F150008C0
:100090004F1500084F1500084F1500084F150008B0
:1000A0004F1500084F1500084F1500084F150008A0
:1000B0004F1500084F1500084F1500084F15000890
:1000C0004F1500084F1500084F1500084F15000880
:1000D0004F1500084F1500084F1500084F15000870
:1000E0004F1500084F1500084F1500084F15000860
:1000F0004F1500084F1500084F1500084F15000850
:100100004F1500084F1500084F1500084F1500083F
:100110004F1500084F1500084F1500084F1500082F
:100120004F1500084F1500084F1500084F1500081F
:10013000DFF80CD002F0ECFB00480047FD0100089E
:100140004813002010B54A48007808B9012000E0A3
:10015000002047490870084602784FF480714548EE
:1001600000F0A9FA4248007808B9012000E0002018
:1001700002460421404800F09EFA01F031FB3F495D
:1001800008603F4800683FA1026C3D480068904706
:1001900001F026FB3C490860384801683A4800688D
:1001A00001F0FBFB044623463748026833480168E8
:1001B00036A002F0BFFB10BD10B52E4830490968CB
:1001C000086010202E490968888035482C49096844
:1001D000886020202A4909688881314828490968AF
:1001E000086110202649096888822E482449096838
:1001F00088612348006802F0E2FA10BD0EB501F0F4
:1002000093FA01F01CFB01F0A8FC01F07CFFFFF762
:10021000D3FF1B480068816C1948006888470A2092
:1002200001F0E5FBC8230022114601A801F04EFBB6
:1002300001201D4B0090DDE9011201F0DBFC0023E1
:100240006422194601A801F041FB0020AFF20B1314
:1002500000900420DDE9011201F0CCFC1349087084
:1002600013A002F067FB01E001F068FDFCE700006D
:100270000100002000080140001401400800002097
:1002800058000020310000000400002074313A259D
:10029000642D2D74323A25643D3D3D25640D0A00E0
:1002A0000010014000300140D7200008000000206D
:1002B000746573740D0A0000704700BFFEE700BF4D
:1002C000FEE700BFFEE700BFFEE7704770477047DC
:1002D00000210020674A126842F48032654B1A60A0
:1002E00000BF644A126802F40030491C10B9B1F52D
:1002F000A06FF6D15F4A126812F4003F01D00120CE
:1003000000E00020012842D15B4A126842F010024E
:10031000594B1A601A46126822F003021A601A46F4
:10032000126842F002021A60524A5268514B5A60F7
:100330001A4652685A601A46526842F480625A60FD
:100340001A46526822F47C125A601A46526842F4E5
:10035000E8125A601A46126842F080721A6000BFB2
:10036000444A126812F0007FFAD0424A526822F0E2
:100370000302404B5A601A46526842F002025A6029
:1003800000BF3C4A526802F00C02082AF9D17047BB
:1003900010B5FFF79DFF10BD10B53648006840F05E
:1003A0000100344908600846406834490840314932
:1003B000486008460068324908402E4908600846EF
:1003C000006820F4802008600846406820F4FE00A1
:1003D00048604FF41F008860FFF7DAFF4FF00060BD
:1003E0002849086010BD10B5002100200022214BD3
:1003F0005B6803F00C0121B1042906D0082928D13B
:1004000007E0214B214C236027E01F4B1F4C23604A
:1004100023E0184B5B6803F47010164B5B6803F421
:100420008032022303EB904022B9194B4343174C0F
:1004300023600DE00F4B5B6813F4003F04D0144BB6
:100440004343124C236003E00F4B43430F4C2360A4
:1004500003E00D4B0D4C236000BF00BF054B5B68F4
:10046000C3F303130B4CE15C084B1B68CB40074CF8
:10047000236010BD00100240002002400000FFF881
:10048000FFFFF6FE08ED00E000127A000C000020ED
:1004900000093D001000002010B50446CA488442FF
:1004A00008D10121042000F023FB0021042000F0EA
:1004B0001FFB46E0C548844208D10121082000F016
:1004C00017FB0021082000F013FB3AE0C0488442EB
:1004D00008D10121102000F00BFB0021102000F0BA
:1004E00007FB2EE0BB48844208D10121202000F008
:1004F000FFFA0021202000F0FBFA22E0B6488442F7
:1005000008D10121402000F0F3FA0021402000F042
:10051000EFFA16E0B148844208D10121802000F0B2
:10052000E7FA0021802000F0E3FA0AE0AC488442B8
:1005300007D10121801500F0DBFA0021A01500F0A1
:10054000D7FA10BD10B50121084600F0D1FA0021FC
:10055000012000F0CDFA10BD2DE9F0410246002542
:100560000026002000230024002791F803C00CF08F
:100570000F0591F803C01CF0100F03D091F802C0D2
:100580004CEA050591F800C0BCF1000F31D01468A9
:1005900000202BE04FF0010C0CFA00F3B1F800C082
:1005A0000CEA03069E4220D183004FF00F0C0CFA98
:1005B00003F7BC4305FA03FC4CEA040491F803C0BA
:1005C000BCF1280F06D14FF0010C0CFA00FCC2F868
:1005D00014C00AE091F803C0BCF1480F05D14FF0F8
:1005E000010C0CFA00FCC2F810C0401C0828D1D342
:1005F0001460B1F800C0BCF1FF0F34DD5468002076
:100600002EE000F1080C4FF0010808FA0CF3B1F8E5
:1006100000C00CEA03069E4221D183004FF00F0C6C
:100620000CFA03F7BC4305FA03FC4CEA040491F806
:1006300003C0BCF1280F05D100F1080C08FA0CF832
:10064000C2F8148091F803C0BCF1480F07D100F143
:10065000080C4FF0010808FA0CF8C2F81080401C92
:100660000828CED35460BDE8F0814FF6FF710180B9
:10067000022181700421C1707047024600209368F6
:100680000B4201D0012000E000207047014688683D
:1006900080B2704702460020D3680B4201D001208F
:1006A00000E0002070470146C86880B270470161D1
:1006B0007047416170470AB1016100E041617047D4
:1006C000C16070474FF480320A4382618161826168
:1006D00082698269704702460020424B18684FF6D3
:1006E0008073184040EA021008433E4B1860704780
:1006F0003D49C8617047F0B50A4600230024002137
:10070000002500F00046B6F1004F02D1354EF169E8
:1007100001E0344E7168C0F3034583B200F4401623
:10072000B6F5401F08D121F070612E4E766826F094
:1007300070662C4F7E6012E000F48016B6F5801FC4
:1007400006D1032606FA05F4A14341F0706106E0E4
:10075000460D360103FA06F6B14341F0706122B14D
:10076000460D360103FA06F6314300F00046B6F1B5
:10077000004F02D11B4EF16101E01A4E7160F0BDD5
:1007800030B500228B071C0F0F2303FA04F2154B20
:1007900008338C1053F824309343124C08348D10D6
:1007A00044F8253023468C1053F824308C07240F4E
:1007B00000FA04F423430B4C08348D1044F8253020
:1007C00030BD0A490860704700080140000C014034
:1007D000001001400014014000180140001C0140BD
:1007E000002001400000014000002042DC002042C7
:1007F000DB48006840F00100D949086008464068BD
:10080000D8490840D649486008460068D64908409B
:10081000D34908600846006820F480200860084634
:10082000406820F4FE0048604FF41F008860704765
:10083000CB49096821F48031C94A11601146096821
:1008400021F480211160B0F5803F03D0B0F5802FF6
:100850000ED106E0C249096841F48031C04A1160F6
:1008600007E0BF49096841F4A021BD4A116000E0DA
:1008700000BF00BF704710B50146002200230020D2
:100880004A11012A02D1B64C236806E0022A02D19D
:10089000B34C236A01E0B24C636A01F01F020124E9
:1008A00094401C4201D0012000E0002010BD70B532
:1008B00000240025002600BF3120FFF7DCFF06469C
:1008C000641CB4F5A06F01D0002EF5D03120FFF7E5
:1008D000D2FF08B1012500E00025284670BD014681
:1008E00000209F4A106820F0F80040EAC100106024
:1008F00070479E490860704702460020984B586830
:1009000020F47C1042EA01031843954B586070476D
:1009100096490866704701460020914A506820F0C9
:1009200003000843506070478D48406800F00C0099
:100930007047014600208A4A506820F0F0000843C2
:100940005060704701460020854A506820F4E060FE
:1009500008435060704701460020814A506820F4E7
:10096000605040EAC1005060704729B17C4A527A19
:1009700002437B4B5A7204E0794A527A8243784BA5
:100980005A7270477A490860704701460020744ADD
:10099000506820F440400843506070470021754A79
:1009A00011706F4A82F82010012802D0042808D163
:1009B00003E001216F4A117004E005216D4A1170B6
:1009C00000E000BF00BF70476B4908607047644992
:1009D000096A0143624A11627047674944390860F5
:1009E000704730B500210022002400235C4D6D6863
:1009F00005F00C0121B1042905D0082923D105E017
:100A00005E4D056022E05D4D05601FE0544D6D6850
:100A100005F47012524D6D6805F48034022505EB23
:100A200092421CB9564D554305600BE04C4D6D6824
:100A300015F4003F03D0524D5543056002E04F4D81
:100A40005543056002E04D4D056000BF00BF444DB9
:100A50006D6805F0F00109094A4D6B5C0568DD40E1
:100A600045603F4D6D6805F4E061090A454D6B5CDA
:100A70004568DD4085603A4D6D6805F46051C90AEE
:100A8000404D6B5C4568DD40C560354D6D6805F4D3
:100A90004041890B3C4D6B5CC568B5FBF3F50561C6
:100AA00030BD29B12E4A526902432D4B5A6104E0F0
:100AB0002B4A526982432A4B5A61704729B1284A0E
:100AC00092690243264B9A6104E0254A9269824367
:100AD000234B9A61704729B1214AD2690243204BC6
:100AE000DA6104E01E4AD26982431D4BDA61704725
:100AF00029B11B4AD2680243194BDA6004E0184A54
:100B0000D2688243164BDA60704729B1144A1269E1
:100B10000243134B1A6104E0114A12698243104BDD
:100B20001A61704714494039086070470F49C8641A
:100B300070470B49C87170470948406A40F080709F
:100B400007494862704701460020054A92680A42F8
:100B500001D0012000E000207047014988727047F1
:100B6000001002400000FFF8FFFFF6FE00004242C6
:100B7000D8004242201002408004424200127A0013
:100B800000093D00200000203000002010B5044680
:100B9000BE48844208D101218014FFF7A9FF00213B
:100BA000A014FFF7A5FF16E0B948844208D101213F
:100BB0000014FFF7AAFF00212014FFF7A6FF0AE0A8
:100BC000B448844207D10121C013FFF79EFF0021E2
:100BD000E013FFF79AFF10BD10B50022028802F45F
:100BE00041520B884C8823438C882343CC88234371
:100BF0000C8923434C8923438C892343CC89234389
:100C00001A430280838B4FF2FF74234083830B8A45
:100C1000038210BD2DE9F04F85B005460C464FF01C
:100C2000000902274FF000084FF0010B0026B246E2
:100C3000A88B4FF240010840A88302202884B5F811
:100C40001C90A068022801D100BF38E0A08810B92C
:100C50004FF0010B01E04FF0020B8D48854200D1AF
:100C600000E000BF6846FFF7BCFEDDF800A0E088AA
:100C7000B0F5007F0AD14FEA1A2000EB8000400057
:100C8000A168B0FBF1F0401D86B20BE04FEA4B10BB
:100C9000BAFBF0F000EB80004000A168B0FBF1F07F
:100CA000401D86B20A20B6FBF0F606F00108A6EB5E
:100CB0000800C0F34F074FF6FF7000EA0828022F24
:100CC00001DBFF2F02DD02274FF00008E08840EA39
:100CD000080038432884A088A18908436188084314
:100CE0002188084340F4006040EA0909A5F81C90F7
:100CF00005B0BDE8F08F0021018041808180C18076
:100D0000018141818181C1810721018270470021D8
:100D1000018041808180C180022181600021818128
:100D2000704721B1028842F04002028004E002884C
:100D30004FF6BF731A400280704721B1828B42F494
:100D40008062828304E0828B4FF6FF331A408283F5
:100D5000704730B5002400230C110125A540ABB22B
:100D60001AB185881D43858002E085889D43858072
:100D700030BD1AB183880B43838002E083888B43A4
:100D80008380704781817047014688897047A1F54B
:100D90007E42FF3A04D0028842F48072028004E06E
:100DA00002884FF6FF631A400280704721B18288A3
:100DB00042F00402828004E082884FF6FB731A40FE
:100DC0008280704702884FF2FF731A4002800288C7
:100DD0000A4302807047018841F4805101807047C6
:100DE00021B1028842F40052028004E002884DF6EC
:100DF000FF731A400280704702460020012901D08B
:100E0000108B00E0908A70470146088A7047B1F560
:100E1000804F04D1028842F48042028004E00288BC
:100E20004BF6FF731A400280704702460020138978
:100E30000B4201D0012000E000207047CA4302812C
:100E40007047F0B50246002000240023002501F081
:100E50000F070126BE40B4B20B1101269E40B3B26B
:100E6000968806EA03051689264202D00DB10120B4
:100E700000E00020F0BD10B5002201F00F040123B6
:100E8000A3409AB2D343038110BD0000003001405B
:100E900000380040003C004010B50446FB48844246
:100EA00009D101218803FFF723FE00214FF4804080
:100EB000FFF71EFE32E0F648844209D101214804C2
:100EC000FFF723FE00214FF40030FFF71EFE25E060
:100ED000F048844209D101218804FFF716FE002161
:100EE0004FF48020FFF711FE18E0EB48844209D14F
:100EF0000121C804FFF709FE00214FF40020FFF78D
:100F000004FE0BE0E548844208D101210805FFF703
:100F1000FCFD00214FF48010FFF7F7FD10BD2DE917
:100F2000F04786B005460E460024A24600BFA14603
:100F30000027B08900B100BF2F462C8A4CF6FF7005
:100F40000440F08804432C82AC894EF6F310044030
:100F5000B08831890843718908430443AC81AC8A65
:100F60004FF6FF400440B0890443AC8201A8FFF76C
:100F700038FDC648874202D1DDF810A001E0DDF857
:100F80000CA0A88910F4004F08D00AEBCA0000EBAF
:100F90000A1031684900B0FBF1F807E00AEBCA001B
:100FA00000EB0A1031688900B0FBF1F86420B8FB4F
:100FB000F0F004012009642101FB1089A88910F4D4
:100FC000004F08D0322000EBC900B0FBF1F000F078
:100FD0000700044308E0322000EB09106421B0FB55
:100FE000F1F000F00F0004432C8106B0BDE8F0875B
:100FF0004FF41651016000218180C18001810C21D4
:10100000418100218181704710B502460020108A7D
:101010004FF2FF0318400B884C8823438C882343EE
:10102000CC8823431843108210BD002101804180E9
:101030008180C180704721B1828942F4005282814F
:1010400004E082894DF6FF731A4082817047F0B543
:1010500003460024002600250020A1F510676A3F02
:1010600000D100BF1846C1F3421401F01F0601274A
:1010700007FA06F5012C01D10C3004E0022C01D155
:10108000103000E014301AB107682F43076002E007
:101090000768AF430760F0BD1AB1838A0B438382B0
:1010A00002E0838A8B4383827047028A4FF6F07393
:1010B0001A400282028A0A430282704782894FF2F2
:1010C000FF731A40828182890A438281704721B16D
:1010D000828942F00202828104E082894FF6FD7328
:1010E0001A4082817047028A4FF6DF731A400282EB
:1010F000028A0A430282704721B1028A42F4804286
:10110000028204E0028A4BF6FF731A4002827047A3
:10111000C1F308028280704701468888C0F3080046
:101120007047818941F0010181817047028BD2B201
:101130000283028B42EA012202837047028B02F48F
:101140007F420283028B0A430283704721B1828A65
:1011500042F02002828204E0828A4FF6DF731A4056
:101160008282704721B1828A42F01002828204E0BA
:10117000828A4FF6EF731A408282704721B1828AC9
:1011800042F00802828204E0828A4FF6F7731A4026
:101190008282704721B1828942F40042828103E059
:1011A0008289C2F30E028281704721B1828A42F4A1
:1011B0000062828204E0828A4FF2FF731A408282C8
:1011C0007047828A4FF6FB731A408282828A0A43F2
:1011D0008282704721B1828A42F00202828204E058
:1011E000828A4FF6FD731A408282704702460020C1
:1011F000B1F5007F00D100BF13880B4201D0012060
:1012000000E00020704701F40072B2F5007F00D1C9
:1012100000BFCA430280704770B502460024002315
:1012200000250020A1F510666A3E00D100BFC1F381
:10123000421501F01F03012606FA03F3012D02D126
:101240009689334006E0022D02D1168A334001E030
:10125000968A33400C12012606FA04F416883440AC
:1012600013B10CB1012000E0002070BD10B50022C8
:101270000023A1F510646A3C00D100BF0A120124CA
:101280009440A3B2DC43048010BD0000003801404C
:101290000044004000480040004C00400050004026
:1012A00031490143314A1160704770B50021002374
:1012B0000F22C4780CB32D4C246804F4E064C4F508
:1012C000E064210AC1F10403CA40447804FA03F13E
:1012D0008478144021430901254C0678A1550478EF
:1012E00004F01F050124AC4005786D114FF0E02695
:1012F00006EB8505C5F8004109E0047804F01F05F8
:101300000124AC401B4D0678761145F8264070BD8F
:10131000194A0A400243154B1B1F1A60704739B126
:10132000124A121D12680243104B1B1D1A6006E080
:101330000E4A121D126882430C4B1B1D1A60704727
:10134000042808D14FF0E021096941F004014FF071
:10135000E022116107E04FF0E021096921F004016A
:101360004FF0E022116170470000FA050CED00E03B
:1013700000E400E080E100E080FFFF1F4FF0E0218B
:1013800048617047012808D14FF0E021096941F018
:1013900001014FF0E02211610EE0811C08D14FF0F5
:1013A000E021096921F001014FF0E022116103E021
:1013B00000214FF0E0229161704740B14FF0E021F1
:1013C000096941F002014FF0E022116107E04FF09E
:1013D000E021096921F002014FF0E022116170471C
:1013E0004FF0E0208069704710B5014600220023CD
:1013F0000020CB10022B03D14FF0E024226902E041
:101400004FF0E024E26901248C40144201D0012015
:1014100000E0002010BD0000002044490860091DC4
:101420000860091D0860091D086041483F491431E2
:101430000860704700213D498279002A3AD00A4667
:10144000126803689A430B461A600A1D1268036803
:101450009A430B1D1A60027911440A6803681A4303
:101460000A60324A0832126803689A432F4B0833E5
:101470001A601A1D126803689A432C4B0C331A60C9
:101480004279102A0ED11A1F126803681A43274B9B
:1014900008331A601A1D126803681A43234B0C3371
:1014A0001A600DE02149427911440A6803681A4321
:1014B0000A6005E0027911440A6803689A430A60E9
:1014C00070470021016001710C214171002181717F
:1014D00070471649103109680143144A10321160EF
:1014E000704701460020114A143212680A4201D0A6
:1014F000012000E0002070470C491431086070475B
:10150000014600200022094B1B6803EA0102074B39
:1015100014331B680B4202D00AB1012000E0002006
:101520007047024914310860704700000004014010
:10153000FFFF0F000648804706480047FEE7FEE72A
:10154000FEE7FEE7FEE7FEE7FEE7FEE7FEE7FEE773
:10155000990300083101000808B54FF48060ADF828
:10156000000010208DF8030003208DF8020069466A
:101570009648FEF7F1FF0420ADF8000048208DF8F2
:10158000030003208DF8020069469148FEF7E4FF4E
:101590000820ADF8000048208DF8030003208DF8E6
:1015A000020069468A48FEF7D7FF4FF48070ADF815
:1015B000000010208DF8030003208DF8020069461A
:1015C0008348FEF7C9FF0420ADF8000010208DF815
:1015D000030003208DF8020069467E48FEF7BCFF39
:1015E00008BD00B585B001218803FFF767FA4FF405
:1015F0000070ADF8100003208DF8120018208DF84F
:10160000130004A97248FEF7A7FF4FF48060ADF8FD
:10161000100004208DF8130004A96D48FEF79CFF0C
:101620006D48FFF739FC4FF4E13000900020ADF831
:101630000400ADF80600ADF80800ADF80C000C2071
:10164000ADF80A0069466448FFF769FC0121624869
:10165000FFF7F1FC05B000BD0EB506208DF80000C7
:1016600000208DF801008DF8020001208DF80300A4
:101670006846FFF71AFE0120FFF753FF00208DF8A0
:1016800008000C208DF80900012001908DF80A0057
:1016900001A8FFF7CFFE0EBD00B587B001210803FA
:1016A000FFF70CFAE020ADF8180018208DF81B00A9
:1016B00003208DF81A0006A94548FEF74DFF1020BB
:1016C000ADF818008DF81B0003208DF81A0006A94C
:1016D0003F48FEF741FF01A94048FFF77DFA00208F
:1016E000ADF804004FF48270ADF806000020ADF8AC
:1016F0000800ADF80A00ADF80C004FF40070ADF82A
:101700000E001020ADF810000020ADF812000720E8
:10171000ADF8140001A93148FFF75EFA01212F4806
:10172000FFF7FFFA07B000BD10B5FFF761F84FF4FF
:101730008030FFF77DF8FFF7BAF8044600BF002CB1
:10174000FDD00020FFF7F5F80020FFF7FBF80020A0
:10175000FFF701F94FF4E0114FF48030FFF7CCF8B8
:101760000120FFF7D5F800BF3920FFF784F80028E3
:10177000FAD00220FFF7CFF800BFFFF7D5F808280E
:10178000FBD10020FFF7B5F801210420FFF796F9FF
:1017900001210820FFF792F901211020FFF78EF9AF
:1017A00001212020FFF78AF901214020FFF786F967
:1017B00001210846FFF782F9FFF7CEFEFFF711FF80
:1017C000FFF74AFFFFF768FF10BD0000000C014063
:1017D0000008014000140140003801400030014081
:1017E00000204FF0E02189690922B1FBF2F1F74AAC
:1017F000501A511088420CDAF549097849B1002194
:10180000F34A1170F3490968F04A1144F14A116032
:1018100008E0F149884205DDED49097811B9012157
:10182000EB4A1170EB4909680144EC4A914202DB32
:101830000021E84A1160E74909680844704710B57B
:101840006FF00400FFF77CFD0020FFF79BFDE448EC
:10185000FFF794FD0120FFF795FD0020FFF7ADFD98
:1018600010BD1CB5D94A91FBF2F212B2ADF80020BE
:10187000D64A91FBF2F302FB13124FF47A7392FBF8
:10188000F3F212B2ADF80220D04A91FBF2F302FB60
:1018900013124FF47A7392FBF3F403FB142212B287
:1018A000ADF80420009A0260BDF8042082801CBDBF
:1018B00030B50446FFF794FF054629462046FFF75A
:1018C000D0FF30BD00B5FFF78BFF00BD1CB5002475
:1018D000009401943B2905DCB2F57A7F02DAB3F576
:1018E0007A7F05DB009C0460BDF8044084801CBD49
:1018F0000CB2ADF8004014B2ADF802401CB2ADF825
:101900000440009C0460BDF80440848000BFEEE702
:101910001CB50B8814881B1B1BB2ADF800304B881C
:1019200054881B1B1BB2ADF802308B8894881B1B9C
:101930001BB2ADF80430BDF90430002B0CDABDF851
:1019400002305B1E1BB2ADF80230BDF8043003F567
:101950007A731BB2ADF80430BDF90230002B0CDAFB
:10196000BDF800305B1E1BB2ADF80030BDF8023090
:1019700003F57A731BB2ADF80230BDF90030002BCD
:1019800005DABDF800303C331BB2ADF80030009BE7
:101990000360BDF8043083801CBD02468A4203DA2E
:1019A000501A8E4B18447047501AFCE70146B1F9A3
:1019B0000000864A5043B1F9022002EB4203C3EB18
:1019C000C21200EBC200B1F904201044704730B5D8
:1019D0000446FFF705FF054600BFFFF701FF431B65
:1019E000002B01DA7D480344A342F6D330BD30B565
:1019F00003464FF47A704343FFF7F2FE054600BFFB
:101A0000FFF7EEFE441B002C01DA744804449C42AC
:101A1000F6D330BD30B503467248834200DD30BD99
:101A20006A484343FFF7DCFE044600BFFFF7D8FED9
:101A3000051B002D01DA694805449D42F6DB00BF15
:101A4000EDE703B5BDF900003B2809DCBDF9020054
:101A5000B0F57A7F04DABDF90400B0F57A7F00DBD7
:101A60000CBDBDF90000FFF7D5FFBDF90200FFF77F
:101A7000BEFFBDF90400FFF7AAFF00BFF0E730B5D5
:101A800003460C4615460022002100BF09E05648D7
:101A900000EB0210807B10B9534800EB0211501C80
:101AA000C2B20A2AF3DB09B9002030BD01208873D5
:101AB0000C71CD8000208881488108810B60084628
:101AC000F3E770B504460D46A089E188884202D14B
:101AD0004FF0FF3070BD23892679216803FB061083
:101AE0003246294600F0DAFE2089401C80B2E188A7
:101AF00090FBF1F201FB12002081A089401CA08123
:101B00000020E7E770B504460D46A08910B94FF0F4
:101B1000FF3070BD63892679206803FB06013246D9
:101B2000284600F0BBFE6089401C80B2E18890FB33
:101B3000F1F201FB12006081A089401EA08100200B
:101B4000E7E70146888970470146C8888A89801A74
:101B500080B2704700218173704700200021234A22
:101B60001268916200BF2DE0FF2100EB400202EB02
:101B7000C0021F4B03F82210002100EB400202EBD1
:101B8000C00203EB8202516200EB400202EBC00292
:101B900003EB8202516000EB400202EBC00203EB58
:101BA0008202116100EB400202EBC00203EB8202F1
:101BB000516100EB400202EBC00203EB8202916232
:101BC000411CC8B20F28CFDB7047000040420F0015
:101BD000380000203400002020A107000087930374
:101BE0003F548900C0448403840000203C0000204E
:101BF000240100202DE9FF4780469946DDF830A0FA
:101C0000002500BF33E005EB450000EBC500AA4905
:101C100001EB800090F90000401C26D105EB450047
:101C200000EBC50001EB800468B2207084F80180ED
:101C300084F802A001A8FFF7B9FE6060FFF7D0FDAD
:101C4000E060C4F8249000206083A083A062FFF7C6
:101C5000C7FD206199480078401C984908700846E3
:101C60000078C0F10F00487003E0681CC5B20F2D6A
:101C7000C9DB00BF0F2D04D14FF0FF3004B0BDE829
:101C8000F0878F480068806AD8B968B205EB4501D3
:101C900001EBC501884A02F82100002005EB45014F
:101CA00001EBC50102EB8101886205EB450000EB09
:101CB000C500114601EB8000814909688862002057
:101CC000DCE77F4807680068866A00BF6068716863
:101CD000884202DDA662BC6209E0B06A18B9B4624B
:101CE0000020A06203E03746B66A002EEED100BFA6
:101CF00094F90000C2E710B5024671480368006815
:101D0000816A00BF91F90000904211D1886A9862FF
:101D1000FF2008700020486268480078401E674C29
:101D2000207020460078C0F10F006070002010BDC8
:101D30000B46896A0029E5D1481EF8E72DE9F041F4
:101D40005F480068846A00260025002745E0FFF709
:101D500047FD05462846E168FFF71FFE0646206A54
:101D600028B1206AB04237DC0020206234E060688D
:101D7000B04231DC17B9514845600127A07808B955
:101D8000E56004E0A078012801D1A068E060FFF7D9
:101D900027FD2061606A08B1606A8047FFF720FD77
:101DA0006061A08A218A401A20836168E068084443
:101DB000444990FBF1F201FB1200A060FFF710FD17
:101DC000A168884201DD012000E00020618B084409
:101DD0006083A08B401CA083A46A002CB7D18FB174
:101DE000FFF7FEFC354988600A4651689068FFF7A6
:101DF000D4FD3249C86008460069C96808442F49C3
:101E000008610027BDE8F0812DE9F04105460E4646
:101E1000174617B90020BDE8F08105EB450000EB3F
:101E2000C500254901EB8004206A00B92662FFF74E
:101E300085FF206A08B90020EDE70120EBE77CB5BB
:101E40001F4804680EE0608BA18BCDE90010238B46
:101E500094F901101CA0626800F06CFD0020608302
:101E6000A083A46A002CEED1FFF7BAFC05462448F3
:101E700001682846FFF791FD214908600F48006975
:101E8000642148431E49096890FBF1F01C49086031
:101E9000FFF7A6FC05460948037819482946026859
:101EA00018A000F047FDFFF79BFC154908600020D3
:101EB000024908617CBD000024010020B803002015
:101EC0003C00002000879303B1E0BAC53A256409BD
:101ED000BCE4B8F43A256409B5A5B4CECAB1BCE4F3
:101EE0003A256409D4CBD0D0B4CECAFD3A256409D2
:101EF000B3ACCAB1B4CECAFD3A2564090D0A0000DC
:101F000040000020B5B1C7B0CAB1BCE4A3BA256493
:101F10007573A3AC435055CAB9D3C3C2CAA3BA257B
:101F20006425252CC8CECEF1CAFDC1BFA3BA256455
:101F3000200D0A0D0A0D0A0D0A0D0A0000200021CD
:101F4000F74A1170F74A1170F74A1170F74A117089
:101F500000BF04E00021F64A1154411CC8B23228E7
:101F6000F8DB70470146FD2903D0F82901D0FE298E
:101F700001D1012070470020FCE713B50C466946EB
:101F8000EC480068FFF79DFD00981CBD0146F8294C
:101F900007D0FD2902D0FE2909D105E04FF67D606A
:101FA00070474FF67860FBE74FF67E60F8E708462B
:101FB000F6E7014600220023012205E0881C805C30
:101FC000184483B2501CC2B291F90000801E9042A6
:101FD000F4DCD8B270472DE9F04105460024AF1C6F
:101FE00000BF3EE0012C2BDD95F90000401EA04211
:101FF00026DD385DFFF7B6FF10B3385DFFF7C6FF8B
:10200000064600BF4021CC48FFF7F0F80028F9D081
:102010004021C948FFF7F7F83112C748FFF778F8B1
:1020200000BF4021C448FFF7E1F80028F9D0402163
:10203000C148FFF7E8F8F1B2BF48FFF769F80EE0D2
:1020400000BF4021BC48FFF7D1F80028F9D040215B
:10205000B948FFF7D8F8395DB748FFF759F8601C61
:10206000C4B295F90000A042BCDC0020BDE8F081BC
:102070002DE9FC4105460024AF1C00BF24E0012CE3
:102080001BDD95F90000401EA04216DD385DFFF70C
:1020900069FF90B1385DFFF779FF06463012019075
:1020A000F0B2009001A9A3480068FFF70AFD694655
:1020B000A0480068FFF705FD04E039199D48006855
:1020C000FFF7FFFC601CC4B295F90000A042D6DC0B
:1020D0000020BDE8FC8108B5694696480068FFF716
:1020E00011FD78B900BF40219348FFF77FF8002821
:1020F000F9D040219048FFF786F8009881B28E48C9
:10210000FFF706F808BD10B54FF47A7201218B482D
:10211000FFF7B5FC87490860322220218848FFF785
:10212000AEFC88490860FFF709FF874C0C2020703F
:10213000012060702034142020700420607020344E
:10214000082020700220607020340A2020700320B4
:1021500060702034122020700520607010BD2DE9C1
:10216000F04188B007460C4615461E46DDF838801B
:102170008DF8004068B28DF801000696CDF81C80FD
:1021800020226946384600F089FB08B0BDE8F0819E
:102190002DE9F0410546002400270026FD2D0CD135
:1021A0005F48007818B9FD205D4908700BE0FFF723
:1021B000C5FEFD205A49087005E05948007810B95D
:1021C0000020BDE8F081FE2D02D057480078C8B14C
:1021D0005548007888B1782D06D07D2D02D07E2D0F
:1021E00006D103E0FD2503E0F82501E0FE2500BF50
:1021F00000BF00204C49087009E001204A490870DE
:102200000020DEE7F82D02D101204849087045483A
:1022100090F900200078401C40B2424B18704448AE
:10222000855442480078002841D0012400204749C5
:10223000088008E03E48005D444909880844434955
:102240000880601CC4B2374890F90000801EA0428C
:10225000F0DC374F7F1C002416E038783A4901EB58
:10226000441191F9011088420CD1374800EB441019
:1022700090F900002B4991F90010884202D13248B0
:1022800000EB4416601CC4B2052CE6DB16B9FFF760
:1022900055FE0CE096F900202549B01C00F0FEFA2E
:1022A000314628480068FFF70CFCFFF747FE002086
:1022B00087E730B589B00546002003460222052194
:1022C000009001A8FFF74BFF0DF10604FD202070E0
:1022D000022060701E480078A0701D480078401CE5
:1022E0001B49087001A8FFF764FEE070F820207118
:1022F00001A8FFF7BDFE09B030BD70B50546AC1CA6
:1023000013480078607312480078401C1049087028
:102310002846FFF74EFE20742846FFF7A9FE70BD41
:102320004B000020450000204C000020460000200B
:10233000D80A002050000020003801400A0B00207D
:102340009804002054000020F803002048000020DA
:102350004A00002070B50546AC1CFD20207003200B
:10236000607038480078E07236480078401C354983
:1023700008702846FFF71DFE2073F820607328467A
:10238000FFF776FE70BD70B50546AC1CFD202070D1
:10239000042060702B480078E0732A480078401CC5
:1023A000284908702846FFF704FE2074F82060745E
:1023B0002846FFF75DFE70BD70B592B0044600265A
:1023C000A07808B912B070BD6078022801D1A67952
:1023D00008E06078032801D1267A03E060780128BC
:1023E00000D1A67A0020034605220821009002A809
:1023F000FFF7B5FE202202A90AA800F04FFA0DF15E
:102400002A05FD20287005206870AE706078E8709D
:10241000002028710B48007868710A480078401C39
:10242000084908700AA8FFF7C4FDA871F820E871F0
:102430000AA8FFF71DFE2021204600F048FA00BF41
:10244000C0E700004A00002070B504460D4600BFFA
:1024500002212046FEF7E9FC0028F9D02946204653
:10246000FEF790FC00BF01212046FEF7DEFC0028AD
:10247000F9D02046FEF788FCC0B270BD704770B539
:1024800004460E4615462046A16A88473146A06993
:10249000FFF7DAFF2946A069FFF7D6FF2046616AF9
:1024A000884770BD70B504460D462046A16A88472E
:1024B0002946A069FFF7C8FFFF21A069FFF7C4FF05
:1024C00006462046616A8847304670BD2DE9F047D0
:1024D0000446884616461F462046A16A884741465C
:1024E000A069FFF7B1FF8146002506E0FF21A06942
:1024F000FFF7AAFF7055681CC5B2BD42F6DB204647
:10250000616A88474846BDE8F0872DE9F0470446F0
:10251000884615461E462046A16A88474146A0695E
:10252000FFF792FF8146002706E015F8011BA0691E
:10253000FFF78AFF781CC7B2B742F6DB2046616A14
:1025400088474846BDE8F08770B504462046E169F3
:1025500088470523C24A30212046656BA8470523DA
:10256000BF4A2A212046656BA8473F2221212046E9
:10257000236B98473F2222212046236B98471A223B
:1025800024212046236B9847002225212046236BD7
:1025900098470F2226212046236B98470E222021A0
:1025A0002046236B98472046216A884770BD70B546
:1025B00004462046E16988470523AA4A2A21204685
:1025C000656BA847202231212046236B98470523BD
:1025D000A54A2B212046656BA847202232212046A0
:1025E000236B9847A14802782C212046236B9847FB
:1025F000202233212046236B98479D4802782D21C5
:102600002046236B9847202234212046236B98478D
:10261000984802782E212046236B984720223521A6
:102620002046236B98478E4802782F212046236B43
:102630009847202236212046236B98473F222121AC
:102640002046236B98473F2222212046236B984740
:10265000002225212046236B98470F222621204661
:10266000236B98470F2220212046236B9847204652
:10267000216A884770BD2DE9F04105460E460721C5
:102680002846AA6B904704462246272128462B6BF2
:10269000984714F0400F27D0202332466121284666
:1026A000EF6BB847FF22E22128462B6B98470020AA
:1026B00008B1BDE8F08114F0020F01D00220F8E764
:1026C00014F0040F01D00420F3E714F0060F01D03A
:1026D0000620EEE714F0080F01D00820E9E714F017
:1026E0000A0F03D00A20E4E7FF20E2E70020E0E73A
:1026F0002DE9F04104460E462046E1698847202333
:102700003246A0212046676BB8470E222021204682
:10271000236B98472046216A884700BF2046E16A1C
:1027200088470028FAD107212046A26B904705462A
:102730002A4627212046236B984715F0100F0AD010
:10274000FF22E1212046236B98474BA000F0F2F8CE
:102750001020BDE8F08115F0200F04D049A000F052
:10276000E9F82020F5E74AA000F0E4F8FF20F0E7C0
:1027700010B50446A18801222068FDF79CFF10BD1A
:1027800010B50446A18800222068FDF794FF10BD13
:1027900010B50446A18A01222069FDF78CFF10BD07
:1027A00010B50446A18A00222069FDF784FF10BD00
:1027B00010B50446A189A068FDF75FFF10BD38B5CC
:1027C0000446A088ADF8000003208DF80200102018
:1027D0008DF8030069462068FDF7BEFEA08AADF8BB
:1027E000000003208DF8020010208DF803006946D8
:1027F0002069FDF7B1FEA089ADF8000003208DF837
:10280000020048208DF803006946A068FDF7A4FE89
:10281000AFF2A300E061AFF297002062AFF28F0049
:102820006062AFF28300A062AFF27B00E062AFF2C1
:10283000B1302063AFF22D306063AFF29730A06308
:10284000AFF27730E063AFF257102064AFF2D910E7
:102850006064AFF20B30A064AFF2AD20E06438BD2D
:102860007A00002061000020660000206B0000203C
:102870007000002075000020B3ACCAB1D6D8B7A252
:102880000D0A0000B7A2CBCDCDEAB3C90D0A0000F6
:10289000CEB4D6AAD4ADD2F20D0A000040EA0103AC
:1028A0009B0703D009E008C9121F08C0042AFAD206
:1028B00003E011F8013B00F8013B521EF9D27047CA
:1028C000D2B201E000F8012B491EFBD27047002272
:1028D000F6E710B513460A4604461946FFF7F0FF1F
:1028E000204610BD30B50B460146002020220124B1
:1028F00009E021FA02F59D4205D303FA02F5491BCE
:1029000004FA02F52844151EA2F10102F1DC30BDE3
:10291000064C074D06E0E06840F0010394E807002C
:1029200098471034AC42F6D3FDF706FCC82A0008DD
:10293000E82A00080FB4054B10B503A9044A029811
:1029400000F018F810BC5DF814FB00007B1F0008B5
:102950008000002002E008C8121F08C1002AFAD136
:1029600070477047002001E001C1121F002AFBD10F
:10297000704700002DE9FF4F89B09A4604460025B4
:1029800097E0252833D10027641C4E49B846012220
:102990002378203B02FA03F0084202D00743641C6C
:1029A000F6E720782E2819D114F8010F47F0040714
:1029B0002A280ED06FF02F022078A0F130010929CB
:1029C0000CD808EB880102EB410100EB0108641C04
:1029D000F2E70A98641C50F8048B0A9020780028CB
:1029E0006BD0642808D0692806D0752820D05246BC
:1029F0000B9990476D1C5BE00A994FF00A0901C9D9
:102A00000A91002804DAC0F100004FF02D0102E025
:102A1000390504D52B218DF82010012103E0F90799
:102A200004D02021F7E78B4608AE0EE00021FAE73C
:102A30000A994FF00A0901C90A91F7E74946FFF7D9
:102A400051FF01F1300106F8011D0028F6D1ADEB70
:102A5000060000F12009780701D44FF00108C845AD
:102A600002DDA8EB090000E000208046002706E018
:102A700008A85246C05D0B9990476D1C7F1C5F45AE
:102A8000F6DB04E0302052460B9990476D1CB8F1FC
:102A90000001A8F10108F5DC05E016F8010B52462B
:102AA0000B9990476D1CB9F10001A9F10109F4DC03
:102AB000641C207800287FF464AF0DB02846BDE880
:102AC000F08F000009280100E82A0008000000201B
:102AD00084000000542900086C2B000884000020AA
:102AE000C41200006429000800000000000000007B
:102AF0000000000000A24A040000000000000000E6
:102B00000102030406070809000000000102030493
:102B10000102030406070809020406080000000079
:102B200000000000CC03002000000000FF000000B7
:102B30000000000000000000000000000000000095
:102B4000F40E0020101134339610113433962111F5
:102B5000343396321134339643113433965411344E
:0C2B60003396651134339600000000002D
:0400000508000131BD
:00000001FF
