:020000040800F2
:10000000001300209D1E0008310200083302000882
:10001000370200083B0200083F0200080000000011
:100020000000000000000000000000004302000883
:1000300045020008000000004702000849020008CD
:10004000B71E0008B71E0008B71E0008B71E00083C
:10005000B71E0008B71E0008B71E0008B71E00082C
:10006000B71E0008B71E0008B71E0008B71E00081C
:10007000B71E0008B71E0008B71E0008B71E00080C
:10008000B71E0008B71E0008B71E0008B71E0008FC
:10009000B71E0008B71E0008B71E0008B71E0008EC
:1000A000B71E0008B71E0008B71E0008B71E0008DC
:1000B000B71E0008B71E00084B020008B71E000854
:1000C000B71E0008B71E0008B71E0008B71E0008BC
:1000D000B71E00085D020008B71E0008B71E000822
:1000E000B71E0008B71E0008B71E0008B71E00089C
:1000F000B71E0008B71E0008B71E0008B71E00088C
:10010000B71E0008B71E0008B71E0008B71E00087B
:1001100089020008B71E0008B71E0008B71E0008B5
:10012000B71E0008B71E0008B71E0008B71E00085B
:10013000DFF80CD003F0B0F8004800476D0100086C
:100140000013002010B530480078C0432E490870D5
:10015000084602784FF480612C4800F0B4FA2A482F
:10016000027804212A4800F0AEFA10BD0EB502F064
:1001700002FA02F0DAFC02F0ADFE01F0BDFF02F07F
:1001800053F824A003F09AF8C8230022114601A8CE
:1001900002F0AAF80120224B0090DDE9011202F0E2
:1001A0003BFA00234FF4FA72194601A802F09CF8BA
:1001B0000020AFF26F0300900220DDE9011202F08F
:1001C0002BFA1849087000230A22194601A802F0E8
:1001D0008BF80020144B00900320DDE9011202F09F
:1001E0001BFA00233222194601A802F07DF80020F4
:1001F0000E4B00900420DDE9011202F00DFA01E03F
:1002000002F0AEFAFCE7000001000020000C014003
:10021000001401406D61696E20646F6E650D0A0007
:10022000FB2A0008000000200B2F00080D300008FA
:10023000704700BFFEE700BFFEE700BFFEE700BF5C
:10024000FEE7704770477047704710B51AA003F07B
:1002500035F801211D4801F01DFE10BD10B5002428
:1002600040F225511A4800F059FE60B1184800F0DC
:10027000D5FDC4B2214617A003F020F840F2255165
:10028000134800F075FE10BD10B5002440F2255152
:10029000114800F043FE68B10F4800F0BFFDC4B242
:1002A00021460E48006802F092FE40F225510A48AD
:1002B00000F05EFE10BD000054494D345F495251BC
:1002C00048616E646C65720D0A0000000008004011
:1002D0000038014025630000004C00405C00002015
:1002E00000210020674A126842F48032654B1A6090
:1002F00000BF644A126802F40030491C10B9B1F51D
:10030000A06FF6D15F4A126812F4003F01D00120BD
:1003100000E00020012842D15B4A126842F010023E
:10032000594B1A601A46126822F003021A601A46E4
:10033000126842F002021A60524A5268514B5A60E7
:100340001A4652685A601A46526842F480625A60ED
:100350001A46526822F47C125A601A46526842F4D5
:10036000E8125A601A46126842F080721A6000BFA2
:10037000444A126812F0007FFAD0424A526822F0D2
:100380000302404B5A601A46526842F002025A6019
:1003900000BF3C4A526802F00C02082AF9D17047AB
:1003A00010B5FFF79DFF10BD10B53648006840F04E
:1003B0000100344908600846406834490840314922
:1003C000486008460068324908402E4908600846DF
:1003D000006820F4802008600846406820F4FE0091
:1003E00048604FF41F008860FFF7DAFF4FF00060AD
:1003F0002849086010BD10B5002100200022214BC3
:100400005B6803F00C0121B1042906D0082928D12A
:1004100007E0214B214C236027E01F4B1F4C23603A
:1004200023E0184B5B6803F47010164B5B6803F411
:100430008032022303EB904022B9194B4343174CFF
:1004400023600DE00F4B5B6813F4003F04D0144BA6
:100450004343124C236003E00F4B43430F4C236094
:1004600003E00D4B0D4C236000BF00BF054B5B68E4
:10047000C3F303130B4CE15C084B1B68CB40074CE8
:10048000236010BD00100240002002400000FFF871
:10049000FFFFF6FE08ED00E000127A0004000020E5
:1004A00000093D000800002010B50446CA488442F7
:1004B00008D10121042000F023FB0021042000F0DA
:1004C0001FFB46E0C548844208D10121082000F006
:1004D00017FB0021082000F013FB3AE0C0488442DB
:1004E00008D10121102000F00BFB0021102000F0AA
:1004F00007FB2EE0BB48844208D10121202000F0F8
:10050000FFFA0021202000F0FBFA22E0B6488442E6
:1005100008D10121402000F0F3FA0021402000F032
:10052000EFFA16E0B148844208D10121802000F0A2
:10053000E7FA0021802000F0E3FA0AE0AC488442A8
:1005400007D10121801500F0DBFA0021A01500F091
:10055000D7FA10BD10B50121084600F0D1FA0021EC
:10056000012000F0CDFA10BD2DE9F0410246002532
:100570000026002000230024002791F803C00CF07F
:100580000F0591F803C01CF0100F03D091F802C0C2
:100590004CEA050591F800C0BCF1000F31D0146899
:1005A00000202BE04FF0010C0CFA00F3B1F800C072
:1005B0000CEA03069E4220D183004FF00F0C0CFA88
:1005C00003F7BC4305FA03FC4CEA040491F803C0AA
:1005D000BCF1280F06D14FF0010C0CFA00FCC2F858
:1005E00014C00AE091F803C0BCF1480F05D14FF0E8
:1005F000010C0CFA00FCC2F810C0401C0828D1D332
:100600001460B1F800C0BCF1FF0F34DD5468002065
:100610002EE000F1080C4FF0010808FA0CF3B1F8D5
:1006200000C00CEA03069E4221D183004FF00F0C5C
:100630000CFA03F7BC4305FA03FC4CEA040491F8F6
:1006400003C0BCF1280F05D100F1080C08FA0CF822
:10065000C2F8148091F803C0BCF1480F07D100F133
:10066000080C4FF0010808FA0CF8C2F81080401C82
:100670000828CED35460BDE8F0814FF6FF710180A9
:10068000022181700421C1707047024600209368E6
:100690000B4201D0012000E000207047014688682D
:1006A00080B2704702460020D3680B4201D001207F
:1006B00000E0002070470146C86880B270470161C1
:1006C0007047416170470AB1016100E041617047C4
:1006D000C16070474FF480320A4382618161826158
:1006E00082698269704702460020424B18684FF6C3
:1006F0008073184040EA021008433E4B1860704770
:100700003D49C8617047F0B50A4600230024002126
:10071000002500F00046B6F1004F02D1354EF169D8
:1007200001E0344E7168C0F3034583B200F4401613
:10073000B6F5401F08D121F070612E4E766826F084
:1007400070662C4F7E6012E000F48016B6F5801FB4
:1007500006D1032606FA05F4A14341F0706106E0D4
:10076000460D360103FA06F6B14341F0706122B13D
:10077000460D360103FA06F6314300F00046B6F1A5
:10078000004F02D11B4EF16101E01A4E7160F0BDC5
:1007900030B500228B071C0F0F2303FA04F2154B10
:1007A00008338C1053F824309343124C08348D10C6
:1007B00044F8253023468C1053F824308C07240F3E
:1007C00000FA04F423430B4C08348D1044F8253010
:1007D00030BD0A490860704700080140000C014024
:1007E000001001400014014000180140001C0140AD
:1007F000002001400000014000002042DC002042B7
:10080000DB48006840F00100D949086008464068AC
:10081000D8490840D649486008460068D64908408B
:10082000D34908600846006820F480200860084624
:10083000406820F4FE0048604FF41F008860704755
:10084000CB49096821F48031C94A11601146096811
:1008500021F480211160B0F5803F03D0B0F5802FE6
:100860000ED106E0C249096841F48031C04A1160E6
:1008700007E0BF49096841F4A021BD4A116000E0CA
:1008800000BF00BF704710B50146002200230020C2
:100890004A11012A02D1B64C236806E0022A02D18D
:1008A000B34C236A01E0B24C636A01F01F020124D9
:1008B00094401C4201D0012000E0002010BD70B522
:1008C00000240025002600BF3120FFF7DCFF06468C
:1008D000641CB4F5A06F01D0002EF5D03120FFF7D5
:1008E000D2FF08B1012500E00025284670BD014671
:1008F00000209F4A106820F0F80040EAC100106014
:1009000070479E490860704702460020984B58681F
:1009100020F47C1042EA01031843954B586070475D
:1009200096490866704701460020914A506820F0B9
:1009300003000843506070478D48406800F00C0089
:100940007047014600208A4A506820F0F0000843B2
:100950005060704701460020854A506820F4E060EE
:1009600008435060704701460020814A506820F4D7
:10097000605040EAC1005060704729B17C4A527A09
:1009800002437B4B5A7204E0794A527A8243784B95
:100990005A7270477A490860704701460020744ACD
:1009A000506820F440400843506070470021754A69
:1009B00011706F4A82F82010012802D0042808D153
:1009C00003E001216F4A117004E005216D4A1170A6
:1009D00000E000BF00BF70476B4908607047644982
:1009E000096A0143624A11627047674944390860E5
:1009F000704730B500210022002400235C4D6D6853
:100A000005F00C0121B1042905D0082923D105E006
:100A10005E4D056022E05D4D05601FE0544D6D6840
:100A200005F47012524D6D6805F48034022505EB13
:100A300092421CB9564D554305600BE04C4D6D6814
:100A400015F4003F03D0524D5543056002E04F4D71
:100A50005543056002E04D4D056000BF00BF444DA9
:100A60006D6805F0F00109094A4D6B5C0568DD40D1
:100A700045603F4D6D6805F4E061090A454D6B5CCA
:100A80004568DD4085603A4D6D6805F46051C90ADE
:100A9000404D6B5C4568DD40C560354D6D6805F4C3
:100AA0004041890B3C4D6B5CC568B5FBF3F50561B6
:100AB00030BD29B12E4A526902432D4B5A6104E0E0
:100AC0002B4A526982432A4B5A61704729B1284AFE
:100AD00092690243264B9A6104E0254A9269824357
:100AE000234B9A61704729B1214AD2690243204BB6
:100AF000DA6104E01E4AD26982431D4BDA61704715
:100B000029B11B4AD2680243194BDA6004E0184A43
:100B1000D2688243164BDA60704729B1144A1269D1
:100B20000243134B1A6104E0114A12698243104BCD
:100B30001A61704714494039086070470F49C8640A
:100B400070470B49C87170470948406A40F080708F
:100B500007494862704701460020054A92680A42E8
:100B600001D0012000E000207047014988727047E1
:100B7000001002400000FFF8FFFFF6FE00004242B6
:100B8000D8004242201002408004424200127A0003
:100B900000093D00180000202800002010B5044680
:100BA000FB48844209D101218803FFF7A9FF0021F6
:100BB0004FF48040FFF7A4FF32E0F648844209D1A9
:100BC00001214804FFF7A9FF00214FF40030FFF78F
:100BD000A4FF25E0F048844209D101218804FFF7F1
:100BE0009CFF00214FF48020FFF797FF18E0EB48AF
:100BF000844209D10121C804FFF78FFF00214FF47F
:100C00000020FFF78AFF0BE0E548844208D101216C
:100C10000805FFF782FF00214FF48010FFF77DFFEA
:100C200010BD2DE9F04786B005460E460024A246C9
:100C300000BFA1460027B08900B100BF2F462C8A13
:100C40004CF6FF700440F08804432C82AC894EF6C9
:100C5000F3100440B0883189084371890843044384
:100C6000AC81AC8A4FF6FF400440B0890443AC82AB
:100C700001A8FFF7BEFEC648874202D1DDF810A0EA
:100C800001E0DDF80CA0A88910F4004F08D00AEBB1
:100C9000CA0000EB0A1031684900B0FBF1F807E028
:100CA0000AEBCA0000EB0A1031688900B0FBF1F8CA
:100CB0006420B8FBF0F004012009642101FB1089D5
:100CC000A88910F4004F08D0322000EBC900B0FB17
:100CD000F1F000F00700044308E0322000EB0910B7
:100CE0006421B0FBF1F000F00F0004432C8106B04A
:100CF000BDE8F0874FF41651016000218180C1806A
:100D000001810C21418100218181704710B502468B
:100D10000020108A4FF2FF0318400B884C882343B1
:100D20008C882343CC8823431843108210BD0021B4
:100D3000018041808180C180704721B1828942F465
:100D40000052828104E082894DF6FF731A4082814D
:100D50007047F0B503460024002600250020A1F5C9
:100D600010676A3F00D100BF1846C1F3421401F07A
:100D70001F06012707FA06F5012C01D10C3004E00B
:100D8000022C01D1103000E014301AB107682F4353
:100D9000076002E00768AF430760F0BD1AB1838ABD
:100DA0000B43838202E0838A8B4383827047028AEB
:100DB0004FF6F0731A400282028A0A430282704799
:100DC00082894FF2FF731A40828182890A438281AD
:100DD000704721B1828942F00202828104E0828957
:100DE0004FF6FD731A4082817047028A4FF6DF7317
:100DF0001A400282028A0A430282704721B1028AA3
:100E000042F48042028204E0028A4BF6FF731A40E9
:100E100002827047C1F308028280704701468888C9
:100E2000C0F308007047818941F00101818170475A
:100E3000028BD2B20283028B42EA01220283704704
:100E4000028B02F47F420283028B0A4302837047C3
:100E500021B1828A42F02002828204E0828A4FF627
:100E6000DF731A408282704721B1828A42F01002F9
:100E7000828204E0828A4FF6EF731A4082827047C2
:100E800021B1828A42F00802828204E0828A4FF60F
:100E9000F7731A408282704721B1828942F400427E
:100EA000828103E08289C2F30E028281704721B100
:100EB000828A42F40062828204E0828A4FF2FF73E7
:100EC0001A4082827047828A4FF6FB731A408282F0
:100ED000828A0A438282704721B1828A42F00202EA
:100EE000828204E0828A4FF6FD731A408282704744
:100EF00002460020B1F5007F00D100BF13880B42ED
:100F000001D0012000E00020704701F40072B2F52A
:100F1000007F00D100BFCA430280704770B502460F
:100F20000024002300250020A1F510666A3E00D1B0
:100F300000BFC1F3421501F01F03012606FA03F3B7
:100F4000012D02D19689334006E0022D02D1168A86
:100F5000334001E0968A33400C12012606FA04F46D
:100F60001688344013B10CB1012000E0002070BDA0
:100F700010B500220023A1F510646A3C00D100BF27
:100F80000A1201249440A3B2DC43048010BD000087
:100F9000003801400044004000480040004C004040
:100FA0000050004031490143314A1160704770B52B
:100FB000002100230F22C4780CB32D4C246804F4C4
:100FC000E064C4F5E064210AC1F10403CA40447836
:100FD00004FA03F18478144021430901254C067872
:100FE000A155047804F01F050124AC4005786D116B
:100FF0004FF0E02606EB8505C5F8004109E00478CE
:1010000004F01F050124AC401B4D0678761145F80D
:10101000264070BD194A0A400243154B1B1F1A6037
:10102000704739B1124A121D12680243104B1B1D42
:101030001A6006E00E4A121D126882430C4B1B1DFB
:101040001A607047042808D14FF0E021096941F087
:1010500004014FF0E022116107E04FF0E02109693F
:1010600021F004014FF0E022116170470000FA0501
:101070000CED00E000E400E080E100E080FFFF1FF5
:1010800010B50446FE48844208D10121C014FFF780
:1010900037FD0021E014FFF733FDC4E0B4F1804FC9
:1010A00008D101210846FFF738FD00210120FFF794
:1010B00034FDB8E0F348844208D101210220FFF753
:1010C0002CFD00210220FFF728FDACE0EE48844211
:1010D00008D101210420FFF720FD00210420FFF7A3
:1010E0001CFDA0E0E948844208D101210820FFF757
:1010F00014FD00210820FFF710FD94E0E44884422D
:1011000008D101211020FFF708FD00211020FFF772
:1011100004FD88E0DF48844208D101212020FFF748
:10112000FCFC00212020FFF7F8FC7CE0DA48844238
:1011300008D101214014FFF7E3FC00216014FFF700
:10114000DFFC70E0D548844209D10121C804FFF7D3
:10115000D7FC00214FF40020FFF7D2FC63E0D04819
:10116000844209D101210805FFF7CAFC00214FF490
:101170008010FFF7C5FC56E0CA48844209D101211E
:101180004805FFF7BDFC00214FF40010FFF7B8FC45
:1011900049E0C548844208D101214020FFF7BDFC49
:1011A00000214020FFF7B9FC3DE0C048844208D14F
:1011B00001218020FFF7B1FC00218020FFF7ADFC6A
:1011C00031E0BB48844208D101218015FFF7A5FC1E
:1011D0000021A015FFF7A1FC25E0B648844209D103
:1011E00001210804FFF78CFC00214FF48030FFF749
:1011F00087FC18E0B048844209D101214804FFF778
:101200007FFC00214FF40030FFF77AFC0BE0AB4885
:10121000844208D101218804FFF772FC00214FF4B9
:101220008020FFF76DFC10BD00220288944B98428D
:101230000ED0994B98420BD0B0F1804F08D0914B13
:10124000984205D0904B984202D0904B984204D1DE
:101250004FF68F731A404B881A438D4B984207D034
:101260008C4B984204D04FF6FF431A40CB881A4368
:1012700002808B8883850B880385814B98420BD035
:10128000854B984208D08B4B984205D08A4B9842A8
:1012900002D08A4B984201D10B7A038601238382C4
:1012A000704770B5002400220023058C4FF6FE76AF
:1012B00035400584028C8388048B4FF68F752C4053
:1012C000B51E2C400D882C43751E2A400D892A43DB
:1012D0004D882A436A4DA8420BD06F4DA84208D0D2
:1012E000744DA84205D0744DA84202D0734DA84257
:1012F00013D14FF6F7752A404D892A434FF6FB75F7
:101300002A408D882A434FF6FF652B404FF6FF5544
:101310002B408D892B43CD892B4383800483CD883B
:101320008586028470BD70B5002400220023058CE0
:101330004FF6EF7635400584028C8388048B48F69F
:10134000FF752C404FF6FF452C400D884FF6FF7679
:1013500006EA05252C434FF6DF752A400D8906EA7B
:1013600005152A434D8806EA05152A43444DA8422F
:1013700002D0494DA8421DD14FF67F752A404D89B4
:101380004FF6FF7606EA05152A434FF6BF752A4049
:101390008D8806EA05152A434FF6FF352B404FF29C
:1013A000FF752B408D8906EA85052B43CD8906EA1A
:1013B00085052B4383800483CD880587028470BD17
:1013C00070B5002400220023058C4FF6FF663540DF
:1013D0000584028C8388848B4FF68F752C404FF6E2
:1013E000FC752C400D882C434FF6FF552A400D8983
:1013F0004FF6FF7606EA05252A434D8806EA0525BD
:101400002A431F4DA84202D0234DA8421DD14FF2BE
:10141000FF752A404D894FF6FF7606EA05252A43D7
:101420004FF6FF352A408D8806EA05252A434EF6F9
:10143000FF752B404DF6FF752B408D8906EA05158B
:101440002B43CD8906EA05152B4383808483CD8801
:101450008587028470BD70B5002200230024058CAE
:101460004EF6FF7635400584038C8488828B48F6DF
:10147000FF752A404FF6FF452A400D8820E0000006
:10148000002C01400004004000080040000C004017
:10149000001000400014004000340140004C0140A6
:1014A000005001400054014000180040001C004062
:1014B000002000400040014000440140004801403D
:1014C0004FF6FF7606EA05252A434DF6FF752B40B9
:1014D0000D8906EA05352B434D8806EA05352B4371
:1014E000FA4DA84202D0FA4DA84208D14BF6FF753A
:1014F0002C408D894FF6FF7606EA85152C438480B3
:101500008283CD88A0F84050038470BD828B4FF257
:10151000FF331A408283828B4FF6FF7303EA012365
:101520001A4382837047F0B50C461546002200210D
:101530000026078C4EF6FF7C07EA0C070784828B97
:10154000018C4FF6FF7707EA043640F6FF473A4032
:101550004FF6FF7707EA05273A434FF6FF7707EA8A
:1015600003373A43D94FB8420ED0D94FB8420BD0C7
:10157000B0F1804F08D0D74FB84205D0D64FB8420F
:1015800002D0D64FB84206D14DF6FF77394046F427
:101590008057394305E047F6FF57394044F48057F8
:1015A000394382830184F0BD828B4FF6F3731A4076
:1015B0008283828B0A4382837047F0B50C461546BE
:1015C000002200210026078C4FF6FF6C07EA0C076B
:1015D0000784828B018C4FF6FF7707EA04264FF6CB
:1015E0000C773A404FF6FF7707EA03172F433A4349
:1015F000B64FB8420ED0B64FB8420BD0B0F1804FC4
:1016000008D0B44FB84205D0B34FB84202D0B34F60
:10161000B84206D14FF6FF57394046F48077394338
:1016200005E04FF2FF57394044F480773943828315
:101630000184F0BD028B4FF2FF331A400283028B0C
:101640004FF6FF7303EA01231A4302837047F0B594
:101650000C461546002200210026078C4FF6EF7C31
:1016600007EA0C070784028B018C4FF6FF7707EA25
:10167000041640F6FF473A404FF6FF7707EA033774
:101680003A434FF6FF7707EA05273A438F4FB842B0
:101690000ED08F4FB8420BD0B0F1804F08D08D4F95
:1016A000B84205D08C4FB84202D08C4FB84206D118
:1016B0004FF6DF77394046F01007394305E04FF623
:1016C0005F77394044F01007394302830184F0BD4D
:1016D000028B4FF6F3731A400283028B0A43028394
:1016E0007047F0B50C46154600220021068C4FF6D7
:1016F000FE773E400684028B018C4FF60C7632401A
:101700007E1C06EA03162E433243704EB0420ED0C2
:101710006F4EB0420BD0B0F1804F08D06D4EB0424A
:1017200005D06D4EB04202D06C4EB04206D14FF69D
:10173000FD76314044F00106314305E04FF6F57681
:10174000314044F00106314302830184F0BD70B59D
:1017500005460C465D4885420ED05D4885420BD05B
:10176000B5F1804F08D05B48854205D05A48854284
:1017700002D05A48854200D100E000BF208850B90D
:101780002389A28861882846FFF7ABFFE1882846B5
:10179000FFF79EFF25E0208804280AD12389A2882C
:1017A00061882846FFF753FFE1882846FFF742FF8C
:1017B00017E0208808280AD12389A2886188284652
:1017C000FFF7FBFEE1882846FFF7EEFE09E02389DC
:1017D000A28861882846FFF7A6FEE1882846FFF721
:1017E00095FE70BD2DE9F04105460C460026012707
:1017F000608808B9022600E00026A088012801D1EF
:10180000022700E001272088A0B92389A2886188E7
:101810002846FFF766FFE1882846FFF759FF23892E
:101820003A4631462846FFF712FFE1882846FFF77F
:1018300001FF13E02389A28861882846FFF707FF8C
:10184000E1882846FFF7F6FE23893A4631462846C6
:10185000FFF747FFE1882846FFF73AFFBDE8F08130
:101860000A884B881A438B881A43CB881A430B8902
:101870001A434B891A438B891A43A0F844207047B6
:101880004FF6FF71818000210180C180418001728B
:1018900070470021018041808180C18001814181A8
:1018A0008181C181704700210180418001218180B7
:1018B0000021C18001817047002101804180818029
:1018C000C18001814181818170470000002C01406D
:1018D000003401400004004000080040000C0040BB
:1018E00021B1028842F00102028004E002884FF632
:1018F000FE731A400280704731B1B0F8442042F4C0
:101900000042A0F8442005E0B0F84420C2F30E02E3
:10191000A0F8442070471AB183890B43838102E009
:1019200083898B43838170478182704741EA020338
:10193000A0F8483070471AB183890B43838102E0D5
:1019400083898B438381704701894FF6F872114078
:10195000018170470A46002101894FF68F731940B3
:1019600011430181704730B504460D462946204693
:10197000FFF7F0FF208940F00700208130BD2DE9FE
:10198000F04104460D4616461F46602D06D13B46E3
:10199000012231462046FFF75AFE05E03B46012270
:1019A00031462046FFF79DFE29462046FFF7D2FF2D
:1019B000208940F007002081BDE8F08130B50C4659
:1019C00000210189C9B24FF6FF7505EA03251543C9
:1019D00025432943018130BD2DE9F04105460E46DE
:1019E00017469846002443463A4631462846FFF7B4
:1019F000E5FF2C894FF6F870044044F007044FF6D9
:101A00008F70044044F070042C81BDE8F081F0B583
:101A100004460D4616461F463B463246294620469A
:101A2000FFF7CCFF208940F480402081F0BD018584
:101A3000828270470A46002101884FF68F73194051
:101A4000114301807047F0B50C4615461E46002133
:101A5000002200230189028B038C4FF6F87739406E
:101A600021434FF6FC473A4040F201173A434FF604
:101A7000DD773B404FF6FF7707EA06172F433B43DE
:101A8000018102830384F0BD0A460021018B4FF6D9
:101A90008F7319401143018370470A460021018B5F
:101AA00048F6FF7319404FF6FF7303EA0223194308
:101AB000018370470A460021818B4FF68F731940CE
:101AC0001143818370470A460021818B48F6FF73DA
:101AD00019404FF6FF7303EA0223194381837047CD
:101AE00021B1028842F08002028004E002884FF6B1
:101AF0007F731A400280704721B1828842F004024D
:101B0000828004E082884FF6FB731A40828070471F
:101B100021B1828842F00802828004E082884FF678
:101B2000F7731A408280704721B1828842F0010227
:101B3000828004E082884FF6FE731A4082807047EC
:101B40000A460021018B4FF6F773194011430183B8
:101B500070470A460021018B4FF2FF7319404FF680
:101B6000FF7303EA02231943018370470A460021E9
:101B7000818B4FF6F77319401143818370470A46F2
:101B80000021818B4FF2FF7319404FF6FF7303EA78
:101B900002231943818370470A460021018B4FF6C7
:101BA000FB7319401143018370470A460021018BE2
:101BB0004FF6FF3319404FF6FF7303EA0223194330
:101BC000018370470A460021818B4FF6FB73194051
:101BD0001143818370470A460021818B4FF6FF3302
:101BE00019404FF6FF7303EA0223194381837047BC
:101BF0000A460021018B4FF67F7319401143018380
:101C000070470A460021018BC1F30E014FF6FF73A6
:101C100003EA02231943018370470A460021818B9E
:101C20004FF67F7319401143818370470A460021A4
:101C3000818BC1F30E014FF6FF7303EA02231943B0
:101C4000818370470A460021018C4FF6FD731940CD
:101C50001143018470470A460021018C4FF6F77347
:101C600019401143018470470A460021018C4FF648
:101C7000DF7319404FF6FF7303EA0213194301841F
:101C800070470A460021018C4FF67F7319404FF6CA
:101C9000FF7303EA02131943018470470A460021C7
:101CA000018C4FF6FF5319404FF6FF7303EA0223EE
:101CB0001943018470470A460021018C4FF2FF73DB
:101CC00019404FF6FF7303EA02231943018470475A
:101CD0000A460021018C4DF6FF7319404FF6FF7341
:101CE00003EA023319430184704730B5002301240D
:101CF0008C40A3B2048C9C430484048C02FA01F54A
:101D0000ADB22C43048430BD30B5002304248C4094
:101D1000A3B2048C9C430484048C02FA01F5ADB296
:101D20002C43048430BD70B50346002000241846BF
:101D3000183001258D40ACB21D8CA5431D8409B11E
:101D4000082909D100EB6100056825F070050560E0
:101D50000568154305600EE00D1FC5F34E052844C8
:101D6000056825F4E045056005684FF6FF7606EA4C
:101D700002263543056070BD21B1028842F002029F
:101D8000028004E002884FF6FD731A40028070471B
:101D900021B1028842F00402028004E002884FF67A
:101DA000FB731A400280704721B1828842F08002A2
:101DB000828004E082884FF67F731A4082807047E9
:101DC00002884FF6F7731A40028002880A430280A5
:101DD000704782884FF68F731A40828082880A4348
:101DE0008280704702894FF6F8731A400281028997
:101DF0000A430281704702894FF67F731A400281BD
:101E000002890A4302817047818470478185704747
:101E1000818670470187704781877047A0F840101E
:101E2000704702884FF6FF431A40028002880A4337
:101E3000028070470146888E70470146088F7047C0
:101E40000146888F70470146B1F84000704701464F
:101E5000888C70470146088D704702460020138A1F
:101E60000B4201D0012000E000207047CA430282EB
:101E7000704730B50246002000230024158A05EA89
:101E80000103958905EA010413B10CB1012000E0BA
:101E9000002030BDCA4302827047000006488047D8
:101EA00006480047FEE7FEE7FEE7FEE7FEE7FEE73F
:101EB000FEE7FEE7FEE7FEE7A903000831010008A0
:101EC00008B54FF48060ADF8000010208DF80300D5
:101ED00003208DF802006946B048FEF745FB042058
:101EE000ADF8000010208DF8030003208DF80200EB
:101EF0006946AB48FEF738FB08BD00B585B0012147
:101F00008803FEF7E3FD0121C804FEF7ECFD4FF462
:101F10000070ADF8100003208DF8120018208DF825
:101F2000130004A99F48FEF71FFB4FF48060ADF833
:101F3000100004208DF8130004A99A48FEF714FB42
:101F40004FF48060ADF8100003208DF812001820C7
:101F50008DF8130004A99448FEF706FB4FF40060C7
:101F6000ADF8100004208DF8130004A98E48FEF788
:101F7000FBFA8E48FEF712FE4FF4E130009000208D
:101F8000ADF80400ADF80600ADF80800ADF80C009F
:101F90000C20ADF80A0069468448FEF742FE8448EA
:101FA000FEF7FCFD4FF41650009069468048FEF79E
:101FB00038FE20217D48FEF7A8FF40F225517B48DE
:101FC000FEF7D6FF79480C30008840F020007749B2
:101FD0000C31088076480C30008840F020007449AD
:101FE0000C31088001217148FEF7A7FE01217048DD
:101FF000FEF7A3FE05B000BD00B589B001210420A5
:10200000FEF771FD4FF47070ADF8200018208DF8C8
:10201000230003208DF8220008A96048FEF7A4FAE7
:102020006448FFF72DF86348FFF78EFC44F6206004
:10203000ADF81800604800686049B0FBF1F080B26C
:10204000ADF814000020ADF81A00ADF8160005A98F
:102050005848FFF7E9F80120ADF806000020ADF878
:102060000C0044F62060ADF80A0001A95148FFF7C2
:1020700018F908214F48FFF763FD44F62060ADF8DA
:102080000A0001A94B48FFF74EF908214948FFF71C
:1020900060FD01214748FFF723FD01214548FFF777
:1020A0001FFC09B000BD08B54FF4E060FEF77AFFF1
:1020B00025208DF8000000208DF8020001208DF809
:1020C00003006846FEF773FF34208DF800000120FE
:1020D0008DF802008DF803006846FEF768FF1E20A9
:1020E0008DF8000002208DF8020001208DF8030019
:1020F0006846FEF75CFF08BD10B5FEF781FB4FF4A4
:102100008030FEF79DFBFEF7DAFB044600BF002C93
:10211000FDD00020FEF715FC0020FEF71BFC002080
:10212000FEF721FC4FF4E0114FF48030FEF7ECFB9A
:102130000120FEF7F5FB00BF3920FEF7A4FB0028C5
:10214000FAD00220FEF7EFFB00BFFEF7F5FB0828F0
:10215000FBD10020FEF7D5FB01210420FEF7B6FCE1
:1021600001210820FEF7B2FC01211020FEF7AEFC91
:1021700001212020FEF7AAFC01214020FEF7A6FC49
:1021800001210846FEF7A2FCFFF78DFFFFF798FE3E
:10219000FFF7B3FEFFF730FF10BD0000000C014059
:1021A00000140140000801400010014000380140C7
:1021B000004C0040000800400400002040420F0096
:1021C0000020FE490968C908FD4AB1FBF2F14FF051
:1021D000E0229269B2FBF1F1F94A501A511088429B
:1021E0000CDAF849097849B10021F64A1170F6492C
:1021F0000968F34A1144F44A116008E0F34988423F
:1022000005DDF049097811B90121EE4A1170EE4956
:1022100009680144EE4A914202DB0021EA4A11605A
:10222000E94909680844704770B5E4480068C10886
:10223000B1F1807F00D31DE021F07F40401E4FF0C0
:10224000E022506150170F22002807DA13071D0EF5
:10225000E04B00F00F04241F1D5503E013071C0E74
:10226000DD4B1C5400BF00204FF0E022906107209E
:10227000106100BF6FF00400FEF7E4FE70BD1CB5F6
:10228000CF4A91FBF2F212B2ADF80020CC4A91FB9A
:10229000F2F302FB13124FF47A7392FBF3F212B2D1
:1022A000ADF80220C64A91FBF2F302FB13124FF481
:1022B0007A7392FBF3F403FB142212B2ADF80420FC
:1022C000009A0260BDF8042082801CBD30B504462F
:1022D000FFF776FF054629462046FFF7D0FF30BDC1
:1022E00000B5FFF76DFF00BD1CB5002400940194FC
:1022F0003B2905DCB2F57A7F02DAB3F57A7F05DB9C
:10230000009C0460BDF8044084801CBD0CB2ADF894
:10231000004014B2ADF802401CB2ADF80440009C7D
:102320000460BDF80440848000BFEEE71CB50B8854
:1023300014881B1B1BB2ADF800304B8854881B1B44
:102340001BB2ADF802308B8894881B1B1BB2ADF812
:102350000430BDF90430002B0CDABDF802305B1EEE
:102360001BB2ADF80230BDF8043003F57A731BB22E
:10237000ADF80430BDF90230002B0CDABDF80030A6
:102380005B1E1BB2ADF80030BDF8023003F57A7366
:102390001BB2ADF80230BDF90030002B05DABDF8F4
:1023A00000303C331BB2ADF80030009B0360BDF839
:1023B000043083801CBD02468A4203DA501A844BE3
:1023C00018447047501AFCE70146B1F900007C4AF6
:1023D0005043B1F9022002EB4203C3EBC21200EBFF
:1023E000C200B1F904201044704730B50446FFF72D
:1023F000E7FE054600BFFFF7E3FE431B002B01DAB3
:1024000073480344A342F6D330BD30B503464FF4BE
:102410007A704343FFF7D4FE054600BFFFF7D0FEB6
:10242000441B002C01DA6A4804449C42F6D330BDB8
:1024300030B503466948834200DD30BD6048434300
:10244000FFF7BEFE044600BFFFF7BAFE051B002DD6
:1024500001DA5F4805449D42F6DB00BFEDE703B5B6
:10246000BDF900003B2809DCBDF90200B0F57A7F18
:1024700004DABDF90400B0F57A7F00DB0CBDBDF9CC
:102480000000FFF7D5FFBDF90200FFF7BEFFBDF961
:102490000400FFF7AAFF00BFF0E730B503460C4683
:1024A00015460022002100BF09E04D4800EB021054
:1024B000807B10B94A4800EB0211501CC2B20A2AB4
:1024C000F3DB09B9002030BD012088730C71CD8089
:1024D00000208881488108810B600846F3E770B5C9
:1024E00004460D46A089E188884202D14FF0FF30B2
:1024F00070BD23892679216803FB061032462946E0
:1025000000F0B2FD2089401C80B2E18890FBF1F21E
:1025100001FB12002081A089401CA0810020E7E778
:1025200070B504460D46A08910B94FF0FF3070BD5C
:1025300063892679206803FB06013246284600F0AD
:1025400093FD6089401C80B2E18890FBF1F201FBB1
:1025500012006081A089401EA0810020E7E70146AB
:10256000888970470146C8888A89801A80B2704776
:10257000002181737047002000211A4A126891627D
:1025800000BF46E0FF2100EB400202EBC002164B09
:1025900003F82210002100EB400202EBC00203EB23
:1025A0008202516200EB400202EBC00203EB8202A6
:1025B000516000EB400202EBC00217E00400002073
:1025C00040420F00300000202C00002020A1070016
:1025D0000087930318ED00E000E400E0C0448403AA
:1025E0006C000020340000200C01002003EB82026C
:1025F000116100EB400202EBC00203EB8202516169
:1026000000EB400202EBC00203EB82029162411C2C
:10261000C8B20F28B6DB70472DE9FF4780469946C0
:10262000DDF830A0002500BF33E005EB450000EBEE
:10263000C500AA4901EB800090F90000401C26D19A
:1026400005EB450000EBC50001EB800468B220708B
:1026500084F8018084F802A001A8FFF7B5FE60604D
:10266000FFF7AEFDE060C4F8249000206083A083F3
:10267000A062FFF7A5FD206199480078401C9849A9
:10268000087008460078C0F10F00487003E0681C2D
:10269000C5B20F2DC9DB00BF0F2D04D14FF0FF30A5
:1026A00004B0BDE8F0878F480068806AD8B968B286
:1026B00005EB450101EBC501884A02F82100002025
:1026C00005EB450101EBC50102EB8101886205EBD9
:1026D000450000EBC500114601EB80008149096807
:1026E00088620020DCE77F4807680068866A00BFD0
:1026F00060687168884202DDA662BC6209E0B06A67
:1027000018B9B4620020A06203E03746B66A002E12
:10271000EED100BF94F90000C2E710B5024671483F
:1027200003680068816A00BF91F90000904211D1EE
:10273000886A9862FF200870002048626848007824
:10274000401E674C207020460078C0F10F0060707A
:10275000002010BD0B46896A0029E5D1481EF8E724
:102760002DE9F0415F480068846A002600250027B3
:1027700045E0FFF725FD05462846E168FFF71BFE0B
:102780000646206A28B1206AB04237DC0020206269
:1027900034E06068B04231DC17B951484560012728
:1027A000A07808B9E56004E0A078012801D1A0680C
:1027B000E060FFF705FD2061606A08B1606A80474C
:1027C000FFF7FEFC6061A08A218A401A20836168BD
:1027D000E0680844444990FBF1F201FB1200A0605C
:1027E000FFF7EEFCA168884201DD012000E0002037
:1027F000618B08446083A08B401CA083A46A002CDA
:10280000B7D18FB1FFF7DCFC354988600A465168C3
:102810009068FFF7D0FD3249C86008460069C96872
:1028200008442F4908610027BDE8F0812DE9F041F7
:1028300005460E46174617B90020BDE8F08105EBA6
:10284000450000EBC500254901EB8004206A00B972
:102850002662FFF785FF206A08B90020EDE7012016
:10286000EBE77CB51F4804680EE0608BA18BCDE9D7
:102870000010238B94F901101CA0626800F01EFD6B
:1028800000206083A083A46A002CEED1FFF798FC9F
:102890000546244801682846FFF78DFD2149086058
:1028A0000F480069642148431E49096890FBF1F014
:1028B0001C490860FFF784FC05460948037819485D
:1028C0002946026818A000F0F9FCFFF779FC1549C9
:1028D00008600020024908617CBD00000C01002056
:1028E000A00300203400002000879303B1E0BAC5A4
:1028F0003A256409BCE4B8F43A256409B5A5B4CE18
:10290000CAB1BCE43A256409D4CBD0D0B4CECAFD58
:102910003A256409B3ACCAB1B4CECAFD3A256409FC
:102920000D0A000038000020B5B1C7B0CAB1BCE440
:10293000A3BA25647573A3AC435055CAB9D3C3C2B7
:10294000CAA3BA256425252CC8CECEF1CAFDC1BFC5
:10295000A3BA2564200D0A0D0A0D0A0D0A0D0A00FE
:1029600000200021F74A1170F74A1170F74A1170E0
:10297000F74A117000BF04E00021F64A1154411CCF
:10298000C8B23228F8DB70470146FD2903D0F82988
:1029900001D0FE2901D1012070470020FCE713B5CA
:1029A0000C466946EC480068FFF799FD00981CBD8D
:1029B0000146F82907D0FD2902D0FE2909D105E0FA
:1029C0004FF67D6070474FF67860FBE74FF67E600C
:1029D000F8E70846F6E7014600220023012205E059
:1029E000881C805C184483B2501CC2B291F900006C
:1029F000801E9042F4DCD8B270472DE9F0410546C4
:102A00000024AF1C00BF3EE0012C2BDD95F9000037
:102A1000401EA04226DD385DFFF7B6FF10B3385DDB
:102A2000FFF7C6FF064600BF4021CC48FEF760FA1C
:102A30000028F9D04021C948FEF767FA3112C7488B
:102A4000FEF7E8F900BF4021C448FEF751FA00281C
:102A5000F9D04021C148FEF758FAF1B2BF48FEF75D
:102A6000D9F90EE000BF4021BC48FEF741FA00282A
:102A7000F9D04021B948FEF748FA395DB748FEF76A
:102A8000C9F9601CC4B295F90000A042BCDC00206A
:102A9000BDE8F0812DE9FC4105460024AF1C00BFD4
:102AA00024E0012C1BDD95F90000401EA04216DD3C
:102AB000385DFFF769FF90B1385DFFF779FF064693
:102AC00030120190F0B2009001A9A3480068FFF70E
:102AD00006FD6946A0480068FFF701FD04E03919CA
:102AE0009D480068FFF7FBFC601CC4B295F900002C
:102AF000A042D6DC0020BDE8FC8108B569469648B6
:102B00000068FFF70DFD78B900BF40219348FEF73C
:102B1000EFF90028F9D040219048FEF7F6F9009827
:102B200081B28E48FEF776F908BD10B54FF47A727F
:102B300001218B48FFF7B1FC874908603222202130
:102B40008848FFF7AAFC88490860FFF709FF874C0F
:102B50000C2020700120607020341420207004208C
:102B600060702034082020700220607020340A2019
:102B700020700320607020341220207005206070C7
:102B800010BD2DE9F04188B007460C4615461E469B
:102B9000DDF838808DF8004068B28DF801000696A7
:102BA000CDF81C8020226946384600F05DFA08B056
:102BB000BDE8F0812DE9F0410546002400270026FC
:102BC000FD2D0CD15F48007818B9FD205D490870D3
:102BD0000BE0FFF7C5FEFD205A49087005E0594893
:102BE000007810B90020BDE8F081FE2D02D05748D2
:102BF0000078C8B15548007888B1782D06D07D2D71
:102C000002D07E2D06D103E0FD2503E0F82501E08A
:102C1000FE2500BF00BF00204C49087009E00120DC
:102C20004A4908700020DEE7F82D02D1012048490A
:102C30000870454890F900200078401C40B2424B93
:102C400018704448855442480078002841D0012437
:102C500000204749088008E03E48005D4449098853
:102C6000084443490880601CC4B2374890F900000A
:102C7000801EA042F0DC374F7F1C002416E038781D
:102C80003A4901EB441191F9011088420CD13748BF
:102C900000EB441090F900002B4991F90010884294
:102CA00002D1324800EB4416601CC4B2052CE6DBAE
:102CB00016B9FFF755FE0CE096F900202549B01C27
:102CC00000F0D2F9314628480068FFF708FCFFF70A
:102CD00047FE002087E730B589B00546002003464F
:102CE00002220521009001A8FFF74BFF0DF1060419
:102CF000FD202070022060701E480078A0701D48E2
:102D00000078401C1B49087001A8FFF764FEE070C2
:102D1000F820207101A8FFF7BDFE09B030BD70B5E5
:102D20000546AC1C13480078607312480078401CBC
:102D3000104908702846FFF74EFE20742846FFF71A
:102D4000A9FE70BD430000203D000020440000208B
:102D50003E000020C00A002048000020003801404A
:102D6000F20A0020800400204C000020E003002034
:102D7000400000204200002070B50546AC1CFD203C
:102D800020700320607038480078E0723648007880
:102D9000401C354908702846FFF71DFE2073F820B7
:102DA00060732846FFF776FE70BD70B50546AC1C13
:102DB000FD202070042060702B480078E0732A48C2
:102DC0000078401C284908702846FFF704FE20744C
:102DD000F82060742846FFF75DFE70BD70B592B0B4
:102DE00004460026A07808B912B070BD60780228A9
:102DF00001D1A67908E06078032801D1267A03E0A2
:102E00006078012800D1A67A002003460522082117
:102E1000009002A8FFF7B5FE202202A90AA800F040
:102E200023F90DF12A05FD20287005206870AE7089
:102E30006078E870002028710B48007868710A48B3
:102E40000078401C084908700AA8FFF7C4FDA87163
:102E5000F820E8710AA8FFF71DFE2021204600F0A7
:102E60001CF900BFC0E70000420000202DE9F04738
:102E700004460D46284600F0A9F98146A16800F0F5
:102E80006FF980463B4900F013F9074600F0A3F9BB
:102E900086B22079012806D0022809D003280CD058
:102EA000042814D10EE031462068FEF7B1FF0EE091
:102EB00031462068FEF7AEFF09E031462068FEF794
:102EC000ABFF04E031462068FEF7A8FF00BF00BF5B
:102ED000BDE8F0872848294908600120087140F2C0
:102EE0004650C88026488860AFF27F00C8602248FC
:102EF000244908600220087140F24650C8802048EA
:102F00008860AFF29700C860704710B51E4800781F
:102F100000B110BD1D480068C2681D4801781B48FB
:102F2000006890471B480068C26819480178194832
:102F30000068904716480078A02803D10120164960
:102F4000087006E012480078142802D100201249C7
:102F500008701148007828B10D480078401E0C49CF
:102F6000087004E00A480078401C0949087000BF56
:102F7000CFE700000000AF4300080040DC0E002057
:102F80001CC7B140EC0E00205A0000205000002069
:102F900058000020540000205900002070B504465D
:102FA0000D46552D02D1002060802071657100BF53
:102FB00040212948FDF79CFF0028F9D029462648E2
:102FC000FDF728FF40212448FDF79FFF70BD42799F
:102FD000502A03D1A1F12D02027016E04279552A40
:102FE00013D102794AB9418042884FF6FF7303EA50
:102FF000022242800122027107E00279012A04D1F3
:1030000042880A43428002220271704710B5134879
:103010000068007902280BD11048006840886428B5
:1030200003DA01200E49087002E000200C49087004
:103030000C48007828B1502108480068FFF7AEFF1F
:1030400004E0552105480068FFF7A8FF054800780F
:10305000C0430449087010BD004C00405C000020D3
:103060005A0000206000002040EA01039B0703D0C3
:1030700009E008C9121F08C0042AFAD203E011F8B7
:10308000013B00F8013B521EF9D27047D2B201E079
:1030900000F8012B491EFBD270470022F6E710B55D
:1030A00013460A4604461946FFF7F0FF204610BDB6
:1030B000F0B480EA0102D40F4200B2EB410F02D219
:1030C0000246084611464A0042D0C30DDDB2C1F3A4
:1030D000C752AD1A202D35DAC1F3160141F40002B2
:1030E00004B15242C5F1200602FA06F12A41104409
:1030F000B3EBD05F23D0C4B1012DA0EBC35009DCEA
:10310000F0BC4FF0004202EAC35200F50000DBB20F
:1031100000F094B8400000F1807000EBC350A0F1C3
:10312000807040EAD170490009E0490841EAC07165
:10313000A0EBC35000F50000400800EBC350F0BC0A
:1031400000F073B86142012202EB4101001BF6E777
:10315000F0BC704781F00041AAE780F00040A7E78B
:1031600080EA010210B502F00043400026D04A0078
:1031700023D04FEA106101EB1261C0F35600C2F395
:10318000560240F4000042F40002A0FB0220A1F12C
:103190007F014FEA0040140401D000F1010050EA21
:1031A000124001D44000491EC2B20C0604EBD010FC
:1031B000401C4008802A02D003E0002010BD20F00F
:1031C0000100002900DA0020184310BD96230022D8
:1031D000114600F033B820F00040C10DC0F31600D6
:1031E00040F400007F2901DA00207047962903DCB3
:1031F000C1F19601C840704796398840704730B594
:103200000B46014600202022012409E021FA02F5A4
:103210009D4205D303FA02F5491B04FA02F528443E
:10322000151EA2F10102F1DC30BD0029A8BF7047D4
:10323000401C490008BF20F00100704710B4B0FAEC
:1032400080FC00FA0CF050EA010404BF10BC704787
:1032500049B1CCF1200421FA04F411FA0CF118BFA1
:10326000012121430843A3EB0C01CB1D0106000AF9
:10327000002BBEBF002010BC704700EBC3501044B1
:103280000029A4BF10BC7047401C490008BF20F0B3
:10329000010010BC70470000064C074D06E0E068D6
:1032A00040F0010394E8070098471034AC42F6D38D
:1032B000FCF742FFB4340008D43400080FB4054BC7
:1032C00010B503A9044A029800F018F810BC5DF884
:1032D00014FB00009F2900086800002002E008C8D5
:1032E000121F08C1002AFAD170477047002001E080
:1032F00001C1121F002AFBD1704700002DE9FF4FCA
:103300008BB09A460F4605460026C9E0252837D1DE
:1033100000246D1C6649A14601222B78203B02FA4D
:1033200003F0084202D004436D1CF6E728782E28EB
:1033300017D115F8010F44F004042A280ED06FF0BD
:103340002F022878A0F1300109290AD809EB890158
:1033500002EB410100EB01096D1CF2E757F8049BF9
:103360006D1C287869283FD006DC002871D06328BE
:103370000CD0642804D137E0732811D075284ED0C2
:1033800052460D99904706F1010688E017F8040BA4
:103390008DF8000000208DF80100E846012003E0D0
:1033A00057F8048B4FF0FF3061074FF0000401D451
:1033B0000AE0641C4C450DDA8442FADB18F804106C
:1033C0000029F6D106E0641C8442FCDB18F80410E6
:1033D0000029F8D1264404E018F8010B52460D9953
:1033E0009047641EF8D25AE001CF4FF00A0B002834
:1033F00004DAC0F100004FF02D0102E0210504D5F0
:103400002B218DF82410012103E0E10705D02021B4
:10341000F7E70DF1200808910CE00021F9E701CF52
:103420004FF00A0BF9E75946FFF7E9FE01F13002C8
:1034300008F8012D0028F6D1ADEB080000F1200BB3
:10344000600701D44FF00109D94503DDA9EB0B005A
:1034500001E029E000208146002406E009A8524648
:10346000005D0D999047761C641C08988442F5DB3A
:1034700004E0302052460D999047761CB9F10001C6
:10348000A9F10109F5DC05E018F8010B52460D9988
:103490009047761CBBF10001ABF1010BF4DC6D1C15
:1034A000287800287FF432AF0FB03046BDE8F08FA7
:1034B00009280100D4340008000000206C0000003E
:1034C000DC320008403500086C0000209412000037
:1034D000EC3200080000000000A24A0400000000D6
:1034E00000000000010203040607080900000000B4
:1034F0000102030401020304060708090204060886
:103500000000000000000000B403002000000000E4
:10351000FF000000000000000000000000000000AC
:1035200000000000DC0E0020EC0E00200000000077
:103530006200002000000000000000000000000009
:0400000508000131BD
:00000001FF
