:020000040800F2
:10000000E804002085280008610100086301000859
:10001000670100086B0100086F0100080000000084
:100020000000000000000000000000007301000854
:100030007501000800000000770100087901000840
:100040009F2800089F2800089F2800089F28000874
:100050009F2800089F2800089F2800089F28000864
:100060009F2800089F2800087B0100089F2800089F
:100070009F2800089F2800089F2800089F28000844
:100080009F2800089F2800089F2800089F28000834
:100090009F2800089F2800089F2800089F28000824
:1000A0009F2800089F2800089F2800089F28000814
:1000B000CB0100089F2800089F2800089F280008FF
:1000C0009F2800089F2800089F2800089F280008F4
:1000D0009F280008FD0100089F2800089F280008AD
:1000E0009F2800089F2800089F2800089F280008D4
:1000F0009F2800089F2800089F2800089F280008C4
:100100009F2800089F2800089F2800089F280008B3
:100110009F2800089F280008E90100089F28000880
:100120009F2800089F2800089F2800089F28000893
:10013000DFF80CD004F020FE00480047450100081D
:10014000E804002002F0D5FD042003F00CFF05E0D8
:100150004FF4967002F0CEFB03F033FBF8E700009B
:10016000704700BFFEE700BFFEE700BFFEE700BF2D
:10017000FEE7704770477047704710B588B0102091
:1001800001F0CCFBE0B1684603F099FF044604227D
:1001900069465BA002F09CFB10B159A05A49086067
:1001A000FF2C0DD0482C03D1FF21272003F04DFE5A
:1001B000082C05D19DF8040010B9684603F0F6FF3D
:1001C000102001F0BCFB08B010BD10B5012188075C
:1001D00002F043FB38B10121880702F03BFB01210B
:1001E000880702F04BFB10BD10B50121474802F013
:1001F00031FB0121454802F041FB10BD10B5002440
:10020000434800F0EFFF044642480068401C414963
:1002100008600846006804280BD108460068401EA4
:100220003D4A1454104603F0C1FF002039490860CC
:1002300004E038480068401E374A145420213448EE
:1002400001F047F840F22551314801F075F84FF4BC
:1002500000712F4801F030F8012803D12FA004F0DD
:100260009DFD4BE04FF48071294801F025F80128ED
:1002700003D12DA004F092FD40E08021244801F03C
:100280001BF801283AD04021214801F015F8012837
:1002900003D12AA004F082FD30E010211C4801F0B7
:1002A0000BF8012803D129A004F078FD26E00821ED
:1002B000174801F001F8012803D128A004F06EFDD1
:1002C0001CE00421124800F0F7FF012803D127A009
:1002D00004F064FD12E002210D4800F0EDFF01285A
:1002E00003D126A004F05AFD08E00121084800F0DF
:1002F000E3FF012802D125A004F050FD10BD00004D
:10030000CDACB2BD00000000000000200010004095
:100310000038014004000020B0000020435453B1D5
:10032000EAD6BECEBB0000004C494ED6D0B6CFBCFC
:10033000ECB2E2B1EAD6BECEBB000000B7A2CBCD94
:10034000CDEAB3C9B1EAD6BECEBB0000BFD5CFD08F
:10035000D7DCCFDFB1EAD6BECEBB0000D2E7B3F622
:10036000B4EDCEF3B1EAD6BECEBB0000D4EBC9F9F2
:10037000B4EDCEF3B1EAD6BECEBB0000D6A1B4ED4B
:10038000CEF3B1EAD6BECEBB00000000C6E6C5BCC7
:10039000B4EDCEF3B1EAD6BECEBB00000021002002
:1003A000674A126842F48032654B1A6000BF644AA3
:1003B000126802F40030491C10B9B1F5A06FF6D1F3
:1003C0005F4A126812F4003F01D0012000E00020D3
:1003D000012842D15B4A126842F01002594B1A6060
:1003E0001A46126822F003021A601A46126842F096
:1003F00002021A60524A5268514B5A601A465268B9
:100400005A601A46526842F480625A601A4652682C
:1004100022F47C125A601A46526842F4E8125A607A
:100420001A46126842F080721A6000BF444A12688D
:1004300012F0007FFAD0424A526822F00302404B89
:100440005A601A46526842F002025A6000BF3C4AA3
:10045000526802F00C02082AF9D1704710B5FFF774
:100460009DFF10BD10B53648006840F001003449CA
:1004700008600846406834490840314948600846E9
:100480000068324908402E4908600846006820F498
:10049000802008600846406820F4FE0048604FF461
:1004A0001F008860FFF7DAFF4FF0006028490860FE
:1004B00010BD10B5002100200022214B5B6803F025
:1004C0000C0121B1042906D0082928D107E0214BCD
:1004D000214C236027E01F4B1F4C236023E0184B67
:1004E0005B6803F47010164B5B6803F480320223E0
:1004F00003EB904022B9194B4343174C23600DE0A6
:100500000F4B5B6813F4003F04D0144B4343124C71
:10051000236003E00F4B43430F4C236003E00D4B7C
:100520000D4C236000BF00BF054B5B68C3F3031392
:100530000B4CE15C084B1B68CB40074C236010BDA3
:1005400000100240002002400000FFF8FFFFF6FE0E
:1005500008ED00E000127A000C00002000093D00C8
:100560001000002010B50446CA48844208D1012179
:10057000042000F023FB0021042000F01FFB46E0D4
:10058000C548844208D10121082000F017FB002152
:10059000082000F013FB3AE0C048844208D1012152
:1005A000102000F00BFB0021102000F007FB2EE0D4
:1005B000BB48844208D10121202000F0FFFA00212D
:1005C000202000F0FBFA22E0B648844208D1012145
:1005D000402000F0F3FA0021402000F0EFFA16E08E
:1005E000B148844208D10121802000F0E7FA0021BF
:1005F000802000F0E3FA0AE0AC48844207D10121F0
:10060000801500F0DBFA0021A01500F0D7FA10BD2C
:1006100010B50121084600F0D1FA0021012000F0B8
:10062000CDFA10BD2DE9F04102460025002600203C
:1006300000230024002791F803C00CF00F0591F867
:1006400003C01CF0100F03D091F802C04CEA05055E
:1006500091F800C0BCF1000F31D0146800202BE0ED
:100660004FF0010C0CFA00F3B1F800C00CEA0306DD
:100670009E4220D183004FF00F0C0CFA03F7BC43CD
:1006800005FA03FC4CEA040491F803C0BCF1280FFE
:1006900006D14FF0010C0CFA00FCC2F814C00AE0BD
:1006A00091F803C0BCF1480F05D14FF0010C0CFAD2
:1006B00000FCC2F810C0401C0828D1D31460B1F867
:1006C00000C0BCF1FF0F34DD546800202EE000F1C3
:1006D000080C4FF0010808FA0CF3B1F800C00CEA5E
:1006E00003069E4221D183004FF00F0C0CFA03F752
:1006F000BC4305FA03FC4CEA040491F803C0BCF1C6
:10070000280F05D100F1080C08FA0CF8C2F8148083
:1007100091F803C0BCF1480F07D100F1080C4FF06D
:10072000010808FA0CF8C2F81080401C0828CED343
:100730005460BDE8F0814FF6FF71018002218170A5
:100740000421C17070470246002093680B4201D01B
:10075000012000E0002070470146886880B27047A1
:1007600002460020D3680B4201D0012000E00020A7
:1007700070470146C86880B27047016170474161A7
:1007800070470AB1016100E041617047C160704784
:100790004FF480320A438261816182618269826999
:1007A000704702460020424B18684FF6807318408D
:1007B00040EA021008433E4B186070473D49C8614B
:1007C0007047F0B50A46002300240021002500F000
:1007D0000046B6F1004F02D1354EF16901E0344ECA
:1007E0007168C0F3034583B200F44016B6F5401FAC
:1007F00008D121F070612E4E766826F070662C4F7D
:100800007E6012E000F48016B6F5801F06D1032644
:1008100006FA05F4A14341F0706106E0460D360189
:1008200003FA06F6B14341F0706122B1460D36017C
:1008300003FA06F6314300F00046B6F1004F02D14C
:100840001B4EF16101E01A4E7160F0BD30B500221F
:100850008B071C0F0F2303FA04F2154B08338C107F
:1008600053F824309343124C08348D1044F825304B
:1008700023468C1053F824308C07240F00FA04F41C
:1008800023430B4C08348D1044F8253030BD0A4901
:100890000860704700080140000C01400010014052
:1008A0000014014000180140001C014000200140DC
:1008B0000000014000002042DC002042DB480068CC
:1008C00040F00100D949086008464068D84908400E
:1008D000D649486008460068D6490840D3490860B0
:1008E0000846006820F4802008600846406820F42C
:1008F000FE0048604FF41F0088607047CB490968CC
:1009000021F48031C94A11601146096821F480211F
:100910001160B0F5803F03D0B0F5802F0ED106E016
:10092000C249096841F48031C04A116007E0BF49FB
:10093000096841F4A021BD4A116000E000BF00BF7A
:10094000704710B501460022002300204A11012AF9
:1009500002D1B64C236806E0022A02D1B34C236AC6
:1009600001E0B24C636A01F01F02012494401C4272
:1009700001D0012000E0002010BD70B5002400254A
:10098000002600BF3120FFF7DCFF0646641CB4F5EB
:10099000A06F01D0002EF5D03120FFF7D2FF08B1B3
:1009A000012500E00025284670BD014600209F4A31
:1009B000106820F0F80040EAC100106070479E49BE
:1009C0000860704702460020984B586820F47C105D
:1009D00042EA01031843954B5860704796490866F0
:1009E000704701460020914A506820F003000843F8
:1009F000506070478D48406800F00C007047014619
:100A000000208A4A506820F0F00008435060704788
:100A100001460020854A506820F4E0600843506099
:100A2000704701460020814A506820F4605040EA37
:100A3000C1005060704729B17C4A527A02437B4B17
:100A40005A7204E0794A527A8243784B5A7270475C
:100A50007A490860704701460020744A506820F4C3
:100A600040400843506070470021754A11706F4A3A
:100A700082F82010012802D0042808D103E00121C7
:100A80006F4A117004E005216D4A117000E000BF4B
:100A900000BF70476B49086070476449096A0143A9
:100AA000624A11627047674944390860704730B53F
:100AB00000210022002400235C4D6D6805F00C012C
:100AC00021B1042905D0082923D105E05E4D056038
:100AD00022E05D4D05601FE0544D6D6805F4701215
:100AE000524D6D6805F48034022505EB92421CB925
:100AF000564D554305600BE04C4D6D6815F4003FB5
:100B000003D0524D5543056002E04F4D55430560FB
:100B100002E04D4D056000BF00BF444D6D6805F01B
:100B2000F00109094A4D6B5C0568DD4045603F4DA9
:100B30006D6805F4E061090A454D6B5C4568DD4070
:100B400085603A4D6D6805F46051C90A404D6B5C93
:100B50004568DD40C560354D6D6805F44041890B41
:100B60003C4D6B5CC568B5FBF3F5056130BD29B143
:100B70002E4A526902432D4B5A6104E02B4A5269B6
:100B800082432A4B5A61704729B1284A926902432D
:100B9000264B9A6104E0254A92698243234B9A616D
:100BA000704729B1214AD2690243204BDA6104E03F
:100BB0001E4AD26982431D4BDA61704729B11B4A34
:100BC000D2680243194BDA6004E0184AD2688243C3
:100BD000164BDA60704729B1144A12690243134B6D
:100BE0001A6104E0114A12698243104B1A6170477E
:100BF00014494039086070470F49C86470470B4971
:100C0000C87170470948406A40F0807007494862DF
:100C1000704701460020054A92680A4201D001202F
:100C200000E00020704701498872704700100240C0
:100C30000000FFF8FFFFF6FE00004242D8004242EB
:100C4000201002408004424200127A0000093D0058
:100C5000200000203000002010B50446BE48844229
:100C600008D101218014FFF7A9FF0021A014FFF78C
:100C7000A5FF16E0B948844208D101210014FFF70E
:100C8000AAFF00212014FFF7A6FF0AE0B44884421F
:100C900007D10121C013FFF79EFF0021E013FFF7EA
:100CA0009AFF10BD10B50022028802F441520B8851
:100CB0004C8823438C882343CC8823430C892343CB
:100CC0004C8923438C892343CC8923431A430280D4
:100CD000838B4FF2FF74234083830B8A038210BD02
:100CE0002DE9F04F85B005460C464FF0000902276C
:100CF0004FF000084FF0010B0026B246A88B4FF2D0
:100D000040010840A88302202884B5F81C90A06800
:100D1000022801D100BF38E0A08810B94FF0010BC4
:100D200001E04FF0020B8D48854200D100E000BF8A
:100D30006846FFF7BCFEDDF800A0E088B0F5007F54
:100D40000AD14FEA1A2000EB80004000A168B0FBF6
:100D5000F1F0401D86B20BE04FEA4B10BAFBF0F009
:100D600000EB80004000A168B0FBF1F0401D86B2AE
:100D70000A20B6FBF0F606F00108A6EB0800C0F367
:100D80004F074FF6FF7000EA0828022F01DBFF2F04
:100D900002DD02274FF00008E08840EA08003843EF
:100DA0002884A088A18908436188084321880843D2
:100DB00040F4006040EA0909A5F81C9005B0BDE8C0
:100DC000F08F0021018041808180C18001814181BB
:100DD0008181C1810721018270470021018041800A
:100DE0008180C1800221816000218181704721B111
:100DF000028842F04002028004E002884FF6BF738E
:100E00001A400280704721B1828B42F48062828353
:100E100004E0828B4FF6FF331A408283704730B56F
:100E2000002400230C110125A540ABB21AB185881E
:100E30001D43858002E085889D43858030BD1AB1C1
:100E400083880B43838002E083888B4383807047D1
:100E500081817047014688897047A1F57E42FF3A3B
:100E600004D0028842F48072028004E002884FF6C7
:100E7000FF631A400280704721B1828842F0040269
:100E8000828004E082884FF6FB731A4082807047AC
:100E900002884FF2FF731A40028002880A430280E0
:100EA0007047018841F480510180704721B1028868
:100EB00042F40052028004E002884DF6FF731A40AB
:100EC0000280704702460020012901D0108B00E00B
:100ED000908A70470146088A7047B1F5804F04D167
:100EE000028842F48042028004E002884BF6FF73DD
:100EF0001A40028070470246002013890B4201D03D
:100F0000012000E000207047CA4302817047F0B51D
:100F10000246002000240023002501F00F070126CF
:100F2000BE40B4B20B1101269E40B3B2968806EAC9
:100F300003051689264202D00DB1012000E00020F1
:100F4000F0BD10B5002201F00F040123A3409AB2B6
:100F5000D343038110BD0000003001400038004041
:100F6000003C004010B50446FB48844209D10121F1
:100F70008803FFF723FE00214FF48040FFF71EFE99
:100F800032E0F648844209D101214804FFF723FEEC
:100F900000214FF40030FFF71EFE25E0F0488442A8
:100FA00009D101218804FFF716FE00214FF48020AB
:100FB000FFF711FE18E0EB48844209D10121C80473
:100FC000FFF709FE00214FF40020FFF704FE0BE0BD
:100FD000E548844208D101210805FFF7FCFD002106
:100FE0004FF48010FFF7F7FD10BD2DE9F04786B0F4
:100FF00005460E460024A24600BFA1460027B08940
:1010000000B100BF2F462C8A4CF6FF700440F088D8
:1010100004432C82AC894EF6F3100440B088318929
:101020000843718908430443AC81AC8A4FF6FF4002
:101030000440B0890443AC8201A8FFF738FDC648DC
:10104000874202D1DDF810A001E0DDF80CA0A889EC
:1010500010F4004F08D00AEBCA0000EB0A10316808
:101060004900B0FBF1F807E00AEBCA0000EB0A10F8
:1010700031688900B0FBF1F86420B8FBF0F004019E
:101080002009642101FB1089A88910F4004F08D0C1
:10109000322000EBC900B0FBF1F000F00700044380
:1010A00008E0322000EB09106421B0FBF1F000F001
:1010B0000F0004432C8106B0BDE8F0874FF41651B1
:1010C000016000218180C18001810C2141810021CA
:1010D0008181704710B502460020108A4FF2FF034D
:1010E00018400B884C8823438C882343CC882343A7
:1010F0001843108210BD0021018041808180C18091
:10110000704721B1828942F40052828104E08289D1
:101110004DF6FF731A4082817047F0B503460024F4
:10112000002600250020A1F510676A3F00D100BF0E
:101130001846C1F3421401F01F06012707FA06F50D
:10114000012C01D10C3004E0022C01D1103000E060
:1011500014301AB107682F43076002E00768AF43F5
:101160000760F0BD1AB1838A0B43838202E0838A51
:101170008B4383827047028A4FF6F0731A400282D3
:10118000028A0A430282704782894FF2FF731A4033
:10119000828182890A438281704721B1828942F02B
:1011A0000202828104E082894FF6FD731A40828137
:1011B0007047028A4FF6DF731A400282028A0A439E
:1011C0000282704721B1028A42F48042028204E026
:1011D000028A4BF6FF731A4002827047C1F308027D
:1011E0008280704701468888C0F308007047818973
:1011F00041F0010181817047028BD2B20283028BE0
:1012000042EA012202837047028B02F47F4202838A
:10121000028B0A430283704721B1828A42F0200286
:10122000828204E0828A4FF6DF731A40828270471E
:1012300021B1828A42F01002828204E0828A4FF653
:10124000EF731A408282704721B1828A42F008020D
:10125000828204E0828A4FF6F7731A4082827047D6
:1012600021B1828942F40042828103E08289C2F383
:101270000E028281704721B1828A42F4006282822A
:1012800004E0828A4FF2FF731A4082827047828A9A
:101290004FF6FB731A408282828A0A438282704729
:1012A00021B1828A42F00202828204E0828A4FF6F1
:1012B000FD731A408282704702460020B1F5007F1C
:1012C00000D100BF13880B4201D0012000E00020B4
:1012D000704701F40072B2F5007F00D100BFCA432D
:1012E0000280704770B502460024002300250020CC
:1012F000A1F510666A3E00D100BFC1F3421501F0AE
:101300001F03012606FA03F3012D02D1968933400B
:1013100006E0022D02D1168A334001E0968A33405E
:101320000C12012606FA04F41688344013B10CB1ED
:10133000012000E0002070BD10B500220023A1F5BF
:1013400010646A3C00D100BF0A1201249440A3B289
:10135000DC43048010BD0000003801400044004020
:1013600000480040004C004000500040314901431B
:10137000314A1160704770B5002100230F22C478F4
:101380000CB32D4C246804F4E064C4F5E064210A35
:10139000C1F10403CA40447804FA03F1847814408C
:1013A00021430901254C0678A155047804F01F0556
:1013B0000124AC4005786D114FF0E02606EB850561
:1013C000C5F8004109E0047804F01F050124AC4091
:1013D0001B4D0678761145F8264070BD194A0A4023
:1013E0000243154B1B1F1A60704739B1124A121D78
:1013F00012680243104B1B1D1A6006E00E4A121DB4
:10140000126882430C4B1B1D1A607047042808D1D8
:101410004FF0E021096941F004014FF0E022116131
:1014200007E04FF0E021096921F004014FF0E022CC
:10143000116170470000FA050CED00E000E400E0E7
:1014400080E100E080FFFF1F10B50446F5488442AC
:1014500009D101214805FFF7BEFB00214FF4001020
:10146000FFF7B9FB08E001218805FFF7B4FB002175
:101470004FF48000FFF7AFFB10BD2DE9F04385B0BE
:1014800004460D460026B1460427DFF89C83A68853
:101490004FF6C07006406846FFF709FBDDF808808C
:1014A000E248B8FBF0F01FFA80F946EA0906A68088
:1014B00020884FF6FE71084020800026DC4928680D
:1014C00088420CD828684000B8FBF0F087B2042F9F
:1014D00000DA04273E4309F10100208427E0E88870
:1014E000A0F53F41FF3906D1286800EB4000B8FB6A
:1014F000F0F087B209E0286800EBC00101EB0010B2
:10150000B8FBF0F087B247F480473805000D01D1F1
:1015100047F0010747F4004006434FF4967009FB7B
:1015200000F04FF47A7190FBF1F0401C2084A68308
:10153000208840F00100208026884FF6F5300640D4
:10154000A8886989084306432680A8892989084311
:10155000208105B0BDE8F08341F2883101600021AF
:1015600081804BF6FF71C1800021018141814FF4E0
:1015700080418181704721B1028842F001020280DE
:1015800004E002884FF6FE731A400280704721B1D2
:10159000828842F40062828004E082884FF2FF7306
:1015A0001A408280704721B1828842F48052828042
:1015B00004E082884EF6FF731A408280704721B1A2
:1015C000028842F48072028004E002884FF6FF63D2
:1015D0001A400280704721B1028842F400720280F2
:1015E00004E002884FF6FF531A400280704721B191
:1015F000028842F48062028004E002884FF6FF33E2
:101600001A40028070470A46002181894FF6017313
:10161000194002F0FE0319438181704721B182898C
:1016200042F00102828104E082894FF6FE731A4083
:101630008281704721B1028842F04002028004E0BA
:1016400002884FF6BF731A40028070471AB1838830
:101650000B43838002E083888B4383807047018241
:1016600070470146088AC0B2704712B141F00101CB
:1016700002E04FF6FE7319400182704702460023D4
:1016800013460B441888704721B1028842F4004287
:10169000028003E00288C2F30E0202807047B1F5B7
:1016A000006F04D1028842F40062028004E00288E4
:1016B0004FF2FF731A4002807047B1F5005F04D10A
:1016C000028842F40052028004E002884DF6FF7363
:1016D0001A400280704721B1028842F48052028091
:1016E00004E002884EF6FF731A4002807047B1F59D
:1016F000006F04D1028842F40062028004E0028894
:101700004FF2FF731A400280704721B1028842F005
:101710002002028004E002884FF6DF731A40028044
:1017200070470146088B0012704721B1028842F0D1
:101730001002028004E002884FF6EF731A40028024
:10174000704721B9028842F08002028004E00288DA
:101750004FF67F731A4002807047B1F5804F05D075
:10176000828B4BF6FF731A40828303E0828B42F434
:1017700080428283704770B5024600240025002312
:101780000020958A138B1B0445EA030626F07F444C
:1017900004EA01068E4201D1012000E0002070BD64
:1017A00010B501460020002300228B8A0A8B120408
:1017B00043EA020424F07F4010BD30B50346002008
:1017C000002400221A460C0F21F07F410CB1143284
:1017D00001E0090C183215680D4201D0012000E02B
:1017E000002030BD002221F07F42D3438382704726
:1017F00030B5024600200023948801F0E06504EA39
:10180000154321F07F41948A0C4202D00BB1012094
:1018100000E0002030BD002221F07F42D3438382CC
:10182000704700000054004000127A0040420F0050
:10183000A0860100002044490860091D0860091DB8
:101840000860091D086041483F491431086070472D
:1018500000213D498279002A3AD00A46126803687D
:101860009A430B461A600A1D126803689A430B1DBF
:101870001A60027911440A6803681A430A60324AFE
:101880000832126803689A432F4B08331A601A1DF6
:10189000126803689A432C4B0C331A604279102A61
:1018A0000ED11A1F126803681A43274B08331A60B7
:1018B0001A1D126803681A43234B0C331A600DE09B
:1018C0002149427911440A6803681A430A6005E015
:1018D000027911440A6803689A430A60704700213C
:1018E000016001710C21417100218171704716491D
:1018F000103109680143144A1032116070470146E3
:101900000020114A143212680A4201D0012000E07E
:10191000002070470C4914310860704701460020D0
:101920000022094B1B6803EA0102074B14331B68B2
:101930000B4202D00AB1012000E0002070470249AA
:10194000143108607047000000040140FFFF0F00E1
:1019500010B50121C802FFF73EF900214FF40060E5
:10196000FFF739F910BD0021164A126822F4C07140
:101970000143144A116070470021124A126822F094
:101980007F0100F07F0211430E4A11607047012071
:101990000D490860704700F07F010A4A121F11606C
:1019A000704740F08001074A121F116070470548D8
:1019B000001D0068C0B2704700200249091D086080
:1019C00070470000042C0040A48005424FF0E02145
:1019D00048617047012808D14FF0E021096941F0C2
:1019E00001014FF0E02211610EE0811C08D14FF09F
:1019F000E021096921F001014FF0E022116103E0CB
:101A000000214FF0E0229161704740B14FF0E0219A
:101A1000096941F002014FF0E022116107E04FF047
:101A2000E021096921F002014FF0E02211617047C5
:101A30004FF0E0208069704710B501460022002376
:101A40000020CB10022B03D14FF0E024226902E0EA
:101A50004FF0E024E26901248C40144201D00120BF
:101A600000E0002010BD000010B50446FE4884428E
:101A700008D10121C014FFF7A1F80021E014FFF7FD
:101A80009DF8C4E0B4F1804F08D101210846FFF76A
:101A9000A2F800210120FFF79EF8B8E0F348844245
:101AA00008D101210220FFF796F800210220FFF75C
:101AB00092F8ACE0EE48844208D101210420FFF7FF
:101AC0008AF800210420FFF786F8A0E0E948844264
:101AD00008D101210820FFF77EF800210820FFF738
:101AE0007AF894E0E448844208D101211020FFF7FD
:101AF00072F800211020FFF76EF888E0DF4884427A
:101B000008D101212020FFF766F800212020FFF7EF
:101B100062F87CE0DA48844208D101214014FFF7E2
:101B20004DF800216014FFF749F870E0D548844271
:101B300009D10121C804FFF741F800214FF400202A
:101B4000FFF73CF863E0D048844209D10121080541
:101B5000FFF734F800214FF48010FFF72FF856E01C
:101B6000CA48844209D101214805FFF727F800211E
:101B70004FF40010FFF722F849E0C548844208D12D
:101B800001214020FFF727F800214020FFF723F82C
:101B90003DE0C048844208D101218020FFF71BF8B6
:101BA00000218020FFF717F831E0BB48844208D1BC
:101BB00001218015FFF70FF80021A015FFF70BF8A2
:101BC00025E0B648844209D101210804FEF7F6FF5A
:101BD00000214FF48030FEF7F1FF18E0B048844256
:101BE00009D101214804FEF7E9FF00214FF400303C
:101BF000FEF7E4FF0BE0AB48844208D101218804E2
:101C0000FEF7DCFF00214FF48020FEF7D7FF10BD68
:101C100000220288944B98420ED0994B98420BD0E8
:101C2000B0F1804F08D0914B984205D0904B98422C
:101C300002D0904B984204D14FF68F731A404B88D4
:101C40001A438D4B984207D08C4B984204D04FF6E4
:101C5000FF431A40CB881A4302808B8883850B8808
:101C60000385814B98420BD0854B984208D08B4B13
:101C7000984205D08A4B984202D08A4B984201D1B3
:101C80000B7A038601238382704770B500240022FB
:101C90000023058C4FF6FE7635400584028C838840
:101CA000048B4FF68F752C40B51E2C400D882C43AD
:101CB000751E2A400D892A434D882A436A4DA84241
:101CC0000BD06F4DA84208D0744DA84205D0744D7A
:101CD000A84202D0734DA84213D14FF6F7752A409F
:101CE0004D892A434FF6FB752A408D882A434FF6CB
:101CF000FF652B404FF6FF552B408D892B43CD8937
:101D00002B4383800483CD888586028470BD70B5A3
:101D1000002400220023058C4FF6EF763540058421
:101D2000028C8388048B48F6FF752C404FF6FF45E4
:101D30002C400D884FF6FF7606EA05252C434FF61A
:101D4000DF752A400D8906EA05152A434D8806EA03
:101D500005152A43444DA84202D0494DA8421DD141
:101D60004FF67F752A404D894FF6FF7606EA051536
:101D70002A434FF6BF752A408D8806EA05152A4387
:101D80004FF6FF352B404FF2FF752B408D8906EA49
:101D900085052B43CD8906EA85052B438380048383
:101DA000CD880587028470BD70B500240022002311
:101DB000058C4FF6FF6635400584028C8388848B42
:101DC0004FF68F752C404FF6FC752C400D882C4338
:101DD0004FF6FF552A400D894FF6FF7606EA052596
:101DE0002A434D8806EA05252A431F4DA84202D002
:101DF000234DA8421DD14FF2FF752A404D894FF661
:101E0000FF7606EA05252A434FF6FF352A408D88DE
:101E100006EA05252A434EF6FF752B404DF6FF7561
:101E20002B408D8906EA05152B43CD8906EA051559
:101E30002B4383808483CD888587028470BD70B5F1
:101E4000002200230024058C4EF6FF7635400584E1
:101E5000038C8488828B48F6FF752A404FF6FF4535
:101E60002A400D8820E00000002C014000040040C2
:101E700000080040000C004000100040001400402A
:101E800000340140004C014000500140005401402A
:101E900000180040001C00400020004000400140AD
:101EA00000440140004801404FF6FF7606EA052550
:101EB0002A434DF6FF752B400D8906EA05352B4365
:101EC0004D8806EA05352B43FA4DA84202D0FA4D5B
:101ED000A84208D14BF6FF752C408D894FF6FF764E
:101EE00006EA85152C4384808283CD88A0F8405073
:101EF000038470BD828B4FF2FF331A408283828B42
:101F00004FF6FF7303EA01231A4382837047F0B54B
:101F10000C461546002200210026078C4EF6FF7C59
:101F200007EA0C070784828B018C4FF6FF7707EADC
:101F3000043640F6FF473A404FF6FF7707EA052799
:101F40003A434FF6FF7707EA03373A43D94FB8428F
:101F50000ED0D94FB8420BD0B0F1804F08D0D74F38
:101F6000B84205D0D64FB84202D0D64FB84206D1BB
:101F70004DF6FF77394046F48057394305E047F680
:101F8000FF57394044F48057394382830184F0BDC0
:101F9000828B4FF6F3731A408283828B0A438283CB
:101FA0007047F0B50C461546002200210026078C2C
:101FB0004FF6FF6C07EA0C070784828B018C4FF603
:101FC000FF7707EA04264FF60C773A404FF6FF7783
:101FD00007EA03172F433A43B64FB8420ED0B64F25
:101FE000B8420BD0B0F1804F08D0B44FB84205D002
:101FF000B34FB84202D0B34FB84206D14FF6FF57A5
:10200000394046F48077394305E04FF2FF573940B5
:1020100044F48077394382830184F0BD028B4FF210
:10202000FF331A400283028B4FF6FF7303EA01234A
:102030001A4302837047F0B50C4615460022002172
:102040000026078C4FF6EF7C07EA0C070784028B0B
:10205000018C4FF6FF7707EA041640F6FF473A4037
:102060004FF6FF7707EA03373A434FF6FF7707EA61
:1020700005273A438F4FB8420ED08F4FB8420BD04E
:10208000B0F1804F08D08D4FB84205D08C4FB84288
:1020900002D08C4FB84206D14FF6DF77394046F078
:1020A0001007394305E04FF65F77394044F01007D9
:1020B000394302830184F0BD028B4FF6F3731A405B
:1020C0000283028B0A4302837047F0B50C46154623
:1020D00000220021068C4FF6FE773E400684028BDC
:1020E000018C4FF60C7632407E1C06EA03162E4316
:1020F0003243704EB0420ED06F4EB0420BD0B0F1B2
:10210000804F08D06D4EB04205D06D4EB04202D027
:102110006C4EB04206D14FF6FD76314044F00106D8
:10212000314305E04FF6F576314044F00106314386
:1021300002830184F0BD70B505460C465D488542BA
:102140000ED05D4885420BD0B5F1804F08D05B487A
:10215000854205D05A48854202D05A48854200D16E
:1021600000E000BF208850B92389A28861882846F2
:10217000FFF7ABFFE1882846FFF79EFF25E02088A8
:1021800004280AD12389A28861882846FFF753FFD3
:10219000E1882846FFF742FF17E0208808280AD187
:1021A0002389A28861882846FFF7FBFEE18828463C
:1021B000FFF7EEFE09E02389A28861882846FFF731
:1021C000A6FEE1882846FFF795FE70BD2DE9F04197
:1021D00005460C4600260127608808B9022600E063
:1021E0000026A088012801D1022700E001272088CD
:1021F000A0B92389A28861882846FFF766FFE18895
:102200002846FFF759FF23893A4631462846FFF70B
:1022100012FFE1882846FFF701FF13E02389A28817
:1022200061882846FFF707FFE1882846FFF7F6FE9A
:1022300023893A4631462846FFF747FFE18828467A
:10224000FFF73AFFBDE8F0810A884B881A438B8874
:102250001A43CB881A430B891A434B891A438B893B
:102260001A43A0F8442070474FF6FF718180002187
:102270000180C1804180017270470021018041804E
:102280008180C180018141818181C18170470021AC
:1022900001804180012181800021C180018170473E
:1022A0000021018041808180C18001814181818143
:1022B00070470000002C0140003401400004004041
:1022C00000080040000C004021B1028842F00102E9
:1022D000028004E002884FF6FE731A4002807047C5
:1022E00031B1B0F8442042F40042A0F8442005E0A7
:1022F000B0F84420C2F30E02A0F8442070471AB18F
:1023000083890B43838102E083898B4383817047F8
:102310008182704741EA0203A0F8483070471AB141
:1023200083890B43838102E083898B4383817047D8
:1023300001894FF6F8721140018170470A46002169
:1023400001894FF68F73194011430181704730B5F1
:1023500004460D4629462046FFF7F0FF208940F04D
:102360000700208130BD2DE9F04104460D46164698
:102370001F46602D06D13B46012231462046FFF71D
:102380005AFE05E03B46012231462046FFF79DFEFE
:1023900029462046FFF7D2FF208940F00700208120
:1023A000BDE8F08130B50C4600210189C9B24FF675
:1023B000FF7505EA0325154325432943018130BDF7
:1023C0002DE9F04105460E4617469846002443463F
:1023D0003A4631462846FFF7E5FF2C894FF6F8705C
:1023E000044044F007044FF68F70044044F070043A
:1023F0002C81BDE8F081F0B504460D4616461F4617
:102400003B46324629462046FFF7CCFF208940F460
:1024100080402081F0BD0185828270470A460021FC
:1024200001884FF68F731940114301807047F0B552
:102430000C4615461E460021002200230189028B0E
:10244000038C4FF6F877394021434FF6FC473A406A
:1024500040F201173A434FF6DD773B404FF6FF77E6
:1024600007EA06172F433B43018102830384F0BD33
:102470000A460021018B4FF68F73194011430183E7
:1024800070470A460021018B48F6FF7319404FF64A
:10249000FF7303EA02231943018370470A460021B0
:1024A000818B4FF68F7319401143818370470A4621
:1024B0000021818B48F6FF7319404FF6FF7303EA42
:1024C000022319438183704721B1028842F08002C0
:1024D000028004E002884FF67F731A400280704742
:1024E00021B1828842F00402828004E082884FF6A3
:1024F000FB731A408280704721B1828842F0080243
:10250000828004E082884FF6F7731A408280704719
:1025100021B1828842F00102828004E082884FF675
:10252000FE731A40828070470A460021018B4FF6E5
:10253000F77319401143018370470A460021018B4C
:102540004FF2FF7319404FF6FF7303EA022319435A
:10255000018370470A460021818B4FF6F7731940BB
:102560001143818370470A460021818B4FF2FF732C
:1025700019404FF6FF7303EA022319438183704722
:102580000A460021018B4FF6FB731940114301836A
:1025900070470A460021018B4FF6FF3319404FF672
:1025A000FF7303EA02231943018370470A4600219F
:1025B000818B4FF6FB7319401143818370470A46A4
:1025C0000021818B4FF6FF3319404FF6FF7303EA6A
:1025D00002231943818370470A460021018B4FF67D
:1025E0007F7319401143018370470A460021018B14
:1025F000C1F30E014FF6FF7303EA0223194301836F
:1026000070470A460021818B4FF67F7319401143B2
:10261000818370470A460021818BC1F30E014FF67A
:10262000FF7303EA02231943818370470A4600219E
:10263000018C4FF6FD7319401143018470470A461F
:102640000021018C4FF6F773194011430184704744
:102650000A460021018C4FF6DF7319404FF6FF73D5
:1026600003EA02131943018470470A460021018CD2
:102670004FF67F7319404FF6FF7303EA02131943B5
:10268000018470470A460021018C4FF6FF53194020
:102690004FF6FF7303EA02231943018470470A4689
:1026A0000021018C4FF2FF7319404FF6FF7303EACC
:1026B00002231943018470470A460021018C4DF61C
:1026C000FF7319404FF6FF7303EA02331943018485
:1026D000704730B5002301248C40A3B2048C9C4386
:1026E0000484048C02FA01F5ADB22C43048430BD9D
:1026F00030B5002304248C40A3B2048C9C43048492
:10270000048C02FA01F5ADB22C43048430BD70B5DF
:102710000346002000241846183001258D40ACB235
:102720001D8CA5431D8409B1082909D100EB610066
:10273000056825F0700505600568154305600EE025
:102740000D1FC5F34E052844056825F4E0450560D6
:1027500005684FF6FF7606EA02263543056070BD30
:1027600021B1028842F00202028004E002884FF6A2
:10277000FD731A400280704721B1028842F00402C2
:10278000028004E002884FF6FB731A400280704713
:1027900021B1828842F08002828004E082884FF674
:1027A0007F731A408280704702884FF6F7731A4091
:1027B000028002880A430280704782884FF68F7336
:1027C0001A40828082880A438280704702894FF6CD
:1027D000F8731A40028102890A4302817047028914
:1027E0004FF67F731A40028102890A4302817047C3
:1027F0008184704781857047818670470187704763
:1028000081877047A0F84010704702884FF6FF4359
:102810001A40028002880A43028070470146888E6F
:1028200070470146088F70470146888F7047014600
:10283000B1F8400070470146888C70470146088D0A
:10284000704702460020138A0B4201D0012000E0AD
:1028500000207047CA430282704730B5024600200C
:1028600000230024158A05EA0103958905EA01047D
:1028700013B10CB1012000E0002030BDCA43028238
:10288000704700000648804706480047FEE7FEE71D
:10289000FEE7FEE7FEE7FEE7FEE7FEE7FEE7FEE710
:1028A000650400083101000870B504460D4640215A
:1028B0004D48FEF70EFDA1B24B48FEF78FFC00BF5E
:1028C00040214948FEF7F8FC0028F9D0204670BDA9
:1028D00030B5034607E013F8014B11F8015BAC4239
:1028E00001D0002030BD1000A2F10104E2B2F2D10B
:1028F0000120F7E770B504460020FFF76BF842F2BD
:102900002830FFF763F80120FFF764F807E000259F
:1029100003E01020FFF790F80546002DF9D02000C5
:10292000A4F10104F3D1801EFFF754F870BD70B517
:1029300004460020FFF74EF80920FFF747F8012072
:10294000FFF748F807E0002503E01020FFF774F8D0
:102950000546002DF9D02000A4F10104F3D1801E1A
:10296000FFF738F870BD10B5044621461E48FEF743
:1029700035FC00BF40211C48FEF79EFC0028F9D022
:1029800010BD70B504460D4600BF02212046FEF77B
:10299000B2FA0028F9D029462046FEF759FA00BFBE
:1029A00001212046FEF7A7FA0028F9D02046FEF7BD
:1029B00051FAC0B270BD10B5044600BF02212046D6
:1029C000FEF799FA0028F9D000212046FEF740FAD8
:1029D00000BF01212046FEF78EFA0028F9D02046DC
:1029E000FEF738FAC0B210BD0038014010B5FDF74F
:1029F00065FF4FF48030FDF781FFFDF7BEFF044611
:102A000000BF002CFDD00020FDF7F9FF0020FDF7EE
:102A1000FFFF0020FEF705F84FF4E0114FF480307F
:102A2000FDF7D0FF0120FDF7D9FF00BF3920FDF7EA
:102A300088FF0028FAD00220FDF7D3FF00BFFDF782
:102A4000D9FF0828FBD10020FDF7B9FF01210420A0
:102A5000FEF79AF801210820FEF796F801211020D0
:102A6000FEF792F801212020FEF78EF80121402088
:102A7000FEF78AF801210846FEF786F8012108468C
:102A8000FEF78FF801211020FEF78BF801210803D3
:102A9000FEF77AF801218803FEF783F80121880305
:102AA000FEF772F810BD10B50020FEF7AEFF6FF014
:102AB0000400FEF7ABFC0020FEF78CFF10BD10B544
:102AC00086B004464FF40070ADF8140003208DF872
:102AD000160018208DF8170005A99F48FDF7A2FDE4
:102AE0004FF48060ADF8140004208DF8170005A99C
:102AF0009948FDF797FD01940020ADF80800ADF866
:102B00000A00ADF80C00ADF810000C20ADF80E0076
:102B100001A99248FEF769FA20219048FEF7D9FBF7
:102B200040F225518D48FEF707FC012240F2255165
:102B30008A48FEF7F2FA002240F227718748FEF732
:102B4000ECFA01218548FEF7DCFA06B010BD1CB591
:102B500004210220FDF77AFE1020FEF7F0FE00208F
:102B60008DF804000C208DF8050010200090012045
:102B70008DF806006846FEF76BFE1CBD08B54FF4E5
:102B8000A060FEF7F3FB25208DF8000000208DF8F3
:102B9000010001208DF802008DF803006846FEF761
:102BA000EAFB1C208DF8000001208DF801008DF853
:102BB00002008DF803006846FEF7DDFB36208DF835
:102BC000000001208DF8010000208DF80200012096
:102BD0008DF803006846FEF7CEFB0A208DF8000052
:102BE00000208DF801008DF8020001208DF803000F
:102BF0006846FEF7C0FB08BD10B50121C802FDF70D
:102C0000D0FF4FF4C070FEF7AEFE4120FEF7B4FED9
:102C10005020FEF7C6FEFEF7CFFEFEF7B8FE10BD51
:102C200000B587B0E020ADF8040003208DF8060061
:102C300018208DF8070001A94748FDF7F3FC002094
:102C4000ADF808004FF48270ADF80A000020ADF82E
:102C50000C00ADF80E00ADF810004FF40070ADF8A8
:102C600012000820ADF814000020ADF8160007206F
:102C7000ADF8180002A93A48FEF714F801213848C7
:102C8000FEF7B5F807B000BD00B587B04FF460405F
:102C9000ADF8040003208DF8060018208DF8070019
:102CA00001A93048FDF7BEFC0020ADF808004FF444
:102CB0008270ADF80A000020ADF80C00ADF80E00EF
:102CC000ADF810004FF40070ADF812000820ADF818
:102CD00014000020ADF816000720ADF8180002A976
:102CE0002148FDF7DFFF01211F48FEF780F807B0FC
:102CF00000BD10B5FFF77AFEFFF7D5FE4FF4165072
:102D0000FFF7DDFE19A002F049F81FA002F046F817
:102D100000F0BCFD24A002F041F8FFF7B5FF2AA0A7
:102D200002F03CF800F0F4F82FA002F037F800F0C1
:102D3000F3FF32A002F032F801F05DF835A002F0A6
:102D40002DF8FFF704FF39A002F028F8FFF716FF6F
:102D50003EA002F023F810BD0008014000380140F9
:102D600000300140000C0140003800400A44726904
:102D70007665725F4D43555F496E6974B3F5CABCA1
:102D8000BBAFCDEAB3C900000A5553415254315F7D
:102D9000436F6E66696775726174696F6EB3F5CA69
:102DA000BCBBAFCDEAB3C9000A4932435F436F6E83
:102DB00066696775726174696F6EB3F5CABCBBAF43
:102DC000CDEAB3C9000000000A535049325F436F97
:102DD0006E66696775726174696F6EB3F5CABCBB64
:102DE000AFCDEAB3C90000000A4D5055363035303A
:102DF000B3F5CABCBBAFCDEAB3C900000A54494D14
:102E0000325F436F6E666967B3F5CABCBBAFCDEA8C
:102E1000B3C900000A54494D365F436F6E66696757
:102E2000B3F5CABCBBAFCDEAB3C900000A455854DC
:102E3000495F436F6E66696775726174696F6EB3DF
:102E4000F5CABCBBAFCDEAB3C90000000A4E564973
:102E5000435F436F6E66696775726174696F6EB3C5
:102E6000F5CABCBBAFCDEAB3C900000041F288305F
:102E700000E0401E0028FCD1704770B506460C46A5
:102E8000154600F05EFE08B9002070BD304600F027
:102E9000F2FE00F0C9FE18B900F07DFE0020F4E754
:102EA000204600F0E8FE00F0BFFE284600F0E3FEFA
:102EB00000F0BAFE00F06FFEFFF7D8FF0120E4E754
:102EC00038B504460D4623462A460121684600F0DF
:102ED0008FFD9DF8000038BD08B54020ADF800001A
:102EE00003208DF8020014208DF803006946FE4887
:102EF000FDF798FB8020ADF8000003208DF802005C
:102F000014208DF803006946F748FDF78BFB08BDD8
:102F100010B5D0226B21002000F0F0FCD022192146
:102F2000072000F0EBFCD0221A21062000F0E6FC7E
:102F3000D0221B21182000F0E1FCD0221C2101200E
:102F400000F0DCFC10BD2DE9F0473C21D020FFF75C
:102F5000B7FFE64908703B21D020FFF7B1FFE349F6
:102F6000487008460078497840EA012000B2E049FC
:102F700008800846B0F9000001F0E5FC06464FF075
:102F80006632DC4B01F067FC044601F006FD00B23E
:102F9000D74908803E21D020FFF792FFD34988709F
:102FA0003D21D020FFF78CFFD049C87008468078BB
:102FB000C97840EA012000B2CF4908800846B0F93C
:102FC000000001F0C0FC06464FF06632C94B01F02C
:102FD00042FC044601F0E1FC00B2C74908804021F0
:102FE000D020FFF76DFFC14908713F21D020FFF7C6
:102FF00067FFBE49487108460079497940EA0120D7
:1030000000B2BE4908800846B0F9000001F09BFC00
:1030100006464FF06632B74B01F01DFC044601F046
:10302000BCFC00B2B54908804221D020FFF748FF20
:10303000AE4988714121D020FFF742FFAB49C871EA
:1030400008468079C97940EA012000B2AC4908807D
:103050000846B0F9000043F29031084401F073FCD7
:1030600080460022A74B01F0F6FB06460022A64B45
:1030700001F0D8FA044601F090FC00B2A0490880A3
:10308000B1F90010A1F1200001F05DFC07469F4A54
:103090009F4B01F0E0FB054601F0B1FC044601F056
:1030A00063FC00B296490880BDE8F0872DE9F0473F
:1030B0004421D020FFF704FF8C4908704321D02021
:1030C000FFF7FEFE8949487008460078497840EAD3
:1030D000012000B28F4908800846B0F9000001F0D5
:1030E00032FC06464FF06632824B01F0B4FB0446D8
:1030F00001F053FC00B2874908804621D020FFF739
:10310000DFFE7A4988704521D020FFF7D9FE774944
:10311000C87008468078C97840EA012000B27E492C
:1031200008800846B0F9000001F00DFC06464FF09B
:103130006632704B01F08FFB044601F02EFC00B2AA
:10314000754908804821D020FFF7BAFE6749087109
:103150004721D020FFF7B4FE644948710846007942
:10316000497940EA012000B26C4908800846B0F96C
:10317000000001F0E8FB06464FF066325D4B01F0BF
:103180006AFB044601F009FC00B264490880422150
:10319000D020FFF795FE554988714121D020FFF7D7
:1031A0008FFE5249C87108468079C97940EA0120EA
:1031B00000B2534908800846B0F9000043F290314C
:1031C000084401F0C0FB804600224E4B01F043FB57
:1031D000064600224C4B01F025FA044601F0DDFBC7
:1031E00000B247490880B1F90010A1F1200001F0B8
:1031F000AAFB0746454A464B01F02DFB054601F068
:10320000FEFB044601F0B0FB00B23D490880BDE87A
:10321000F08770B50546284601F0C0FD3A20FFF75B
:10322000A2FB002405E03E49085DFFF79CFB601C03
:10323000C4B2042CF7DB2020FFF795FB2020FFF71A
:1032400092FB70BD0FB59FB036480168006801F071
:1032500073F91790344801683248006801F06CF93E
:103260001690324801682F48006801F065F9159002
:103270002F4801682B48006801F05EF914902A4835
:103280000168006801F058F9139028480168264841
:10329000006801F051F91290254801682248006841
:1032A00001F04AF9119021480168006801F044F9E1
:1032B00010901F4801681D48006801F03DF90F900B
:1032C0001B480168006801F037F90E9025990846FF
:1032D00001F032F908902499084601F02DF9069082
:1032E0002299084626E00000000C0140D000002092
:1032F0005E00002066663040600000206200002012
:10330000640000200080714000804140CDCCCCCCD6
:10331000CCCCFC3F580000205A0000205C0000206C
:1033200054000020380000203C0000204000002015
:103330004400002001F000F90590069901F0A4F87E
:103340000790089901F0A0F8099001F045FBCDE93C
:103350000A0102F01DFDCDE90C0101F050FB1E90A9
:103360001E99229801F01EF922901E99249801F0CE
:1033700019F924901E99259801F014F925901599B2
:10338000119801F0D3F84FF080410D9001F0D4F87E
:103390001D900F99169801F077F84FF080410D902D
:1033A00001F0CAF81C901399179801F0BFF80C901F
:1033B000109901F0BBF80D900E9901F065F81B9083
:1033C0001C99259801F0B8F80D901B99249801F0EC
:1033D000B3F80C900D9901F0A9F81A901B99229856
:1033E00001F0AAF80D901D99259801F0A5F80C9010
:1033F0000D9901F09BF819901D99249801F09CF803
:103400000D901C99229801F097F80C900D9901F0FD
:103410008DF81890FE491A9801F08EF80D90FD482D
:1034200001680D9801F030F8FA490860F8491998D8
:1034300001F082F80D90F84801680D9801F024F829
:10344000F5490860F249189801F076F80D90F348B4
:1034500001680D9801F018F8F0490860F0481A99D1
:1034600001F06AF80C901F9901F00EF80D90E948F0
:1034700001680D9801F008F81F90E948199901F0CA
:103480005BF80C90209900F0FFFF0D90E248016876
:103490000D9800F0F9FF2090E148189901F04CF8E0
:1034A0000C90219900F0F0FF0D90DC4801680D9818
:1034B00000F0EAFF2190DB482199006801F03CF818
:1034C0000B90D9482099006801F036F80990D74848
:1034D000006880F0004007901F9901F02DF80890D7
:1034E000099901F023F80A900B9901F01FF8D049CF
:1034F0000C9001F021F80D90CE4801680D9800F075
:10350000C3FFCC490860C7482099006801F014F84F
:103510000B90C5482199006801F00EF80990C54844
:1035200001681F9801F008F80890099900F0ACFFB5
:103530000A900B9900F0FAFFBD490C9000F0FCFFD7
:103540000D90BA4801680D9800F09EFFB7490860D9
:10355000B44801681F9800F0EFFF0B90B348219921
:10356000006800F0E9FF0990B2482099006800F077
:10357000E3FF0890099900F0D9FF0A900B9900F039
:1035800083FFAB490C9000F0D7FF0D90A64801686F
:103590000D9800F079FFA4490860084601681F985B
:1035A00000F0CAFF0B90A1482099006800F0C4FF0A
:1035B0000990A0482199006800F0BEFF0890099981
:1035C00000F062FF0A900B9900F0B0FF98490C9050
:1035D00000F0B2FF0D90934801680D9800F054FF81
:1035E0009049086008460168006800F0A5FF08904F
:1035F0008D480168006800F09FFF06908B480168C5
:10360000006800F099FF04908A480168006800F0A3
:1036100093FF0390049900F037FF0590069900F09E
:1036200033FF0790089900F02FFF099001F0D4F9BB
:10363000CDE90A0102F0ACFBCDE90C0101F0DFF9A4
:103640001E907C481E99006800F0ACFF7949086024
:1036500076481E99006800F0A5FF7449086072481A
:103660001E99006800F09EFF6F4908606D481E9922
:10367000006800F097FF6B4908606E4801684FF0E2
:10368000804000F059FF049067480168049800F0FA
:1036900053FF0690654801684FF0404000F04CFF32
:1036A000049060480168049800F046FF0590069970
:1036B00000F0EAFE079001F08FF9CDE9080102F071
:1036C00057F84FF066325C4BCDE90A0101F051F832
:1036D000CDE90C0101F093F958494860524801685E
:1036E0004FF0804000F028FF01904F48016801989A
:1036F00000F022FF03904D4801684FF0404000F079
:103700001BFF019049480168019800F015FF0290E5
:10371000039900F00BFF4FF07E51049000F0B4FECF
:10372000059001F059F9CDE90801424801684FF0D0
:10373000804000F001FF02903C480168029800F0D0
:10374000FBFE0490384801684FF0804000F0F4FE22
:10375000029034480168029800F0EEFE039004994C
:1037600000F092FE059001F037F9CDE90601DDE9A0
:10377000082302F04DFA4FF066322F4BCDE90A01D3
:1037800000F0F7FFCDE90C0101F039F92B49086091
:1037900008460068099001F01FF9CDE90C0127489F
:1037A0004068099001F018F9CDE90A01DDE90C0142
:1037B000CDE9000122A0DDE90A2301F0EFFA23B0F0
:1037C00000BD2DE9FC47FFF7BEFBFFF76FFC224869
:1037D000B0F9000001F0AEF804462048B0F900004E
:1037E00001F0A8F805461E48B0F9000001F0A2F863
:1037F00006461C48B0F9000001F09CF807461A483C
:10380000B0F9000001F096F88046184830E000005A
:103810006F12033C480000204C00002050000020A4
:103820000000204144000020400000203C00002017
:103830006F12833A3800002066A64C40DC0000205E
:1038400070697463683A2566202009092020747223
:103850006F6C6C3A25660A00620000206000002050
:103860005E0000205C0000205A000020580000206C
:10387000B0F9000001F05EF8814633463A46414611
:10388000CDE90054FFF7DEFCBDE8FC8700B585B04C
:1038900001210820FDF778F901214805FDF781F99C
:1038A000C020ADF8100003208DF812001C208DF808
:1038B000130004A98548FCF7B5FE0020ADF804000C
:1038C0004BF6FF70ADF80600A020ADF808004FF4ED
:1038D0008060ADF80A000001ADF80C007C48009053
:1038E00001217C48FDF747FE69467A48FDF7C5FD92
:1038F00005B000BD10B5FFF7C9FF10BD70B5044697
:103900000D46164601217348FDF759FE00BF724966
:103910007048FDF730FF0028F9D0002231466D488D
:10392000FDF7A3FE00BF6D496A48FDF724FF00289C
:10393000F9D0E9B26748FDF792FE00BF6749891CDC
:103940006448FDF718FF0028F8D021466148FDF7CC
:1039500086FE00BF6149891C5E48FDF70CFF002808
:10396000F8D001215B48FDF736FE70BD2DE9F0412E
:1039700004460D4616461F4601215648FDF71FFE18
:1039800000BF55495348FDF7F6FE0028F9D0002244
:1039900039465048FDF769FE00BF50494D48FDF7D4
:1039A000EAFE0028F9D0F1B24A48FDF758FE00BF00
:1039B0004A49891C4748FDF7DEFE0028F8D00CE094
:1039C00021784448FDF74BFE641C00BF4349891C25
:1039D0004048FDF7D0FE0028F8D02800A5F10101ED
:1039E000CDB2EDD101213B48FDF7F5FDBDE8F081F9
:1039F0002DE9F04105460C4616461F460121354883
:103A0000FDF7DDFD00BF34493248FDF7B4FE002864
:103A1000F9D0012C03D100212E48FDF7E8FD00224A
:103A200039462C48FDF721FE00BF2C492948FDF7F7
:103A3000A2FE0028F9D001212648FDF79CFDF1B235
:103A40002448FDF70CFE00BF2449891C2148FDF7DE
:103A500092FE0028F8D001211E48FDF7B0FD00BFFE
:103A60001D491C48FDF787FE0028F9D00122D0210E
:103A70001848FDF7FAFD00BF1749491C1548FDF726
:103A80007AFE0028F8D018E013493F311148FDF7BD
:103A900072FE90B1022C03D100210E48FDF7A7FD64
:103AA000012C03D101210B48FDF795FD0948FDF7D5
:103AB000D8FD28706D1C601EC4B2002CE4D1012119
:103AC0000448FDF794FDBDE8F0810000000C0140C2
:103AD000400D030000540040010003008200070075
:103AE000002904DA4A4211B22D22027001E020229C
:103AF0000270642291FBF2F23032D3B2421C1046C3
:103B00001370642291FBF2F302FB13110A2291FB62
:103B1000F2F23032D3B2421C104613700A2291FBEB
:103B2000F2F302FB131101F13002D3B2421C104632
:103B3000137070471E2001E0411EC8B20028FBD15F
:103B4000704700B580207349086040200860FFF787
:103B5000F1FF70480838006808B9012000E0002033
:103B600010F0800F01D0002000BD80206949091DA0
:103B70000860FFF7DFFF67480838006810F0800F23
:103B800001D00020F0E780206249091D0860FFF79E
:103B9000D1FF0120E8E700B540205E49091D08601B
:103BA000FFF7C8FF80205B49091D0860FFF7C2FFCF
:103BB000402058490860FFF7BDFF80205549086044
:103BC000FFF7B8FF00BD00B540205249091D08604D
:103BD000FFF7B0FF80204F49091D0860FFF7AAFFDB
:103BE00040204C490860FFF7A5FF40204949091DC6
:103BF0000860FFF79FFF00BD00B540204549091D43
:103C00000860FFF797FF802042490860FFF792FFA6
:103C1000402040490860FFF78DFF40203D49091DC5
:103C20000860FFF787FF00BD00B540203949091D36
:103C30000860FFF77FFF802036490860FFF77AFFB2
:103C4000402034490860FFF775FF324808380068A3
:103C500010F0800F07D040202E49091D0860FFF7A3
:103C600069FF002000BD40202A49091D0860FFF7B8
:103C700061FF0120F6E700B50246082319E0402065
:103C80002449091D0860FFF755FF12F0800F03D08B
:103C900080202049086003E080201E49091D08603B
:103CA0005006020EFFF746FF40201A490860FFF752
:103CB00041FF1800A3F10101CBB2E0D1402015492A
:103CC000091D086000BD00B50823002280201149AD
:103CD000086014E05006020E40200E49091D0860DD
:103CE000FFF728FF40200B490860FFF723FF094832
:103CF0000838006810F0800F01D042F0010218006F
:103D0000A3F10101CBB2E5D140200249091D0860B1
:103D1000104600BD100C014000B589B00F20ADF871
:103D2000200018208DF8230003208DF8220008A918
:103D30004348FCF777FC4FF08040FDF795FE42F2D8
:103D40001070ADF808002320ADF804000020ADF895
:103D50000A00ADF806008DF80C0001A94FF0804074
:103D6000FDF756FF6020ADF810000020ADF81800F8
:103D70006020ADF810000120ADF812000020ADF871
:103D800018004FF4FA60ADF8160004A98006FDF79C
:103D90007CFF04A94FF08040FDF7B9FF04A94FF064
:103DA0008040FEF701F804A94FF08040FEF747F885
:103DB00042F210718806FEF71FFD42F2107188066C
:103DC000FEF71CFD42F210718806FEF719FD42F263
:103DD00010718806FEF716FD01218807FEF73AFDEF
:103DE000012211469007FEF78AFA01218807FEF7A3
:103DF0006BFA09B000BD0EB51248FDF735FE42F270
:103E00001070ADF8040040F65F10ADF8000000201F
:103E1000ADF80600ADF802008DF8080069460948C3
:103E2000FDF7F6FE01210748FEF714FD01221146B9
:103E30000448FEF764FA01210248FEF745FA0EBD78
:103E40000008014000100040704770B504460D4660
:103E50004020CD4948612146CC48FEF792FD2946D5
:103E6000CA48FEF78EFD4020C749086170BD70B595
:103E700004464020C44948612146C448FEF781FDFC
:103E8000FF21C248FEF77DFD05464020BE4908617E
:103E9000284670BD2DE9F04105460E4617464020E4
:103EA000B94948612946B948FEF76BFD80460024B0
:103EB00006E0FF21B548FEF764FD3055601CC4B232
:103EC000BC42F6DB4020B04908614046BDE8F081C5
:103ED0002DE9F04105460C4616464020AA494861A6
:103EE0002946AA48FEF74DFD8046002706E014F853
:103EF000011BA648FEF745FD781CC7B2B742F6DBAA
:103F00004020A14908614046BDE8F08108B5102075
:103F1000ADF8000003208DF8020048208DF8030062
:103F200069469948FCF77EFB10219748FCF725FC71
:103F30002020ADF8000003208DF8020010208DF83D
:103F4000030069469048FCF76DFB4020ADF8000087
:103F500003208DF8020010208DF8030069468A487E
:103F6000FCF760FB08BD10B5044620208649486177
:103F700044B9052286492A20FFF7AAFF20213120D3
:103F8000FFF763FF012C08D1052282492B20FFF7A0
:103F90009FFF20213220FFF758FF022C11D105226C
:103FA0007C492B20FFF794FF05227B492C20FFF74B
:103FB0008FFF20213320FFF748FF32212C20FFF70D
:103FC00044FF032C11D1052272492B20FFF780FFFB
:103FD000052272492D20FFF77BFF20213420FFF7B7
:103FE00034FF43212D20FFF730FF042C11D105228F
:103FF00068492B20FFF76CFF052269492E20FFF747
:1040000067FF20213520FFF720FF54212E20FFF7E6
:104010001CFF052C11D105225E492B20FFF758FF0C
:10402000052260492F20FFF753FF20213620FFF79C
:104030000CFF65212F20FFF708FF3F212120FFF70C
:1040400004FF3F212220FFF700FF00212520FFF77A
:10405000FCFE0F212620FFF7F8FE0F212020FFF79E
:10406000F4FE20204849086110BD10B520204649C3
:10407000486105224C493020FFF72AFF05224A49B2
:104080002A20FFF725FF3F212120FFF7DEFE3F21F9
:104090002220FFF7DAFE1A212420FFF7D6FE0021A6
:1040A0002520FFF7D2FE0F212620FFF7CEFE0E219E
:1040B0002020FFF7CAFE20203349086110BD70B5EB
:1040C00005460720FFF7D3FE044621462720FFF7C9
:1040D000BCFE14F0400F24D0202229466120FFF7B7
:1040E000D9FEFF21E220FFF7B0FE002000B170BD35
:1040F00014F0020F01D00220F9E714F0040F01D0F0
:104100000420F4E714F0060F01D00620EFE714F0C6
:10411000080F01D00820EAE714F00A0F03D00A20A4
:10412000E5E7FF20E3E70020E1E770B50546202042
:104130001549486120222946A020FFF7C9FE0E211B
:104140002020FFF782FE20200F49086100BF0E48A3
:10415000806810F0800FFAD10720FFF788FE044630
:1041600021462720FFF771FE14F0100F05D0FF2124
:10417000E120FFF76AFE102070BD14F0200F01D07F
:104180002020F9E7FF20F7E7001001400038004049
:104190006B00002070000020750000207A000020D5
:1041A0007F00002084000020660000202DE9FC41F3
:1041B00005462C78681C05460778E878A97840EA17
:1041C0000126772C01D0572C10D101206C490870A2
:1041D00000206C4908706C4908706C4908706C4884
:1041E000066001686BA000F0D9FD54E0732C01D08B
:1041F000532C11D1002062490870012061490870D8
:1042000000206149087061490870664806600168CD
:1042100065A000F0C3FD3EE0612C01D0412C11D11E
:104220000020574908705749087001205649087006
:104230000020564908706048066001685FA000F0E1
:10424000ADFD28E0642C01D0442C10D100204C4955
:1042500008704C4908704C49087001204B4908709F
:104260005A48066001685AA000F098FD13E0622CDD
:1042700001D0422C0FD15A480660002040490870F6
:104280004049087040490870404908705448016826
:1042900054A000F083FD762C01D0562C30D1CE20D6
:1042A000FEF761FBD220FEF75EFB5348B0F9003009
:1042B0005248B0F900205248B0F9001051A000F067
:1042C0006DFD5648B0F9000000905548B0F9003037
:1042D0005448B0F900205448B0F9001053A000F041
:1042E0005DFD3F48006834490968CDE90010374852
:1042F00003682C4802682648016853A000F04EFD70
:104300007A2C01D05A2C09D135480068C83034497C
:1043100008600846016855A000F040FD304800885C
:104320001B4A1288104442F21072101A81B2900691
:10433000FEF762FA2A480088244A1288104442F2A2
:104340001072101A81B29006FEF758FA24480088BD
:10435000144A1288104442F21072101A81B2900668
:10436000FEF74EFA1E480088134A1288104442F2A3
:104370001072101A81B29006FEF744FABDE8FC8173
:104380008C0000208D0000208E0000208F00002077
:10439000900000200ABDF8C8EB572CCBD9B6C8A3B3
:1043A000BA256400940000200ABDF8C8EB532CCB5A
:1043B000D9B6C8A3BA256400980000200ABDF8C881
:1043C000EB412CCBD9B6C8A3BA2564009C000020D1
:1043D0000ABDF8C8EB442CCBD9B6C8A3BA256400F3
:1043E000A00000200ABDF8C8EB422CBBF9B4A1CB59
:1043F000D9B6C8A3BA25640062000020600000207E
:104400005E0000200ABCD3CBD9B6C8583A2564094F
:10441000593A2564095A3A256400000064000020D6
:104420005C0000205A0000205800002009BDC7CBC6
:10443000D9B6C8583A256409593A2564095A3A2523
:104440006409543A256400000A57533A2564095315
:10445000533A25640944533A25640941533A256483
:1044600009426173653A2564000000000ABDF8C87E
:10447000EB42B5DDD4F63230302CBBF9B4A1CBD948
:10448000B6C8A3BA25640000F0B480EA0102D40FD4
:104490004200B2EB410F02D20246084611464A00E2
:1044A00042D0C30DDDB2C1F3C752AD1A202D35DAAB
:1044B000C1F3160141F4000204B15242C5F12006D5
:1044C00002FA06F12A411044B3EBD05F23D0C4B105
:1044D000012DA0EBC35009DCF0BC4FF0004202EA12
:1044E000C35200F50000DBB200F026BB400000F133
:1044F000807000EBC350A0F1807040EAD170490099
:1045000009E0490841EAC071A0EBC35000F5000082
:10451000400800EBC350F0BC00F005BB6142012233
:1045200002EB4101001BF6E7F0BC704781F000414F
:10453000AAE780F00040A7E780EA010210B502F088
:104540000043400026D04A0023D04FEA106101EB1F
:104550001261C0F35600C2F3560240F4000042F468
:104560000002A0FB0220A1F17F014FEA00401404E9
:1045700001D000F1010050EA124001D44000491E70
:10458000C2B20C0604EBD010401C4008802A02D0B6
:1045900003E0002010BD20F00100002900DA002017
:1045A000184310BD30B480EA010202F0004530F03B
:1045B000004221F0004015D0A0B1C0F3C753C2F3B0
:1045C000C754C2F31601C0F31600E41A41F4000107
:1045D00040F400027D34914201D3641C00E04900A4
:1045E000002C02DA30BC002070474FF4000000239A
:1045F000914201D3891A034340084FEA4101F7D1A0
:1046000051B1914202D14FF0004105E002D24FF08A
:10461000010101E06FF0010103EBC450284430BCFC
:1046200000F081BA2DE9FE4F804681EA0300C00FF9
:104630000C46009021F0004123F00045B8EB020049
:10464000A94105D24046214690461C460B460246EB
:1046500023F00040104304D14046214603B0BDE89A
:10466000F08F270DC7F30A00C3F30A510290401AD6
:104670000190402866DAC3F3130040F4801B0098D1
:10468000924620B10023D2EB030A63EB0B0B019897
:104690005946C0F14002504600F014FA06460D4655
:1046A00050465946019A00F02CFA10EB080061417F
:1046B000002487EA115284EAE7731A433BD0009A38
:1046C0003AB3019A012A4FEA075210DC001B61EB52
:1046D00002014FF0004202EA0752CDE90042001CFD
:1046E00041F5801132462B4600F060FAB6E7001B18
:1046F00061EB0201001C41F5801300185B4120189A
:10470000A2F5001747EB030140EAD570B6196D41D9
:1047100011E06D084FEA360645EAC0754FEA0752C8
:10472000001B61EB0201001C41F5801149084FEAB2
:1047300030000019514132462B4603B0BDE8F04F1E
:1047400000F027BA0098012240000023D0EB0202BB
:1047500063EBE073009821464FEAE074B8EB000089
:1047600061EB0401E9E783F000435BE781F000417E
:1047700058E72DE9FE4F81EA030404F0004421F0DC
:10478000004100944FF0000B23F0004350EA010475
:1047900002D052EA030404D10020014603B0BDE870
:1047A000F08FC3F30A54C1F30A552C44A4F2F33436
:1047B0000194A0FB0254C1F3130141F48011C3F32F
:1047C000130343F4801301FB024400FB034E840AED
:1047D000970A44EA815447EA8357A4FB0768029585
:1047E0008D0A05FB07854FEA932C04FB0C54270523
:1047F000029D4FEA065847EA1637B5EB08056EEBFF
:10480000070C870E920E47EA811742EA8312A7FB34
:104810000201B6EB0B0164EB00042B0D43EA0C33F1
:104820005E1844EB1C50DA465146E7FB0201C5F323
:1048300013044FEA0B3343EA14534FEA0432019C4A
:1048400043EA0603A4F10C040294009CCDE900B4F1
:1048500000F0ACF9A2E72DE9F04D81EA030404F081
:10486000004B21F0004514464FF0000A23F00041B0
:1048700050EA050220D054EA01021DD0C5F30A57C0
:104880000246C5F31303C1F31300C1F30A5640F403
:10489000801543F48013A7EB0608101BD64608F2D8
:1048A000FD3873EB050002D308F1010801E092180E
:1048B0005B41B8F1000F03DA00200146BDE8F08D3E
:1048C00000204FF48011064684460EE0171B73EB60
:1048D000050705D3121B63EB050306434CEA010CE5
:1048E00049084FEA300092185B4150EA0107EDD1C8
:1048F00052EA030012D082EA040083EA0501084369
:1049000003D100224FF0004308E0101BAB4102D25C
:104910000122002302E06FF0010253101AEB06009F
:104920004CEB085110EB0A0041EB0B01BDE8F04DD8
:1049300000F02FB9C10F80EAE0700844CA0796233F
:10494000002100F0F9B80EB5C10F80EAE07008440C
:10495000CA07002140F233438DE80E000A460B4699
:1049600000F024F903B000BD00F0004220F0004048
:10497000C10DC0F3160040F400007F2901DA0020C9
:104980007047962903DCC1F19601C84001E09639D1
:104990008840002AF4D04042704770B5C1F30A52F3
:1049A00001F000450024C1F3130140F2FF3341F44C
:1049B00080119A4201DA002070BD40F233439A42DE
:1049C000A2F2334203DC524200F08BF800E0904048
:1049D0002C43F1D0404270BD00F0004230F0004066
:1049E0000AD0C10D01F56071C0F3160042EA015111
:1049F000C20840071143704700200146704701F08C
:104A0000004330B421F0004150EA010206D00A0D03
:104A1000A2F56072C1F31301002A02DC30BC002051
:104A20007047440F44EAC104C100E01830BC00EBF9
:104A3000C25000F078B830B50B4601460020202265
:104A4000012409E021FA02F59D4205D303FA02F59B
:104A5000491B04FA02F52844151EA2F10102F1DCFB
:104A600030BD2DE9F05F0546002092469B46884602
:104A70000646814640241BE02846414647462246DA
:104A800000F02FF853465A46C01A914110D31146F0
:104A90001846224600F016F82D1A67EB01084F461B
:104AA00022460120002100F00DF817EB00094E41CD
:104AB000201EA4F10104DFDC484631462A46434665
:104AC000BDE8F09F202A04DB203A00FA02F1002022
:104AD00070479140C2F1200320FA03F3194390403C
:104AE0007047202A04DB203A21FA02F000217047A7
:104AF00021FA02F3D040C2F1200291400843194646
:104B00007047202A06DBCB17203A41FA02F043EA2D
:104B1000E07306E041FA02F3D040C2F12002914076
:104B20000843194670470029A8BF7047401C490038
:104B300008BF20F00100704710B4B0FA80FC00FA02
:104B40000CF050EA010404BF10BC704749B1CCF12D
:104B5000200421FA04F411FA0CF118BF01212143B9
:104B60000843A3EB0C01CB1D0106000A002BBEBFBE
:104B7000002010BC704700EBC35010440029A4BFB4
:104B800010BC7047401C490008BF20F0010010BC59
:104B9000704710B5002B08DA401C41F10001921853
:104BA0005B411A4301D120F0010010BD2DE9F04D09
:104BB00092469B4611B1B1FA81F202E0B0FA80F25E
:104BC00020329046FFF77EFF04460F4640EA0A0077
:104BD00041EA0B0153465A46084303D12046394661
:104BE000BDE8F08D114653EA010015D0C8F140022E
:104BF0005046FFF776FF05460E4650465946424658
:104C0000FFF760FF084301D0012000E000200543CA
:104C100046EAE0762C4337430A984FEA4453A0EB28
:104C200008004FEAD4240A304FF0000244EA475407
:104C30004FEAD72502D500200146D1E7010510191A
:104C40006941DDE9084500196941BDE8F04DA0E77B
:104C500070B521F0004303430CD0C1F30A55002482
:104C6000D5EB040564EB0403D617AD1AB34102DBA0
:104C70000020014670BD201841EB025170BD2DE9A6
:104C8000F04D00231A461B1A8A4103DB002001461F
:104C9000BDE8F08DC1F30A52C1F3130141F4801550
:104CA0004FF0000BD10702D100186D41521E0027B2
:104CB000044640F2FF11384601EB620A3E46804648
:104CC000024600204FF48011FFF70BFFC21971411B
:104CD000BB1846EB0100B4EB030C75EB000C04D3DE
:104CE000E41A65EB000517460E46241908F1010089
:104CF0006D4180463428E3DDF91946EB0600091BB7
:104D0000A84103D24FF0FF32134601E000221346C0
:104D10001BEB070046EB0A51BDE8F04DFFF739BF2A
:104D2000C1F30A52C1F3130140F2FF3341F4801181
:104D30009A4202DA00200146704740F233439A4219
:104D4000A2F2334202DC5242FFF7CBBEFFF7BABEFB
:104D500030B5002904DB4FF00044404264EB010110
:104D6000002B04DB4FF00044524264EB03039942F2
:104D700008BF904230BD0000064C074D06E0E068D9
:104D800040F0010394E8070098471034AC42F6D392
:104D9000FBF7D2F9D85E0008F85E00080FB4054BA7
:104DA00010B503A9044A029800F03EF910BC5DF862
:104DB00014FB0000A9280008A8000020490050EAC0
:104DC000C12018BF04204A0D18BF40F0010040F276
:104DD000FF72B2EB515F08BF40F00200012808BF2C
:104DE000052070472DE9F0414F1E00EBC701044636
:104DF000D1E9000115461E4637F006020DD02A46BD
:104E00003346FFF7B6FC7F1E04EBC703D3E900234C
:104E1000FFF708FC37F00602F1D1022F25D0042F4E
:104E200013D0062F18BFBDE8F0812A463346FFF79E
:104E3000A0FCD4E90A23FFF7F5FB2A463346FFF727
:104E400098FCD4E90823FFF7EDFB2A463346FFF729
:104E500090FCD4E90623FFF7E5FB2A463346FFF72B
:104E600088FCD4E90423FFF7DDFB2A463346FFF72D
:104E700080FCD4E90223FFF7D5FB2A463346FFF72F
:104E800078FCD4E90023BDE8F041FFF7CBBB00007C
:104E9000024A00201107FFF7DBBE000001FDFFFF03
:104EA00002E008C8121F08C1002AFAD170477047F3
:104EB000002001E001C1121F002AFBD17047000051
:104EC0000149086070470000AC0000202DE9FF5F39
:104ED000DDE90220010DDDF838B0024310D10F9852
:104EE00001244CA2012808D0002100980F9BC0E9A2
:104EF0000021C0E90243BDE8FF9F6FEA0B01F4E720
:104F0000A1F2FF3144F6105041430D140F980128CF
:104F10000ED0A5EB0B00401C4FF000043E4EDFF816
:104F2000FC90B0F1000AA04605DACAF1000717E0CC
:104F3000CBF10000F0E7074612E0F80707D0224661
:104F4000334640464946FFF714FC804689462246D0
:104F5000334610461946FFF70CFC04460E467F10F8
:104F6000002FEAD1DDE90201BAF1000F42464B46BB
:104F700002DAFFF7FEFB01E0FFF76DFC04460E4688
:104F80000022274BFFF7E4FE03D84FF0FF30014625
:104F900007E00022234B20463146FFF743FBFFF793
:104FA000BFFE102409E0002C0ADB0A220023FFF7D1
:104FB00058FD019B30321A55641E50EA0102F2D1AD
:104FC000641C019AC4F1110314440F9A012A09D0F8
:104FD0000122084301D15B450FDD4FF0000205F1CE
:104FE00001050DE0084303D1A3EB0B056D1E09E09D
:104FF00000204FF0110B0F9088E701DA00226D1EA0
:10500000002A83D000980F99C0E90231C0E9004519
:1050100071E7000030000000000024400000F03F75
:105020000000F0430000E03F2DE9FF4F95B09B46A4
:1050300089460646002512E2252878D10024761CF0
:10504000F94A2746012105943378203B01FA03F001
:10505000104202D00443761CF6E730782A2811D09B
:105060006FF02F033078A0F13002092A16D8059A84
:1050700044F0020402EB820203EB42021044761C6D
:105080000590EFE759F8042B0592002A03DA504205
:1050900044F40054059044F00204761C30782E2825
:1050A00016D116F8010F44F004042A280DD06FF031
:1050B0002F023078A0F13003092B09D807EB8703C2
:1050C00002EB4303C718761CF3E759F8047B761C00
:1050D00030786C280FD006DC4C2817D068280DD00B
:1050E0006A2814D104E0742810D07A280FD10DE07A
:1050F00044F400140AE044F4801401E044F4401441
:105100007278824202D1761C04F58014761C3078C5
:1051100066280BD013DC582877D009DC002875D01E
:105120004528F6D04628F4D047281AD19FE118E048
:10513000632835D0642879D0652812D197E170288A
:1051400073D008DC6728F1D069286FD06E280DD0A5
:105150006F2806D1B5E073282CD0752875D0782833
:1051600074D05A46179990476D1C76E1C4F30250EB
:10517000022809D003280DD0D9F8001004280DD03A
:105180000D6009F1040968E1D9F80010EA17C1E9D6
:105190000052F6E7D9F800100D80F2E70D70F0E745
:1051A00019F8041B8DF8001000208DF80100EA4664
:1051B000012003E059F804AB4FF0FF3061074FF0D6
:1051C000000102D40DE008F101018846B9420FDA6E
:1051D0008045F8DB1AF808100029F4D108E008F13E
:1051E000010188468142FADB1AF808100029F6D13D
:1051F00005985B46A0EB080721463846179A00F051
:105200009EFA284400EB080507E04DE02BE10DE095
:105210001AF8010B5A4617999047B8F10108F7D2CE
:105220005B4621463846179A14E142E00A22009272
:10523000C4F302524FF0000A022A08D059F804CBF6
:10524000032A4FEAEC710AD00DE029E02AE009F1C7
:10525000070121F00702F2E802C1914609E00FFAC6
:105260008CFC4FEAEC71042A03D14FFA8CFC4FEA14
:10527000EC71002907DA0A460021DCF1000C61EB31
:1052800002012D2202E0220504D52B228DF80420F4
:10529000012203E0E20701D02022F7E7904653E025
:1052A0000A2102E010220DE010214FF0000A0091C7
:1052B0000BE010224FF0000A44F00404082700928B
:1052C00003E008224FF0000A0092C4F30252022ABF
:1052D00005D059F804CB0021032A08D009E009F1D0
:1052E000070121F00702F2E802C1914605E01FFA2A
:1052F0008CFC042A01D10CF0FF0C4FF000082207AF
:1053000022D5702827D0009B83F0100353EA0A03AC
:1053100009D15CEA010206D030228DF804208DF814
:10532000050002229046009B83F0080353EA0A031B
:105330000AD15CEA010201D1620705D530228DF85D
:1053400004204FF001087F1E582809D037A0039091
:105350000EA8029013E040228DF804200122E1E71C
:1053600037A0F4E753466046009AFFF77AFB84467D
:105370000398825C0298A0F10100029002705CEA3E
:105380000100EFD1029806A9A1EB000000F1200A6C
:10539000600702D524F4803400E00127574502DD80
:1053A000A7EB0A0000E0002000EB0A01009005983E
:1053B0004144A0EB01000590E00306D45B46214682
:1053C000179A059800F0BBF90544002706E001A8EC
:1053D0005A46C05D179990476D1C7F1C4745F6DB08
:1053E000E0030CD55B462146179A059800F0A7F913
:1053F000054404E030205A46179990476D1C0099E7
:10540000481E00900029F5DC08E0029802995A46EF
:105410000078491C0291179990476D1CBAF1000160
:10542000AAF1010AF1DC6BE10928010030313233C5
:1054300034353637383961626364656600000000D0
:1054400030313233343536373839414243444546BA
:105450000000000000F060F9054406F10106307814
:1054600000287FF4E9AD19B02846BDE8F08F620747
:1054700000D4062709F1070222F0070CFCE80223FA
:10548000E14603F000485FEA080C02D00FF27C2CE2
:105490000DE05FEA045C02D50FF2742C07E05FEACE
:1054A000C47C02D00FF26C2C01E0AFF2700C4FF014
:1054B000FF3823F00043CDF850C065280CD006DC3F
:1054C000452809D046281DD047283ED13EE0662811
:1054D00018D0672839D139E00021112F01DB1120C4
:1054E00000E0781CCDE9000106A90EA8FFF7EEFC4C
:1054F000DDE90F010E9A03910021009207F1010AE4
:1055000004914EE04FF000400097CDE9011006A94C
:105510000EA8FFF7DBFCDDE90F0203920E9B119949
:105520000022DDF80CA00093049219B907F10101E3
:1055300000EB010AB7EB0A0004D4C0F1FF3007F119
:10554000010A0490AAEB0700019046E0012F00DA5F
:1055500001270021112F01DD112000E03846CDE99F
:10556000000106A90EA8FFF7B1FCDDE90F010E9AB4
:105570000391002104910092BA4621070CD40399AB
:10558000514500DA8A46BAF1010F05DD009AAAF109
:105590000101515C302908D0B84202DA10F1040F41
:1055A00006DA0121CDE9011017E0AAF10101E9E7CE
:1055B000002805DC049901440491AAEB000102E0F3
:1055C000411C514500DD8A460499A0EB010000F121
:1055D000010001904FF000400290200704D4019890
:1055E000504501DBCDF8048000208DF84F00029873
:1055F0000DF14F07B0F1004F25D02B200E900298EF
:105600004FF0020800280CDA404202902D200E9044
:1056100007E00A210298FFF70EFA3031029007F8EE
:10562000011DB8F10001A8F10108F2DC0298002880
:10563000EFD1791E0E980870307800F0200040F00D
:10564000450007F8020D12A8A0EB070000F10708BB
:105650001498007800B1012000EB0A01019801EBD9
:10566000E07105984144A0EB0100A0F10100059014
:10567000E00306D45B462146179A059800F05FF8D0
:1056800005441498007820B15A461799904705F1BF
:105690000105E00323D55B462146179A059800F0E3
:1056A0004EF805441BE00498002807DB039981426B
:1056B00004DD04990098405C179901E017993020A7
:1056C0005A46904704986D1C401C04900198401E57
:1056D000019004D12E205A46179990476D1CBAF1BB
:1056E0000001AAF1010ADEDC05E017F8010B5A46B9
:1056F000179990476D1CB8F10001A8F10108F4DC7E
:105700005B462146179A0598A4E600002D0000008C
:105710002B000000200000002DE9F0410446002588
:105720001E461746880405D406E039462020B047B7
:1057300005F10105641EF8D52846BDE8F0812DE984
:10574000F041044600251E469046C80301D5302787
:1057500000E02027880405D506E041463846B047DA
:1057600005F10105641EF8D52846BDE8F08100006A
:105770002DE9F04D904F21F0004A86B005460C46C9
:10578000BA4530DBAAEB070028430CD08B48824592
:1057900001DC1CD1DDB106B02846BDE8F04D4FF06C
:1057A0000102FFF755BA864A864B2846FEF7E1FF0D
:1057B00007460E46844A854B28462146FEF7D9FF08
:1057C00006B03A463346BDE8F04DFEF72BBF012048
:1057D000FFF776FB06B00022BDE8F04D13461046F9
:1057E0001146FFF738B87A48824542DABAF1795F54
:1057F0000BDA2846FFF7E2FA042808BFFFF748FB58
:10580000284606B02146BDE8F08D2A460B461046D4
:10581000FEF7AFFF834602466E480E460B46062152
:105820007844FFF7DFFA5A463346FEF7A2FF804678
:1058300069488A465A46334604217844FFF7D2FA2B
:105840005A463346FEF795FF00223B46FEF7EAFE36
:1058500002460B4640465146FEF7FDFF2A462346C8
:10586000FEF787FF06B02A462346BDE8F04DFEF757
:10587000D9BE284624F0004100223D463B46FEF7B3
:1058800075FF4FF0FF32FFF7E3F906460246534833
:105890000F460B4606217844FFF7A4FA32463B46F2
:1058A000FEF767FFCDE900014D4832463B46042133
:1058B0007844FFF797FA32463B46FEF75AFF00223C
:1058C0002B46FEF7AFFE834602913046394600F084
:1058D0005FFA804643480D46504517DCDDE900017C
:1058E0005A46029BFEF7B7FF42462B46FEF741FFA2
:1058F00042462B46FEF796FE0122FFF7A9F9304AF1
:10590000304BFEF730FF304A304B4CE04FF0000A8E
:1059100052460B464046FEF785FECDE9031052463F
:105920002B4610461946FEF724FF32463B46FEF74B
:105930001DFFDDE90332FEF78EFF06460F46DDE967
:1059400000015A46029BFEF786FF83460091012222
:1059500030463946FFF77CF9194A1A4BFEF706FF25
:1059600006460F46012240462946FFF771F95A467E
:10597000009BFEF7FEFE32463B46FEF7F4FE07466E
:105980000E46012250462946FFF762F90E4DDFF818
:1059900058802A464346FEF7E9FE3A463346FEF76C
:1059A000E5FE2A464346FEF7E1FE002CD8BF81F013
:1059B000004106B0BDE8F08D0000F03F0000F07F30
:1059C000075C143326A6913C182D4454FB21F93F63
:1059D0000000E03FBC050000D205000046050000C5
:1059E0005C0500003333EF3FFB21E93F2DE9F84F21
:1059F00004460D4621F0004000917449884213DBB3
:105A00007349884201DC08D13CB120462946BDE8F3
:105A1000F84F4FF00102FFF71BB96E48002DCCBFC5
:105A20006D496E49BDE8F88F6D49884211DA6D49BC
:105A30008842A8BF4FF0FF366DDA20462946FFF7AF
:105A4000BDF9042808BFFFF723FA20462946BDE820
:105A5000F88F6549654F25F00045884233DA64497F
:105A6000884219DA002632464FF080432046294604
:105A7000FEF7D8FD80468A46012220462946FFF7D8
:105A8000E7F800223B46FEF76EFE42465346FEF71D
:105A9000E2FE04460D463EE001260022BA463B46A1
:105AA00020462946FEF7BEFD80460F46002253469B
:105AB00020462946FEF757FE42463B46FEF7CBFE00
:105AC00004460D4627E04B4988421BDADFF828815F
:105AD00002260022434620462946FEF74AFE0022BF
