:020000040800F2
:1000000060140020ED200008C9020008CB0200089F
:10001000CF020008D3020008D70200080000000049
:10002000000000000000000000000000DB020008EB
:10003000DD02000800000000DF020008E102000805
:1000400007210008072100080721000807210008F0
:1000500007210008072100080721000807210008E0
:1000600007210008072100080B03000807210008EA
:1000700007210008072100080721000807210008C0
:1000800007210008072100080721000807210008B0
:1000900007210008072100080721000815030008B0
:1000A0000721000807210008072100080721000890
:1000B00007210008E3020008F702000807210008F2
:1000C0000721000807210008072100080721000870
:1000D000072100082903000807210008072100085C
:1000E0000721000807210008072100080721000850
:1000F0000721000807210008072100080721000840
:10010000072100080721000807210008072100082F
:10011000C90300080721000807210008072100087B
:10012000072100080721000807210008072100080F
:10013000DFF80CD003F06EFE00480047CB0100084A
:100140006014002010B555480078C043534908702A
:10015000084602784FF48061514800F04EFB4F484A
:10016000027804214F4800F048FB10BD10B54E48FE
:10017000007890B14D48006814220021D0F8A430D6
:100180004A48006898474A48006814220021D0F87D
:10019000A43047480068984711E04448006814229A
:1001A0000121D0F8A43041480068984740480068D1
:1001B00014220121D0F8A4303D48006898473A48FD
:1001C0000078C0433849087010BD0EB502F0C7FA78
:1001D00002F09FFD02F072FF03F01CF902F075F8C7
:1001E00002F016F9C8230022114601A802F070F9A6
:1001F0000120304B0090DDE9011202F001FB0023E9
:100200004FF4FA72194601A802F062F90020AFF229
:10021000CB0300900220DDE9011202F0F1FA264939
:10022000087000230522194601A802F051F90020A8
:10023000224B00900320DDE9011202F0E1FA0023D5
:100240003222194601A802F043F900201C4B00900D
:100250000420DDE9011202F0D3FA00231A460A2134
:1002600001A802F035F90020AFF2FF03009005204D
:10027000DDE9011202F0C4FA00231922194601A88F
:1002800002F026F900200F4B00900620DDE9011254
:1002900002F0B6FA01E002F057FBFCE70100002093
:1002A000000C014000140140020000206800002002
:1002B0006C000020E32C0008000000209D310008A5
:1002C000D9320008F9360008704700BFFEE700BFCA
:1002D000FEE700BFFEE700BFFEE7704770477047CC
:1002E000704710B501204449096808760121434848
:1002F00001F06AFE10BD10B5012041490968087679
:100300000121404801F060FE10BD10B5102001F041
:10031000E4FE10BD10B5202001F0CEFE012802D170
:10032000202001F0DAFE10BD10B5002440F2255166
:10033000354800F08DFE002845D0334800F008FE17
:10034000C4B22B2C14D12C490968886E4FF07E5111
:1003500003F0F7FB28490968886629490968886E0F
:100360004FF07E5103F0EDFB25490968886615E0E2
:100370002D2C13D120490968886E4FF07E5103F06F
:1003800032FC1D49096888661D490968886E4FF06E
:100390007E5103F028FC1A490968886616480068EF
:1003A000D0F88C101448006858308847144800680A
:1003B000D0F88C10124800685830884740F2255118
:1003C000114800F06FFE10BD10B5002440F2255119
:1003D0000E4800F03DFE68B10C4800F0B9FDC4B213
:1003E00021460B48006802F058FF40F225510748AB
:1003F00000F058FE10BD000068000020000400401E
:100400006C0000200008004000380140004C004013
:100410005C00002000210020674A126842F480320C
:10042000654B1A6000BF644A126802F40030491C30
:1004300010B9B1F5A06FF6D15F4A126812F4003F0F
:1004400001D0012000E00020012842D15B4A12685F
:1004500042F01002594B1A601A46126822F0030249
:100460001A601A46126842F002021A60524A526832
:10047000514B5A601A4652685A601A46526842F402
:1004800080625A601A46526822F47C125A601A46F8
:10049000526842F4E8125A601A46126842F08072BA
:1004A0001A6000BF444A126812F0007FFAD0424A34
:1004B000526822F00302404B5A601A46526842F0DA
:1004C00002025A6000BF3C4A526802F00C02082A3D
:1004D000F9D1704710B5FFF79DFF10BD10B5364834
:1004E000006840F00100344908600846406834491B
:1004F00008403149486008460068324908402E49A2
:1005000008600846006820F48020086008464068BB
:1005100020F4FE0048604FF41F008860FFF7DAFF08
:100520004FF000602849086010BD10B50021002080
:100530000022214B5B6803F00C0121B1042906D095
:10054000082928D107E0214B214C236027E01F4BCD
:100550001F4C236023E0184B5B6803F47010164BAC
:100560005B6803F48032022303EB904022B9194BFD
:100570004343174C23600DE00F4B5B6813F4003FBF
:1005800004D0144B4343124C236003E00F4B43430E
:100590000F4C236003E00D4B0D4C236000BF00BFE8
:1005A000054B5B68C3F303130B4CE15C084B1B6802
:1005B000CB40074C236010BD0010024000200240D9
:1005C0000000FFF8FFFFF6FE08ED00E000127A00E1
:1005D0000400002000093D000800002010B504467A
:1005E000CA48844208D10121042000F023FB0021E5
:1005F000042000F01FFB46E0C548844208D10121D9
:10060000082000F017FB0021082000F013FB3AE05F
:10061000C048844208D10121102000F00BFB0021CA
:10062000102000F007FB2EE0BB48844208D10121D6
:10063000202000F0FFFA0021202000F0FBFA22E049
:10064000B648844208D10121402000F0F3FA00218D
:10065000402000F0EFFA16E0B148844208D10121B1
:10066000802000F0E7FA0021802000F0E3FA0AE0A1
:10067000AC48844207D10121801500F0DBFA00214B
:10068000A01500F0D7FA10BD10B50121084600F002
:10069000D1FA0021012000F0CDFA10BD2DE9F04182
:1006A000024600250026002000230024002791F8A0
:1006B00003C00CF00F0591F803C01CF0100F03D01D
:1006C00091F802C04CEA050591F800C0BCF1000F9A
:1006D00031D0146800202BE04FF0010C0CFA00F32D
:1006E000B1F800C00CEA03069E4220D183004FF00F
:1006F0000F0C0CFA03F7BC4305FA03FC4CEA0404A4
:1007000091F803C0BCF1280F06D14FF0010C0CFA90
:1007100000FCC2F814C00AE091F803C0BCF1480F15
:1007200005D14FF0010C0CFA00FCC2F810C0401CBF
:100730000828D1D31460B1F800C0BCF1FF0F34DD3C
:10074000546800202EE000F1080C4FF0010808FA70
:100750000CF3B1F800C00CEA03069E4221D18300DD
:100760004FF00F0C0CFA03F7BC4305FA03FC4CEAFC
:10077000040491F803C0BCF1280F05D100F1080C66
:1007800008FA0CF8C2F8148091F803C0BCF1480FC5
:1007900007D100F1080C4FF0010808FA0CF8C2F874
:1007A0001080401C0828CED35460BDE8F0814FF67D
:1007B000FF710180022181700421C17070470246DF
:1007C000002093680B4201D0012000E00020704718
:1007D0000146886880B2704702460020D3680B4209
:1007E00001D0012000E0002070470146C86880B2B7
:1007F000704701617047416170470AB1016100E0D3
:1008000041617047C16070474FF480320A43826192
:100810008161826182698269704702460020424B91
:1008200018684FF68073184040EA021008433E4BA8
:10083000186070473D49C8617047F0B50A4600230B
:1008400000240021002500F00046B6F1004F02D13F
:10085000354EF16901E0344E7168C0F3034583B24F
:1008600000F44016B6F5401F08D121F070612E4EFD
:10087000766826F070662C4F7E6012E000F48016D9
:10088000B6F5801F06D1032606FA05F4A14341F010
:10089000706106E0460D360103FA06F6B14341F0F9
:1008A000706122B1460D360103FA06F6314300F0BD
:1008B0000046B6F1004F02D11B4EF16101E01A4E25
:1008C0007160F0BD30B500228B071C0F0F2303FAB7
:1008D00004F2154B08338C1053F824309343124C18
:1008E00008348D1044F8253023468C1053F82430FA
:1008F0008C07240F00FA04F423430B4C08348D10AA
:1009000044F8253030BD0A490860704700080140AE
:10091000000C01400010014000140140001801408B
:10092000001C014000200140000001400000204266
:10093000DC002042DB48006840F00100D949086033
:1009400008464068D8490840D649486008460068CB
:10095000D6490840D34908600846006820F4802042
:1009600008600846406820F4FE0048604FF41F000D
:1009700088607047CB49096821F48031C94A116009
:100980001146096821F480211160B0F5803F03D041
:10099000B0F5802F0ED106E0C249096841F48031DC
:1009A000C04A116007E0BF49096841F4A021BD4A6F
:1009B000116000E000BF00BF704710B50146002283
:1009C000002300204A11012A02D1B64C236806E018
:1009D000022A02D1B34C236A01E0B24C636A01F0EF
:1009E0001F02012494401C4201D0012000E000209D
:1009F00010BD70B500240025002600BF3120FFF790
:100A0000DCFF0646641CB4F5A06F01D0002EF5D0C3
:100A10003120FFF7D2FF08B1012500E0002528466C
:100A200070BD014600209F4A106820F0F80040EA9F
:100A3000C100106070479E49086070470246002060
:100A4000984B586820F47C1042EA01031843954BF8
:100A50005860704796490866704701460020914AE1
:100A6000506820F003000843506070478D4840688C
:100A700000F00C007047014600208A4A506820F0C0
:100A8000F00008435060704701460020854A5068D6
:100A900020F4E06008435060704701460020814A1E
:100AA000506820F4605040EAC1005060704729B19E
:100AB0007C4A527A02437B4B5A7204E0794A527A5A
:100AC0008243784B5A7270477A49086070470146F2
:100AD0000020744A506820F440400843506070473A
:100AE0000021754A11706F4A82F82010012802D047
:100AF000042808D103E001216F4A117004E00521A8
:100B00006D4A117000E000BF00BF70476B4908607C
:100B100070476449096A0143624A11627047674934
:100B200044390860704730B50021002200240023BA
:100B30005C4D6D6805F00C0121B1042905D0082930
:100B400023D105E05E4D056022E05D4D05601FE0AC
:100B5000544D6D6805F47012524D6D6805F4803483
:100B6000022505EB92421CB9564D554305600BE03A
:100B70004C4D6D6815F4003F03D0524D5543056050
:100B800002E04F4D5543056002E04D4D056000BF4A
:100B900000BF444D6D6805F0F00109094A4D6B5CDA
:100BA0000568DD4045603F4D6D6805F4E061090A68
:100BB000454D6B5C4568DD4085603A4D6D6805F4D8
:100BC0006051C90A404D6B5C4568DD40C560354DDC
:100BD0006D6805F44041890B3C4D6B5CC568B5FB05
:100BE000F3F5056130BD29B12E4A526902432D4B00
:100BF0005A6104E02B4A526982432A4B5A6170477A
:100C000029B1284A92690243264B9A6104E0254A99
:100C100092698243234B9A61704729B1214AD26974
:100C20000243204BDA6104E01E4AD26982431D4B25
:100C3000DA61704729B11B4AD2680243194BDA6066
:100C400004E0184AD2688243164BDA60704729B133
:100C5000144A12690243134B1A6104E0114A1269E3
:100C60008243104B1A61704714494039086070473D
:100C70000F49C86470470B49C87170470948406AFA
:100C800040F0807007494862704701460020054ADD
:100C900092680A4201D0012000E00020704701491B
:100CA00088727047001002400000FFF8FFFFF6FE58
:100CB00000004242D80042422010024080044242DA
:100CC00000127A0000093D001800002028000020D2
:100CD00010B50446FB48844209D101218803FFF77F
:100CE000A9FF00214FF48040FFF7A4FF32E0F6484F
:100CF000844209D101214804FFF7A9FF00214FF4E4
:100D00000030FFF7A4FF25E0F048844209D101211B
:100D10008804FFF79CFF00214FF48020FFF797FF26
:100D200018E0EB48844209D10121C804FFF78FFF86
:100D300000214FF40020FFF78AFF0BE0E5488442D2
:100D400008D101210805FFF782FF00214FF4801030
:100D5000FFF77DFF10BD2DE9F04786B005460E4632
:100D60000024A24600BFA1460027B08900B100BF01
:100D70002F462C8A4CF6FF700440F08804432C82E6
:100D8000AC894EF6F3100440B0883189084371896C
:100D900008430443AC81AC8A4FF6FF400440B0895D
:100DA0000443AC8201A8FFF7BEFEC648874202D1C9
:100DB000DDF810A001E0DDF80CA0A88910F4004FC8
:100DC00008D00AEBCA0000EB0A1031684900B0FBFA
:100DD000F1F807E00AEBCA0000EB0A10316889005D
:100DE000B0FBF1F86420B8FBF0F0040120096421A5
:100DF00001FB1089A88910F4004F08D0322000EBC5
:100E0000C900B0FBF1F000F00700044308E0322015
:100E100000EB09106421B0FBF1F000F00F00044377
:100E20002C8106B0BDE8F0874FF416510160002117
:100E30008180C18001810C21418100218181704725
:100E400010B502460020108A4FF2FF0318400B88AD
:100E50004C8823438C882343CC8823431843108237
:100E600010BD0021018041808180C180704721B187
:100E7000828942F40052828104E082894DF6FF7338
:100E80001A4082817047F0B50346002400260025F1
:100E90000020A1F510676A3F00D100BF1846C1F3DA
:100EA000421401F01F06012707FA06F5012C01D1B3
:100EB0000C3004E0022C01D1103000E014301AB1E3
:100EC00007682F43076002E00768AF430760F0BD83
:100ED0001AB1838A0B43838202E0838A8B43838225
:100EE0007047028A4FF6F0731A400282028A0A4360
:100EF0000282704782894FF2FF731A408281828991
:100F00000A438281704721B1828942F002028281C4
:100F100004E082894FF6FD731A4082817047028A8D
:100F20004FF6DF731A400282028A0A430282704738
:100F300021B1028A42F48042028204E0028A4BF626
:100F4000FF731A4002827047C1F308028280704723
:100F500001468888C0F308007047818941F001018B
:100F600081817047028BD2B20283028B42EA012256
:100F700002837047028B02F47F420283028B0A4392
:100F80000283704721B1828A42F02002828204E00B
:100F9000828A4FF6DF731A408282704721B1828ABB
:100FA00042F01002828204E0828A4FF6EF731A4008
:100FB0008282704721B1828A42F00802828204E074
:100FC000828A4FF6F7731A408282704721B1828974
:100FD00042F40042828103E08289C2F30E028281E0
:100FE000704721B1828A42F40062828204E0828AE0
:100FF0004FF2FF731A4082827047828A4FF6FB736A
:101000001A408282828A0A438282704721B1828A90
:1010100042F00202828204E0828A4FF6FD731A4097
:101020008282704702460020B1F5007F00D100BFE8
:1010300013880B4201D0012000E00020704701F42A
:101040000072B2F5007F00D100BFCA430280704732
:1010500070B502460024002300250020A1F510668B
:101060006A3E00D100BFC1F3421501F01F03012603
:1010700006FA03F3012D02D19689334006E0022DD2
:1010800002D1168A334001E0968A33400C120126C1
:1010900006FA04F41688344013B10CB1012000E0C4
:1010A000002070BD10B500220023A1F510646A3C39
:1010B00000D100BF0A1201249440A3B2DC43048093
:1010C00010BD0000003801400044004000480040CE
:1010D000004C00400050004031490143314A11604A
:1010E000704770B5002100230F22C4780CB32D4C3B
:1010F000246804F4E064C4F5E064210AC1F1040347
:10110000CA40447804FA03F1847814402143090169
:10111000254C0678A155047804F01F050124AC4045
:1011200005786D114FF0E02606EB8505C5F8004106
:1011300009E0047804F01F050124AC401B4D06783B
:10114000761145F8264070BD194A0A400243154BF6
:101150001B1F1A60704739B1124A121D12680243F0
:10116000104B1B1D1A6006E00E4A121D12688243C6
:101170000C4B1B1D1A607047042808D14FF0E0216A
:10118000096941F004014FF0E022116107E04FF0DE
:10119000E021096921F004014FF0E022116170475C
:1011A0000000FA050CED00E000E400E080E100E062
:1011B00080FFFF1F10B50446FE48844208D101217C
:1011C000C014FFF737FD0021E014FFF733FDC4E042
:1011D000B4F1804F08D101210846FFF738FD002106
:1011E0000120FFF734FDB8E0F348844208D1012123
:1011F0000220FFF72CFD00210220FFF728FDACE0C4
:10120000EE48844208D101210420FFF720FD00218F
:101210000420FFF71CFDA0E0E948844208D1012129
:101220000820FFF714FD00210820FFF710FD94E0CF
:10123000E448844208D101211020FFF708FD002175
:101240001020FFF704FD88E0DF48844208D1012127
:101250002020FFF7FCFC00212020FFF7F8FC7CE0B9
:10126000DA48844208D101214014FFF7E3FC002151
:101270006014FFF7DFFC70E0D548844209D10121FA
:10128000C804FFF7D7FC00214FF40020FFF7D2FC81
:1012900063E0D048844209D101210805FFF7CAFC68
:1012A00000214FF48010FFF7C5FC56E0CA48844285
:1012B00009D101214805FFF7BDFC00214FF40010C2
:1012C000FFF7B8FC49E0C548844208D1012140201D
:1012D000FFF7BDFC00214020FFF7B9FC3DE0C0480E
:1012E000844208D101218020FFF7B1FC0021802039
:1012F000FFF7ADFC31E0BB48844208D101218015E5
:10130000FFF7A5FC0021A015FFF7A1FC25E0B648DA
:10131000844209D101210804FFF78CFC00214FF41D
:101320008030FFF787FC18E0B048844209D10121E2
:101330004804FFF77FFC00214FF40030FFF77AFCF0
:101340000BE0AB48844208D101218804FFF772FC0E
:1013500000214FF48020FFF76DFC10BD00220288B1
:10136000944B98420ED0994B98420BD0B0F1804FDD
:1013700008D0914B984205D0904B984202D0904BA8
:10138000984204D14FF68F731A404B881A438D4B05
:10139000984207D08C4B984204D04FF6FF431A4036
:1013A000CB881A4302808B8883850B880385814B09
:1013B00098420BD0854B984208D08B4B984205D071
:1013C0008A4B984202D08A4B984201D10B7A03860D
:1013D00001238382704770B5002400220023058C0E
:1013E0004FF6FE7635400584028C8388048B4FF6D9
:1013F0008F752C40B51E2C400D882C43751E2A403D
:101400000D892A434D882A436A4DA8420BD06F4D5F
:10141000A84208D0744DA84205D0744DA84202D00D
:10142000734DA84213D14FF6F7752A404D892A43D0
:101430004FF6FB752A408D882A434FF6FF652B40F7
:101440004FF6FF552B408D892B43CD892B4383804D
:101450000483CD888586028470BD70B50024002287
:101460000023058C4FF6EF7635400584028C838887
:10147000048B48F6FF752C404FF6FF452C400D8835
:101480004FF6FF7606EA05252C434FF6DF752A4016
:101490000D8906EA05152A434D8806EA05152A43F3
:1014A000444DA84202D0494DA8421DD14FF67F7548
:1014B0002A404D894FF6FF7606EA05152A434FF676
:1014C000BF752A408D8806EA05152A434FF6FF3579
:1014D0002B404FF2FF752B408D8906EA85052B4383
:1014E000CD8906EA85052B4383800483CD88058753
:1014F000028470BD70B5002400220023058C4FF6D5
:10150000FF6635400584028C8388848B4FF68F7587
:101510002C404FF6FC752C400D882C434FF6FF55A0
:101520002A400D894FF6FF7606EA05252A434D88A5
:1015300006EA05252A431F4DA84202D0234DA842A2
:101540001DD14FF2FF752A404D894FF6FF7606EA0E
:1015500005252A434FF6FF352A408D8806EA0525E2
:101560002A434EF6FF752B404DF6FF752B408D89B3
:1015700006EA05152B43CD8906EA05152B43838022
:101580008483CD888587028470BD70B500220023D6
:101590000024058C4EF6FF7635400584038C848844
:1015A000828B48F6FF752A404FF6FF452A400D888A
:1015B00020E00000002C0140000400400008004032
:1015C000000C0040001000400014004000340140B6
:1015D000004C014000500140005401400018004000
:1015E000001C004000200040004001400044014039
:1015F000004801404FF6FF7606EA05252A434DF6DE
:10160000FF752B400D8906EA05352B434D8806EA08
:1016100005352B43FA4DA84202D0FA4DA84208D115
:101620004BF6FF752C408D894FF6FF7606EA85153F
:101630002C4384808283CD88A0F84050038470BD01
:10164000828B4FF2FF331A408283828B4FF6FF73F7
:1016500003EA01231A4382837047F0B50C4615460E
:10166000002200210026078C4EF6FF7C07EA0C07BB
:101670000784828B018C4FF6FF7707EA043640F629
:10168000FF473A404FF6FF7707EA05273A434FF600
:10169000FF7707EA03373A43D94FB8420ED0D94F04
:1016A000B8420BD0B0F1804F08D0D74FB84205D028
:1016B000D64FB84202D0D64FB84206D14DF6FF778A
:1016C000394046F48057394305E047F6FF57394023
:1016D00044F48057394382830184F0BD828B4FF6F6
:1016E000F3731A408283828B0A4382837047F0B57A
:1016F0000C461546002200210026078C4FF6FF6C91
:1017000007EA0C070784828B018C4FF6FF7707EA04
:1017100004264FF60C773A404FF6FF7707EA031797
:101720002F433A43B64FB8420ED0B64FB8420BD013
:10173000B0F1804F08D0B44FB84205D0B34FB84293
:1017400002D0B34FB84206D14FF6FF57394046F4A6
:101750008077394305E04FF2FF57394044F48077F2
:10176000394382830184F0BD028B4FF2FF331A406C
:101770000283028B4FF6FF7303EA01231A430283AD
:101780007047F0B50C461546002200210026078C54
:101790004FF6EF7C07EA0C070784028B018C4FF6AB
:1017A000FF7707EA041640F6FF473A404FF6FF7707
:1017B00007EA03373A434FF6FF7707EA05273A432C
:1017C0008F4FB8420ED08F4FB8420BD0B0F1804F40
:1017D00008D08D4FB84205D08C4FB84202D08C4F04
:1017E000B84206D14FF6DF77394046F0100739434B
:1017F00005E04FF65F77394044F010073943028324
:101800000184F0BD028B4FF6F3731A400283028B02
:101810000A4302837047F0B50C46154600220021AA
:10182000068C4FF6FE773E400684028B018C4FF605
:101830000C7632407E1C06EA03162E433243704E6D
:10184000B0420ED06F4EB0420BD0B0F1804F08D0F6
:101850006D4EB04205D06D4EB04202D06C4EB042DB
:1018600006D14FF6FD76314044F00106314305E0E4
:101870004FF6F576314044F001063143028301848E
:10188000F0BD70B505460C465D4885420ED05D48FA
:1018900085420BD0B5F1804F08D05B48854205D01A
:1018A0005A48854202D05A48854200D100E000BF24
:1018B000208850B92389A28861882846FFF7ABFFAA
:1018C000E1882846FFF79EFF25E0208804280AD1FA
:1018D0002389A28861882846FFF753FFE1882846BC
:1018E000FFF742FF17E0208808280AD12389A28841
:1018F00061882846FFF7FBFEE1882846FFF7EEFEE9
:1019000009E02389A28861882846FFF7A6FEE188BE
:101910002846FFF795FE70BD2DE9F04105460C46BF
:1019200000260127608808B9022600E00026A0886A
:10193000012801D1022700E001272088A0B92389CE
:10194000A28861882846FFF766FFE1882846FFF7EE
:1019500059FF23893A4631462846FFF712FFE188AE
:101960002846FFF701FF13E02389A28861882846F3
:10197000FFF707FFE1882846FFF7F6FE23893A467E
:1019800031462846FFF747FFE1882846FFF73AFF30
:10199000BDE8F0810A884B881A438B881A43CB88AC
:1019A0001A430B891A434B891A438B891A43A0F8AF
:1019B000442070474FF6FF71818000210180C18073
:1019C0004180017270470021018041808180C18087
:1019D000018141818181C181704700210180418065
:1019E000012181800021C180018170470021018097
:1019F00041808180C18001814181818170470000E7
:101A0000002C014000340140000400400008004068
:101A1000000C004021B1028842F00102028004E083
:101A200002884FF6FE731A400280704731B1B0F859
:101A3000442042F40042A0F8442005E0B0F84420DD
:101A4000C2F30E02A0F8442070471AB183890B43F9
:101A5000838102E083898B43838170478182704751
:101A600041EA0203A0F8483070471AB183890B435A
:101A7000838102E083898B438381704701894FF61C
:101A8000F8721140018170470A46002101894FF622
:101A90008F73194011430181704730B504460D46DC
:101AA00029462046FFF7F0FF208940F007002081FB
:101AB00030BD2DE9F04104460D4616461F46602D07
:101AC00006D13B46012231462046FFF75AFE05E08B
:101AD0003B46012231462046FFF79DFE294620461F
:101AE000FFF7D2FF208940F007002081BDE8F08198
:101AF00030B50C4600210189C9B24FF6FF7505EAE1
:101B00000325154325432943018130BD2DE9F041CB
:101B100005460E4617469846002443463A46314647
:101B20002846FFF7E5FF2C894FF6F870044044F093
:101B300007044FF68F70044044F070042C81BDE818
:101B4000F081F0B504460D4616461F463B46324628
:101B500029462046FFF7CCFF208940F480402081B1
:101B6000F0BD0185828270470A46002101884FF648
:101B70008F731940114301807047F0B50C4615462C
:101B80001E460021002200230189028B038C4FF6A0
:101B9000F877394021434FF6FC473A4040F20117AD
:101BA0003A434FF6DD773B404FF6FF7707EA0617DB
:101BB0002F433B43018102830384F0BD0A46002189
:101BC000018B4FF68F7319401143018370470A460A
:101BD0000021018B48F6FF7319404FF6FF7303EAAB
:101BE00002231943018370470A460021818B4FF677
:101BF0008F7319401143818370470A460021818BFE
:101C000048F6FF7319404FF6FF7303EA02231943A6
:101C10008183704721B1028842F08002028004E093
:101C200002884FF67F731A400280704721B1828884
:101C300042F00402828004E082884FF6FB731A406F
:101C40008280704721B1828842F00802828004E0DD
:101C500082884FF6F7731A408280704721B18288DC
:101C600042F00102828004E082884FF6FE731A403F
:101C7000828070470A460021018B4FF6F7731940A6
:101C80001143018370470A460021018B4FF2FF7315
:101C900019404FF6FF7303EA02231943018370478B
:101CA0000A460021818B4FF6F77319401143818357
:101CB00070470A460021818B4FF2FF7319404FF69F
:101CC000FF7303EA02231943818370470A46002108
:101CD000018B4FF6FB7319401143018370470A468D
:101CE0000021018B4FF6FF3319404FF6FF7303EAD3
:101CF00002231943018370470A460021818B4FF666
:101D0000FB7319401143818370470A460021818B80
:101D10004FF6FF3319404FF6FF7303EA02231943CE
:101D2000818370470A460021018B4FF67F7319406B
:101D30001143018370470A460021018BC1F30E0154
:101D40004FF6FF7303EA02231943018370470A46E3
:101D50000021818B4FF67F731940114381837047B7
:101D60000A460021818BC1F30E014FF6FF7303EA8F
:101D700002231943818370470A460021018C4FF6E4
:101D8000FD7319401143018470470A460021018CFC
:101D90004FF6F77319401143018470470A4600213A
:101DA000018C4FF6DF7319404FF6FF7303EA0213FD
:101DB0001943018470470A460021018C4FF67F7356
:101DC00019404FF6FF7303EA021319430184704769
:101DD0000A460021018C4FF6FF5319404FF6FF735E
:101DE00003EA02231943018470470A460021018C4B
:101DF0004FF2FF7319404FF6FF7303EA02231943B2
:101E0000018470470A460021018C4DF6FF7319408A
:101E10004FF6FF7303EA023319430184704730B56C
:101E2000002301248C40A3B2048C9C430484048CC2
:101E300002FA01F5ADB22C43048430BD30B5002365
:101E400004248C40A3B2048C9C430484048C02FAC6
:101E500001F5ADB22C43048430BD70B503460020BB
:101E600000241846183001258D40ACB21D8CA543C6
:101E70001D8409B1082909D100EB6100056825F02E
:101E8000700505600568154305600EE00D1FC5F37C
:101E90004E052844056825F4E045056005684FF6C1
:101EA000FF7606EA02263543056070BD21B102883F
:101EB00042F00202028004E002884FF6FD731A40ED
:101EC0000280704721B1028842F00402028004E0DF
:101ED00002884FF6FB731A400280704721B1828856
:101EE00042F08002828004E082884FF67F731A40BD
:101EF0008280704702884FF6F7731A40028002888A
:101F00000A430280704782884FF68F731A4082809E
:101F100082880A438280704702894FF6F8731A401C
:101F2000028102890A430281704702894FF67F735A
:101F30001A40028102890A430281704781847047F6
:101F40008185704781867047018770478187704718
:101F5000A0F84010704702884FF6FF431A400280F5
:101F600002880A43028070470146888E7047014606
:101F7000088F70470146888F70470146B1F84000CE
:101F800070470146888C70470146088D70470246AD
:101F90000020138A0B4201D0012000E0002070478E
:101FA000CA430282704730B5024600200023002455
:101FB000158A05EA0103958905EA010413B10CB1FC
:101FC000012000E0002030BDCA43028270470000BB
:101FD000002044490860091D0860091D0860091DAA
:101FE000086041483F4914310860704700213D496D
:101FF0008279002A3AD00A46126803689A430B464F
:102000001A600A1D126803689A430B1D1A60027950
:1020100011440A6803681A430A60324A0832126897
:1020200003689A432F4B08331A601A1D126803681D
:102030009A432C4B0C331A604279102A0ED11A1F86
:10204000126803681A43274B08331A601A1D126876
:1020500003681A43234B0C331A600DE0214942797F
:1020600011440A6803681A430A6005E002791144C2
:102070000A6803689A430A60704700210160017191
:102080000C21417100218171704716491031096896
:102090000143144A10321160704701460020114A72
:1020A000143212680A4201D0012000E0002070477B
:1020B0000C49143108607047014600200022094B8A
:1020C0001B6803EA0102074B14331B680B4202D062
:1020D0000AB1012000E00020704702491431086075
:1020E0007047000000040140FFFF0F0006488047D2
:1020F00006480047FEE7FEE7FEE7FEE7FEE7FEE7ED
:10210000FEE7FEE7FEE7FEE7DD0400083101000818
:1021100008B54FF48060ADF8000010208DF8030082
:1021200003208DF8020069469248FEF7B7FA0420B2
:10213000ADF8000010208DF8030003208DF8020098
:1021400069468D48FEF7AAFA01F068FB08BD7047A2
:1021500000B585B001218803FEF752FD0121C804B6
:10216000FEF75BFD4FF40070ADF8100003208DF812
:10217000120018208DF8130004A98048FEF78EFA8B
:102180004FF48060ADF8100004208DF8130004A90E
:102190007A48FEF783FA4FF48060ADF81000032010
:1021A0008DF8120018208DF8130004A97448FEF76A
:1021B00075FA4FF40060ADF8100004208DF813009C
:1021C00004A96F48FEF76AFA6E48FEF781FD4FF4E6
:1021D000E13000900020ADF80400ADF80600ADF845
:1021E0000800ADF80C000C20ADF80A0069466548FF
:1021F000FEF7B1FD6448FEF76BFD4FF416500090FA
:1022000069466148FEF7A7FD40F225515D48FEF79B
:1022100049FF40F225515C48FEF744FF012240F29D
:1022200025515848FEF72FFE012240F2255156480D
:10223000FEF729FE01215348FEF719FE01215248FD
:10224000FEF715FE05B000BD10B550A001F0F4FD7D
:1022500010BD10B500F04DFF01F0FDFA10BD08B53E
:102260004FF44070FEF738FF1D208DF8000000206D
:102270008DF8010001208DF803006846FEF731FF5C
:102280001E208DF8000002208DF8010001208DF83D
:1022900003006846FEF725FF25208DF80000042086
:1022A0008DF8010001208DF803006846FEF719FF44
:1022B00034208DF8000006208DF8010001208DF8F3
:1022C00003006846FEF70DFF08BD10B5FEF732FBB0
:1022D0004FF48030FEF74EFBFEF78BFB044600BF49
:1022E000002CFDD00020FEF7C6FB0020FEF7CCFB43
:1022F0000020FEF7D2FB4FF4E0114FF48030FEF7E0
:102300009DFB0120FEF7A6FB00BF3920FEF755FB21
:102310000028FAD00220FEF7A0FB00BFFEF7A6FBC4
:102320000828FBD10020FEF786FB01210420FEF7E0
:1023300067FC01210820FEF763FC01211020FEF755
:102340005FFC01212020FEF75BFC01214020FEF70D
:1023500057FC01210846FEF753FCFFF780FFFFF70B
:10236000D7FEFFF7F4FEFFF7F3FEFFF76DFFFFF771
:1023700070FF10BD000C0140001401400008014036
:102380000010014000380140004C004045585449BD
:102390005F436F6E66696775726174696F6E204422
:1023A0004F4E45210D0A00000020FE490968C9086A
:1023B000FD4AB1FBF2F14FF0E0229269B2FBF1F17C
:1023C000F94A501A511088420CDAF849097849B193
:1023D0000021F64A1170F6490968F34A1144F44A9B
:1023E000116008E0F349884205DDF049097811B928
:1023F0000121EE4A1170EE4909680144EE4A91420A
:1024000002DB0021EA4A1160E94909680844704783
:1024100070B5E4480068C108B1F1807F00D31DE0C9
:1024200021F07F40401E4FF0E022506150170F22F4
:10243000002807DA13071D0EE04B00F00F04241FDD
:102440001D5503E013071C0EDD4B1C5400BF00207C
:102450004FF0E02290610720106100BF6FF0040090
:10246000FEF78AFE70BD1CB5CF4A91FBF2F212B2A4
:10247000ADF80020CC4A91FBF2F302FB13124FF4AB
:102480007A7392FBF3F212B2ADF80220C64A91FBC6
:10249000F2F302FB13124FF47A7392FBF3F403FB93
:1024A000142212B2ADF80420009A0260BDF8042094
:1024B00082801CBD30B50446FFF776FF05462946ED
:1024C0002046FFF7D0FF30BD00B5FFF76DFF00BD20
:1024D0001CB50024009401943B2905DCB2F57A7FF9
:1024E00002DAB3F57A7F05DB009C0460BDF8044096
:1024F00084801CBD0CB2ADF8004014B2ADF80240AF
:102500001CB2ADF80440009C0460BDF80440848017
:1025100000BFEEE71CB50B8814881B1B1BB2ADF87F
:1025200000304B8854881B1B1BB2ADF802308B88DF
:1025300094881B1B1BB2ADF80430BDF90430002B8E
:102540000CDABDF802305B1E1BB2ADF80230BDF8EC
:10255000043003F57A731BB2ADF80430BDF90230D4
:10256000002B0CDABDF800305B1E1BB2ADF800305A
:10257000BDF8023003F57A731BB2ADF80230BDF935
:102580000030002B05DABDF800303C331BB2ADF84B
:102590000030009B0360BDF8043083801CBD024600
:1025A0008A4203DA501A844B18447047501AFCE7E9
:1025B0000146B1F900007C4A5043B1F9022002EB18
:1025C0004203C3EBC21200EBC200B1F90420104475
:1025D000704730B50446FFF7E7FE054600BFFFF73A
:1025E000E3FE431B002B01DA73480344A342F6D3F6
:1025F00030BD30B503464FF47A704343FFF7D4FE45
:10260000054600BFFFF7D0FE441B002C01DA6A48E4
:1026100004449C42F6D330BD30B50346694883423A
:1026200000DD30BD60484343FFF7BEFE044600BFF7
:10263000FFF7BAFE051B002D01DA5F4805449D42F5
:10264000F6DB00BFEDE703B5BDF900003B2809DC70
:10265000BDF90200B0F57A7F04DABDF90400B0F5E7
:102660007A7F00DB0CBDBDF90000FFF7D5FFBDF997
:102670000200FFF7BEFFBDF90400FFF7AAFF00BF8D
:10268000F0E730B503460C4615460022002100BF96
:1026900009E04D4800EB0210807B10B94A4800EB7E
:1026A0000211501CC2B20A2AF3DB09B9002030BD66
:1026B000012088730C71CD800020888148810881B9
:1026C0000B600846F3E770B504460D46A089E18823
:1026D000884202D14FF0FF3070BD238926792168EE
:1026E00003FB06103246294601F007FA2089401CF8
:1026F00080B2E18890FBF1F201FB12002081A089F9
:10270000401CA0810020E7E770B504460D46A08973
:1027100010B94FF0FF3070BD63892679206803FB44
:1027200006013246284601F0E8F96089401C80B273
:10273000E18890FBF1F201FB12006081A089401E4C
:10274000A0810020E7E70146888970470146C888D4
:102750008A89801A80B270470021817370470020F7
:1027600000211A4A1268916200BF46E0FF2100EB87
:10277000400202EBC002164B03F82210002100EBCE
:10278000400202EBC00203EB8202516200EB400206
:1027900002EBC00203EB8202516000EB400202EB4D
:1027A000C00217E00400002040420F00300000206B
:1027B0002C00002020A107000087930318ED00E003
:1027C00000E400E0C04484037800002034000020CE
:1027D0001801002003EB8202116100EB400202EBC2
:1027E000C00203EB8202516100EB400202EBC00227
:1027F00003EB82029162411CC8B20F28B6DB70471E
:102800002DE9FF4780469946DDF830A0002500BF3E
:1028100033E005EB450000EBC500AA4901EB800061
:1028200090F90000401C26D105EB450000EBC500E7
:1028300001EB800468B2207084F8018084F802A063
:1028400001A8FFF7B5FE6060FFF7AEFDE060C4F8D9
:10285000249000206083A083A062FFF7A5FD206183
:1028600099480078401C9849087008460078C0F1E3
:102870000F00487003E0681CC5B20F2DC9DB00BF14
:102880000F2D04D14FF0FF3004B0BDE8F0878F4822
:102890000068806AD8B968B205EB450101EBC50153
:1028A000884A02F82100002005EB450101EBC50133
:1028B00002EB8101886205EB450000EBC500114683
:1028C00001EB80008149096888620020DCE77F48CD
:1028D00007680068866A00BF60687168884202DD28
:1028E000A662BC6209E0B06A18B9B4620020A062B6
:1028F00003E03746B66A002EEED100BF94F900001F
:10290000C2E710B50246714803680068816A00BFDB
:1029100091F90000904211D1886A9862FF200870F6
:102920000020486268480078401E674C20702046AE
:102930000078C0F10F006070002010BD0B46896A5E
:102940000029E5D1481EF8E72DE9F0415F4800680D
:10295000846A00260025002745E0FFF725FD05468F
:102960002846E168FFF71BFE0646206A28B1206A68
:10297000B04237DC0020206234E06068B04231DCD5
:1029800017B9514845600127A07808B9E56004E00F
:10299000A078012801D1A068E060FFF705FD206163
:1029A000606A08B1606A8047FFF7FEFC6061A08A38
:1029B000218A401A20836168E0680844444990FBFA
:1029C000F1F201FB1200A060FFF7EEFCA168884263
:1029D00001DD012000E00020618B08446083A08BB2
:1029E000401CA083A46A002CB7D18FB1FFF7DCFC98
:1029F000354988600A4651689068FFF7D0FD324932
:102A0000C86008460069C96808442F490861002762
:102A1000BDE8F0812DE9F04105460E46174617B98D
:102A20000020BDE8F08105EB450000EBC50025491D
:102A300001EB8004206A00B92662FFF785FF206A57
:102A400008B90020EDE70120EBE77CB51F480468DA
:102A50000EE0608BA18BCDE90010238B94F901105F
:102A60001CA0626801F0E8F900206083A083A46ADA
:102A7000002CEED1FFF798FC054624480168284653
:102A8000FFF78DFD214908600F4800696421484324
:102A90001E49096890FBF1F01C490860FFF784FCAF
:102AA00005460948037819482946026818A001F02C
:102AB000C3F9FFF779FC1549086000200249086155
:102AC0007CBD000018010020AC0300203400002071
:102AD00000879303B1E0BAC53A256409BCE4B8F4B1
:102AE0003A256409B5A5B4CECAB1BCE43A25640957
:102AF000D4CBD0D0B4CECAFD3A256409B3ACCAB1A8
:102B0000B4CECAFD3A2564090D0A00003800002041
:102B1000B5B1C7B0CAB1BCE4A3BA25647573A3ACA0
:102B2000435055CAB9D3C3C2CAA3BA256425252CBC
:102B3000C8CECEF1CAFDC1BFA3BA2564200D0A0DCF
:102B40000A0D0A0D0A0D0A0000200021F74A117033
:102B5000F74A1170F74A1170F74A117000BF04E08C
:102B60000021F64A1154411CC8B23228F8DB7047E4
:102B70000146FD2903D0F82901D0FE2901D1012009
:102B800070470020FCE713B50C466946EC48006826
:102B9000FFF799FD00981CBD0146F82907D0FD29D3
:102BA00002D0FE2909D105E04FF67D6070474FF64F
:102BB0007860FBE74FF67E60F8E70846F6E70146E7
:102BC00000220023012205E0881C805C184483B2A7
:102BD000501CC2B291F90000801E9042F4DCD8B2C1
:102BE00070472DE9F04105460024AF1C00BF3EE0D0
:102BF000012C2BDD95F90000401EA04226DD385D3A
:102C0000FFF7B6FF10B3385DFFF7C6FF064600BFFB
:102C10004021CC48FEF706FA0028F9D04021C948E7
:102C2000FEF70DFA3112C748FEF78EF900BF4021BA
:102C3000C448FEF7F7F90028F9D04021C148FEF753
:102C4000FEF9F1B2BF48FEF77FF90EE000BF402168
:102C5000BC48FEF7E7F90028F9D04021B948FEF753
:102C6000EEF9395DB748FEF76FF9601CC4B295F90B
:102C70000000A042BCDC0020BDE8F0812DE9FC4151
:102C800005460024AF1C00BF24E0012C1BDD95F994
:102C90000000401EA04216DD385DFFF769FF90B1CD
:102CA000385DFFF779FF064630120190F0B20090D0
:102CB00001A9A3480068FFF706FD6946A04800681F
:102CC000FFF701FD04E039199D480068FFF7FBFCA0
:102CD000601CC4B295F90000A042D6DC0020BDE81B
:102CE000FC8108B5694696480068FFF70DFD78B984
:102CF00000BF40219348FEF795F90028F9D0402104
:102D00009048FEF79CF9009881B28E48FEF71CF9B6
:102D100008BD10B54FF47A7201218B48FFF7B1FC62
:102D200087490860322220218848FFF7AAFC884999
:102D30000860FFF709FF874C0C20207001206070AD
:102D4000203414202070042060702034082020706B
:102D50000220607020340A2020700320607020342C
:102D6000122020700520607010BD2DE9F04188B060
:102D700007460C4615461E46DDF838808DF80040A3
:102D800068B28DF801000696CDF81C8020226946B5
:102D9000384600F0B2FE08B0BDE8F0812DE9F04100
:102DA0000546002400270026FD2D0CD15F48007841
:102DB00018B9FD205D4908700BE0FFF7C5FEFD2046
:102DC0005A49087005E05948007810B90020BDE85C
:102DD000F081FE2D02D057480078C8B155480078E0
:102DE00088B1782D06D07D2D02D07E2D06D103E04E
:102DF000FD2503E0F82501E0FE2500BF00BF00200F
:102E00004C49087009E001204A4908700020DEE7BB
:102E1000F82D02D1012048490870454890F900205A
:102E20000078401C40B2424B1870444885544248D8
:102E30000078002841D0012400204749088008E09C
:102E40003E48005D44490988084443490880601CA5
:102E5000C4B2374890F90000801EA042F0DC374F22
:102E60007F1C002416E038783A4901EB441191F9AF
:102E7000011088420CD1374800EB441090F9000053
:102E80002B4991F90010884202D1324800EB4416D8
:102E9000601CC4B2052CE6DB16B9FFF755FE0CE04A
:102EA00096F900202549B01C00F027FE314628483D
:102EB0000068FFF708FCFFF747FE002087E730B502
:102EC00089B005460020034602220521009001A892
:102ED000FFF74BFF0DF10604FD202070022060700B
:102EE0001E480078A0701D480078401C1B490870DF
:102EF00001A8FFF764FEE070F820207101A8FFF739
:102F0000BDFE09B030BD70B50546AC1C1348007855
:102F1000607312480078401C104908702846FFF77B
:102F20004EFE20742846FFF7A9FE70BD4300002026
:102F30003D000020440000203E000020CC0A00207C
:102F40004800002000380140FE0A00208C040020C8
:102F50004C000020EC030020400000204200002034
:102F600070B50546AC1CFD20207003206070384809
:102F70000078E07236480078401C354908702846D1
:102F8000FFF71DFE2073F82060732846FFF776FEDA
:102F900070BD70B50546AC1CFD202070042060702B
:102FA0002B480078E0732A480078401C28490870B4
:102FB0002846FFF704FE2074F82060742846FFF7C7
:102FC0005DFE70BD70B592B004460026A07808B9C9
:102FD00012B070BD6078022801D1A67908E060784F
:102FE000032801D1267A03E06078012800D1A67A6F
:102FF0000020034605220821009002A8FFF7B5FE35
:10300000202202A90AA800F078FD0DF12A05FD2072
:10301000287005206870AE706078E8700020287114
:103020000B48007868710A480078401C084908700D
:103030000AA8FFF7C4FDA871F820E8710AA8FFF7F5
:103040001DFE2021204600F071FD00BFC0E70000FA
:10305000420000202DE9F04704460D46284600F0C6
:1030600047FE8146A16800F0C4FD80466F4900F02C
:1030700068FD074600F05AFE86B22079012806D086
:10308000022809D003280CD0042814D10EE03146C0
:103090002068FEF757FF0EE031462068FEF754FF28
:1030A00009E031462068FEF751FF04E03146206810
:1030B000FEF74EFF00BF00BFBDE8F0875C485D49EA
:1030C00008600320087140F24650C8805A48886062
:1030D000AFF27F00C8605648584908600420087164
:1030E00040F24650C88054488860AFF29700C860EC
:1030F000704700B589B001210820FDF78EFD0C2036
:10310000ADF8200018208DF8230003208DF8220050
:1031100008A94B48FDF7C2FA4548FEF74BF844486A
:10312000FEF7ACFC44F62060ADF818004548006896
:103130004549B0FBF1F080B2ADF814000020ADF8C5
:103140001A00ADF8160005A93948FEF707F9602006
:10315000ADF804000120ADF806000020ADF80C0029
:1031600044F62060ADF80A0001A93148FEF7C2F923
:1031700008212F48FEF794FD01A92D48FEF705FA16
:1031800008212B48FEF795FD01212948FEF742FD55
:1031900001212748FEF73EFC09B000BD10B52B48C1
:1031A00000680078022812D12948006800221146E0
:1031B000D0F8A430264800689847264800680022C6
:1031C0001146D0F8A43023480068984710BD224823
:1031D0000068C268214801781F480068904720486D
:1031E0000068C2681D4801781D48006890471B4868
:1031F00000788C2803D101201A49087006E017488E
:103200000078282802D10020164908701548007857
:1032100028B112480078401E1049087004E00F4899
:103220000078401C0D49087000BFCFE70000AF4395
:10323000000C0040E80E00201CC7B140F80E002032
:10324000000801400400002040420F005C00002004
:10325000680000206C000020500000205800002072
:10326000540000205900002070B504460D46552D2D
:1032700002D1002060802071657100BF4021344878
:10328000FDF7D0FE0028F9D029463148FDF75CFE55
:1032900040212F48FDF7D3FE70BD4279502A03D15B
:1032A000A1F12D02427016E04279552A13D102791C
:1032B0004AB9418042884FF6FF7303EA02224280F6
:1032C0000122027107E00279012A04D142880A43EF
:1032D000428002220271704710B51E4800680079D2
:1032E000022820D11B4800684088642804DA0220A4
:1032F0001849096808700DE016480068408896284B
:1033000004DA012013490968087003E0002011491C
:10331000096808700F48006842880E4800684178C4
:103320000DA000F089FD1148007828B1502109480E
:103330000068FFF799FF04E0552106480068FFF791
:1033400093FF0A480078C0430849087010BD000088
:10335000004C00405C000020CEC2B6C8A3BA256471
:103360002CBEE0C0EBA3BA25640D0A00600000206B
:1033700070B504460D46164684F8A15094F8A30093
:1033800060B105F00102A18A2069FDF736FA05F067
:103390000202E18A2069FDF730FA0BE005F0020233
:1033A000A18A2069FDF729FA05F00102E18A206966
:1033B000FDF723FA30B2A4F89A00FE480068D0F86E
:1033C0008C10FC48006858308847FB480068D0F8EB
:1033D0008C10F948006858308847F6480068416DFD
:1033E000F448006820308847F3480068416DF2488F
:1033F0000068203088470021A068FEF79FFD70BD5F
:1034000010B50446A068FEF7BCFDA4F89000B4F81F
:10341000900010BD1CB5AC21E648006800F086FBAA
:10342000AC21E548006800F081FB0020E149096813
:103430000870E248DF49096888600005DD490968CD
:1034400048600120DB4909680873DD48D9490968EB
:1034500008610120D749096888820220D549096896
:10346000C882D848012100234203CDE90010D64983
:10347000D0480068203000F025FBD448012100230B
:103480001A46CDE90010D249CA480068583000F009
:1034900019FB0120C84909680870CE48C649096867
:1034A0008860C004C449096848600220C2490968AC
:1034B0000873C348C049096808610420BE49096807
:1034C00088820820BC490968C8820120BA49096875
:1034D00081F8A300BB48012100234203CDE900107D
:1034E000B949B5480068203000F0ECFAB74801212E
:1034F00000231A46CDE90010B549AF48006858309E
:1035000000F0E0FA4FF07E50AB490968C861A94964
:103510000968C861AFF2A710A7490968C1F8A400FB
:10352000A4490968C1F8A400AFF22B10A2490968A8
:10353000C1F8A8009F490968C1F8A8001CBD2DE981
:10354000F047044694F8A10008B9BDE8F08720468A
:10355000D4F8A8108847207EF0B100202076B4F877
:103560009200B0F5004F0CDB04F1900460884FF638
:10357000FF71A1EB0000218808446060A4F1900471
:1035800011E034F8900FA0F57F40FF386188401AB1
:103590006060A4F1900406E034F8900F6188401A4E
:1035A0006060A4F1900434F8900F60806068A4F12A
:1035B0009004002803DD012084F8A00010E0D4F876
:1035C0009400002809DA022004F194042073206892
:1035D000C0F1000044F8940902E0002084F8A00043
:1035E00004F1200604F15805207888B9714909686A
:1035F000B1F89010704A1268B2F89020881A00F062
:103600006EFB07460022394628462B6B984713E08D
:103610002078012810D168490968B1F89010654AEE
:103620001268B2F89020881A00F059FB0746002271
:10363000394628462B6B984794F8A000012802D100
:10364000686A686203E0686A80F000406862B4F902
:103650009A0000F044FB8246E16900F0CAFA804615
:10366000696A00F06EFA0746D4F8940000F037FB60
:1036700081463A4649463046336B98475649706A08
:1036800000F072FB02D25448706206E00021706ABA
:1036900000F060FB01D200207062706A00F02DFB28
:1036A00000B2A4F89E00207B012806D002280BD08F
:1036B000032810D004281CD114E0B4F89E2091B245
:1036C0006068FEF73FFC14E0B4F89E2091B2606899
:1036D000FEF73AFC0DE0B4F89E2091B26068FEF768
:1036E00035FC06E0B4F89E2091B26068FEF730FC2D
:1036F00000BF00BF00BF28E710B538480068007859
:1037000002283FD12B48006890F8A10078B12948E1
:10371000006890F8A1002749096881F8A2002548AF
:103720000068B0F89A0023490968A1F89C00224873
:10373000006890F8A10078B11F48006890F8A100D7
:103740001D49096881F8A2001B480068B0F89A007A
:1037500019490968A1F89C00164800680022114622
:10376000D0F8A43013480068984713480068002236
:103770001146D0F8A4301048006898470120184935
:10378000087010BD15480068007858BB14480078D0
:1037900040B300201249087006480068B0F89C0049
:1037A00082B20448006890F8A21002480068D0F87D
:1037B000A43018E0680000206C00002000040040E5
:1037C0000010014000007A44000034420000C8426A
:1037D000CDCC4C3E0008004000C079445C00002085
:1037E0007000002012E07848006898477748006829
:1037F000B0F89C0082B27548006890F8A210734837
:103800000068D0F8A4307148006898477048FFF706
:1038100096FE7048FFF793FE00BFB2E708B56A480E
:103820000068808A68490968C98A08436749096845
:10383000898A084365490968C98A0843ADF80000C8
:1038400010208DF8030001208DF8020069466248BF
:10385000FCF724FF08BD00B58BB001210846FDF739
:10386000DCF90320ADF8280018208DF82B00032088
:103870008DF82A000AA95948FCF710FF4FF0804044
:10388000FDF798FC4FF08040FEF7F8F84FF47A709F
:10389000ADF820004820ADF81C000020ADF8220053
:1038A000ADF81E0007A94FF08040FDF757FD6020DE
:1038B000ADF80C000120ADF80E000020ADF81400AA
:1038C0004FF47A70ADF8120003A9C006FDF783FD2E
:1038D0000821C806FEF7CEF94FF47A70ADF8120051
:1038E00003A9C006FDF7B9FD0821C806FEF7CBF90C
:1038F00001218807FEF78EF901218807FEF78AF873
:1039000001210620FDF789F9C020ADF82800042028
:103910008DF82B0003208DF82A000AA92F48FCF708
:10392000BDFE0AA92E48FCF7B9FE2E48FDF742FC61
:103930002D48FDF73FFC4FF6FF70ADF8200000204A
:10394000ADF81C00ADF82200ADF81E0007A925480F
:10395000FDF704FD07A92448FDF700FD00231A46E2
:1039600003212048FEF709F900231A4603211E48C7
:10397000FEF703F96846FEF730F80320ADF80800BB
:1039800069461848FDF77DFF69461748FDF779FF3E
:1039900001211448FEF73EF901211348FEF73AF9D8
:1039A000012211460F48FEF750F8012211460E4839
:1039B000FEF74BF801210B48FEF72CF801210A48CD
:1039C000FEF728F80BB000BD680000206C00002056
:1039D000080F0020B40F0020001001400008014033
:1039E000000C014000040040000800402DE9F047B1
:1039F00004460D461646002726606560D4E900019E
:103A000000F0F1F8A060A168E06900F09AF8E061C8
:103A1000D4E9020100F0E7F88246A16900F0E9F874
:103A20008046A168206900F0E4F88146414600F034
:103A300088F80746E169606900F0DBF8804639469E
:103A400000F07FF86062A068E06094F82C0088B312
:103A5000D4E9090100F088F907D3A06A80F0004892
:103A60004046616A00F080F925D20021606900F0CB
:103A700071F908D03946A06A00F0B5F8804661694E
:103A800000F0EDF8E061D4E9090100F06DF902D22F
:103A9000A06A60620BE0A06A80F000484046616A5C
:103AA00000F062F903D2A06A80F000406062A06A70
:103AB000BDE8F087FFE7606AFAE70021C160C161F5
:103AC000816070472DE9F04704460D4616461F46B3
:103AD000DDE908893821204600F028F82561666173
:103AE000A761AFF2F7002063AFF23100606384F8A2
:103AF0002C80C4F82890BDE8F08740EA01039B07BA
:103B000003D009E008C9121F08C0042AFAD203E052
:103B100011F8013B00F8013B521EF9D27047D2B2B6
:103B200001E000F8012B491EFBD270470022F6E7A6
:103B300010B513460A4604461946FFF7F0FF204623
:103B400010BDF0B480EA0102D40F4200B2EB410F85
:103B500002D20246084611464A0042D0C30DDDB2E9
:103B6000C1F3C752AD1A202D35DAC1F3160141F465
:103B7000000204B15242C5F1200602FA06F12A41C0
:103B80001044B3EBD05F23D0C4B1012DA0EBC350E0
:103B900009DCF0BC4FF0004202EAC35200F500001D
:103BA000DBB200F00AB9400000F1807000EBC350B6
:103BB000A0F1807040EAD170490009E0490841EA6B
:103BC000C071A0EBC35000F50000400800EBC350EB
:103BD000F0BC00F0E9B86142012202EB4101001B98
:103BE000F6E7F0BC704781F00041AAE780F00040A2
:103BF000A7E780EA010210B502F00043400026D09A
:103C00004A0023D04FEA106101EB1261C0F3560065
:103C1000C2F3560240F4000042F40002A0FB02206E
:103C2000A1F17F014FEA0040140401D000F101002E
:103C300050EA124001D44000491EC2B20C0604EB07
:103C4000D010401C4008802A02D003E0002010BDA4
:103C500020F00100002900DA0020184310BD30B424
:103C600080EA010202F0004530F0004221F00040FD
:103C700015D0A0B1C0F3C753C2F3C754C2F31601A5
:103C8000C0F31600E41A41F4000140F400027D3450
:103C9000914201D3641C00E04900002C02DA30BCE0
:103CA000002070474FF400000023914201D3891A8D
:103CB000034340084FEA4101F7D151B1914202D18B
:103CC0004FF0004105E002D24FF0010101E06FF03A
:103CD000010103EBC450284430BC00F065B8C10FAB
:103CE00080EAE0700844CA079623002100F065B816
:103CF00096230022114600F060B800F0004220F048
:103D00000040C10DC0F3160040F400007F2901DA25
:103D100000207047962903DCC1F19601C84001E0FC
:103D200096398840002AF4D04042704720F0004085
:103D3000C10DC0F3160040F400007F2901DA002015
:103D40007047962903DCC1F19601C8407047963947
:103D500088407047002801DBC0F10040002901DBEA
:103D6000C1F1004181427047002801DBC0F10040F1
:103D7000002901DBC1F100418842704730B50B4694
:103D8000014600202022012409E021FA02F59D428B
:103D900005D303FA02F5491B04FA02F52844151E5F
:103DA000A2F10102F1DC30BD0029A8BF7047401C20
:103DB000490008BF20F00100704710B4B0FA80FC41
:103DC00000FA0CF050EA010404BF10BC704749B17E
:103DD000CCF1200421FA04F411FA0CF118BF0121EE
:103DE00021430843A3EB0C01CB1D0106000A002B65
:103DF000BEBF002010BC704700EBC3501044002928
:103E0000A4BF10BC7047401C490008BF20F001004F
:103E100010BC7047064C074D06E0E06840F0010317
:103E200094E8070098471034AC42F6D3FCF784F9C5
:103E3000CC3F0008EC3F00080FB4054B10B503A9B8
:103E4000044A029800F018F810BC5DF814FB00005A
:103E5000872B00087400002002E008C8121F08C168
:103E6000002AFAD170477047002001E001C1121FFB
:103E7000002AFBD1704700002DE9FF4F89B09A4618
:103E80000446002597E0252833D10027641C4E49BD
:103E9000B84601222378203B02FA03F0084202D000
:103EA0000743641CF6E720782E2819D114F8010F77
:103EB00047F004072A280ED06FF02F022078A0F1D7
:103EC000300109290CD808EB880102EB410100EB15
:103ED0000108641CF2E70A98641C50F8048B0A90ED
:103EE000207800286BD0642808D0692806D075286F
:103EF00020D052460B9990476D1C5BE00A994FF019
:103F00000A0901C90A91002804DAC0F100004FF043
:103F10002D0102E0390504D52B218DF82010012157
:103F200003E0F90704D02021F7E78B4608AE0EE046
:103F30000021FAE70A994FF00A0901C90A91F7E747
:103F40004946FFF71BFF01F1300106F8011D00286B
:103F5000F6D1ADEB060000F12009780701D44FF04F
:103F60000108C84502DDA8EB090000E000208046FA
:103F7000002706E008A85246C05D0B9990476D1CCB
:103F80007F1C5F45F6DB04E0302052460B999047DA
:103F90006D1CB8F10001A8F10108F5DC05E016F888
:103FA000010B52460B9990476D1CB9F10001A9F124
:103FB0000109F4DC641C207800287FF464AF0DB0A4
:103FC0002846BDE8F08F000009280100EC3F0008FA
:103FD0000000002078000000583E000864400008FF
:103FE00078000020E8130000683E00080000000090
:103FF00000A24A04000000000000000001020304C7
:10400000060708090000000001020304010203047E
:10401000060708090204060800000000000000006E
:10402000C003002000000000FF00000000000000AE
:10403000000000000000000000000000E80E00206A
:10404000F80E0020000000006200002000000000C8
:1040500000000000080F0020B40F00200000000046
:04406000000000005C
:0400000508000131BD
:00000001FF
