:020000040800F2
:10000000C81200201D1000080D0200080F02000891
:1000100013020008170200081B020008000000007D
:100020000000000000000000000000001F020008A7
:100030002102000800000000230200082502000839
:100040003710000837100008371000083710000874
:100050003710000837100008371000083710000864
:100060003710000837100008371000083710000854
:100070003710000837100008371000083710000844
:100080003710000837100008371000083710000834
:100090003710000837100008371000083710000824
:1000A0003710000837100008371000083710000814
:1000B0003710000837100008371000083710000804
:1000C00037100008371000083710000837100008F4
:1000D0003710000827020008371000083710000802
:1000E00037100008371000083710000837100008D4
:1000F00037100008371000083710000837100008C4
:1001000037100008371000083710000837100008B3
:1001100037100008371000083710000837100008A3
:100120003710000837100008371000083710000893
:10013000DFF80CD001F0D4FE004800476D01000844
:10014000C812002010B528480078C043264908701E
:10015000084602784FF48061244800F06EFA224885
:1001600002780421224800F068FA10BD0EB501F0B3
:1001700007FA01F0DEFC00F0D2FF01F05BF81DA0F1
:1001800001F0C0FE00231A46012101A801F0B1F8D8
:10019000002300931A4B0020DDE9011201F041FA1F
:1001A000C8230022114601A801F0A3F801230093FF
:1001B000144B0120DDE9011201F033FA00234FF462
:1001C000FA72194601A801F094F800230093AFF2E7
:1001D0008B030420DDE9011201F023FA0A490870BB
:1001E00001E001F0C2FAFCE701000020000C014030
:1001F000001401406D61696E20646F6E650D0A0028
:100200006D180008031B000800000020704700BFA5
:10021000FEE700BFFEE700BFFEE700BFFEE7704756
:1002200070477047704710B540F22551084800F0FC
:1002300036FE60B1064800F0B2FDC4B22146044863
:1002400000F0A9FD40F22551014800F052FE10BD1A
:100250000038014000210020674A126842F48032D1
:10026000654B1A6000BF644A126802F40030491CF2
:1002700010B9B1F5A06FF6D15F4A126812F4003FD1
:1002800001D0012000E00020012842D15B4A126821
:1002900042F01002594B1A601A46126822F003020B
:1002A0001A601A46126842F002021A60524A5268F4
:1002B000514B5A601A4652685A601A46526842F4C4
:1002C00080625A601A46526822F47C125A601A46BA
:1002D000526842F4E8125A601A46126842F080727C
:1002E0001A6000BF444A126812F0007FFAD0424AF6
:1002F000526822F00302404B5A601A46526842F09C
:1003000002025A6000BF3C4A526802F00C02082AFE
:10031000F9D1704710B5FFF79DFF10BD10B53648F5
:10032000006840F0010034490860084640683449DC
:1003300008403149486008460068324908402E4963
:1003400008600846006820F480200860084640687D
:1003500020F4FE0048604FF41F008860FFF7DAFFCA
:100360004FF000602849086010BD10B50021002042
:100370000022214B5B6803F00C0121B1042906D057
:10038000082928D107E0214B214C236027E01F4B8F
:100390001F4C236023E0184B5B6803F47010164B6E
:1003A0005B6803F48032022303EB904022B9194BBF
:1003B0004343174C23600DE00F4B5B6813F4003F81
:1003C00004D0144B4343124C236003E00F4B4343D0
:1003D0000F4C236003E00D4B0D4C236000BF00BFAA
:1003E000054B5B68C3F303130B4CE15C084B1B68C4
:1003F000CB40074C236010BD00100240002002409B
:100400000000FFF8FFFFF6FE08ED00E000127A00A2
:100410000400002000093D000800002010B504463B
:10042000CA48844208D10121042000F024FB0021A5
:10043000042000F020FB46E0C548844208D1012199
:10044000082000F018FB0021082000F014FB3AE01F
:10045000C048844208D10121102000F00CFB00218B
:10046000102000F008FB2EE0BB48844208D1012197
:10047000202000F000FB0021202000F0FCFA22E008
:10048000B648844208D10121402000F0F4FA00214E
:10049000402000F0F0FA16E0B148844208D1012172
:1004A000802000F0E8FA0021802000F0E4FA0AE061
:1004B000AC48844207D10121801500F0DCFA00210C
:1004C000A01500F0D8FA10BD10B50121084600F0C3
:1004D000D2FA0021012000F0CEFA10BD2DE9F04142
:1004E000024600250026002000230024002791F862
:1004F00003C00CF00F0591F803C01CF0100F03D0DF
:1005000091F802C04CEA0505B1F800C01CF0FF0FDD
:1005100031D0146800202BE04FF0010C0CFA00F3EE
:10052000B1F800C00CEA03069E4220D183004FF0D0
:100530000F0C0CFA03F7BC4305FA03FC4CEA040465
:1005400091F803C0BCF1280F06D14FF0010C0CFA52
:1005500000FCC2F814C00AE091F803C0BCF1480FD7
:1005600005D14FF0010C0CFA00FCC2F810C0401C81
:100570000828D1D31460B1F800C0BCF1FF0F34DDFE
:10058000546800202EE000F1080C4FF0010808FA32
:100590000CF3B1F800C00CEA03069E4221D183009F
:1005A0004FF00F0C0CFA03F7BC4305FA03FC4CEABE
:1005B000040491F803C0BCF1280F05D100F1080C28
:1005C00008FA0CF8C2F8148091F803C0BCF1480F87
:1005D00007D100F1080C4FF0010808FA0CF8C2F836
:1005E0001080401C0828CED35460BDE8F0814FF63F
:1005F000FF710180022181700421C17070470246A1
:10060000002093680B4201D0012000E000207047D9
:100610000146886880B2704702460020D3680B42CA
:1006200001D0012000E0002070470146C86880B278
:10063000704701617047416170470AB1016100E094
:1006400041617047C16070474FF480320A43826154
:100650008161826182698269704702460020424B53
:1006600018684FF68073184040EA021008433E4B6A
:10067000186070473D49C8617047F0B50A460023CD
:1006800000240021002500F00046B6F1004F02D101
:10069000354EF16901E0344E7168C0F3034583B211
:1006A00000F44016B6F5401F08D121F070612E4EBF
:1006B000766826F070662C4F7E6012E000F480169B
:1006C000B6F5801F06D1032606FA05F4A14341F0D2
:1006D000706106E0460D360103FA06F6B14341F0BB
:1006E000706122B1460D360103FA06F6314300F07F
:1006F0000046B6F1004F02D11B4EF16101E01A4EE7
:100700007160F0BD30B500228B071C0F0F2303FA78
:1007100004F2154B08338C1053F824309343124CD9
:1007200008348D1044F8253023468C1053F82430BB
:100730008C07240F00FA04F423430B4C08348D106B
:1007400044F8253030BD0A49086070470008014070
:10075000000C01400010014000140140001801404D
:10076000001C014000200140000001400000204228
:10077000DC002042DB48006840F00100D9490860F5
:1007800008464068D8490840D6494860084600688D
:10079000D6490840D34908600846006820F4802004
:1007A00008600846406820F4FE0048604FF41F00CF
:1007B00088607047CB49096821F48031C94A1160CB
:1007C0001146096821F480211160B0F5803F03D003
:1007D000B0F5802F0ED106E0C249096841F480319E
:1007E000C04A116007E0BF49096841F4A021BD4A31
:1007F000116000E000BF00BF704710B50146002245
:10080000002300204A11012A02D1B64C236806E0D9
:10081000022A02D1B34C236A01E0B24C636A01F0B0
:100820001F02012494401C4201D0012000E000205E
:1008300010BD70B500240025002600BF3120FFF751
:10084000DCFF0646641CB4F5A06F01D0002EF5D085
:100850003120FFF7D2FF08B1012500E0002528462E
:1008600070BD014600209F4A106820F0F80040EA61
:10087000C100106070479E49086070470246002022
:10088000984B586820F47C1042EA01031843954BBA
:100890005860704796490866704701460020914AA3
:1008A000506820F003000843506070478D4840684E
:1008B00000F00C007047014600208A4A506820F082
:1008C000F00008435060704701460020854A506898
:1008D00020F4E06008435060704701460020814AE0
:1008E000506820F4605040EAC1005060704729B160
:1008F0007C4A527A02437B4B5A7206E0794A527A1A
:10090000C343DBB21A40774B5A727047794908608B
:10091000704701460020734A506820F44040084365
:10092000506070470021744A11706E4A82F820109E
:10093000012802D0042808D103E001216E4A117079
:1009400004E005216C4A117000E000BF00BF704751
:100950006A49086070476349096A0143614A116244
:10096000704767490860704730B5002100220024B5
:1009700000235C4D6D6805F00C0121B1042905D000
:10098000082923D105E05F4D056022E05D4D05603B
:100990001FE0544D6D6805F47012524D6D6805F4FA
:1009A0008034022505EB92421CB9574D5543056032
:1009B0000BE04C4D6D6815F4003F03D0524D55438C
:1009C000056002E04F4D5543056002E04D4D056066
:1009D00000BF00BF434D6D6805F0F00109094B4DA4
:1009E0006B5C0568DD4045603E4D6D6805F4E06177
:1009F000090A464D6B5C4568DD408560394D6D6880
:100A000005F46051C90A414D6B5C4568DD40C56025
:100A1000344D6D6805F44041890B3D4D6B5CC568F4
:100A2000B5FBF3F5056130BD29B12E4A5269024389
:100A30002C4B5A6104E02B4A52698243294B5A617C
:100A4000704729B1274A92690243264B9A6104E014
:100A5000244A92698243234B9A61704729B1214A03
:100A6000D26902431F4BDA6104E01E4AD269824315
:100A70001C4BDA61704729B11A4AD2680243194BFC
:100A8000DA6004E0174AD2688243164BDA60704796
:100A900029B1144A12690243124B1A6104E0114A47
:100AA000126982430F4B1A6170471A4908607047F8
:100AB0000F49C86470470B49C87170470948406ABC
:100AC00040F0807007494862704701460020054A9F
:100AD00092680A4201D0012000E0002070470149DD
:100AE00088727047001002400000FFF8FFFFF6FE1A
:100AF00000004242D800424220100240800442429C
:100B00003C04424200127A0000093D001800002017
:100B1000280000204004424210B50446FC488442AC
:100B200009D101218803FFF7A6FF00214FF480407F
:100B3000FFF7A1FF32E0F748844209D101214804C0
:100B4000FFF7A6FF00214FF40030FFF7A1FF25E0DB
:100B5000F148844209D101218804FFF799FF00215F
:100B60004FF48020FFF794FF18E0EC48844209D14D
:100B70000121C804FFF78CFF00214FF40020FFF78C
:100B800087FF0BE0E648844208D101210805FFF702
:100B90007FFF00214FF48010FFF77AFF10BD2DE991
:100BA000F04786B005460E460024A24600BFA14687
:100BB0000027B08900B100BF2F462C8A4CF6FF7089
:100BC0000440F08804432C82AC894EF6F3100440B4
:100BD000B08831890843718908430443AC81AC8AE9
:100BE0004FF6FF400440B0890443AC8201A8FFF7F0
:100BF000BBFEC748874202D1DDF810A001E0DDF856
:100C00000CA0A88910F4004F08D00AEBCA0000EB32
:100C10000A1031684900B0FBF1F807E00AEBCA009E
:100C200000EB0A1031688900B0FBF1F86420B8FBD2
:100C3000F0F004012009642101FB1089A88910F457
:100C4000004F08D0322000EBC900B0FBF1F000F0FB
:100C50000700044308E0322000EB09106421B0FBD8
:100C6000F1F000F00F0004432C8106B0BDE8F087DE
:100C70004FF41651016000218180C18001810C2157
:100C8000418100218181704710B502460020108A01
:100C90004FF2FF0318400B884C8823438C88234372
:100CA000CC8823431843108210BD0021018041806D
:100CB0008180C180704721B1828942F400528281D3
:100CC00004E082894DF6FF731A4082817047F0B5C7
:100CD00003460024002600250020A1F510676A3F86
:100CE00000D100BF1846C1F3421401F01F060127CE
:100CF00007FA06F5012C01D10C3004E0022C01D1D9
:100D0000103000E014301AB107682F43076002E08A
:100D10000768AF430760F0BD10B51AB1838A0B4373
:100D2000838204E0838ACC43A4B22340838210BD33
:100D3000028A4FF6F0731A400282028A0A43028244
:100D4000704782894FF2FF731A40828182890A4379
:100D50008281704721B1828942F00202828104E0DF
:100D600082894FF6FD731A4082817047028A4FF6DE
:100D7000DF731A400282028A0A430282704721B15D
:100D8000028A42F48042028204E0028A4BF6FF7338
:100D90001A4002827047C1F3080282807047014600
:100DA0008888C0F308007047818941F00101818182
:100DB0007047028BD2B20283028B42EA0122028385
:100DC0007047028B02F47F420283028B0A43028344
:100DD000704721B1828A42F02002828204E0828A36
:100DE0004FF6DF731A408282704721B1828A42F047
:100DF0001002828204E0828A4FF6EF731A408282E8
:100E0000704721B1828A42F00802828204E0828A1D
:100E10004FF6F7731A408282704721B1828942F4FB
:100E20000042828103E08289C2F30E028281704710
:100E300021B1828A42F40062828204E0828A4FF207
:100E4000FF731A4082827047828A4FF6FB731A4002
:100E50008282828A0A438282704721B1828A42F06A
:100E60000202828204E0828A4FF6FD731A40828277
:100E7000704702460020B1F5007F00D100BF138803
:100E80000B4201D0012000E00020704701F4007205
:100E9000B2F5007F00D100BFCA430280704770B531
:100EA00002460024002300250020A1F510666A3EBA
:100EB00000D100BFC1F3421501F01F03012606FA5D
:100EC00003F3012D02D19689334006E0022D02D1B1
:100ED000168A334001E0968A33400C12012606FA46
:100EE00004F41688344013B10CB1012000E0002056
:100EF00070BD10B500220023A1F510646A3C00D13A
:100F000000BF0A1201249440A3B2DC43048010BD48
:100F1000003801400044004000480040004C0040C0
:100F20000050004036490143364A1160704770B5A1
:100F3000002100230F22C4784CB3324C246804F4FF
:100F4000E064C4F5E0644FEA1421C1F1040322FA1D
:100F500001F2447804FA03F1847804EA020444EAD2
:100F600001014FEA0111284C0678A155047804F0DC
:100F70001F054FF0010404FA05F405784FEA6515E2
:100F80004FF0E02606EB8505C5F8004109E004783E
:100F900004F01F050124AC401C4D0678761145F87D
:100FA000264070BD1A4A0A4002431A4B1A60704725
:100FB00041B1194A126842EA00024FF0E023C3F837
:100FC000102D07E0144A126822EA00024FF0E023D5
:100FD000C3F8102D7047042808D14FF0E0210969AB
:100FE00041F004014FF0E022116107E04FF0E021F1
:100FF000096921F004014FF0E022116170470000FF
:101000000000FA050CED00E000E400E080E100E003
:1010100080FFFF1F08ED00E010ED00E0064880476C
:1010200006480047FEE7FEE7FEE7FEE7FEE7FEE7CD
:10103000FEE7FEE7FEE7FEE71D03000831010008BA
:1010400008B54FF48060ADF8000010208DF8030063
:1010500003208DF8020069465848FFF73FFA042044
:10106000ADF8000010208DF8030003208DF8020079
:1010700069465348FFF732FA08BD00B585B0012133
:101080008803FFF7DEFC4FF40070ADF8100003207A
:101090008DF8120018208DF8130004A94948FFF7B5
:1010A0001DFA4FF48060ADF8100004208DF8130095
:1010B00004A94448FFF712FA4348FFF72DFD4FF407
:1010C000E13000900020ADF80400ADF80600ADF866
:1010D0000800ADF80C000C20ADF80A0069463A484B
:1010E000FFF75DFD012240F225513748FFF7EFFD84
:1010F00001213548FFF7DFFD05B000BD08B54FF40D
:101100004070FFF70FFF25208DF8000001208DF8BB
:1011100001008DF803006846FFF709FF08BD10B510
:10112000FFF728FB4FF48030FFF744FBFFF781FB0C
:10113000044600BF002CFDD00020FFF7BCFB0020C0
:10114000FFF7C2FB0020FFF7C8FB4FF4E0114FF49C
:101150008030FFF793FB0120FFF79CFB00BF392095
:10116000FFF74BFB0028FAD00220FFF796FB00BFE9
:10117000FFF79CFB0828FBD10020FFF77CFB012137
:101180000420FFF75EFC01210820FFF75AFC012133
:101190001020FFF756FC01212020FFF752FC01210F
:1011A0004020FFF74EFC01210846FFF74AFCFFF7FD
:1011B000A5FFFFF745FFFFF760FF10BD000C0140E2
:1011C0000014014000080140003801400020FF49A0
:1011D0000968C908FE4AB1FBF2F14FF0E0229269BA
:1011E000B2FBF1F1FA4A501A511088420CDAF9496F
:1011F000097849B10021F74A1170F7490968F44AA2
:101200001144F54A116008E0F449884205DDF149CE
:10121000097811B90121EF4A1170EF4909680144B9
:10122000EF4A914202DB0021EB4A1160EA4909686A
:101230000844704710B5E5490968C808B0F1807FD7
:1012400000D31CE020F07F41491E4FF0E0225161A5
:1012500000BF5117002905DA0F210901E14A0B23CC
:10126000D15404E00F210901DF4A5317D15400BFC4
:1012700000214FF0E02291610721116100BF6FF062
:101280000400FFF7A8FE10BD1CB5D14A91FBF2F295
:1012900012B2ADF80020CE4A91FBF2F302FB13121A
:1012A0004FF47A7392FBF3F212B2ADF80220C84AFF
:1012B00091FBF2F302FB13124FF47A7392FBF3F4F7
:1012C00003FB142212B2ADF80420009A0260BDF8AC
:1012D000042082801CBD30B50446FFF777FF054629
:1012E00001462046FFF7D0FF30BD00B5FFF76EFF87
:1012F00000BD1CB50024009401943B2905DCB2F527
:101300007A7F02DAB3F57A7F05DB009C0460BDF8D2
:10131000044084801CBD0CB2ADF8004014B2ADF89E
:1013200002401CB2ADF80440009C0460BDF80440CB
:10133000848000BFEEE71CB50B8814881B1B1BB212
:10134000ADF800304B8854881B1B1BB2ADF802303F
:101350008B8894881B1B1BB2ADF80430BDF9043098
:10136000002B0CDABDF802305B1E1BB2ADF8023068
:10137000BDF8043003F57A731BB2ADF80430BDF943
:101380000230002B0CDABDF800305B1E1BB2ADF84A
:101390000030BDF8023003F57A731BB2ADF80230AD
:1013A000BDF90030002B05DABDF800303C331BB22C
:1013B000ADF80030009B0360BDF8043083801CBD95
:1013C00002468A4203DA501A854B18447047501A75
:1013D000FCE70146B1F900007D4A5043B1F9022013
:1013E00002EB4203C3EBC21200EBC200B1F90420CE
:1013F0001044704730B50446FFF7E8FE054600BFCD
:10140000FFF7E4FE431B002B01DA75480344A342B7
:10141000F6D330BD30B503464FF47A704343FFF73F
:10142000D5FE054600BFFFF7D1FE441B002C01DAB4
:101430006B4804449C42F6D330BD30B503466B483C
:10144000834200DD30BD62484343FFF7BFFE0446E0
:1014500000BFFFF7BBFE051B002D01DA6048054405
:101460009D42F6DB00BFEDE703B5BDF900003B2868
:1014700009DCBDF90200B0F57A7F04DABDF9040099
:10148000B0F57A7F00DB0CBDBDF90000FFF7D5FF9A
:10149000BDF90200FFF7BEFFBDF90400FFF7AAFF88
:1014A00000BFF0E730B503460C4615460022002188
:1014B00000BF09E04E4800EB0210807B10B94C4899
:1014C00000EB0211501CC2B20A2AF3DB09B900205A
:1014D00030BD012088730C71CD8000208881488147
:1014E00008810B600846F3E770B504460D46A089F5
:1014F000E188884202D14FF0FF3070BD2389267900
:10150000216803FB06103246294600F0ADFC208915
:10151000401C80B2E18890FBF1F201FB12002081B7
:10152000A089401CA0810020E7E770B504460D4665
:10153000A08910B94FF0FF3070BD6389267920680B
:1015400003FB06013246284600F08EFC6089401CF1
:1015500080B2E18890FBF1F201FB12006081A0896A
:10156000401EA0810020E7E70146888970470146B8
:10157000C8888A89801A80B27047002181737047B9
:10158000002000211B4A1268916200BF46E0FF2143
:1015900000EB400202EBC002174B03F822100021BF
:1015A00000EB400202EBC00203EB8202516200EB4F
:1015B000400202EBC00203EB8202516000EB4002EA
:1015C00002EBC00203EB8202116117E0040000206D
:1015D00040420F00300000202C00002020A1070016
:1015E0000087930318ED00E000E400E0C0448403AA
:1015F0005400002034000020F400002000EB4002E2
:1016000002EBC00203EB8202516100EB400202EBED
:10161000C00203EB82029162411CC8B20F28B6DB04
:1016200070472DE9FF4780469946DDF830A0002538
:1016300000BF33E005EB450000EBC500A94901EB15
:10164000800090F90000401C26D105EB450000EB1E
:10165000C50001EB800468B2207084F8018084F832
:1016600002A001A8FFF7B5FE6060FFF7AFFDE060E4
:10167000C4F8249000206083A083A062FFF7A6FD39
:10168000206199480078401C974908700846007806
:10169000C0F10F00487003E0681CC5B20F2DC9DB14
:1016A00000BF0F2D04D14FF0FF3004B0BDE8F0872C
:1016B0008E480068806AD8B968B205EB450101EB35
:1016C000C501884A02F82100002005EB450101EB25
:1016D000C50102EB8101886205EB450000EBC50006
:1016E000114601EB80008149096888620020DCE72F
:1016F0007E4807680068866A00BF60687168884233
:1017000002DDA662BC6209E0B06A18B9B4620020CA
:10171000A06203E03746B66A002EEED100BF94F90E
:101720000000C2E710B50246704803680068816A8D
:1017300000BF91F90000904211D1886A9862FF20A1
:1017400008700020486268480078401E664C20708F
:1017500020460078C0F10F006070002010BD0B46DD
:10176000896A0029E5D1481EF8E72DE9F0415F4874
:101770000068846A00260025002745E0FFF726FD63
:1017800005462846E168FFF71BFE0646206A28B199
:10179000206AB04237DC0020206234E06068B0424A
:1017A00031DC17B9504845600127A07808B9E560D9
:1017B00004E0A078012801D1A068E060FFF706FDF1
:1017C0002061606A08B1606A8047FFF7FFFC6061D2
:1017D000D4E90410401A20836168E0680844444951
:1017E00090FBF1F201FB1200A060FFF7EFFCA16893
:1017F000884201DD012000E00020618B0844608305
:10180000A08B401CA083A46A002CB7D18FB1FFF736
:10181000DDFC354988600A4651689068FFF7D0FDC5
:101820003149C86008460069C96808442E49086102
:101830000027BDE8F0812DE9F04105460E46174628
:1018400017B90020BDE8F08105EB450000EBC500AD
:10185000244901EB8004206A00B92662FFF785FF66
:10186000206A08B90020EDE70120EBE77CB51F48AE
:1018700004680EE0638BA28BCDE90023238B94F9DF
:1018800001101CA0626800F03DFB00206083A08373
:10189000A46A002CEED1FFF799FC054623480168A5
:1018A0002846FFF78DFD214908600F480069642133
:1018B00048431E49096890FBF1F01C490860FFF796
:1018C00085FC05460848037818482946026818A090
:1018D00000F018FBFFF77AFC144908600020024969
:1018E00008617CBDF4000020880300203400002043
:1018F00000879303B1E0BAC53A256409BCE4B8F4A3
:101900003A256409B5A5B4CECAB1BCE43A25640948
:10191000D4CBD0D0B4CECAFD3A256409B3ACCAB199
:10192000B4CECAFD3A2564090D0A00003800002033
:10193000B5B1C7B0CAB1BCE4A3BA25647573A3AC92
:10194000435055CAB9D3C3C2CAA3BA256425252CAE
:10195000C8CECEF1CAFDC1BFA3BA2564200D0A0DC1
:101960000A0D0A0D0A0D0A0000200021FF4A11701D
:10197000FF4A1170FF4A1170FF4A117000BF04E066
:101980000021FE4A1154411CC8B23228F8DB7047CE
:101990000146FD2903D0F82901D0FE2901D10120FB
:1019A00070470020FCE713B50C466946F448006810
:1019B000FFF79AFD00981CBD0146F82907D0FD29C4
:1019C00002D0FE2909D105E04FF67D6070474FF641
:1019D0007860FBE74FF67E60F8E70846F6E70146D9
:1019E00000220023012205E0881C805C184483B299
:1019F000501CC2B291F90000801E9042F4DCD8B2B3
:101A000070472DE9F04105460024AF1C00BF3EE0C1
:101A1000012C2BDD95F90000401EA04226DD385D2B
:101A2000FFF7B6FF10B3385DFFF7C6FF064600BFED
:101A30004021D448FFF71DFA0028F9D04021D148B1
:101A4000FFF724FA3112CF48FFF7A5F900BF402174
:101A5000CC48FFF70EFA0028F9D04021C948FFF71B
:101A600015FAF1B2C748FFF796F90EE000BF402122
:101A7000C448FFF7FEF90028F9D04021C148FFF71C
:101A800005FA395DBF48FFF786F9601CC4B295F9C5
:101A90000000A042BCDC0020BDE8F0812DE9FC4143
:101AA00005460024AF1C00BF24E0012C1BDD95F986
:101AB0000000401EA04216DD385DFFF769FF90B1BF
:101AC000385DFFF779FF064630120190F0B20090C2
:101AD00001A9AB480068FFF707FD6946A848006800
:101AE000FFF702FD04E03919A5480068FFF7FCFC88
:101AF000601CC4B295F90000A042D6DC0020BDE80D
:101B0000FC8108B569469E480068FFF70EFD78B96C
:101B100000BF40219B48FFF7ACF90028F9D04021D5
:101B20009848FFF7B3F9009881B29648FFF733F968
:101B300008BD10B54FF47A7201219348FFF7B2FC4B
:101B40008F490860322220219048FFF7ABFC904972
:101B50000860FFF709FF8F4C0C2020700120607097
:101B6000203414202070042060702034082020705D
:101B70000220607020340A2020700320607020341E
:101B8000122020700520607010BD2DE9F04188B052
:101B900007460C4615461E46DDF838808DF8004095
:101BA00068B28DF801000696CDF81C8020226946A7
:101BB000384600F059F908B0BDE8F0812DE9F04150
:101BC0000546002400270026FD2D0CD1674800782B
:101BD00018B9FD20654908700BE0FFF7C5FEFD2030
:101BE0006249087005E06148007810B90020BDE83E
:101BF000F081FE2D02D05F480078C8B15D480078C2
:101C000088B1782D06D07D2D02D07E2D06D103E03F
:101C1000FD2503E0F82501E0FE2500BF00BF002000
:101C20005449087009E00120524908700020DEE79D
:101C3000F82D02D10120504908704D4890F900203C
:101C40000078401C40B24A4B18704C4885544A48B2
:101C5000007898B3012400204F49088008E04748E5
:101C6000005D4D49098808444B490880601CC4B296
:101C70003F4890F90000801EA042F0DC3F4F7F1CDF
:101C8000002416E03878434901EB441191F9011022
:101C900088420CD13F4800EB441090F900003449D1
:101CA00091F90010884202D13A4800EB4416601CBA
:101CB000C4B2052CE6DB16B9FFF756FE0CE096F928
:101CC00000202E49B01C00F0CFF8314630480068A3
:101CD000FFF70AFCFFF748FE002088E730B589B01F
:101CE0000546002302220521009301A8FFF74DFFBE
:101CF0000DF10604FD202070022060702748007856
:101D0000A07026480078401C2449087001A8FFF7FD
:101D100066FEE070F820207101A8FFF7BFFE09B051
:101D200030BD70B50546AC1C1C48007860731B487C
:101D30000078401C194908702846FFF750FE2074AF
:101D40002846FFF7ABFE70BD70B50546AC1CFD2004
:101D500020700320607011480078E0720F4800780E
:101D6000401C0E49087028461AE00000430000207D
:101D70003D000020440000203E000020A80A002072
:101D80004800002000380140DA0A002068040020E2
:101D90004C000020C803002040000020420000202A
:101DA000FFF71DFE2073F82060732846FFF776FECC
:101DB00070BD70B50546AC1CFD202070042060701D
:101DC00028480078E07327480078401C25490870AF
:101DD0002846FFF704FE2074F82060742846FFF7B9
:101DE0005DFE70BD70B58AB004460026A07808B9C3
:101DF0000AB070BD6078022801D1A67908E0607849
:101E0000032801D1267A03E06078012800D1A67A60
:101E100000230522082102A80093FFF7B6FE0DF16A
:101E20000A05FD20287005206870AE706078E870A3
:101E3000002028710B48007868710A480078401C1F
:101E40000849087002A8FFF7CAFDA871F820E871D8
:101E500002A8FFF723FE2021204600F01EF800BF55
:101E6000C6E700004200002040EA01039B0703D0C0
:101E700009E008C9121F08C0042AFAD203E011F8C9
:101E8000013B00F8013B521EF9D27047D2B201E08B
:101E900000F8012B491EFBD270470022F6E710B56F
:101EA00004460846114602462046FFF7EFFF20464B
:101EB00010BD30B50B46014600202022012409E068
:101EC00021FA02F59D4205D303FA02F5491B04FAF3
:101ED00002F52844151EA2F10102F1DC30BD00001C
:101EE000064C074D06E0E06840F0010394E8070067
:101EF00098471034AC42F6D3FEF71EF9982000083C
:101F0000B82000080FB4054B10B503A9044A029885
:101F100000F018F810BC5DF814FB0000A7190008C9
:101F20005000002002E008C8121F08C1002AFAD1A0
:101F300070477047002001E001C1121F002AFBD149
:101F4000704700002DE9FF4F89B004469B460025ED
:101F500097E0252832D10027641C4E4AB84601215B
:101F60002378203B01FA03F0104202D00743641C9F
:101F7000F6E720782E2819D114F8010F47F004074E
:101F80002A280ED06FF02F022078A0F13001092905
:101F90000CD808EB880102EB410100EB0108641C3E
:101FA000F2E70A98641C50F8048B0A902078F0B38A
:101FB000642808D0692806D075281FD05A460B9986
:101FC00090476D1C5CE00A994FF00A0901C90A911B
:101FD000002804DAC0F100004FF02D0102E03905BD
:101FE00004D52B218DF82010012104E0F90701D040
:101FF0002021F7E700218A4608AE0CE00A994FF04D
:102000000A0901C90A91F5E74946FFF752FF01F1B4
:10201000300106F8011D0028F6D1ADEB060000F1F5
:102020002009780701D44FF00108002000E02CE0DF
:1020300041464A46C84500DD881A8046002706E02A
:1020400008A85A46C05D0B9990476D1C7F1C5745E8
:10205000F6DB04E030205A460B9990476D1CB8F12E
:102060000001A8F10108F5DC05E016F8010B5A465D
:102070000B9990476D1CB9F10001A9F10109F4DC3D
:10208000641C207800287FF464AF0DB02846BDE8BA
:10209000F08F000009280100B8200008000000208F
:1020A00054000000241F00080C21000854000020E8
:1020B00074120000341F00080000000000A24A044F
:1020C00000000000000000000102030406070809E8
:1020D00000000000010203040102030406070809CE
:1020E0000204060800000000000000009C0300201D
:1020F00000000000FF0000000000000000000000E1
:0C210000000000000000000000000000D3
:0400000508000131BD
:00000001FF
