:020000040800F2
:10000000B8180020DD2000084D0300084F03000849
:1000100053030008570300085B03000800000000BA
:100020000000000000000000000000005F03000866
:100030006103000800000000630300086503000876
:10004000F7200008F7200008F7200008F720000834
:10005000F7200008F7200008F7200008F720000824
:10006000F7200008F72000088F030008F720000899
:10007000F7200008F7200008F7200008F720000804
:10008000F7200008F7200008F7200008F7200008F4
:10009000F7200008F7200008F7200008990300085F
:1000A000F7200008F7200008F7200008F7200008D4
:1000B000F7200008670300087B030008F72000080A
:1000C000F7200008F7200008F7200008F7200008B4
:1000D000F7200008AD030008F7200008F72000080B
:1000E000F7200008F7200008F7200008F720000894
:1000F000F7200008F7200008F7200008F720000884
:10010000F7200008F7200008F7200008F720000873
:10011000DD030008F7200008F7200008F72000089A
:10012000F7200008F7200008F7200008F720000853
:10013000DFF80CD004F0D8FE00480047E5010008C5
:10014000B818002010B56E480078C0436C4908709C
:10015000084602784FF480616A4800F058FB68480E
:1001600002780421684800F052FB10BD70B5674961
:100170000968D1F8C400664904F0E6FA054604F0BF
:10018000FDFC04B261480068234614220121D0F826
:10019000D4505E480068A8475E490968D1F8C40099
:1001A0005B4904F0D1FA054604F0E8FC04B2594872
:1001B0000068234614220221D0F8D4505548006824
:1001C000A84752490968D1F8C400514904F0BCFA63
:1001D000064604F01FFD044602460B464EA004F0FE
:1001E000C3FE70BD0EB502F0C3FA02F09AFD02F034
:1001F0007AFF03F06EF902F064F802F013F904F0EC
:100200008AF948A004F0B0FEC8230022114601A8D4
:1002100002F067F901230093454B0120DDE901124B
:1002200002F0F7FA00234FF4FA72194601A802F01F
:1002300058F900230093AFF2F3030220DDE9011225
:1002400002F0E7FA3B49087000230522194601A88D
:1002500002F047F900230093374B0320DDE9011238
:1002600002F0D7FA00233222194601A802F039F928
:1002700000230093314B0420DDE9011202F0C9FA9A
:1002800000231922194601A802F02BF9002300933C
:100290002B4B0620DDE9011202F0BBFA00231922E4
:1002A000194601A802F01DF900230093254B0720F1
:1002B000DDE9011202F0ADFA00231922194601A866
:1002C00002F00FF9002300931F4B0820DDE9011213
:1002D00002F09FFA0D48006828220121D0F8D030A2
:1002E0000A48006898470B48006828220121D0F886
:1002F000D03008480068984701E002F02EFBFCE788
:1003000001000020000C01400014014068000020A2
:10031000000034436C00002073706565643A256604
:100320000D0A00006D61696E20646F6E650D0A0034
:10033000F32C000800000020C7310008D532000867
:10034000A7390008D53E000801400008704700BFEB
:10035000FEE700BFFEE700BFFEE700BFFEE7704715
:1003600070477047704710B5012028490968087622
:100370000121274801F010FE10BD10B501202549CC
:10038000096808760121244801F006FE10BD10B569
:10039000102001F092FE10BD10B5202001F07CFE6F
:1003A000012802D1202001F088FE10BD10B540F2D6
:1003B00025511A4800F05DFE78B12021174800F061
:1003C0004FFE164800F0D5FD0446204602F0EFFC33
:1003D00040F22551114800F076FE10BD10B5002402
:1003E00040F225510E4800F044FE68B10C4800F080
:1003F000C0FDC4B221460B48006802F04EFF40F237
:100400002551074800F05FFE10BD00006800002085
:10041000000400406C00002000080040003801404B
:10042000004C00405C00002000210020674A126858
:1004300042F48032654B1A6000BF644A126802F4CD
:100440000030491C10B9B1F5A06FF6D15F4A1268AF
:1004500012F4003F01D0012000E00020012842D129
:100460005B4A126842F01002594B1A601A46126831
:1004700022F003021A601A46126842F002021A6061
:10048000524A5268514B5A601A4652685A601A468C
:10049000526842F480625A601A46526822F47C1212
:1004A0005A601A46526842F4E8125A601A461268B4
:1004B00042F080721A6000BF444A126812F0007F56
:1004C000FAD0424A526822F00302404B5A601A4660
:1004D000526842F002025A6000BF3C4A526802F081
:1004E0000C02082AF9D1704710B5FFF79DFF10BD27
:1004F00010B53648006840F00100344908600846ED
:10050000406834490840314948600846006832492B
:1005100008402E4908600846006820F480200860E2
:100520000846406820F4FE0048604FF41F008860D1
:10053000FFF7DAFF4FF000602849086010BD10B5E2
:10054000002100200022214B5B6803F00C0121B147
:10055000042906D0082928D107E0214B214C23602B
:1005600027E01F4B1F4C236023E0184B5B6803F40C
:100570007010164B5B6803F48032022303EB90404B
:1005800022B9194B4343174C23600DE00F4B5B68B6
:1005900013F4003F04D0144B4343124C236003E098
:1005A0000F4B43430F4C236003E00D4B0D4C236076
:1005B00000BF00BF054B5B68C3F303130B4CE15C4A
:1005C000084B1B68CB40074C236010BD0010024055
:1005D000002002400000FFF8FFFFF6FE08ED00E0FB
:1005E00000127A000400002000093D0008000020ED
:1005F00010B50446CA48844208D10121042000F005
:1006000024FB0021042000F020FB46E0C548844282
:1006100008D10121082000F018FB0021082000F07B
:1006200014FB3AE0C048844208D10121102000F0B8
:100630000CFB0021102000F008FB2EE0BB48844298
:1006400008D10121202000F000FB0021202000F033
:10065000FCFA22E0B648844208D10121402000F093
:10066000F4FA0021402000F0F0FA16E0B14884428C
:1006700008D10121802000F0E8FA0021802000F05C
:10068000E4FA0AE0AC48844207D10121801500F069
:10069000DCFA0021A01500F0D8FA10BD10B5012138
:1006A000084600F0D2FA0021012000F0CEFA10BD79
:1006B0002DE9F041024600250026002000230024F9
:1006C000002791F803C00CF00F0591F803C01CF04F
:1006D000100F03D091F802C04CEA0505B1F800C034
:1006E0001CF0FF0F31D0146800202BE04FF0010CFC
:1006F0000CFA00F3B1F800C00CEA03069E4220D1C8
:1007000083004FF00F0C0CFA03F7BC4305FA03FC0F
:100710004CEA040491F803C0BCF1280F06D14FF055
:10072000010C0CFA00FCC2F814C00AE091F803C0F6
:10073000BCF1480F05D14FF0010C0CFA00FCC2F8D7
:1007400010C0401C0828D1D31460B1F800C0BCF11F
:10075000FF0F34DD546800202EE000F1080C4FF04C
:10076000010808FA0CF3B1F800C00CEA03069E4237
:1007700021D183004FF00F0C0CFA03F7BC4305FAAC
:1007800003FC4CEA040491F803C0BCF1280F05D126
:1007900000F1080C08FA0CF8C2F8148091F803C0B4
:1007A000BCF1480F07D100F1080C4FF0010808FA1E
:1007B0000CF8C2F81080401C0828CED35460BDE865
:1007C000F0814FF6FF710180022181700421C17018
:1007D00070470246002093680B4201D0012000E0E0
:1007E000002070470146886880B2704702460020AA
:1007F000D3680B4201D0012000E000207047014681
:10080000C86880B2704701617047416170470AB1A2
:10081000016100E041617047C16070474FF4803270
:100820000A438261816182618269826970470246FE
:100830000020424B18684FF68073184040EA0210BF
:1008400008433E4B186070473D49C8617047F0B59A
:100850000A46002300240021002500F00046B6F1DE
:10086000004F02D1354EF16901E0344E7168C0F39A
:10087000034583B200F44016B6F5401F08D121F0BD
:1008800070612E4E766826F070662C4F7E6012E006
:1008900000F48016B6F5801F06D1032606FA05F48B
:1008A000A14341F0706106E0460D360103FA06F6F9
:1008B000B14341F0706122B1460D360103FA06F6EC
:1008C000314300F00046B6F1004F02D11B4EF161FA
:1008D00001E01A4E7160F0BD30B500228B071C0F8D
:1008E0000F2303FA04F2154B08338C1053F824300D
:1008F0009343124C08348D1044F8253023468C1055
:1009000053F824308C07240F00FA04F423430B4CD3
:1009100008348D1044F8253030BD0A49086070470E
:1009200000080140000C014000100140001401408B
:1009300000180140001C014000200140000001405F
:1009400000002042DC002042DB48006840F001004B
:10095000D949086008464068D8490840D6494860E7
:1009600008460068D6490840D34908600846006830
:1009700020F4802008600846406820F4FE004860AB
:100980004FF41F0088607047CB49096821F480311B
:10099000C94A11601146096821F480211160B0F53F
:1009A000803F03D0B0F5802F0ED106E0C249096820
:1009B00041F48031C04A116007E0BF49096841F441
:1009C000A021BD4A116000E000BF00BF704710B514
:1009D00001460022002300204A11012A02D1B64C10
:1009E000236806E0022A02D1B34C236A01E0B24C2C
:1009F000636A01F01F02012494401C4201D00120CF
:100A000000E0002010BD70B500240025002600BFC6
:100A10003120FFF7DCFF0646641CB4F5A06F01D05F
:100A2000002EF5D03120FFF7D2FF08B1012500E0FC
:100A30000025284670BD014600209F4A106820F01E
:100A4000F80040EAC100106070479E490860704796
:100A500002460020984B586820F47C1042EA0103BB
:100A60001843954B58607047964908667047014691
:100A70000020914A506820F00300084350607047FE
:100A80008D48406800F00C007047014600208A4AFB
:100A9000506820F0F0000843506070470146002085
:100AA000854A506820F4E060084350607047014672
:100AB0000020814A506820F4605040EAC100506034
:100AC000704729B17C4A527A02437B4B5A7206E046
:100AD000794A527AC343DBB21A40774B5A72704755
:100AE00079490860704701460020734A506820F435
:100AF00040400843506070470021744A11706E4AAC
:100B000082F82010012802D0042808D103E0012136
:100B10006E4A117004E005216C4A117000E000BFBC
:100B200000BF70476A49086070476349096A01431A
:100B3000614A1162704767490860704730B500210B
:100B40000022002400235C4D6D6805F00C0121B1EA
:100B5000042905D0082923D105E05F4D056022E076
:100B60005D4D05601FE0544D6D6805F47012524DE7
:100B70006D6805F48034022505EB92421CB9574D8F
:100B8000554305600BE04C4D6D6815F4003F03D0F4
:100B9000524D5543056002E04F4D5543056002E05C
:100BA0004D4D056000BF00BF434D6D6805F0F0017D
:100BB00009094B4D6B5C0568DD4045603E4D6D6835
:100BC00005F4E061090A464D6B5C4568DD408560CF
:100BD000394D6D6805F46051C90A414D6B5C45683B
:100BE000DD40C560344D6D6805F44041890B3D4DD5
:100BF0006B5CC568B5FBF3F5056130BD29B12E4AC4
:100C0000526902432C4B5A6104E02B4A52698243D9
:100C1000294B5A61704729B1274A92690243264BF2
:100C20009A6104E0244A92698243234B9A61704797
:100C300029B1214AD26902431F4BDA6104E01E4AFE
:100C4000D26982431C4BDA61704729B11A4AD268D3
:100C50000243194BDA6004E0174AD2688243164B0C
:100C6000DA60704729B1144A12690243124B1A61C3
:100C700004E0114A126982430F4B1A6170471A4906
:100C8000086070470F49C86470470B49C8717047C6
:100C90000948406A40F08070074948627047014641
:100CA0000020054A92680A4201D0012000E000209D
:100CB0007047014988727047001002400000FFF839
:100CC000FFFFF6FE00004242D800424220100240E0
:100CD000800442423C04424200127A0000093D0076
:100CE00018000020280000204004424210B50446AD
:100CF000FC48844209D101218803FFF7A6FF0021A7
:100D00004FF48040FFF7A1FF32E0F748844209D159
:100D100001214804FFF7A6FF00214FF40030FFF740
:100D2000A1FF25E0F148844209D101218804FFF7A1
:100D300099FF00214FF48020FFF794FF18E0EC4862
:100D4000844209D10121C804FFF78CFF00214FF430
:100D50000020FFF787FF0BE0E648844208D101211D
:100D60000805FFF77FFF00214FF48010FFF77AFF9F
:100D700010BD2DE9F04786B005460E460024A24678
:100D800000BFA1460027B08900B100BF2F462C8AC2
:100D90004CF6FF700440F08804432C82AC894EF678
:100DA000F3100440B0883189084371890843044333
:100DB000AC81AC8A4FF6FF400440B0890443AC825A
:100DC00001A8FFF7BBFEC748874202D1DDF810A09B
:100DD00001E0DDF80CA0A88910F4004F08D00AEB60
:100DE000CA0000EB0A1031684900B0FBF1F807E0D7
:100DF0000AEBCA0000EB0A1031688900B0FBF1F879
:100E00006420B8FBF0F004012009642101FB108983
:100E1000A88910F4004F08D0322000EBC900B0FBC5
:100E2000F1F000F00700044308E0322000EB091065
:100E30006421B0FBF1F000F00F0004432C8106B0F8
:100E4000BDE8F0874FF41651016000218180C18018
:100E500001810C21418100218181704710B502463A
:100E60000020108A4FF2FF0318400B884C88234360
:100E70008C882343CC8823431843108210BD002163
:100E8000018041808180C180704721B1828942F414
:100E90000052828104E082894DF6FF731A408281FC
:100EA0007047F0B503460024002600250020A1F578
:100EB00010676A3F00D100BF1846C1F3421401F029
:100EC0001F06012707FA06F5012C01D10C3004E0BA
:100ED000022C01D1103000E014301AB107682F4302
:100EE000076002E00768AF430760F0BD10B51AB1B4
:100EF000838A0B43838204E0838ACC43A4B22340D9
:100F0000838210BD028A4FF6F0731A400282028A71
:100F10000A430282704782894FF2FF731A4082812E
:100F200082890A438281704721B1828942F002029C
:100F3000828104E082894FF6FD731A4082817047F6
:100F4000028A4FF6DF731A400282028A0A43028243
:100F5000704721B1028A42F48042028204E0028A90
:100F60004BF6FF731A4002827047C1F30802828079
:100F7000704701468888C0F308007047818941F0B6
:100F8000010181817047028BD2B20283028B42EA57
:100F9000012202837047028B02F47F420283028B9C
:100FA0000A430283704721B1828A42F02002828282
:100FB00004E0828A4FF6DF731A408282704721B1C3
:100FC000828A42F01002828204E0828A4FF6EF7336
:100FD0001A408282704721B1828A42F008028282DE
:100FE00004E0828A4FF6F7731A408282704721B17B
:100FF000828942F40042828103E08289C2F30E02B8
:101000008281704721B1828A42F40062828204E0C8
:10101000828A4FF2FF731A4082827047828A4FF6AB
:10102000FB731A408282828A0A438282704721B10E
:10103000828A42F00202828204E0828A4FF6FD73C5
:101040001A408282704702460020B1F5007F00D12D
:1010500000BF13880B4201D0012000E00020704740
:1010600001F40072B2F5007F00D100BFCA430280D4
:10107000704770B502460024002300250020A1F52A
:1010800010666A3E00D100BFC1F3421501F01F0394
:10109000012606FA03F3012D02D19689334006E0BA
:1010A000022D02D1168A334001E0968A33400C1299
:1010B000012606FA04F41688344013B10CB101205D
:1010C00000E0002070BD10B500220023A1F51064DF
:1010D0006A3C00D100BF0A1201249440A3B2DC4351
:1010E000048010BD0038014000440040004800402A
:1010F000004C00400050004036490143364A116020
:10110000704770B5002100230F22C4784CB3324CD5
:10111000246804F4E064C4F5E0644FEA1421C1F1EA
:10112000040322FA01F2447804FA03F1847804EA11
:10113000020444EA01014FEA0111284C0678A15546
:10114000047804F01F054FF0010404FA05F4057853
:101150004FEA65154FF0E02606EB8505C5F800411E
:1011600009E0047804F01F050124AC401C4D06780A
:10117000761145F8264070BD1A4A0A4002431A4BC0
:101180001A60704741B1194A126842EA00024FF0F2
:10119000E023C3F8102D07E0144A126822EA000287
:1011A0004FF0E023C3F8102D7047042808D14FF00A
:1011B000E021096941F004014FF0E022116107E0EC
:1011C0004FF0E021096921F004014FF0E0221161A4
:1011D000704700000000FA050CED00E000E400E0BC
:1011E00080E100E080FFFF1F08ED00E010ED00E06F
:1011F00010B50446FF48844208D10121C014FFF70E
:1012000024FD0021E014FFF720FDC4E0B4F1804F7D
:1012100008D101210846FFF725FD00210120FFF735
:1012200021FDB8E0F448844208D101210220FFF7F3
:1012300019FD00210220FFF715FDACE0EF488442C4
:1012400008D101210420FFF70DFD00210420FFF744
:1012500009FDA0E0EA48844208D101210820FFF7F7
:1012600001FD00210820FFF7FDFC94E0E5488442E1
:1012700008D101211020FFF7F5FC00211020FFF715
:10128000F1FC88E0E048844208D101212020FFF7EA
:10129000E9FC00212020FFF7E5FC7CE0DB488442EC
:1012A00008D101214014FFF7D0FC00216014FFF7A2
:1012B000CCFC70E0D648844209D10121C804FFF774
:1012C000C4FC00214FF40020FFF7BFFC63E0D148CD
:1012D000844209D101210805FFF7B7FC00214FF432
:1012E0008010FFF7B2FC56E0CB48844209D10121BF
:1012F0004805FFF7AAFC00214FF40010FFF7A5FCFA
:1013000049E0C648844208D101214020FFF7AAFCE9
:1013100000214020FFF7A6FC3DE0C148844208D1EF
:1013200001218020FFF79EFC00218020FFF79AFC1E
:1013300031E0BC48844208D101218015FFF792FCBE
:101340000021A015FFF78EFC25E0B748844209D1A3
:1013500001210804FFF779FC00214FF48030FFF7EA
:1013600074FC18E0B148844209D101214804FFF718
:101370006CFC00214FF40030FFF767FC0BE0AC4839
:10138000844208D101218804FFF75FFC00214FF45B
:101390008020FFF75AFC10BD00220288954B98422E
:1013A0000ED09A4B98420BD0B0F1804F08D0924BA0
:1013B000984205D0914B984202D0914B984204D16B
:1013C0004FF68F731A404B881A438E4B984207D0C2
:1013D0008D4B984204D04FF6FF431A40CB881A43F6
:1013E00002808B8883850B880385824B98420BD0C3
:1013F000864B984208D08C4B984205D08B4B984234
:1014000002D08B4B984201D10B7A03860123838251
:10141000704770B5002400220023058C4FF6FE763D
:1014200035400584028C8388048B4FF68F752C40E1
:10143000B51E2C400D882C43751E2A400D892A4369
:101440004D882A436B4DA8420BD0704DA84208D05E
:10145000754DA84205D0754DA84202D0744DA842E2
:1014600013D14FF6F7752A404D892A434FF6FB7585
:101470002A408D882A434FF6FF652B404FF6FF55D3
:101480002B408D892B43CD892B4383800483CD88CA
:101490008586028470BD70B5002400220023058C6F
:1014A0004FF6EF7635400584028C8388048B48F62E
:1014B000FF752C404FF6FF452C400D882D0644EA61
:1014C00015444FF6DF752A400D892D0542EA154275
:1014D0004D882D0542EA1542464DA84202D04B4D9B
:1014E000A8421BD14FF67F752A404D892D0542EA4F
:1014F00015424FF6BF752A408D882D0542EA1542E8
:101500004FF6FF352B404FF2FF752B408D89AD0410
:1015100043EA1543CD89AD0443EA15438380048330
:10152000CD880587028470BD70B500240022002399
:10153000058C4FF6FF6635400584028C8388848BCA
:101540004FF68F752C404FF6FC752C400D882C43C0
:101550004FF6FF552A400D892D0642EA15424D8867
:101560002D0642EA1542234DA84202D0274DA8423B
:101570001BD14FF2FF752A404D892D0642EA1542D4
:101580004FF6FF352A408D882D0642EA15424EF669
:10159000FF752B404DF6FF752B408D892D0543EAD5
:1015A0001543CD892D0543EA154383808483CD8877
:1015B0008587028470BD70B5002200230024058C4D
:1015C0004EF6FF7635400584038C8488828B48F67E
:1015D000FF752A404FF6FF452A400D882D0642EA46
:1015E00015424DF6FF752B400D892D0743EA154333
:1015F0004D881FE0002C014000040040000800401E
:10160000000C004000100040001400400034014075
:10161000004C0140005001400054014000180040BF
:10162000001C0040002000400040014000440140F8
:10163000004801402D0743EA1543F94DA84202D066
:10164000F84DA84206D14BF6FF752C408D89AD05AB
:1016500044EA154484808283CD88A0F840500384F6
:1016600070BD828B4FF2FF331A408283828B0B0650
:1016700042EA134282837047F0B50C4615460022B9
:1016800000210026078C4EF6FF7C07EA0C07078432
:10169000828B018C27073E0C40F6FF473A402F060D
:1016A00042EA17421F0742EA1742DD4FB8420ED006
:1016B000DC4FB8420BD0B0F1804F08D0DA4FB842BF
:1016C00005D0DA4FB84202D0D94FB84206D14DF614
:1016D000FF77394046F48057394305E047F6FF5716
:1016E000394044F48057394382830184F0BD828BB2
:1016F0004FF6F3731A408283828B0A4382837047CA
:10170000F0B50C461546002200210026078C4FF646
:10171000FF6C07EA0C070784828B018C27063E0CBE
:101720004FF60C773A401F0545EA17473A43BC4F3E
:10173000B8420ED0BB4FB8420BD0B0F1804F08D0AA
:10174000B94FB84205D0B94FB84202D0B84FB842ED
:1017500006D14FF6FF57394046F48077394305E00C
:101760004FF2FF57394044F4807739438283018434
:10177000F0BD028B4FF2FF331A400283028B0B063F
:1017800042EA134202837047F0B50C461546002228
:1017900000210026078C4FF6EF7C07EA0C07078430
:1017A000028B018C27053E0C40F6FF473A401F078D
:1017B00042EA17422F0642EA1742994FB8420ED02A
:1017C000984FB8420BD0B0F1804F08D0964FB84236
:1017D00005D0964FB84202D0954FB84206D14FF689
:1017E000DF77394046F01007394305E04FF65F7761
:1017F000394044F01007394302830184F0BD028B65
:101800004FF6F3731A400283028B0A430283704738
:10181000F0B50C46154600220021068C4FF6FE77E7
:101820003E400684028B018C4FF60C7632401E053A
:1018300045EA164632437A4EB0420ED0794EB04257
:101840000BD0B0F1804F08D0774EB04205D0774E24
:10185000B04202D0764EB04206D14FF6FD7631400E
:1018600044F00106314305E04FF6F576314044F08F
:101870000106314302830184F0BD70B505460C4674
:10188000674885420ED0674885420BD0B5F1804F3E
:1018900008D06548854205D06448854202D0644836
:1018A000854200D100E000BF208850B92389A2887A
:1018B00061882846FFF7ACFFE1882846FFF79FFFC5
:1018C00025E0208804280AD12389A2886188284637
:1018D000FFF75AFFE1882846FFF74BFF17E0208803
:1018E00008280AD12389A28861882846FFF708FFC3
:1018F000E1882846FFF7FBFE09E02389A28861887A
:101900002846FFF7B9FEE1882846FFF7AAFE70BD1A
:101910002DE9F04105460C4600260127608808B9EC
:10192000022600E00026A088012801D1022700E05D
:1019300001272088A0B92389A28861882846FFF75B
:1019400067FFE1882846FFF75AFF23893A46314668
:101950002846FFF719FFE1882846FFF70AFF13E042
:101960002389A28861882846FFF70EFFE188284670
:10197000FFF7FFFE23893A4631462846FFF748FF26
:10198000E1882846FFF73BFFBDE8F0810A884B88D5
:101990001A438B881A43CB881A430B891A434B8905
:1019A0001A438B891A43A0F8442070474FF6FF7101
:1019B000818000210180C180418001727047002137
:1019C000018041808180C180018141818181C1810B
:1019D0007047002101804180012181800021C18068
:1019E000018170470021018041808180C180018197
:1019F00041818181704721B1028842F00102028059
:101A000004E002884FF6FE731A400280704789B1E5
:101A1000B0F8442042F40042A0F8442010E0000056
:101A2000002C014000340140000400400008004048
:101A3000000C0040B0F84420C2F30E02A0F844208D
:101A4000704710B51AB183890B43838104E0838901
:101A5000CC43A4B22340838110BD8182704741EA08
:101A60000203A0F84830704710B51AB183890B43C0
:101A7000838104E08389CC43A4B22340838110BDD9
:101A800001894FF6F8721140018170470A46002122
:101A900001894FF68F73194011430181704730B5AA
:101AA00004460D4629462046FFF7F0FF208940F006
:101AB0000700208130BD2DE9F04104460D46164651
:101AC0001F46602D06D13B46012231462046FFF7D6
:101AD0005BFE05E03B46012231462046FFF798FEBB
:101AE00029462046FFF7D2FF208940F007002081D9
:101AF000BDE8F08130B50C4600210189C9B21D0650
:101B000042EA154525432943018130BD2DE9F041C5
:101B100005460E4617469846002443463A46314647
:101B20002846FFF7E7FF2C894FF6F8710C4044F088
:101B300007044FF68F710C4044F070042C81BDE80F
:101B4000F081F0B504460D4616461F463B46324628
:101B500029462046FFF7CEFF208940F480402081AF
:101B6000F0BD0185828270470A46002101884FF648
:101B70008F731940114301807047F0B50C4615462C
:101B80001E460021002200230189028B038C4FF6A0
:101B9000F877394021434FF6FC473A4040F20117AD
:101BA0003A434FF6DD773B40370545EA17473B435D
:101BB000018102830384F0BD0A460021018B4FF6A8
:101BC0008F7319401143018370470A460021018B2E
:101BD00048F6FF731940130641EA13410183704729
:101BE0000A460021818B4FF68F7319401143818380
:101BF00070470A460021818B48F6FF73194013068F
:101C000041EA13418183704721B1028842F080028A
:101C1000028004E002884FF67F731A40028070470A
:101C200021B1828842F00402828004E082884FF66B
:101C3000FB731A408280704721B1828842F008020B
:101C4000828004E082884FF6F7731A4082807047E2
:101C500021B1828842F00102828004E082884FF63E
:101C6000FE731A40828070470A460021018B4FF6AE
:101C7000F77319401143018370470A460021018B15
:101C80004FF2FF731940130641EA13410183704775
:101C90000A460021818B4FF6F77319401143818367
:101CA00070470A460021818B4FF2FF7319401306DB
:101CB00041EA1341818370470A460021018B4FF6A8
:101CC000FB7319401143018370470A460021018BC1
:101CD0004FF6FF331940130641EA13410183704761
:101CE0000A460021818B4FF6FB7319401143818313
:101CF00070470A460021818B4FF6FF3319401306C7
:101D000041EA1341818370470A460021018B4FF657
:101D10007F7319401143018370470A460021018BEC
:101D2000C1F30E01130641EA1341018370470A46CD
:101D30000021818B4FF67F731940114381837047D7
:101D40000A460021818BC1F30E01130641EA1341BB
:101D5000818370470A460021018C4FF6FD731940BC
:101D60001143018470470A460021018C4FF6F77336
:101D700019401143018470470A460021018C4FF637
:101D8000DF731940130541EA1341018470470A4685
:101D90000021018C4FF67F731940130541EA13416E
:101DA000018470470A460021018C4FF6FF53194009
:101DB000130641EA1341018470470A460021018C51
:101DC0004FF2FF731940130641EA13410184704733
:101DD0000A460021018C4DF6FF731940130741EAB2
:101DE00013410184704730B5002301248C40A3B215
:101DF000048CDD43ADB22C400484048C02FA01F55E
:101E0000ADB22C43048430BD30B5002304248C4093
:101E1000A3B2048CDD43ADB22C400484048C02FADE
:101E200001F5ADB22C43048430BD70B503460020EB
:101E300000241846183001258D40ACB21D8CE643B5
:101E4000B6B235401D8409B1082909D100EB610003
:101E5000056825F0700505600568154305600CE010
:101E60000D1FADB200EB6500056825F4E045056087
:101E70000568160645EA1645056070BD21B1028861
:101E800042F00202028004E002884FF6FD731A401D
:101E90000280704721B1028842F00402028004E00F
:101EA00002884FF6FB731A400280704721B1828886
:101EB00042F08002828004E082884FF67F731A40ED
:101EC0008280704702884FF6F7731A4002800288BA
:101ED0000A430280704782884FF68F731A408280CF
:101EE00082880A438280704702894FF6F8731A404D
:101EF000028102890A430281704702894FF67F738B
:101F00001A40028102890A43028170478184704726
:101F10008185704781867047018770478187704748
:101F2000A0F84010704702884FF6FF431A40028025
:101F300002880A43028070470146888E7047014636
:101F4000088F70470146888F70470146B1F84000FE
:101F500070470146888C70470146088D70470246DD
:101F60000020138A0B4201D0012000E000207047BE
:101F7000CA430282704730B5024600200023002485
:101F8000158A05EA0103958905EA010413B10CB12C
:101F9000012000E0002030BDCA43028270470000EB
:101FA0000020474908604749C1F8040446490860D1
:101FB00001F1040108604548454908607047002167
:101FC0003F498279DAB33F4AD2F8002403689A4342
:101FD0003C4BC3F800241A46D2F8042403689A4301
:101FE00001F104031A60027911440A68036842EAA5
:101FF00003020A60334AD2F80824036822EA030283
:10200000304BC3F808241A46D2F80C24036822EA9D
:102010000302304B1A604279102A11D1294AD2F8B2
:10202000082403681A43274BC3F808241A46D2F839
:102030000C2403681A43234BC3F80C240EE007E07A
:102040001F49427911440A6803681A430A6005E08F
:10205000027911440A6803689A430A6070470021B4
:10206000016001710C2141710021817170471A4991
:10207000096841EA0001134AC2F81014704701468A
:102080000020134A12680A4201D0012000E000201B
:1020900070470F4908607047014600200022084B36
:1020A0001B6803EA0102074BD3F814340B4202D039
:1020B0000AB1012000E00020704705490860704720
:1020C000000401400000014008040140FFFF0F0030
:1020D000140401400C0401401004014006488047EC
:1020E00006480047FEE7FEE7FEE7FEE7FEE7FEE7FD
:1020F000FEE7FEE7FEE7FEE7F10400083101000815
:1021000008B50420ADF8000010208DF8030003206E
:102110008DF8020069469648FEF7CAFA01F04BFCBA
:1021200002F0D3F908BD704700B585B001218803DE
:10213000FEF771FD0121C804FEF77AFD4FF400702F
:10214000ADF8100003208DF8120018208DF8130050
:1021500004A98848FEF7ACFA4FF48060ADF810008F
:1021600004208DF8130004A98248FEF7A1FA4FF469
:102170008060ADF8100003208DF8120018208DF853
:10218000130004A97C48FEF793FA4FF40060ADF801
:10219000100004208DF8130004A97748FEF788FA90
:1021A0007648FEF7A3FD4FF4E13000900020ADF833
:1021B0000400ADF80600ADF80800ADF80C000C20E6
:1021C000ADF80A0069466D48FEF7D3FD6C48FEF78E
:1021D0008DFD4FF41650009069466948FEF7C9FD21
:1021E00040F225516548FEF76EFF40F225516448E4
:1021F000FEF769FF012240F225516048FEF751FECB
:10220000012240F225515E48FEF74BFE01215B485A
:10221000FEF73BFE01215A48FEF737FE05B000BD30
:1022200010B558A002F0A0FE10BD10B55CA002F0E1
:102230009BFE10BD10B500F071FF01F0D9FB10BD81
:1022400008B54FF44070FEF757FF1D208DF80000D1
:1022500000208DF8010001208DF803006846FEF78C
:1022600050FF1E208DF8000001208DF801008DF830
:1022700003006846FEF745FF25208DF80000022088
:102280008DF8010001208DF803006846FEF739FF44
:1022900034208DF8000003208DF8010001208DF816
:1022A00003006846FEF72DFF27208DF8000004206C
:1022B0008DF8010001208DF803006846FEF721FF2C
:1022C00008BD10B5FEF740FB4FF48030FEF75CFB15
:1022D000FEF799FB044600BF002CFDD00020FEF75E
:1022E000D4FB0020FEF7DAFB0020FEF7E0FB4FF402
:1022F000E0114FF48030FEF7ABFB0120FEF7B4FB9A
:1023000000BF3920FEF763FB0028FAD00220FEF759
:10231000AEFB00BFFEF7B4FB0828FBD10020FEF7A0
:1023200094FB01210420FEF776FC01210820FEF732
:1023300072FC01211020FEF76EFC01212020FEF727
:102340006AFC01214020FEF766FC01210846FEF7E9
:1023500062FCFFF775FFFFF7D3FEFFF7E4FEFFF720
:10236000E3FEFFF75DFFFFF760FFFFF763FF10BDC0
:1023700000140140000801400010014000380140F5
:10238000004C0040455854495F436F6E666967755D
:10239000726174696F6E20444F4E45210D0A000032
:1023A0005350495F436F6E66696775726174696FF8
:1023B0006E20444F4E45210D0A0000000020FF49C9
:1023C0000968C908FE4AB1FBF2F14FF0E0229269B8
:1023D000B2FBF1F1FA4A501A511088420CDAF9496D
:1023E000097849B10021F74A1170F7490968F44AA0
:1023F0001144F54A116008E0F449884205DDF149CD
:10240000097811B90121EF4A1170EF4909680144B7
:10241000EF4A914202DB0021EB4A1160EA49096868
:102420000844704710B5E5490968C808B0F1807FD5
:1024300000D31CE020F07F41491E4FF0E0225161A3
:1024400000BF5117002905DA0F210901E14A0B23CA
:10245000D15404E00F210901DF4A5317D15400BFC2
:1024600000214FF0E02291610721116100BF6FF060
:102470000400FEF79AFE10BD1CB5D14A91FBF2F2A2
:1024800012B2ADF80020CE4A91FBF2F302FB131218
:102490004FF47A7392FBF3F212B2ADF80220C84AFD
:1024A00091FBF2F302FB13124FF47A7392FBF3F4F5
:1024B00003FB142212B2ADF80420009A0260BDF8AA
:1024C000042082801CBD30B50446FFF777FF054627
:1024D00001462046FFF7D0FF30BD00B5FFF76EFF85
:1024E00000BD1CB50024009401943B2905DCB2F525
:1024F0007A7F02DAB3F57A7F05DB009C0460BDF8D1
:10250000044084801CBD0CB2ADF8004014B2ADF89C
:1025100002401CB2ADF80440009C0460BDF80440C9
:10252000848000BFEEE71CB50B8814881B1B1BB210
:10253000ADF800304B8854881B1B1BB2ADF802303D
:102540008B8894881B1B1BB2ADF80430BDF9043096
:10255000002B0CDABDF802305B1E1BB2ADF8023066
:10256000BDF8043003F57A731BB2ADF80430BDF941
:102570000230002B0CDABDF800305B1E1BB2ADF848
:102580000030BDF8023003F57A731BB2ADF80230AB
:10259000BDF90030002B05DABDF800303C331BB22A
:1025A000ADF80030009B0360BDF8043083801CBD93
:1025B00002468A4203DA501A854B18447047501A73
:1025C000FCE70146B1F900007D4A5043B1F9022011
:1025D00002EB4203C3EBC21200EBC200B1F90420CC
:1025E0001044704730B50446FFF7E8FE054600BFCB
:1025F000FFF7E4FE431B002B01DA75480344A342B6
:10260000F6D330BD30B503464FF47A704343FFF73D
:10261000D5FE054600BFFFF7D1FE441B002C01DAB2
:102620006B4804449C42F6D330BD30B503466B483A
:10263000834200DD30BD62484343FFF7BFFE0446DE
:1026400000BFFFF7BBFE051B002D01DA6048054403
:102650009D42F6DB00BFEDE703B5BDF900003B2866
:1026600009DCBDF90200B0F57A7F04DABDF9040097
:10267000B0F57A7F00DB0CBDBDF90000FFF7D5FF98
:10268000BDF90200FFF7BEFFBDF90400FFF7AAFF86
:1026900000BFF0E730B503460C4615460022002186
:1026A00000BF09E04E4800EB0210807B10B94C4897
:1026B00000EB0211501CC2B20A2AF3DB09B9002058
:1026C00030BD012088730C71CD8000208881488145
:1026D00008810B600846F3E770B504460D46A089F3
:1026E000E188884202D14FF0FF3070BD23892679FE
:1026F000216803FB06103246294601F0A8FF208915
:10270000401C80B2E18890FBF1F201FB12002081B5
:10271000A089401CA0810020E7E770B504460D4663
:10272000A08910B94FF0FF3070BD63892679206809
:1027300003FB06013246284601F089FF6089401CF0
:1027400080B2E18890FBF1F201FB12006081A08968
:10275000401EA0810020E7E70146888970470146B6
:10276000C8888A89801A80B27047002181737047B7
:10277000002000211B4A1268916200BF46E0FF2141
:1027800000EB400202EBC002174B03F822100021BD
:1027900000EB400202EBC00203EB8202516200EB4D
:1027A000400202EBC00203EB8202516000EB4002E8
:1027B00002EBC00203EB8202116117E0040000206B
:1027C00040420F00300000202C00002020A1070014
:1027D0000087930318ED00E000E400E0C0448403A8
:1027E00078030020340000201804002000EB400291
:1027F00002EBC00203EB8202516100EB400202EBEC
:10280000C00203EB82029162411CC8B20F28B6DB02
:1028100070472DE9FF4780469946DDF830A0002536
:1028200000BF33E005EB450000EBC500A94901EB13
:10283000800090F90000401C26D105EB450000EB1C
:10284000C50001EB800468B2207084F8018084F830
:1028500002A001A8FFF7B5FE6060FFF7AFFDE060E2
:10286000C4F8249000206083A083A062FFF7A6FD37
:10287000206199480078401C974908700846007804
:10288000C0F10F00487003E0681CC5B20F2DC9DB12
:1028900000BF0F2D04D14FF0FF3004B0BDE8F0872A
:1028A0008E480068806AD8B968B205EB450101EB33
:1028B000C501884A02F82100002005EB450101EB23
:1028C000C50102EB8101886205EB450000EBC50004
:1028D000114601EB80008149096888620020DCE72D
:1028E0007E4807680068866A00BF60687168884231
:1028F00002DDA662BC6209E0B06A18B9B4620020C9
:10290000A06203E03746B66A002EEED100BF94F90C
:102910000000C2E710B50246704803680068816A8B
:1029200000BF91F90000904211D1886A9862FF209F
:1029300008700020486268480078401E664C20708D
:1029400020460078C0F10F006070002010BD0B46DB
:10295000896A0029E5D1481EF8E72DE9F0415F4872
:102960000068846A00260025002745E0FFF726FD61
:1029700005462846E168FFF71BFE0646206A28B197
:10298000206AB04237DC0020206234E06068B04248
:1029900031DC17B9504845600127A07808B9E560D7
:1029A00004E0A078012801D1A068E060FFF706FDEF
:1029B0002061606A08B1606A8047FFF7FFFC6061D0
:1029C000D4E90410401A20836168E068084444494F
:1029D00090FBF1F201FB1200A060FFF7EFFCA16891
:1029E000884201DD012000E00020618B0844608303
:1029F000A08B401CA083A46A002CB7D18FB1FFF735
:102A0000DDFC354988600A4651689068FFF7D0FDC3
:102A10003149C86008460069C96808442E49086100
:102A20000027BDE8F0812DE9F04105460E46174626
:102A300017B90020BDE8F08105EB450000EBC500AB
:102A4000244901EB8004206A00B92662FFF785FF64
:102A5000206A08B90020EDE70120EBE77CB51F48AC
:102A600004680EE0638BA28BCDE90023238B94F9DD
:102A700001101CA0626802F077FA00206083A08336
:102A8000A46A002CEED1FFF799FC054623480168A3
:102A90002846FFF78DFD214908600F480069642131
:102AA00048431E49096890FBF1F01C490860FFF794
:102AB00085FC05460848037818482946026818A08E
:102AC00002F052FAFFF77AFC14490860002002492C
:102AD00008617CBD18040020AC06002034000020F2
:102AE00000879303B1E0BAC53A256409BCE4B8F4A1
:102AF0003A256409B5A5B4CECAB1BCE43A25640947
:102B0000D4CBD0D0B4CECAFD3A256409B3ACCAB197
:102B1000B4CECAFD3A2564090D0A00003800002031
:102B2000B5B1C7B0CAB1BCE4A3BA25647573A3AC90
:102B3000435055CAB9D3C3C2CAA3BA256425252CAC
:102B4000C8CECEF1CAFDC1BFA3BA2564200D0A0DBF
:102B50000A0D0A0D0A0D0A0000200021FA4A117020
:102B6000FA4A1170FA4A1170FA4A117000BF04E073
:102B70000021F94A1154411CC8B23228F8DB7047D1
:102B80000146FD2903D0F82901D0FE2901D10120F9
:102B900070470020FCE713B50C466946EF48006813
:102BA000FFF79AFD00981CBD0146F82907D0FD29C2
:102BB00002D0FE2909D105E04FF67D6070474FF63F
:102BC0007860FBE74FF67E60F8E70846F6E70146D7
:102BD00000220023012205E0881C805C184483B297
:102BE000501CC2B291F90000801E9042F4DCD8B2B1
:102BF00070472DE9F04105460024AF1C00BF3EE0C0
:102C0000012C2BDD95F90000401EA04226DD385D29
:102C1000FFF7B6FF10B3385DFFF7C6FF064600BFEB
:102C20004021CF48FEF70FFA0028F9D04021CC48C8
:102C3000FEF716FA3112CA48FEF797F900BF402195
:102C4000C748FEF700FA0028F9D04021C448FEF733
:102C500007FAF1B2C248FEF788F90EE000BF402142
:102C6000BF48FEF7F0F90028F9D04021BC48FEF734
:102C7000F7F9395DBA48FEF778F9601CC4B295F9E6
:102C80000000A042BCDC0020BDE8F0812DE9FC4141
:102C900005460024AF1C00BF24E0012C1BDD95F984
:102CA0000000401EA04216DD385DFFF769FF90B1BD
:102CB000385DFFF779FF064630120190F0B20090C0
:102CC00001A9A6480068FFF707FD6946A348006808
:102CD000FFF702FD04E03919A0480068FFF7FCFC8B
:102CE000601CC4B295F90000A042D6DC0020BDE80B
:102CF000FC8108B5694699480068FFF70EFD78B970
:102D000000BF40219648FEF79EF90028F9D04021E7
:102D10009348FEF7A5F9009881B29148FEF725F98E
:102D200008BD10B54FF47A7201218E48FFF7B2FC4E
:102D30008A49086032221C218B48FFF7ABFC8B4983
:102D40000860FFF709FF8A4C0B202070012060709B
:102D5000884860618848A0611C340620207060703B
:102D6000864860618648A0611C340F2020700420D2
:102D70006070844860618448A06110BD2DE9F04115
:102D800088B007460C4615461E46DDF838808DF89B
:102D9000044068B28DF805000696CDF81C801C2210
:102DA00001A9384601F053FC08B0BDE8F0812DE9D7
:102DB000F0410546002400270026FD2D0CD1624875
:102DC000007818B9FD20604908700BE0FFF7C4FED9
:102DD000FD205D49087005E05B48007810B90020CF
:102DE000BDE8F081FE2D02D059480078C8B158489E
:102DF000007888B1782D06D07D2D02D07E2D06D1A9
:102E000003E0FD2503E0F82501E0FE2500BF00BF3B
:102E100000204F49087009E001204D49087000204A
:102E2000DEE7F82D02D101204A490870474890F9A1
:102E300000200078401C40B2444B1870464885542E
:102E400044480078C8B3012400205049088008E0B5
:102E50004148005D4D49098808444C490880601C80
:102E6000C4B23A4890F90000801EA042F0DC3A4F0C
:102E70007F1C00241CE03878C4EBC4013C4A02EB00
:102E8000810191F90110884210D1C4EBC4001146B0
:102E900001EB800090F900002C4991F90010884264
:102EA00004D1C4EBC400114601EB8006601CC4B21F
:102EB000032CE0DB16B9FFF74FFE0CE096F900207B
:102EC0002549B01C01F0C3FB314628480068FFF7D4
:102ED00003FCFFF741FE002082E730B589B00546CC
:102EE000002302220521009302A8FFF747FF0DF1FE
:102EF0000A04FD2020700220607025480078A07030
:102F000023480078401C2249087002A8FFF75FFEA2
:102F1000E070F820207102A8FFF7B8FE09B030BDBC
:102F200070B50546AC1C1A480078607318480078E4
:102F3000401C174908702846FFF749FE20742846B0
:102F4000FFF7A4FE70BD0000430000203D000020FC
:102F5000440000203E000020B80C00204800002063
:102F600000380140EA0C0020400700204C000020FF
:102F7000EC060020333D0008C53C00089D3E0008DB
:102F8000773E0008013E0008913D00084000002007
:102F90004200002070B50546AC1CFD2020700320C7
:102FA000607035480078E07233480078401C324940
:102FB00008702846FFF70BFE2073F8206073284640
:102FC000FFF764FE70BD70B50546AC1CFD20207097
:102FD0000420607028480078E07327480078401C7F
:102FE000254908702846FFF7F2FD2074F820607428
:102FF0002846FFF74BFE70BD70B588B0044600262A
:10300000A07808B908B070BD6078022801D1A6790F
:1030100008E06078032801D1267A03E0607801286F
:1030200000D1A67A00230522082101A80093FFF70A
:10303000A5FE0DF10605FD20287005206870AE7014
:103040006078E870002028710B48007868710A48A1
:103050000078401C0849087001A8FFF7B8FDA87166
:10306000F820E87101A8FFF711FE1C21204601F0AD
:1030700007FB00BFC6E70000420000202DE9F04733
:1030800004460D46284601F063FD8146A16801F023
:103090005BFB8046674901F0FFFA074601F087FDB8
:1030A00086B2A5812079012806D0022809D00328FC
:1030B0000CD0042814D10EE031462068FEF72AFF18
:1030C0000EE031462068FEF727FF09E03146206810
:1030D000FEF724FF04E031462068FEF721FF00BF21
:1030E00000BFBDE8F08754485449086003200871C8
:1030F00040F24650C88052488860AFF27F00C862F4
:103100004D48504908600420087140F24650C8807C
:103110004B488860AFF29B00C862704700B589B029
:1031200001210820FDF784FD0C20ADF820001820B7
:103130008DF8230003208DF8220008A94248FDF7EE
:10314000B7FA3D48FEF754F83B48FEF799FC44F6C1
:103150002060ADF818003D4800683D49B0FBF1F033
:1031600080B2ADF814000020ADF81A00ADF81600DA
:1031700005A93148FEF710F96020ADF804000120E0
:10318000ADF806000020ADF80C0044F62060ADF864
:103190000A0001A92848FEF7C7F908212648FEF7CA
:1031A00077FD01A92448FEF706FA08212248FEF718
:1031B00078FD01212048FEF727FD01211E48FEF77A
:1031C0001AFC09B000BD10B522480068007802283A
:1031D00000D110BD20480068C26A204801781E480E
:1031E000006890471E480068C26A1C4801781C4865
:1031F00000689047194800788C2803D101201949AC
:10320000087006E015480078282802D100201549EA
:1032100008701448007828B110480078401E0F4903
:10322000087004E00D480078401C0C49087000BF8D
:10323000CFE700000000AF43000C0040D410002096
:103240001CC7B14004110020000801400400002008
:1032500040420F005C000020500000205800002079
:10326000540000205900002070B504460D46552D2D
:1032700002D1002060802071657100BF40213E486E
:10328000FDF7E1FE0028F9D029463B48FDF76DFE29
:1032900040213948FDF7E4FE70BD4279502A03D140
:1032A000A1F12D02427014E04279552A11D1027920
:1032B0003AB9418042881206120C42800122027102
:1032C00007E00279012A04D142880A43428002229F
:1032D0000271704708B5294800680079022837D183
:1032E000274909688989D1F15A0001D4014600E0D3
:1032F00041428231214A12685288914204DD022003
:103300001E49096808700EE01C4800684088B0F546
:10331000967F04DA012019490968087003E000204B
:1033200016490968087015480068438813480093D7
:10333000006843787F2213A1164801F025FE022180
:10334000012000F08AFF134A0021084601F02EF800
:103350001148007828B1502108480068FFF784FF21
:1033600004E0552105480068FFF77EFF0A48007811
:10337000C0430949087008BD004C00405C000020B3
:10338000500000204325633A25642C6D6D3A256476
:103390000D0A0000341100206000002010B5044622
:1033A000AC20015904F17800884704F14000616FB6
:1033B000884747F6FF70A4F8B000A4F8B20047F6BB
:1033C000FF71A068FEF7A2FD10BD70B504460D4662
:1033D00084F8CD5094F8CF0060B105F00102A18AC5
:1033E0002069FDF714FA05F00202E18A2069FDF771
:1033F0000EFA0BE005F00202A18A2069FDF707FA38
:1034000005F00102E18A2069FDF701FA94F8CD0088
:10341000F0B9207B012806D0022809D003280CD05F
:10342000042814D10EE000216068FEF773FD0EE061
:1034300000216068FEF770FD09E000216068FEF77A
:103440006DFD04E000216068FEF76AFD00BF00BF6B
:1034500070BD2DE9F04104460D4617461E46022078
:1034600084F8380029462046FFF7AFFF38B2A4F8A9
:10347000BE002046FFF792FF012D05D147F6FF70F1
:103480003044A4F8C00006E0022D04D147F6FF70D6
:10349000801BA4F8C000BDE8F08110B50446A06808
:1034A000FEF757FDA4F8B000B4F8B00010BD70B539
:1034B00004460E461546012084F838003146204661
:1034C000FFF783FF28B2A4F8BE002046FFF766FF8F
:1034D00070BD1CB5DC21F948006801F0D1F8DC2191
:1034E000F748006801F0CCF80020F449096808703A
:1034F000F448F249096888600005F04909684860A5
:103500000120EE4909680873EF48EC490968086131
:103510000120EA49096888820220E8490968C882CE
:10352000EA4B0122CDE9002300234207E849E348A2
:103530000068403000F0AAFBE64B0122CDE90023F1
:1035400000231A46E449DD480068783000F09EFB0D
:103550000120DB4909680870E048D949096888609A
:10356000C004D749096848600220D5490968087332
:10357000D548D349096808610420D149096888827F
:103580000820CF490968C8820120CD49096881F81F
:10359000CF00CE4B0122CDE9002300238207CC4986
:1035A000C7480068403000F071FBCA4B0122CDE9EA
:1035B000002300231A46C849C1480068783000F04B
:1035C00065FB47F6FF70BE490968A1F8B000BB492A
:1035D0000968A1F8B000BA490968A1F8B200B74972
:1035E0000968A1F8B2004FF07E50B5490968C86378
:1035F000B2490968C863AFF24910B1490968C1F816
:10360000D000AE490968C1F8D000AFF27110AC49E2
:103610000968C1F8D800A9490968C1F8D800AFF213
:10362000CD10A7490968C1F8D400A4490968C1F8B8
:10363000D400AB48A2490968C1F8C4009F49096891
:10364000C1F8C4001CBD2DE9F04104460E4604F14A
:103650007805207858B999480068B0F8B0009849C2
:103660000968B1F8B010401AC4F8B8000DE020782D
:1036700001280AD192480068B0F8B0008F49096863
:10368000B1F8B010401AC4F8B800D4F8B80001F08E
:1036900056FA07463246014628462B6B984794F85F
:1036A000CC00012802D1686A68620AE094F8CC0074
:1036B000022804D1686A80F00040686201E00020BE
:1036C0006862686ABDE8F0812DE9F04105460E4662
:1036D00005F14004D5F8B40001F031FA074632464E
:1036E00001462046236B98477E49606A01F0B2FA92
:1036F00002D27C48606206E00021606A01F0A0FA14
:1037000001D200206062606ABDE8F0812DE9FF5FB0
:1037100082460020039002909AF8CD0008B9BDE8D7
:10372000FF9F5046DAF8D81088479AF81800F0B191
:1037300000208AF81800BAF8B200B0F5004F0ADB92
:10374000BAF8B2004FF6FF71081ABAF8B010084480
:10375000CAF8B40012E0BAF8B0004FF6FF71081AC8
:10376000BAF8B21008444042CAF8B40006E0BAF809
:10377000B000BAF8B210401ACAF8B400BAF8B000F3
:10378000AAF8B200DAF8B400002803DD01208AF8B4
:10379000CC000FE0DAF8B400002808DA02208AF83A
:1037A000CC00DAF8B4004042CAF8B40002E00020CD
:1037B0008AF8CC009AF83800012822D13F480068E6
:1037C00090F8CD003E49096891F8CD10884204D1A7
:1037D00000215046FFF737FF0390BAF9BE0001F011
:1037E000AEF90646DAF83C1000F0AEFF0546039944
:1037F00000F052FF044601465046FFF765FF029075
:103800009DE09AF83800022856D1BAF8C010BAF8EC
:10381000B020881A01D4014600E04142B1F5FA7F98
:103820002BDABAF9BE0001F098F9CDE90001BAF837
:10383000C000BAF8B010B0EB010B01D4594601E05A
:10384000CBF10001084601F088F904460022264B1E
:1038500001F006F98046DDE9002301F090F8064604
:1038600001F0B9F900B2AAF8BC00BAF9BC000A2804
:1038700007DA0A20AAF8BC0003E0BAF8BE00AAF8EA
:10388000BC00BAF8C00047F6FF71884238DABAF8CF
:10389000C000BAF8B010884228DABAF9BC0001F0CA
:1038A0004EF90546DAF83C1000F04EFF044601469A
:1038B0005046FFF709FF029041E000006800002039
:1038C0006C000020000400400010014000007A4419
:1038D000000034420000C842CDCC4C3E00080040FD
:1038E0005555054100C0794400407F4000221146F3
:1038F0005046DAF8D030984700208AF838001EE0A9
:10390000BAF8C000BAF8B01088420FDDBAF9BC00AE
:1039100001F015F90546DAF83C1000F015FF0446F1
:1039200001465046FFF7D0FE029008E00022114603
:103930005046DAF8D030984700208AF838000298CC
:1039400001F01CF900B2AAF8CA009AF80C0001288C
:1039500006D002280CD0032812D0042820D117E06A
:10396000BAF8CA2091B2DAF80400FEF7D3FA17E0E9
:10397000BAF8CA2091B2DAF80400FEF7CDFA0FE0E7
:10398000BAF8CA2091B2DAF80400FEF7C7FA07E0E5
:10399000BAF8CA2091B2DAF80400FEF7C1FA00BF03
:1039A00000BF00BFBBE610B57948FFF7AFFE79480E
:1039B000FFF7ACFE10BD08B577480068808A7649ED
:1039C0000968C98A084375490968898A084373499F
:1039D0000968C98A0843ADF8000010208DF803007B
:1039E00001208DF8020069466D48FCF761FE08BDB4
:1039F00000B58BB001210846FDF71AF90320ADF898
:103A0000280018208DF82B0003208DF82A000AA921
:103A10006448FCF74DFE4FF08040FDF7E9FB4FF0A6
:103A20008040FEF72DF84FF47A70ADF82000482062
:103A3000ADF81C000020ADF82200ADF81E0007A96B
:103A40004FF08040FDF7A8FC6020ADF80C0001208D
:103A5000ADF80E000020ADF814004FF47A70ADF808
:103A6000120003A9C006FDF7D4FC0821C806FEF722
:103A7000FBF84FF47A70ADF8120003A9C006FDF709
:103A80000AFD0821C806FEF7F8F801218807FEF7AD
:103A9000BBF801218807FDF7AEFF01210620FDF7E5
:103AA000C7F8C020ADF8280004208DF82B000320B3
:103AB0008DF82A000AA93B48FCF7FAFD0AA93A4802
:103AC000FCF7F6FD3948FDF793FB3948FDF790FB0D
:103AD0004FF6FF70ADF820000020ADF81C00ADF8E7
:103AE0002200ADF81E0007A93048FDF755FC07A9D4
:103AF0002F48FDF751FC00231A4603212B48FEF7FF
:103B00003CF800231A4603212948FEF736F8684698
:103B1000FDF75FFF0320ADF8080069462348FDF775
:103B2000ACFE69462248FDF7A8FE01211F48FEF7BA
:103B30006BF801211E48FEF767F801211B48FEF7CC
:103B40002BFA01211A48FEF727FA012211461748DD
:103B5000FDF777FF012211461548FDF772FF01219D
:103B60001248FDF748FF01211148FDF744FF0A49BB
:103B70000968886847F6FF71FEF7C8F907490968C0
:103B8000886847F6FF71FEF7C1F90BB000BD000071
:103B90004411002020120020680000206C0000204A
:103BA0000010014000080140000C014000040040EA
:103BB000000800402DE9F04704460D461646002750
:103BC00026606560D4E9000100F0B8FDA060A1683E
:103BD000E06900F061FDE061D4E9020100F0AEFDB2
:103BE0008246A16900F0B0FD8046A168206900F01E
:103BF000ABFD8146414600F04FFD0746E169606933
:103C000000F0A2FD8046394600F046FD6062A068E3
:103C1000E06094F82C0088B3D4E9090101F01AF8A7
:103C200007D3A06A80F000484046616A01F012F8AC
:103C300025D20021606901F003F808D03946A06A56
:103C400000F07CFD8046616900F0B4FDE061D4E9DC
:103C5000090100F0FFFF02D2A06A60620BE0A06AD7
:103C600080F000484046616A00F0F4FF03D2A06A89
:103C700080F000406062A06ABDE8F087FFE7606AFC
:103C8000FAE70021C160C161816070472DE9F0470A
:103C900004460D4616461F46DDE9088938212046B0
:103CA00000F0EEFC25616661A761AFF2F7002063CA
:103CB000AFF23100606384F82C80C4F82890BDE82E
:103CC000F08700007CB50546AC1C94F90200012881
:103CD00003DB94F90200032807DD94F902108AA09F
:103CE00001F042F94FF0FF307CBD94F90500002847
:103CF00003DB94F90500032807DD94F9051088A07B
:103D000001F032F96FF00100EEE7237AE079A17952
:103D100040EA0122CDE900232079E67840EA062234
:103D200094F9053094F9021083A001F01DF90020E8
:103D3000DAE770B50546AC1C8FA001F015F9934881
:103D4000006800F11C061C222946304600F07FFC6A
:103D50001C2231468E4800681C3000F078FC207927
:103D6000E67840EA0622A17889480068D0F8D03089
:103D7000874800689847E079A67940EA0622617989
:103D800082480068D0F8D03080480068984770BDFD
:103D90007FB50546AC1CA078012802DBA07803287B
:103DA00007DDA17858A001F0DFF84FF0FF3004B034
:103DB00070BDE079012802DBE079032806DD617936
:103DC00057A001F0D1F86FF00100F0E7237BE07A13
:103DD000A17A40EA0122607A217A40EA0121E07961
:103DE0008DE80F00A079667940EA06232079E6780D
:103DF00040EA0622A178674801F0B6F80020D6E72D
:103E00002DE9F0410546AC1C63A001F0ADF85F4818
:103E1000006800F11C061C222946304600F017FC01
:103E20001C2231465A4800681C3000F010FCA07972
:103E3000677940EA072003B22079E77840EA072251
:103E4000A17853480068D0F8D46051480068B04762
:103E5000E07AA77A40EA072003B2607A277A40EA3C
:103E60000722E17949480068D0F8D46047480068E3
:103E7000B047BDE8F08170B50546AC1CA078B42809
:103E800006DDA1784BA001F06FF84FF0FF3070BD58
:103E9000A1784EA001F068F80020F8E770B504465C
:103EA000A51C4FA001F060F81C222146384800688C
:103EB0001C3000F0CCFBA9784E480068C26A4D481F
:103EC00000689047A9784C480068C26A4A48006870
:103ED000904770BD00B587B00BE0059820B16846EB
:103EE0000699884700B10BE0059810B1684605991E
:103EF0008847694641480068FEF70FFC0028ECD06F
:103F000000BF07B000BD0000D7F3C2D6B7BDCFF2E7
:103F1000B2CECAFDB3F6B4EDA3BA25640D0A000013
:103F2000D3D2C2D6B7BDCFF2B2CECAFDB3F6B4ED8E
:103F3000A3BA25640D0A00000D0A0D0A0D0AD7F375
:103F4000C2D6B7BDCFF2A3BA256420CBD9B6C8A3D9
:103F5000BA25640D0AD3D2C2D6B7BDCFF2A3BA2513
:103F60006420CBD9B6C8A3BA25640D0AD0F2BAC56D
:103F7000A3BA25640D0A00000D0AD6B4D0D0D4CB64
:103F8000B6AFD6B8C1EE0D0A000000006C000020EC
:103F900068000020585800080D0AD6B4D0D0CBAB2A
:103FA000C2D6D7D4B6A8D2E5C2EBCAFDC3FCC1EED7
:103FB0000D0A0000B6E6BBFABDC7B6C8B2CECAFD50
:103FC000B3F6B4EDA3BA25640D0A00000D0AB6E6F7
:103FD000BBFABDC7B6C8A3BA25640D0A000000002D
:103FE0000D0AD6B4D0D0B6E6BBFAD6B8C1EE0D0AEB
:103FF0000000000050000020540000204C00002071
:1040000070B5594890F9000010B101287ED184E0C4
:1040100056480068007802287ED15548006880899B
:104020005A283ADD524909688989C1F1B40000F083
:1040300086FD06464F480068D0F8C410304600F0B0
:1040400083FB054600F09AFD04B24A480068234607
:1040500014220121D0F8D45046480068A8474449AA
:1040600009688989C1F1B40000F069FD064642483B
:104070000068D0F8C410304600F066FB054600F03A
:104080007DFD04B23C480068234614220221D0F88A
:10409000D45039480068A84735E03549096888890F
:1040A00000F056FD064633480068D0F8C41030468C
:1040B00000F04AFB054600F061FD04B22D4800689F
:1040C000234614220221D0F8D4502A480068A84779
:1040D00027490968888900F03BFD064626480068A4
:1040E000D0F8C410304600F02FFB054600F046FD26
:1040F00004B221480068234614220121D0F8D4508C
:104100001D480068A8471848007801E02AE003E04D
:10411000401C40B21449087024E01648006890F82A
:104120003800F0B91448006890F83800C8B9002089
:104130000D4908700D4800680078022811D00D481C
:10414000006828220121D0F8D0300A48006898473A
:104150000948006828220121D0F8D03006480068BC
:10416000984700BF00BF70BD710000205C000020B8
:1041700050000020680000206C00002070B504464C
:104180000E4626B14021FF48FCF73DFB03E04021ED
:10419000FC48FCF73AFB4FF48051FB48FCF735FB39
:1041A00000251BE04FF40051F748FCF72EFB14F0FC
:1041B000800F05D04FF40041F348FCF724FB04E0E6
:1041C0004FF40041F048FCF720FB4FF40051EE485B
:1041D000FCF719FB6006040E681CC5B2082DE1DB74
:1041E0004FF48051E848FCF70EFB4021E548FCF70E
:1041F0000AFB70BD70B504460D4605F1B001C8B2AA
:104200000021FFF7BBFF210941F010000021FFF75B
:10421000B5FF04F00F0141F001000021FFF7AEFFF0
:1042200070BD10B500218D20FFF7A8FF00211420DC
:10423000FFF7A4FF0021AF20FFF7A0FF10BD10B5CE
:1042400000218D20FFF79AFF00211020FFF796FF35
:104250000021AE20FFF792FF10BD2DE9F041054689
:104260000F46681EC4B219E004F1B001C8B20021C3
:10427000FFF784FF00210846FFF780FF0021102090
:10428000FFF77CFF002605E001210020FFF776FF05
:10429000701CC6B2802EF7DB601CC4B2BC42E3DBEC
:1042A000BDE8F0812DE9F04107460E469046002515
:1042B0000024A8F12000C5B27F2F02DD0027B01C2A
:1042C000C6B231463846FFF795FF002408E004EBFC
:1042D0000511AE4A505C0121FFF750FF601CC4B2CB
:1042E000082CF4DB701CC1B23846FFF783FF0024B2
:1042F00009E004EB05110831A44A505C0121FFF7E5
:104300003DFF601CC4B2082CF3DBBDE8F08110B5A2
:104310000246012000E050430B00A1F10104E1B28C
:10432000F9D110BD2DE9FF5F074691461D460E9E4F
:104330004FF0000A002435E0281B401EC1B20A20BD
:10434000FFF7E5FFB9FBF0F00A21B0FBF1F201FB4A
:10435000120000F0FF08BAF1000F13D1681EA0424E
:1043600010DDB8F1000F0BD1B34606EBD671491042
:1043700001FB0471C8B220220199FFF793FF0FE0FF
:104380004FF0010AB34606EBD671491001FB0471E8
:10439000C8B208F13001CAB20199FFF783FF00BF2C
:1043A000601CC4B2AC42C7DBBDE8FF9F2DE9F04101
:1043B00006460F461546002417E0285D0D2802D05A
:1043C000285D0A2802D1601CC4B211E02A5D39467A
:1043D0003046FFF767FF06F10800C6B2782E02DD0F
:1043E0000026B81CC7B2601CC4B2285D0028E4D106
:1043F00000BFBDE8F0812DE9F04180460E4615462C
:10440000002731464046FFF7F5FE00240AE0604AE7
:1044100002EB8511085D0121FFF7B0FE781CC7B2E1
:10442000601CC4B2102CF2DB701CC1B24046FFF716
:10443000E1FE00240CE06900491C554A02EB4111E1
:10444000085D0121FFF79AFE781CC7B2601CC4B258
:10445000102CF0DBBDE8F0812DE9F05F06460F4639
:1044600090461C46DDF828A04FF0000BE11704EB46
:104470005171C910B4EBC10105D12046E11704EB1D
:104480005171CD1005E02046E11704EB5171C910C0
:104490004D1C3D4615E029463046FFF7ABFEB146C0
:1044A0000BE059460BF1010B1AF801000121FFF74F
:1044B00065FE09F1010000F0FF09C145F1DB681C50
:1044C000C5B2A542E7DBBDE8F09F08B54020ADF8D6
:1044D000000010208DF8030003208DF802006946CB
:1044E0002848FCF7E5F84FF47040ADF800001020C4
:1044F0008DF8030003208DF8020069462248FCF77E
:10450000D7F84FF470412048FCF77DF940211D4851
:10451000FCF779F908BD10B54FF480411A48FCF753
:1045200072F96420FEF76EF84FF480411648FCF7EC
:104530006CF9C820FEF766F84FF480411248FCF78A
:1045400062F90021AE20FFF719FE00210846FFF7AF
:1045500015FE00211020FFF711FE00214020FFF77B
:104560000DFE00218120FFF709FE0021CF20FFF77B
:1045700005FE0021A120FFF701FE0021C820FFF762
:10458000FDFD07E000100140000C0140CE5A00087C
:10459000320200200021A620FFF7F0FD0021A82014
:1045A000FFF7ECFD00213F20FFF7E8FD0021D320BD
:1045B000FFF7E4FD00210846FFF7E0FD0021D520CC
:1045C000FFF7DCFD00218020FFF7D8FD0021D92076
:1045D000FFF7D4FD0021F120FFF7D0FD0021DA2004
:1045E000FFF7CCFD00211220FFF7C8FD0021DB20E2
:1045F000FFF7C4FD00214020FFF7C0FD002120206F
:10460000FFF7BCFD00210220FFF7B8FD00218D203F
:10461000FFF7B4FD00211420FFF7B0FD0021A42016
:10462000FFF7ACFD0021A620FFF7A8FD0021AF2079
:10463000FFF7A4FD0021AF20FFF7A0FD0821012016
:10464000FFF70BFE00210846FFF7D4FD10BD40EA3E
:1046500001039B0703D009E008C9121F08C0042A00
:10466000FAD203E011F8013B00F8013B521EF9D2E7
:104670007047D2B201E000F8012B491EFBD270470F
:104680000022F6E710B504460846114602462046C9
:10469000FFF7EFFF204610BDF0B480EA0102D20F11
:1046A0004300B3EB410F02D20346084619464B00C4
:1046B00042D0C30DDDB2C1F3C7542C1B202C35DA18
:1046C000C1F3160141F4000502B16D42C4F12006A8
:1046D00005FA06F125412844B3EBD05F23D0C2B1DF
:1046E000012CA0EBC35009DCF0BC4FF0004202EA01
:1046F000C35200F50000DBB200F039BB400000F10E
:10470000807000EBC350A0F1807040EAD170490086
:1047100009E0490841EAC071A0EBC35000F5000070
:10472000400800EBC350F0BC00F018BB514201231D
:1047300003EB4101801AF6E7F0BC704781F00041BD
:10474000AAE780F00040A7E780EA010210B502F076
:104750000042400026D04B0023D04FEA106101EB0D
:104760001361C0F35600C3F3560340F4000043F452
:104770000003A0FB0330A1F17F014FEA00401C04BD
:1047800001D000F1010050EA134001D44000491E5D
:10479000C3B20C0604EBD010401C4008802B02D0A2
:1047A00003E0002010BD20F00100002900DA002005
:1047B000104310BD80EA010202F0004330B430F033
:1047C000004221F0004015D0A0B1C0F3C755C2F39C
:1047D000C754C2F31601C0F31600651B41F4000173
:1047E00040F400007D35814201D36D1C00E049009A
:1047F000002D02DA30BC002070474FF40002002484
:10480000814201D3091A144352084FEA4101F7D1FA
:1048100051B1814202D14FF0004105E002D24FF088
:10482000010101E06FF0010104EBC55030BC1844F8
:1048300000F094BA2DE9FE4F074681EA0300C00F4D
:104840000E46019021F0004123F00044B81AA14126
:1048500005D23846314617461E460B46024623F01F
:104860000040104304D13846314603B0BDE8F08F14
:10487000350DC5F30A00C3F30A510290401A0090A7
:10488000402867DAC3F3130040F4801B0198924676
:1048900020B10023D2EB030A63EB0B0B00985946BF
:1048A000C0F14002504600F028FA80460C465046BF
:1048B0005946009A00F040FAC0197141EF1785EA95
:1048C00011533B433FD0019A4AB3009A012A11DCAD
:1048D0000022801A61EB05514FF0004303EA0555B1
:1048E000CDE90025801841F580114246234600F0AD
:1048F0007AFABAE72E050025401B61EB0601401944
:1049000041F58012001852412818A6F5001343EB18
:10491000020140EAD47018EB0808644113E064080F
:104920004FEA38084FF0000244EAC0744FEA0553DA
:10493000801A61EB0301801841F5801149084FEAA4
:104940003000801859414246234603B0BDE8F04F7D
:1049500000F03CBA0198012240000023D0EB020293
:1049600063EBE07301984FEAE074381A66EB0401D8
:10497000EBE783F000435DE781F000415AE72DE962
:10498000FE4F81EA030421F0004504F0004423F0C7
:1049900000414FF0000A009450EA050302D052EAA9
:1049A000010304D10020014603B0BDE8F08FC1F33C
:1049B0000A53C5F30A542344A3F2F3330193A0FB33
:1049C00002B3C5F3130545F4801CC1F3130141F490
:1049D00080180CFB023300FB083E810A930A41EA6F
:1049E0008C5143EA8853A1FB03474FEA9C2505FB02
:1049F00003734FEA982601FB06373D05260545EA75
:104A00001435BBEB06016EEB0503850E920E45EAED
:104A10008C1542EA8812A5FB0206261E67EB0007EA
:104A20000C0D44EA0334A61947EB1350C1F31304E9
:104A30004FF000031946E5FB02014FEA033545EA52
:104A40001455019B4FEA0432009CA3F10C03CDE9FD
:104A500000A445EA060502932B4600F0C4F9A3E73B
:104A60002DE9F04D81EA030404F0004B21F00047EA
:104A700014464FF0000A23F0004150EA070220D00C
:104A800054EA01021DD0C1F30A550246C1F31300D6
:104A9000C7F30A56C7F3130340F4801143F480139D
:104AA000A6EB0508101BD64608F2FD3873EB010093
:104AB00002D308F1010801E092185B41B8F1000F40
:104AC00003DA00200146BDE8F08D00204FF4801588
:104AD000064607460EE0B2EB040C73EB010C04D360
:104AE000121B064363EB01032F436D084FEA3000AE
:104AF00092185B4150EA050CEDD152EA030012D046
:104B000082EA040083EA0105284303D100224FF022
:104B1000004308E0101B8B4102D20122002302E077
:104B20006FF0010253101AEB060047EB085110EB2F
:104B30000A0041EB0B01BDE8F04D00F047B9C10F91
:104B400080EAE0700844CA079623002100F00FB9FC
:104B500096230022114600F00AB90EB5C10F80EA73
:104B6000E0700844CA07002140F233438DE80E008C
:104B70000A460B4600F037F903B000BD00F00042D2
:104B800020F00040C10DC0F3160040F400007F2962
:104B900001DA00207047962903DCC1F19601C84074
:104BA00001E096398840002AF4D04042704720F056
:104BB0000040C10DC0F3160040F400007F2901DA67
:104BC00000207047962903DCC1F19601C840704768
:104BD00096398840704770B5C1F30A5201F000451C
:104BE0000024C1F3130140F2FF3341F480119A42D3
:104BF00001DA002070BD40F233439A42A2F2334200
:104C000003DC524200F088F800E090402C43F1D0E1
:104C1000404270BD00F0004230F000400DD0C10DA8
:104C200001F5607142EA01510022C0F316005207FB
:104C300042EAD00240071143704700200146704706
:104C4000002801DBC0F10040002901DBC1F1004177
:104C500081427047002801DBC0F10040002901DBE0
:104C6000C1F100418842704730B50B460146002033
:104C70002022012409E021FA02F59D4205D303FA1E
:104C800002F5491B04FA02F52844151EA2F101029F
:104C9000F1DC30BD2DE9F05F0546002092469B46D1
:104CA00088460646814640241DE028464146474640
:104CB000224600F031F8B0EB0A0052465B4671EB39
:104CC0000B0110D310461946224600F016F82D1A93
:104CD00067EB01084F4622460120002100F00DF845
:104CE00017EB00094E41201EA4F10104DDDC48460B
:104CF00031462A464346BDE8F09F202A04DB203A8D
:104D000000FA02F1002070479140C2F1200320FA1E
:104D100003F3194390407047202A04DB203A21FA1C
:104D200002F00021704721FA02F3D040C2F12002C4
:104D30009140084319467047202A06DBCB17203ADA
:104D400041FA02F043EAE07306E041FA02F3D04090
:104D5000C2F1200291400843194670470029A8BFBC
:104D60007047401C490008BF20F00100704710B494
:104D7000B0FA80FC00FA0CF050EA010404BF10BC49
:104D8000704749B1CCF1200421FA04F411FA0CF176
:104D900018BF012121430843A3EB0C01CB1D4FEAAF
:104DA00000614FEA102048BF0020BCBF10BC704714
:104DB00000EBC35010440029A4BF10BC7047401C36
:104DC000490008BF20F0010010BC704710B5002B4F
:104DD00008DA401C41F1000192185B411A4301D1ED
:104DE00020F0010010BD2DE9FF4D934611B1B1FA3D
:104DF00081F202E0B0FA80F220329246FFF77DFFA6
:104E0000039A0746884640EA0B0011435B46084375
:104E100004D13846414604B0BDE8F08D114653EA4E
:104E2000020016D0CAF140025846FFF775FF04464B
:104E30000D464FF00106584652460399FFF75DFFB5
:104E4000084300D10026344345EAE675274345EA86
:104E500008080E984FF00005A0EB0A014FEAD72092
:104E60000A314FEA47532A4640EA48504FEAD824CD
:104E700002D500200146CEE7281844EB0151DDE9B8
:104E80000C45001904B06941BDE8F04D9EE7C1F33F
:104E90000A52C1F3130140F2FF3341F480119A42E8
:104EA00002DA00200146704740F233439A42A2F2F0
:104EB000334202DC5242FFF72FBFFFF71EBF000054
:104EC00030B5002904DB4FF00044404264EB01019F
:104ED000002B04DB4FF00044524264EB0303994281
:104EE00008BF904230BD0000064C074D06E0E06868
:104EF00040F0010394E8070098471034AC42F6D321
:104F0000FBF71AF9D0600008F060000870B501EBFB
:104F1000020410F8015B15F0070301D110F8013B02
:104F20002A1106D110F8012B03E010F8016B01F8EB
:104F3000016B5B1EF9D12B0705D40023521E0FD441
:104F400001F8013BFAE710F8013B02F10202A1EB84
:104F5000030303E013F8015B01F8015B521EF9D56E
:104F6000A142D6D3002070BD0FB4054B10B503A9E4
:104F7000044A029800F0D6F810BC5DF814FB00005B
:104F8000972B0008740300200FB4084B10B504A938
:104F900002AA039800F0C6F8044602A9002000F017
:104FA00055FC204610BC5DF814FB00004D5800086D
:104FB00002E008C8121F08C1002AFAD170477047E2
:104FC000002001E001C1121F002AFBD17047000040
:104FD0002DE9FF5FDDE90210020DDDF838B0014375
:104FE0000FD10F9801244AA3012807D000980F9AE7
:104FF000C0E90031C0E90242BDE8FF9F6FEA0B0142
:10500000F4E7A2F2FF3244F61050424315140F9811
:1050100001280FD0A5EB0B00401C4FF000043D4EC3
:10502000DFF8F490B0F1000AA046C0F1000717DBEA
:10503000074615E0CBF10000EFE7F80707D022465E
:10504000334640464946FFF79AFC80468946224649
:10505000334620463146FFF792FC04460E467F1049
:10506000002FEAD1DDE90201BAF1000F42464B46BA
:1050700002DAFFF784FC01E0FFF7F2FC04460E467B
:105080000022264BFFF71CFF03D84FF0FF300146EC
:1050900007E00022224B20463146FFF7CBFBFFF70B
:1050A000F6FE102409E0002C0ADB0A220023FFF799
:1050B000F1FD019B30321A55641E50EA0102F2D113
:1050C000641C019AC4F1110314440F9A012A07D0F9
:1050D0000122084301D15B450DDD00226D1C0DE06E
:1050E000084303D1A3EB0B056D1E09E000204FF030
:1050F000110B0F908BE701DA00226D1E002A86D07B
:1051000000980F99C0E90231C0E9004574E700003A
:1051100030000000000024400000F03F0000F04399
:105120000000E03F2DE9FF4F95B006469A460F4636
:105130000025F2E1252878D10024761CFB4AA04600
:10514000012106943378203B01FA03F0104202D08B
:105150000443761CF6E730782A2811D06FF02F022E
:105160003078A0F13001092915D8069944F00204DD
:1051700001EB810102EB41010844761C0690EFE748
:1051800001CF0690002803DA404244F40054069010
:1051900044F00204761C30782E2817D116F8010F3F
:1051A00044F004042A280ED06FF02F023078A0F1CA
:1051B000300109290AD808EB880102EB410100EB14
:1051C0000108761CF2E757F8048B761C30786C28BF
:1051D0000FD006DC4C2817D068280DD06A2814D1CF
:1051E00004E0742810D07A280FD10DE044F40014A4
:1051F0000AE044F4801401E044F4401471788142E0
:1052000002D1761C04F58014761C30788646662818
:105210000AD012DC582872D008DC80B3452803D0AD
:10522000462801D047281AD196E118E0632832D0E9
:10523000642875D0652812D18EE170286ED008DC04
:1052400067286CD069286BD06E280DD06F2806D1E6
:10525000A9E0732828D075286FD078286ED05246E0
:10526000179990476D1C56E1C4F30250022807D0ED
:1052700003280BD0042801CF0BD005604BE150E18F
:1052800001CF4FEAE571C0E9005144E101CF05804B
:1052900041E105703FE101CF8DF8000000208DF85D
:1052A0000100EB46012003E057F804BB4FF0FF304C
:1052B00061074FF0000102D40DE009F101018946B8
:1052C00041450FDA8145F8DB1BF809100029F4D1BC
:1052D00008E009F1010189468142FADB1BF8091057
:1052E0000029F6D106985346A0EB090080462146D6
:1052F000179A00F094FA284400EB090505E047E00E
:105300001BF8010B524617999047B9F10109F7D2E2
:10531000534621464046179AFAE001E03AE01BE185
:105320000A21C4F302524FF0000B0091022A06D06A
:1053300001CFC117032A08D009E022E023E0FF1DB6
:1053400027F00707F7E8020105E000B2C117042AB9
:1053500001D140B2C117002906DA0A4600214042B5
:1053600061EB02012D2202E0220504D52B228DF8EB
:105370000420012203E0E20701D02022F7E7914652
:1053800053E00A2110E010204FF0000B00900EE0D7
:10539000102109E010204FF0000B44F004044FF0FE
:1053A0000808009003E008214FF0000B0091C4F3BF
:1053B0000252022A04D001CF0021032A06D007E0BE
:1053C000FF1D27F00707F7E8020105E080B2002182
:1053D000042A01D1C0B200214FF00009220724D5D0
:1053E000BEF1700F2AD0009B83F0100353EA0B0329
:1053F00009D150EA010206D030228DF804208DF840
:1054000005E002229146009B83F0080353EA0B0358
:105410000BD150EA010201D1620706D530228DF886
:1054200004204FF00109A8F1010841A2BEF1580F74
:1054300000D044A203920FAA02920FE040228DF8FE
:1054400004200122DEE75B46009AFFF723FC039B62
:105450009B5C029AA2F101020292137050EA0102CF
:10546000F1D1029807A9A1EB000000F1200B600721
:1054700002D524F4803401E04FF0010800204146B9
:105480005A46D84501DDA1EB020000EB0B0100906C
:1054900006984944A0EB01000690E00306D4534669
:1054A0002146179A069800F0BAF90544002008E052
:1054B00001A8524610F80800179990476D1C08F192
:1054C000010080464845F3DBE0030CD553462146F6
:1054D000179A069800F0A3F9054404E030205246DC
:1054E000179990476D1C0099481E00900029F5DC23
:1054F00008E00298029952460078491C02911799D7
:1055000090476D1CBBF10001ABF1010BF1DC67E1D1
:1055100000F072F9054406F10106307800287FF4A6
:1055200009AE19B02846BDE8F08F00000928010037
:1055300030313233343536373839414243444546C9
:10554000000000003031323334353637383961628B
:105550006364656600000000600701D44FF0060830
:1055600007F1070727F00707A0A1F7E8020C0CF0E6
:1055700000431A0007D19EA1220504D49DA1E20791
:1055800001D1AFF2440112912CF0004C7146BEF1F2
:10559000650F0ED007DC45290BD0462920D0BEF17F
:1055A000470F3DD13DE066291AD0BEF1670F37D1D4
:1055B00037E0002311224146B8F1110F00DA4A1CEE
:1055C000CDE900230246634607A902A8FFF700FDC4
:1055D000012000904FF0000B08F10109039868E0EA
:1055E0004FF000410F910123CDE90083024663464D
:1055F00007A902A8FFF7ECFCDDE904904FF0000BCF
:1056000020B9039908F1010001EB0009B8EB09008A
:1056100003D4C0F1FF3B08F10109A9EB0800009099
:1056200048E04146B8F1010F01DA01218846002324
:105630001122B8F1110F00DC0A46CDE90023024621
:10564000634607A902A8FFF7C3FC4FF0000BC14651
:1056500020070FD40499414503DA894601E0A9F1F6
:105660000109B9F1010F05DD0299A9F10100085CFA
:105670003028F4D00399414502DA11F1040F03DA1E
:1056800001200F91009015E0002903DC8B44A9EB69
:10569000010005E0481C484503DD039800F10100C6
:1056A00081460399A1EB0B0000F1010000904FF03F
:1056B00000400F90200705D40098484502DB4FF0CA
:1056C000FF30009000210F980DF147088DF847102A
:1056D000B0F1004F26D0022001902B2013900F989C
:1056E00000280CDA40420F902D20139007E00A2189
:1056F0000F98FFF7B9FA30310F9008F8011D0199A2
:10570000481E01900029F2DC0F980028EFD1A8F183
:10571000010213991170317801F0200141F0450127
:1057200008F8021D10A9A1EB080000F10700019084
:105730001298007800B1012000EB0901009801EBFC
:10574000E071019801440698A0EB0100A0F101006E
:105750000690E00306D453462146179A069800F0B7
:105760005EF805441298007820B152461799904788
:1057700005F10105E00322D553462146179A069804
:1057800000F04DF805441AE0BBF1000F07DB049967
:10579000594504DD029911F80B00179901E017999A
:1057A00030205246904700986D1C401E0BF1010BB3
:1057B000009004D12E205246179990476D1CB9F1E4
:1057C0000001A9F10109DFDC05E018F8010B5246E0
:1057D000179990476D1C0199481E01900029F4DC2F
:1057E00053462146179A069892E600002D000000C5
:1057F0002B000000200000002DE9F04104460025A8
:1058000017461E46880405D406E039462020B047D6
:1058100005F10105641EF8D52846BDE8F0812DE9A3
:10582000F04104460025302790461E46C80300D4A8
:105830002027880405D506E041463846B04705F1E3
:105840000105641EF8D52846BDE8F0810A68531C9E
:105850000B60107070470000D7F3C2D6B7BDCFF20F
:10586000A3BA256420CBD9B6C8A3BA256420B1E079
:10587000C2EBA3BA2564200D0AD3D2C2D6B7BDCFDE
:10588000F2A3BA256420CBD9B6C8A3BA256420B147
:10589000E0C2EBA3BA2564200D0A20D0F2BAC5A35A
:1058A000BA25640D0A000000000000000000002F6F
:1058B000000000000700070000147F147F1400247C
:1058C0002A7F2A12006264081323003649552250A9
:1058D00000000503000000001C22410000004122DE
:1058E0001C000014083E08140008083E08080000C8
:1058F00000A06000000808080808000060600000C0
:10590000002010080402003E5149453E0000427F3D
:105910004000004261514946002141454B31001889
:1059200014127F10002745454539003C4A4949304B
:105930000001710905030036494949360006494905
:10594000291E000036360000000056360000000810
:1059500014224100001414141414000041221408ED
:1059600000020151090600324959513E007C1211D2
:10597000127C007F49494936003E41414122007F67
:105980004141221C007F49494941007F0909090121
:10599000003E4149497A007F0808087F0000417FA6
:1059A0004100002040413F01007F08142241007F58
:1059B00040404040007F020C027F007F0408107FBF
:1059C000003E4141413E007F09090906003E415128
:1059D000215E007F091929460046494949310001E5
:1059E000017F0101003F4040403F001F2040201F39
:1059F000003F4038403F00631408146300070870FC
:105A0000080700615149454300007F4141000055AE
:105A10002A552A55000041417F000004020102047A
:105A20000040404040400000010204000020545467
:105A30005478007F484444380038444444200038B7
:105A40004444487F00385454541800087E09010229
:105A50000018A4A4A47C007F080404780000447DFE
:105A60004000004080847D00007F1028440000003A
:105A7000417F4000007C04180478007C080404780E
:105A800000384444443800FC2424241800182424FA
:105A900018FC007C080404080048545454200004F6
:105AA0003F444020003C4040207C001C2040201C03
:105AB000003C4030403C004428102844001CA0A07A
:105AC000A07C004464544C441414141414140000B6
:105AD00000000000000000000000000000000000C6
