:020000040800F2
:1000000040040020ED1D000811050008130500083C
:10001000170500081B0500081F0500080000000068
:1000200000000000000000000000000023050008A0
:100030002505000800000000270500082905000824
:10004000071E0008071E0008071E0008071E0008FC
:10005000071E0008071E0008071E00082B050008E1
:10006000071E0008071E0008071E0008071E0008DC
:10007000071E0008071E0008071E0008071E0008CC
:10008000071E0008071E0008071E0008071E0008BC
:10009000071E0008071E0008071E0008071E0008AC
:1000A000071E0008071E0008071E0008071E00089C
:1000B000071E0008071E0008071E0008071E00088C
:1000C000071E0008071E0008071E0008071E00087C
:1000D000071E0008071E0008071E0008071E00086C
:1000E000071E0008071E0008071E0008071E00085C
:1000F000071E0008071E0008071E0008071E00084C
:10010000071E0008071E0008071E0008071E00083B
:10011000071E0008071E0008071E0008071E00082B
:10012000071E0008071E0008071E0008071E00081B
:10013000DFF80CD002F00AF800480047A7030008D7
:100140004004002010B5C048007870B10421BF48B9
:1001500000F011FC012001F010FF0421BB4800F069
:100160000CFC012001F009FF03E00421B74800F076
:1001700004FC10BD10B5B649498840F6E44201FBC5
:1001800002F0C11700EB11510C13B4F57A7F12DDA8
:100190000221AE4800F0EFFB2021AC4800F0EBFB61
:1001A0000120A9490870AB480078B0B12146AAA047
:1001B00001F0DEFF11E00221A44800F0DEFB202167
:1001C000A24800F0DAFB00209F490870A14800789F
:1001D00018B12146A5A001F0CBFF10BD00B591B02C
:1001E0004FF4004000F035FD0121084600F0BDFD50
:1001F0000121480200F0C6FDA14801F023FA0020C9
:100200000C9001208DF834008DF835004FF46020FB
:100210000E9000200F9007208DF840000CA9984800
:1002200001F037FA072301220021954801F0C9FAAD
:10023000072302220121924801F0C3FA0723032277
:1002400002218F4801F0BDFA0723042203218C48C4
:1002500001F0B7FA072305220421894801F0B1FA19
:10026000072306220521864801F0ABFA07231A4628
:100270000621834801F0A5FA072308221946804881
:1002800001F09FFA01217E4801F03AFA01217C48F1
:1002900001F02BFA7A4801F04AFA00BF784801F0E1
:1002A0004BFA0028FAD1764801F050FA00BF7448A2
:1002B00001F051FA0028FAD1FF20ADF82C000020FF
:1002C0008DF82F0003208DF82E000BA96D4800F04B
:1002D000A7FA6D4801F062FC69484C3000905C4818
:1002E00001900020029007200390002004908020BD
:1002F00005904000069080000790202008900002A2
:10030000099000200A9069465F4801F0E9FC11B0AD
:1003100000BD08B501F07CFD01F0C3FD01F01FFE3A
:100320004FF4165001F0D0FDFFF758FF0120ADF853
:10033000000010208DF8030003208DF802006946AC
:10034000424800F06DFA0220ADF8000010208DF850
:10035000030003208DF8020069463C4800F060FA73
:100360000420ADF8000010208DF8030003208DF864
:1003700002006946354800F053FA2020ADF800002D
:1003800010208DF8030003208DF8020069462F48E5
:1003900000F046FA01213A4801F0E7F901213A4814
:1003A00001F0C9FC08BDFFF7B4FF0120294908701E
:1003B0000121264800F0E1FA34A001F0D9FE42E024
:1003C0002349098840F6E44201FB02F0C11700EB23
:1003D00011510C13B4F57A7F11DD3148007870B9F2
:1003E00001202F4908700121184800F0C4FA19486B
:1003F0000078A8B121462BA001F0BAFE10E0B4F5B8
:10040000487F0DDA00202649087001210F4800F0CE
:10041000B4FA1048007818B121462AA001F0A8FECD
:100420001F48007820B1FFF7A5FEFFF78BFE03E021
:100430000221064800F09FFA0648007810B129A072
:1004400001F096FE00BFBBE701000020000C014058
:100450003000002000000020CEDEBCA4B9E2D0C5F0
:10046000BAC52E2E2E2D2D2D25640A00D3D0BCA466
:10047000B9E2D0C5BAC52E2E2E2D2D2D25640A0029
:100480000024014000080140080002402D2D2D2DC0
:100490002D696E206D61696E2D2D2D2D2D0A0000A8
:1004A00002000020BBB7BEB3B9E2CFDFB5CDA3AC2D
:1004B000BCA4B9E2BFAAC6F42E2E2EA1BE2564A10B
:1004C000BF0A0000BBB7BEB3B9E2CFDFB8DFA3AC51
:1004D000BCA4B9E2B9D8B1D52E2E2EA1BE2564A1F7
:1004E000BF0A00002D2D2D2D2D2D2D2D2D2D2D2D27
:1004F0002D2D2D2D2D2D2D2D2D2D2D2D2D2D2D2D2C
:100500002D2D2D2D2D2D2D2D2D2D2D2D2D0A000098
:10051000704700BFFEE700BFFEE700BFFEE700BF79
:10052000FEE7704770477047704710B5022001F032
:100530001BFBE8B1022001F013FB022001F025FBB8
:100540000CA001F015FE02210D4800F007FA08B9D1
:10055000012000E00020044621460AA001F008FE28
:100560000C48007808B9012000E000200949087013
:1005700010BD00000ABDF8C8EBD6D0B6CF300000E1
:10058000000801400A4750494F3130BFDAD6C32531
:10059000640000000300002000210020674A126868
:1005A00042F48032654B1A6000BF644A126802F45C
:1005B0000030491C10B9B1F5A06FF6D15F4A12683E
:1005C00012F4003F01D0012000E00020012842D1B8
:1005D0005B4A126842F01002594B1A601A461268C0
:1005E00022F003021A601A46126842F002021A60F0
:1005F000524A5268514B5A601A4652685A601A461B
:10060000526842F480625A601A46526822F47C12A0
:100610005A601A46526842F4E8125A601A46126842
:1006200042F080721A6000BF444A126812F0007FE4
:10063000FAD0424A526822F00302404B5A601A46EE
:10064000526842F002025A6000BF3C4A526802F00F
:100650000C02082AF9D1704710B5FFF79DFF10BDB5
:1006600010B53648006840F001003449086008467B
:1006700040683449084031494860084600683249BA
:1006800008402E4908600846006820F48020086071
:100690000846406820F4FE0048604FF41F00886060
:1006A000FFF7DAFF4FF000602849086010BD10B571
:1006B000002100200022214B5B6803F00C0121B1D6
:1006C000042906D0082928D107E0214B214C2360BA
:1006D00027E01F4B1F4C236023E0184B5B6803F49B
:1006E0007010164B5B6803F48032022303EB9040DA
:1006F00022B9194B4343174C23600DE00F4B5B6845
:1007000013F4003F04D0144B4343124C236003E026
:100710000F4B43430F4C236003E00D4B0D4C236004
:1007200000BF00BF054B5B68C3F303130B4CE15CD8
:10073000084B1B68CB40074C236010BD00100240E3
:10074000002002400000FFF8FFFFF6FE08ED00E089
:1007500000127A000400002000093D00080000207B
:1007600010B50446CA48844208D10121042000F093
:1007700023FB0021042000F01FFB46E0C548844213
:1007800008D10121082000F017FB0021082000F00B
:1007900013FB3AE0C048844208D10121102000F048
:1007A0000BFB0021102000F007FB2EE0BB48844229
:1007B00008D10121202000F0FFFA0021202000F0C4
:1007C000FBFA22E0B648844208D10121402000F023
:1007D000F3FA0021402000F0EFFA16E0B14884421D
:1007E00008D10121802000F0E7FA0021802000F0EC
:1007F000E3FA0AE0AC48844207D10121801500F0F9
:10080000DBFA0021A01500F0D7FA10BD10B50121C8
:10081000084600F0D1FA0021012000F0CDFA10BD09
:100820002DE9F04102460025002600200023002487
:10083000002791F803C00CF00F0591F803C01CF0DD
:10084000100F03D091F802C04CEA050591F800C0E2
:10085000BCF1000F31D0146800202BE04FF0010CE8
:100860000CFA00F3B1F800C00CEA03069E4220D156
:1008700083004FF00F0C0CFA03F7BC4305FA03FC9E
:100880004CEA040491F803C0BCF1280F06D14FF0E4
:10089000010C0CFA00FCC2F814C00AE091F803C085
:1008A000BCF1480F05D14FF0010C0CFA00FCC2F866
:1008B00010C0401C0828D1D31460B1F800C0BCF1AE
:1008C000FF0F34DD546800202EE000F1080C4FF0DB
:1008D000010808FA0CF3B1F800C00CEA03069E42C6
:1008E00021D183004FF00F0C0CFA03F7BC4305FA3B
:1008F00003FC4CEA040491F803C0BCF1280F05D1B5
:1009000000F1080C08FA0CF8C2F8148091F803C042
:10091000BCF1480F07D100F1080C4FF0010808FAAC
:100920000CF8C2F81080401C0828CED35460BDE8F3
:10093000F0814FF6FF710180022181700421C170A6
:1009400070470246002093680B4201D0012000E06E
:10095000002070470146886880B270470246002038
:10096000D3680B4201D0012000E00020704701460F
:10097000C86880B2704701617047416170470AB131
:10098000016100E041617047C16070474FF48032FF
:100990000A4382618161826182698269704702468D
:1009A0000020424B18684FF68073184040EA02104E
:1009B00008433E4B186070473D49C8617047F0B529
:1009C0000A46002300240021002500F00046B6F16D
:1009D000004F02D1354EF16901E0344E7168C0F329
:1009E000034583B200F44016B6F5401F08D121F04C
:1009F00070612E4E766826F070662C4F7E6012E095
:100A000000F48016B6F5801F06D1032606FA05F419
:100A1000A14341F0706106E0460D360103FA06F687
:100A2000B14341F0706122B1460D360103FA06F67A
:100A3000314300F00046B6F1004F02D11B4EF16188
:100A400001E01A4E7160F0BD30B500228B071C0F1B
:100A50000F2303FA04F2154B08338C1053F824309B
:100A60009343124C08348D1044F8253023468C10E3
:100A700053F824308C07240F00FA04F423430B4C62
:100A800008348D1044F8253030BD0A49086070479D
:100A900000080140000C014000100140001401401A
:100AA00000180140001C01400020014000000140EE
:100AB00000002042DC002042DB48006840F00100DA
:100AC000D949086008464068D8490840D649486076
:100AD00008460068D6490840D349086008460068BF
:100AE00020F4802008600846406820F4FE0048603A
:100AF0004FF41F0088607047CB49096821F48031AA
:100B0000C94A11601146096821F480211160B0F5CD
:100B1000803F03D0B0F5802F0ED106E0C2490968AE
:100B200041F48031C04A116007E0BF49096841F4CF
:100B3000A021BD4A116000E000BF00BF704710B5A2
:100B400001460022002300204A11012A02D1B64C9E
:100B5000236806E0022A02D1B34C236A01E0B24CBA
:100B6000636A01F01F02012494401C4201D001205D
:100B700000E0002010BD70B500240025002600BF55
:100B80003120FFF7DCFF0646641CB4F5A06F01D0EE
:100B9000002EF5D03120FFF7D2FF08B1012500E08B
:100BA0000025284670BD014600209F4A106820F0AD
:100BB000F80040EAC100106070479E490860704725
:100BC00002460020984B586820F47C1042EA01034A
:100BD0001843954B58607047964908667047014620
:100BE0000020914A506820F003000843506070478D
:100BF0008D48406800F00C007047014600208A4A8A
:100C0000506820F0F0000843506070470146002013
:100C1000854A506820F4E060084350607047014600
:100C20000020814A506820F4605040EAC1005060C2
:100C3000704729B17C4A527A02437B4B5A7204E0D6
:100C4000794A527A8243784B5A7270477A490860DF
:100C5000704701460020744A506820F44040084321
:100C6000506070470021754A11706F4A82F8201059
:100C7000012802D0042808D103E001216F4A117035
:100C800004E005216D4A117000E000BF00BF70470D
:100C90006B49086070476449096A0143624A1162FE
:100CA0007047674944390860704730B50021002219
:100CB000002400235C4D6D6805F00C0121B104296E
:100CC00005D0082923D105E05E4D056022E05D4D89
:100CD00005601FE0544D6D6805F47012524D6D684B
:100CE00005F48034022505EB92421CB9564D55435C
:100CF00005600BE04C4D6D6815F4003F03D0524D7C
:100D00005543056002E04F4D5543056002E04D4DEF
:100D1000056000BF00BF444D6D6805F0F001090992
:100D20004A4D6B5C0568DD4045603F4D6D6805F4DC
:100D3000E061090A454D6B5C4568DD4085603A4DD0
:100D40006D6805F46051C90A404D6B5C4568DD4033
:100D5000C560354D6D6805F44041890B3C4D6B5CB9
:100D6000C568B5FBF3F5056130BD29B12E4A52695E
:100D700002432D4B5A6104E02B4A526982432A4BAD
:100D80005A61704729B1284A92690243264B9A61F9
:100D900004E0254A92698243234B9A61704729B146
:100DA000214AD2690243204BDA6104E01E4AD2692B
:100DB00082431D4BDA61704729B11B4AD268024356
:100DC000194BDA6004E0184AD2688243164BDA60A5
:100DD000704729B1144A12690243134B1A6104E0A7
:100DE000114A12698243104B1A6170471449403905
:100DF000086070470F49C86470470B49C871704755
:100E00000948406A40F080700749486270470146CF
:100E10000020054A92680A4201D0012000E000202B
:100E20007047014988727047001002400000FFF8C7
:100E3000FFFFF6FE00004242D8004242201002406E
:100E40008004424200127A0000093D001800002090
:100E50002800002010B50446BE48844208D1012174
:100E60008014FFF7A9FF0021A014FFF7A5FF16E0EB
:100E7000B948844208D101210014FFF7AAFF0021DC
:100E80002014FFF7A6FF0AE0B448844207D10121ED
:100E9000C013FFF79EFF0021E013FFF79AFF10BD7C
:100EA00010B50022028802F441520B884C8823437B
:100EB0008C882343CC8823430C8923434C892343C8
:100EC0008C892343CC8923431A430280838B4FF2BE
:100ED000FF74234083830B8A038210BD2DE9F04FFA
:100EE00085B005460C464FF0000902274FF0000878
:100EF0004FF0010B0026B246A88B4FF2400108408C
:100F0000A88302202884B5F81C90A068022801D18B
:100F100000BF38E0A08810B94FF0010B01E04FF09E
:100F2000020B8D48854200D100E000BF6846FFF704
:100F3000BCFEDDF800A0E088B0F5007F0AD14FEAE2
:100F40001A2000EB80004000A168B0FBF1F0401DCA
:100F500086B20BE04FEA4B10BAFBF0F000EB8000DA
:100F60004000A168B0FBF1F0401D86B20A20B6FB3C
:100F7000F0F606F00108A6EB0800C0F34F074FF6A5
:100F8000FF7000EA0828022F01DBFF2F02DD022795
:100F90004FF00008E08840EA080038432884A08821
:100FA000A1890843618808432188084340F4006010
:100FB00040EA0909A5F81C9005B0BDE8F08F0021B2
:100FC000018041808180C180018141818181C18115
:100FD0000721018270470021018041808180C1800A
:100FE0000221816000218181704721B1028842F095
:100FF0004002028004E002884FF6BF731A4002806C
:10100000704721B1828B42F48062828304E0828B3C
:101010004FF6FF331A408283704730B50024002317
:101020000C110125A540ABB21AB185881D438580FE
:1010300002E085889D43858030BD1AB183880B43CB
:10104000838002E083888B4383807047818170476F
:10105000014688897047A1F57E42FF3A04D0028894
:1010600042F48072028004E002884FF6FF631A4067
:101070000280704721B1828842F00402828004E03D
:1010800082884FF6FB731A408280704702884FF2C5
:10109000FF731A40028002880A4302807047018869
:1010A00041F480510180704721B1028842F400521E
:1010B000028004E002884DF6FF731A4002807047F8
:1010C00002460020012901D0108B00E0908A704771
:1010D0000146088A7047B1F5804F04D1028842F476
:1010E0008042028004E002884BF6FF731A400280BF
:1010F00070470246002013890B4201D0012000E016
:1011000000207047CA4302817047F0B502460020B4
:1011100000240023002501F00F070126BE40B4B2D1
:101120000B1101269E40B3B2968806EA0305168984
:10113000264202D00DB1012000E00020F0BD10B524
:10114000002201F00F040123A3409AB2D34303818C
:1011500010BD00000030014000380040003C00405D
:1011600010B50446FB48844209D101218803FFF7EA
:1011700023FE00214FF48040FFF71EFE32E0F648C8
:10118000844209D101214804FFF723FE00214FF4D6
:101190000030FFF71EFE25E0F048844209D101210E
:1011A0008804FFF716FE00214FF48020FFF711FEA0
:1011B00018E0EB48844209D10121C804FFF709FE79
:1011C00000214FF40020FFF704FE0BE0E5488442C5
:1011D00008D101210805FFF7FCFD00214FF4801024
:1011E000FFF7F7FD10BD2DE9F04786B005460E4626
:1011F0000024A24600BFA1460027B08900B100BF6D
:101200002F462C8A4CF6FF700440F08804432C8251
:10121000AC894EF6F3100440B088318908437189D7
:1012200008430443AC81AC8A4FF6FF400440B089C8
:101230000443AC8201A8FFF738FDC648874202D1BB
:10124000DDF810A001E0DDF80CA0A88910F4004F33
:1012500008D00AEBCA0000EB0A1031684900B0FB65
:10126000F1F807E00AEBCA0000EB0A1031688900C8
:10127000B0FBF1F86420B8FBF0F004012009642110
:1012800001FB1089A88910F4004F08D0322000EB30
:10129000C900B0FBF1F000F00700044308E0322081
:1012A00000EB09106421B0FBF1F000F00F000443E3
:1012B0002C8106B0BDE8F0874FF416510160002183
:1012C0008180C18001810C21418100218181704791
:1012D00010B502460020108A4FF2FF0318400B8819
:1012E0004C8823438C882343CC88234318431082A3
:1012F00010BD0021018041808180C180704721B1F3
:10130000828942F40052828104E082894DF6FF73A3
:101310001A4082817047F0B503460024002600255C
:101320000020A1F510676A3F00D100BF1846C1F345
:10133000421401F01F06012707FA06F5012C01D11E
:101340000C3004E0022C01D1103000E014301AB14E
:1013500007682F43076002E00768AF430760F0BDEE
:101360001AB1838A0B43838202E0838A8B43838290
:101370007047028A4FF6F0731A400282028A0A43CB
:101380000282704782894FF2FF731A4082818289FC
:101390000A438281704721B1828942F00202828130
:1013A00004E082894FF6FD731A4082817047028AF9
:1013B0004FF6DF731A400282028A0A4302827047A4
:1013C00021B1028A42F48042028204E0028A4BF692
:1013D000FF731A4002827047C1F30802828070478F
:1013E00001468888C0F308007047818941F00101F7
:1013F00081817047028BD2B20283028B42EA0122C2
:1014000002837047028B02F47F420283028B0A43FD
:101410000283704721B1828A42F02002828204E076
:10142000828A4FF6DF731A408282704721B1828A26
:1014300042F01002828204E0828A4FF6EF731A4073
:101440008282704721B1828A42F00802828204E0DF
:10145000828A4FF6F7731A408282704721B18289DF
:1014600042F40042828103E08289C2F30E0282814B
:10147000704721B1828A42F40062828204E0828A4B
:101480004FF2FF731A4082827047828A4FF6FB73D5
:101490001A408282828A0A438282704721B1828AFC
:1014A00042F00202828204E0828A4FF6FD731A4003
:1014B0008282704702460020B1F5007F00D100BF54
:1014C00013880B4201D0012000E00020704701F496
:1014D0000072B2F5007F00D100BFCA43028070479E
:1014E00070B502460024002300250020A1F51066F7
:1014F0006A3E00D100BFC1F3421501F01F0301266F
:1015000006FA03F3012D02D19689334006E0022D3D
:1015100002D1168A334001E0968A33400C1201262C
:1015200006FA04F41688344013B10CB1012000E02F
:10153000002070BD10B500220023A1F510646A3CA4
:1015400000D100BF0A1201249440A3B2DC430480FE
:1015500010BD000000380140004400400048004039
:10156000004C00400050004031490143314A1160B5
:10157000704770B5002100230F22C4780CB32D4CA6
:10158000246804F4E064C4F5E064210AC1F10403B2
:10159000CA40447804FA03F18478144021430901D5
:1015A000254C0678A155047804F01F050124AC40B1
:1015B00005786D114FF0E02606EB8505C5F8004172
:1015C00009E0047804F01F050124AC401B4D0678A7
:1015D000761145F8264070BD194A0A400243154B62
:1015E0001B1F1A60704739B1124A121D126802435C
:1015F000104B1B1D1A6006E00E4A121D1268824332
:101600000C4B1B1D1A607047042808D14FF0E021D5
:10161000096941F004014FF0E022116107E04FF049
:10162000E021096921F004014FF0E02211617047C7
:101630000000FA050CED00E000E400E080E100E0CD
:1016400080FFFF1F10B50446F948844208D10121EC
:101650004015FFF7B1FB00216015FFF7ADFB17E068
:10166000F448844208D101210015FFF7A5FB0021B1
:101670002015FFF7A1FB0BE0EF48844208D10121C0
:10168000C803FFF799FB00214FF40040FFF794FBDC
:1016900010BD30B50246002000235068E74C2040C2
:1016A0000D790C6844EA0524204350609068E44CAE
:1016B0002040D1E902542C434D7944EA45042043AB
:1016C0009060D06A20F470000C7C641EE4B2234366
:1016D00040EA0350D06230BD0021016001714171C8
:1016E0008160C16001210174704721B1826842F0BC
:1016F0000102826003E0826822F00102826070478A
:1017000021B1826842F48072826003E0826822F430
:1017100080728260704710B50023CBB21AB1446862
:101720001C43446002E044689C43446010BD8168EF
:1017300041F0080181607047014600208A6812F07C
:10174000080F01D0012000E000207047816841F0BF
:10175000040181607047014600208A6812F0040F7E
:1017600001D0012000E00020704721B1826842F4DE
:10177000A002826003E0826822F4A00282607047C7
:10178000014600208A6812F4800F01D0012000E099
:101790000020704710B50A4600210023416821F45B
:1017A0006041531E41EA4331416010BD21B142689E
:1017B00042F40062426003E0426822F40062426048
:1017C0007047F0B504460D4600200021092D11DDBB
:1017D000E068A5F10A0606EB4607072606FA07F1B8
:1017E0008843A5F10A0606EB460603FA06F108430C
:1017F000E0600CE0206905EB4507072606FA07F1D3
:10180000884305EB450603FA06F108432061072AE1
:101810000FDA606B561E06EB86071F2606FA07F1E5
:101820008843561E06EB860605FA06F108436063F8
:1018300022E00D2A0FDA206BD61F06EB86071F2643
:1018400006FA07F18843D61F06EB860605FA06F16D
:101850000843206310E0E06AA2F10D0606EB86075C
:101860001F2606FA07F18843A2F10D0606EB86064D
:1018700005FA06F10843E062F0BD21B1826842F446
:101880008012826003E0826822F4801282607047D6
:101890000146C86C80B2704765484C30006870479C
:1018A00021B1426842F48062426003E0426822F45F
:1018B00080624260704721B1426842F480524260C7
:1018C00003E0426822F48052426070470A460021D9
:1018D000816821F4E04111438160704721B1826841
:1018E00042F40042826003E0826822F40042826097
:1018F000704721B1826842F40212826003E082687C
:1019000022F4021282607047014600208A6812F4B5
:10191000001F01D0012000E000207047F0B5044610
:101920001546002000220026092911DDE068A1F1FA
:101930000A0707EB470C072707FA0CF29043A1F1BF
:101940000A0707EB470703FA07F21043E0600CE0D1
:10195000206901EB410C072707FA0CF2904301EBD9
:10196000410703FA07F210432061A06BC0F3015650
:10197000EF1C06F1010CA7EB0C0707EB870C1F27E8
:1019800007FA0CF29043EF1C06F1010CA7EB0C07D1
:1019900007EB870701FA07F21043A063F0BD10B50B
:1019A0000A4600210023816B21F44011531E41EAB5
:1019B0000351816310BD10B5002303460B441A6028
:1019C00010BD02460023134601F1280003441868A5
:1019D00080B270470A46002141681A4B19401143F2
:1019E000416070474162826270470A460021416847
:1019F00021F01F0111434160704740B10C4908318B
:101A0000096841F400010A4A0832116007E00849F8
:101A10000831096821F40001054A08321160704755
:101A20000246002013680B420ED001200DE000009A
:101A30000024014000280140003C0140FFFEF0FF6F
:101A4000FDF7F1FFFFFD3FFF00207047CA43026032
:101A5000704770B502460020002300240B12556821
:101A6000CEB205EA060415681D4202D00CB1012071
:101A700000E0002070BD00220A12D34303607047CB
:101A8000002044490860091D0860091D0860091DFF
:101A9000086041483F4914310860704700213D49C2
:101AA0008279002A3AD00A46126803689A430B46A4
:101AB0001A600A1D126803689A430B1D1A600279A6
:101AC00011440A6803681A430A60324A08321268ED
:101AD00003689A432F4B08331A601A1D1268036873
:101AE0009A432C4B0C331A604279102A0ED11A1FDC
:101AF000126803681A43274B08331A601A1D1268CC
:101B000003681A43234B0C331A600DE021494279D4
:101B100011440A6803681A430A6005E00279114417
:101B20000A6803689A430A607047002101600171E6
:101B30000C214171002181717047164910310968EB
:101B40000143144A10321160704701460020114AC7
:101B5000143212680A4201D0012000E000207047D0
:101B60000C49143108607047014600200022094BDF
:101B70001B6803EA0102074B14331B680B4202D0B7
:101B80000AB1012000E000207047024914310860CA
:101B90007047000000040140FFFF0F0001684FF68E
:101BA000FE72114001600021016041608160C160EE
:101BB0008C49884208D18B490839496841F00F01A6
:101BC000884A083A51608AE086491431884208D12F
:101BD00084490839496841F0F001824A083A516065
:101BE0007DE080492831884208D17E49083949681A
:101BF00041F470617B4A083A516070E079493C31A8
:101C0000884208D177490839496841F47041754ADA
:101C1000083A516063E073495031884208D17149F4
:101C20000839496841F470216E4A083A516056E01B
:101C30006C496431884208D16A490839496841F4DD
:101C40007001684A083A516049E066497831884233
:101C500008D164490839496841F07061614A083A1D
:101C600051603CE06049884206D1011F096841F09B
:101C70000F01021F116032E05B491431884208D124
:101C80005949091F096841F0F001574A121F1160B4
:101C900025E055492831884208D15349091F096870
:101CA00041F47061504A121F116018E04E493C31F6
:101CB000884208D14C49091F096841F470414A4AD9
:101CC000121F11600BE048495031884207D1464944
:101CD000091F096841F47021434A121F11607047BF
:101CE00010B50022026847F6F0739A430C6A8B68BD
:101CF00023430C6923434C6923438C692343CC69F8
:101D000023434C6A23438C6A23431A430260CB6803
:101D100043600B6883604B68C36010BD00210160A5
:101D200041608160C160016141618161C1610162A5
:101D300041628162704721B1026842F00102026093
:101D400004E002684FF6FE731A40026070471AB151
:101D500003680B43036002E003688B430360704732
:101D6000416070470146486880B2704701460020D4
:101D7000002211F0805F03D01B4B083B1A6802E081
:101D8000184B083B1A680A4201D0012000E00020ED
:101D9000704710F0805F03D01349091F086002E00C
:101DA000104908394860704701460020002211F0B0
:101DB000805F03D00C4B083B1A6802E0094B083BDC
:101DC0001A680A4201D0012000E00020704710F09C
:101DD000805F03D00449091F086002E00149083907
:101DE00048607047080002400804024006488047E7
:101DF00006480047FEE7FEE7FEE7FEE7FEE7FEE7F0
:101E0000FEE7FEE7FEE7FEE7610600083101000895
:101E100010B5FEF751FE4FF48030FEF76DFEFEF771
:101E2000AAFE044600BF002CFDD00020FEF7E5FE10
:101E30000020FEF7EBFE0020FEF7F1FE4FF4E0116C
:101E40004FF48030FEF7BCFE0120FEF7C5FE00BF58
:101E50003920FEF774FE0028FAD00220FEF7BFFEFC
:101E600000BFFEF7C5FE0828FBD10020FEF7A5FE47
:101E700001210420FEF786FF01210820FEF782FFE2
:101E800001211020FEF77EFF01212020FEF77AFFBE
:101E900001214020FEF776FF01210846FEF772FF80
:101EA00010BD08B54FF4A060FFF75EFB07208DF86A
:101EB000000001208DF801008DF802008DF803006C
:101EC0006846FFF756FB08BD10B586B004464FF4D0
:101ED0000070ADF8140003208DF8160018208DF85E
:101EE000170005A96248FEF79BFC4FF48060ADF82F
:101EF000140004208DF8170005A95D48FEF790FC3A
:101F000001218803FEF73EFF01940020ADF8080090
:101F1000ADF80A00ADF80C00ADF810000C20ADF8DB
:101F20000E0001A95348FFF75EF901215148FFF760
:101F3000E6F906B010BD70B504460D4640214D4887
:101F4000FFF7C5FAA1B24B48FFF746FA00BF4021A0
:101F50004848FFF7AFFA0028F9D0204670BD10B509
:101F6000002000F0AEF80420FFF74EFB002000F048
:101F70008DF8414800F086F810BD70B50446002089
:101F800000F084F8012000F081F807E0002503E06C
:101F9000102000F0ADF80546002DF9D02000A4F186
:101FA0000104F3D1801E00F071F870BD00B587B058
:101FB000E020ADF8180018208DF81B0003208DF8E4
:101FC0001A0006A92A48FEF72BFC01210803FEF798
:101FD000D9FE00212948FFF708F80020ADF80400D9
:101FE0004FF48270ADF806000020ADF80800ADF89F
:101FF0000A00ADF80C004FF40070ADF80E000020A0
:10200000ADF81000ADF812000720ADF8140001A9DA
:102010001B48FEF745FF01211948FEF7E6FF07B010
:1020200000BD10B5044600BF02211548FFF761F856
:102030000028F9D021461248FFF708F810BD10B566
:1020400000BF02210E48FFF754F80028F9D0002104
:102050000B48FEF7FBFF00BF01210948FFF749F8D5
:102060000028F9D00648FEF7F3FFC0B210BD00000B
:1020700000080140003801404019010000380040CC
:10208000003001404FF0E02148617047012808D13D
:102090004FF0E021096941F001014FF0E0221161A8
:1020A0000EE0811C08D14FF0E021096921F0010107
:1020B0004FF0E022116103E000214FF0E022916136
:1020C000704740B14FF0E021096941F002014FF043
:1020D000E022116107E04FF0E021096921F00201DF
:1020E0004FF0E022116170474FF0E02080697047A7
:1020F00010B50146002200230020CB10022B03D193
:102100004FF0E024226902E04FF0E024E26901246C
:102110008C40144201D0012000E0002010BD30B5F9
:102120000B46014600202022012409E021FA02F595
:102130009D4205D303FA02F5491B04FA02F528442F
:10214000151EA2F10102F1DC30BD0000064C074D66
:1021500006E0E06840F0010394E807009847103477
:10216000AC42F6D3FDF7E8FF04230008242300085F
:102170000FB4054B10B503A9044A029800F018F8F3
:1021800010BC5DF814FB0000371F00082C00002075
:1021900002E008C8121F08C1002AFAD17047704730
:1021A000002001E001C1121F002AFBD1704700008E
:1021B0002DE9FF4F89B09A460446002597E025286F
:1021C00033D10027641C4E49B84601222378203BB6
:1021D00002FA03F0084202D00743641CF6E72078B5
:1021E0002E2819D114F8010F47F004072A280ED021
:1021F0006FF02F022078A0F1300109290CD808EBEC
:10220000880102EB410100EB0108641CF2E70A9827
:10221000641C50F8048B0A90207800286BD0642846
:1022200008D0692806D0752820D052460B999047CF
:102230006D1C5BE00A994FF00A0901C90A91002858
:1022400004DAC0F100004FF02D0102E0390504D599
:102250002B218DF82010012103E0F90704D0202163
:10226000F7E78B4608AE0EE00021FAE70A994FF037
:102270000A0901C90A91F7E74946FFF750FF01F142
:10228000300106F8011D0028F6D1ADEB060000F183
:102290002009780701D44FF00108C84502DDA8EBFA
:1022A000090000E000208046002706E008A852460A
:1022B000C05D0B9990476D1C7F1C5F45F6DB04E009
:1022C000302052460B9990476D1CB8F10001A8F1DF
:1022D0000108F5DC05E016F8010B52460B99904712
:1022E0006D1CB9F10001A9F10109F4DC641C20782E
:1022F00000287FF464AF0DB02846BDE8F08F0000E1
:1023000009280100242300080000002030000000FC
:102310009021000854230008300000201004000021
:10232000A02100080001000000A24A0400000000F3
:102330000000000001020304060708090000000075
:102340000102030401020304060708090204060847
:042350000000000089
:0400000508000131BD
:00000001FF
