:020000042000DA
:100000003064002009220020E1010020E3010020EB
:10001000E7010020EB010020EF01002000000000BC
:10002000000000000000000000000000F3010020BC
:10003000F501002000000000F7010020F901002078
:100040001F2500202322002023220020232200201D
:10005000232200202322002023220020232200200C
:1000600023220020232200202322002023220020FC
:1000700023220020232200202322002023220020EC
:1000800023220020232200202322002023220020DC
:1000900023220020232200202322002023220020CC
:1000A00023220020232200202322002023220020BC
:1000B000FB010020232200202322002023220020F5
:1000C000232200202322002023220020232200209C
:1000D000232200202322002023220020232200208C
:1000E000232200202322002023220020232200207C
:1000F000232200202322002023220020232200206C
:10010000232200202322002023220020232200205B
:10011000232200202322002023220020232200204B
:10012000232200202322002023220020232200203B
:10013000DFF80CD002F07AFA00480047670100208F
:100140003064002000E0401E0028FCD1704707E02A
:10015000002100E0491C4CF250329142FAD3401E7B
:100160000028F5D1704708B502F02BFA4020ADF811
:10017000000003208DF8020010208DF8030069466E
:100180000E4800F095F917E04FF47A7002F062F82B
:1001900001224021094800F03AFA09A002F058FA79
:1001A0004FF47A7002F056F800224021034800F024
:1001B0002EFA07A002F04CFAE6E700000008014022
:1001C0000A4750494F415F36BFAAC6F400000000FD
:1001D0000A4750494F415F36B9D8B1D500000000F9
:1001E000704700BFFEE700BFFEE700BFFEE700BFAD
:1001F000FEE7704770477047704710B506A002F0E1
:1002000027FA0121880701F0EAFF18B101218807C8
:1002100001F0F6FF10BD0000BDF8C8EB54494D32A7
:10022000D6D0B6CF0000000000210020674A126837
:1002300042F48032654B1A6000BF644A126802F4CF
:100240000030491C10B9B1F5A06FF6D15F4A1268B1
:1002500012F4003F01D0012000E00020012842D12B
:100260005B4A126842F01002594B1A601A46126833
:1002700022F003021A601A46126842F002021A6063
:10028000524A5268514B5A601A4652685A601A468E
:10029000526842F480625A601A46526822F47C1214
:1002A0005A601A46526842F4E8125A601A461268B6
:1002B00042F080721A6000BF444A126812F0007F58
:1002C000FAD0424A526822F00302404B5A601A4662
:1002D000526842F002025A6000BF3C4A526802F083
:1002E0000C02082AF9D1704710B5FFF79DFF10BD29
:1002F00010B53648006840F00100344908600846EF
:10030000406834490840314948600846006832492D
:1003100008402E4908600846006820F480200860E4
:100320000846406820F4FE0048604FF41F008860D3
:10033000FFF7DAFF4FF000602849086010BD10B5E4
:10034000002100200022214B5B6803F00C0121B149
:10035000042906D0082928D107E0214B214C23602D
:1003600027E01F4B1F4C236023E0184B5B6803F40E
:100370007010164B5B6803F48032022303EB90404D
:1003800022B9194B4343174C23600DE00F4B5B68B8
:1003900013F4003F04D0144B4343124C236003E09A
:1003A0000F4B43430F4C236003E00D4B0D4C236078
:1003B00000BF00BF054B5B68C3F303130B4CE15C4C
:1003C000084B1B68CB40074C236010BD0010024057
:1003D000002002400000FFF8FFFFF6FE08ED00E0FD
:1003E00000127A000060002000093D000460002037
:1003F00010B50446CA48844208D10121042000F007
:1004000023FB0021042000F01FFB46E0C548844286
:1004100008D10121082000F017FB0021082000F07E
:1004200013FB3AE0C048844208D10121102000F0BB
:100430000BFB0021102000F007FB2EE0BB4884429C
:1004400008D10121202000F0FFFA0021202000F037
:10045000FBFA22E0B648844208D10121402000F096
:10046000F3FA0021402000F0EFFA16E0B148844290
:1004700008D10121802000F0E7FA0021802000F05F
:10048000E3FA0AE0AC48844207D10121801500F06C
:10049000DBFA0021A01500F0D7FA10BD10B501213C
:1004A000084600F0D1FA0021012000F0CDFA10BD7D
:1004B0002DE9F041024600250026002000230024FB
:1004C000002791F803C00CF00F0591F803C01CF051
:1004D000100F03D091F802C04CEA050591F800C056
:1004E000BCF1000F31D0146800202BE04FF0010C5C
:1004F0000CFA00F3B1F800C00CEA03069E4220D1CA
:1005000083004FF00F0C0CFA03F7BC4305FA03FC11
:100510004CEA040491F803C0BCF1280F06D14FF057
:10052000010C0CFA00FCC2F814C00AE091F803C0F8
:10053000BCF1480F05D14FF0010C0CFA00FCC2F8D9
:1005400010C0401C0828D1D31460B1F800C0BCF121
:10055000FF0F34DD546800202EE000F1080C4FF04E
:10056000010808FA0CF3B1F800C00CEA03069E4239
:1005700021D183004FF00F0C0CFA03F7BC4305FAAE
:1005800003FC4CEA040491F803C0BCF1280F05D128
:1005900000F1080C08FA0CF8C2F8148091F803C0B6
:1005A000BCF1480F07D100F1080C4FF0010808FA20
:1005B0000CF8C2F81080401C0828CED35460BDE867
:1005C000F0814FF6FF710180022181700421C1701A
:1005D00070470246002093680B4201D0012000E0E2
:1005E000002070470146886880B2704702460020AC
:1005F000D3680B4201D0012000E000207047014683
:10060000C86880B2704701617047416170470AB1A4
:10061000016100E041617047C16070474FF4803272
:100620000A43826181618261826982697047024600
:100630000020424B18684FF68073184040EA0210C1
:1006400008433E4B186070473D49C8617047F0B59C
:100650000A46002300240021002500F00046B6F1E0
:10066000004F02D1354EF16901E0344E7168C0F39C
:10067000034583B200F44016B6F5401F08D121F0BF
:1006800070612E4E766826F070662C4F7E6012E008
:1006900000F48016B6F5801F06D1032606FA05F48D
:1006A000A14341F0706106E0460D360103FA06F6FB
:1006B000B14341F0706122B1460D360103FA06F6EE
:1006C000314300F00046B6F1004F02D11B4EF161FC
:1006D00001E01A4E7160F0BD30B500228B071C0F8F
:1006E0000F2303FA04F2154B08338C1053F824300F
:1006F0009343124C08348D1044F8253023468C1057
:1007000053F824308C07240F00FA04F423430B4CD5
:1007100008348D1044F8253030BD0A490860704710
:1007200000080140000C014000100140001401408D
:1007300000180140001C0140002001400000014061
:1007400000002042DC002042DB48006840F001004D
:10075000D949086008464068D8490840D6494860E9
:1007600008460068D6490840D34908600846006832
:1007700020F4802008600846406820F4FE004860AD
:100780004FF41F0088607047CB49096821F480311D
:10079000C94A11601146096821F480211160B0F541
:1007A000803F03D0B0F5802F0ED106E0C249096822
:1007B00041F48031C04A116007E0BF49096841F443
:1007C000A021BD4A116000E000BF00BF704710B516
:1007D00001460022002300204A11012A02D1B64C12
:1007E000236806E0022A02D1B34C236A01E0B24C2E
:1007F000636A01F01F02012494401C4201D00120D1
:1008000000E0002010BD70B500240025002600BFC8
:100810003120FFF7DCFF0646641CB4F5A06F01D061
:10082000002EF5D03120FFF7D2FF08B1012500E0FE
:100830000025284670BD014600209F4A106820F020
:10084000F80040EAC100106070479E490860704798
:1008500002460020984B586820F47C1042EA0103BD
:100860001843954B58607047964908667047014693
:100870000020914A506820F0030008435060704700
:100880008D48406800F00C007047014600208A4AFD
:10089000506820F0F0000843506070470146002087
:1008A000854A506820F4E060084350607047014674
:1008B0000020814A506820F4605040EAC100506036
:1008C000704729B17C4A527A02437B4B5A7204E04A
:1008D000794A527A8243784B5A7270477A49086053
:1008E000704701460020744A506820F44040084395
:1008F000506070470021754A11706F4A82F82010CD
:10090000012802D0042808D103E001216F4A1170A8
:1009100004E005216D4A117000E000BF00BF704780
:100920006B49086070476449096A0143624A116271
:100930007047674944390860704730B5002100228C
:10094000002400235C4D6D6805F00C0121B10429E1
:1009500005D0082923D105E05E4D056022E05D4DFC
:1009600005601FE0544D6D6805F47012524D6D68BE
:1009700005F48034022505EB92421CB9564D5543CF
:1009800005600BE04C4D6D6815F4003F03D0524DEF
:100990005543056002E04F4D5543056002E04D4D63
:1009A000056000BF00BF444D6D6805F0F001090906
:1009B0004A4D6B5C0568DD4045603F4D6D6805F450
:1009C000E061090A454D6B5C4568DD4085603A4D44
:1009D0006D6805F46051C90A404D6B5C4568DD40A7
:1009E000C560354D6D6805F44041890B3C4D6B5C2D
:1009F000C568B5FBF3F5056130BD29B12E4A5269D2
:100A000002432D4B5A6104E02B4A526982432A4B20
:100A10005A61704729B1284A92690243264B9A616C
:100A200004E0254A92698243234B9A61704729B1B9
:100A3000214AD2690243204BDA6104E01E4AD2699E
:100A400082431D4BDA61704729B11B4AD2680243C9
:100A5000194BDA6004E0184AD2688243164BDA6018
:100A6000704729B1144A12690243134B1A6104E01A
:100A7000114A12698243104B1A6170471449403978
:100A8000086070470F49C86470470B49C8717047C8
:100A90000948406A40F08070074948627047014643
:100AA0000020054A92680A4201D0012000E000209F
:100AB0007047014988727047001002400000FFF83B
:100AC000FFFFF6FE00004242D800424220100240E2
:100AD0008004424200127A0000093D0014600020A8
:100AE0002460002010B50446BE48844208D101218C
:100AF0008014FFF7A9FF0021A014FFF7A5FF16E05F
:100B0000B948844208D101210014FFF7AAFF00214F
:100B10002014FFF7A6FF0AE0B448844207D1012160
:100B2000C013FFF79EFF0021E013FFF79AFF10BDEF
:100B300010B50022028802F441520B884C882343EE
:100B40008C882343CC8823430C8923434C8923433B
:100B50008C892343CC8923431A430280838B4FF231
:100B6000FF74234083830B8A038210BD2DE9F04F6D
:100B700085B005460C464FF0000902274FF00008EB
:100B80004FF0010B0026B246A88B4FF240010840FF
:100B9000A88302202884B5F81C90A068022801D1FF
:100BA00000BF38E0A08810B94FF0010B01E04FF012
:100BB000020B8D48854200D100E000BF6846FFF778
:100BC000BCFEDDF800A0E088B0F5007F0AD14FEA56
:100BD0001A2000EB80004000A168B0FBF1F0401D3E
:100BE00086B20BE04FEA4B10BAFBF0F000EB80004E
:100BF0004000A168B0FBF1F0401D86B20A20B6FBB0
:100C0000F0F606F00108A6EB0800C0F34F074FF618
:100C1000FF7000EA0828022F01DBFF2F02DD022708
:100C20004FF00008E08840EA080038432884A08894
:100C3000A1890843618808432188084340F4006083
:100C400040EA0909A5F81C9005B0BDE8F08F002125
:100C5000018041808180C180018141818181C18188
:100C60000721018270470021018041808180C1807D
:100C70000221816000218181704721B1028842F008
:100C80004002028004E002884FF6BF731A400280DF
:100C9000704721B1828B42F48062828304E0828BB0
:100CA0004FF6FF331A408283704730B5002400238B
:100CB0000C110125A540ABB21AB185881D43858072
:100CC00002E085889D43858030BD1AB183880B433F
:100CD000838002E083888B438380704781817047E3
:100CE000014688897047A1F57E42FF3A04D0028808
:100CF00042F48072028004E002884FF6FF631A40DB
:100D00000280704721B1828842F00402828004E0B0
:100D100082884FF6FB731A408280704702884FF238
:100D2000FF731A40028002880A43028070470188DC
:100D300041F480510180704721B1028842F4005291
:100D4000028004E002884DF6FF731A40028070476B
:100D500002460020012901D0108B00E0908A7047E4
:100D60000146088A7047B1F5804F04D1028842F4E9
:100D70008042028004E002884BF6FF731A40028032
:100D800070470246002013890B4201D0012000E089
:100D900000207047CA4302817047F0B50246002028
:100DA00000240023002501F00F070126BE40B4B245
:100DB0000B1101269E40B3B2968806EA03051689F8
:100DC000264202D00DB1012000E00020F0BD10B598
:100DD000002201F00F040123A3409AB2D343038100
:100DE00010BD00000030014000380040003C0040D1
:100DF00010B50446FB48844209D101218803FFF75E
:100E000023FE00214FF48040FFF71EFE32E0F6483B
:100E1000844209D101214804FFF723FE00214FF449
:100E20000030FFF71EFE25E0F048844209D1012181
:100E30008804FFF716FE00214FF48020FFF711FE13
:100E400018E0EB48844209D10121C804FFF709FEEC
:100E500000214FF40020FFF704FE0BE0E548844238
:100E600008D101210805FFF7FCFD00214FF4801097
:100E7000FFF7F7FD10BD2DE9F04786B005460E4699
:100E80000024A24600BFA1460027B08900B100BFE0
:100E90002F462C8A4CF6FF700440F08804432C82C5
:100EA000AC894EF6F3100440B0883189084371894B
:100EB00008430443AC81AC8A4FF6FF400440B0893C
:100EC0000443AC8201A8FFF738FDC648874202D12F
:100ED000DDF810A001E0DDF80CA0A88910F4004FA7
:100EE00008D00AEBCA0000EB0A1031684900B0FBD9
:100EF000F1F807E00AEBCA0000EB0A10316889003C
:100F0000B0FBF1F86420B8FBF0F004012009642183
:100F100001FB1089A88910F4004F08D0322000EBA3
:100F2000C900B0FBF1F000F00700044308E03220F4
:100F300000EB09106421B0FBF1F000F00F00044356
:100F40002C8106B0BDE8F0874FF4165101600021F6
:100F50008180C18001810C21418100218181704704
:100F600010B502460020108A4FF2FF0318400B888C
:100F70004C8823438C882343CC8823431843108216
:100F800010BD0021018041808180C180704721B166
:100F9000828942F40052828104E082894DF6FF7317
:100FA0001A4082817047F0B50346002400260025D0
:100FB0000020A1F510676A3F00D100BF1846C1F3B9
:100FC000421401F01F06012707FA06F5012C01D192
:100FD0000C3004E0022C01D1103000E014301AB1C2
:100FE00007682F43076002E00768AF430760F0BD62
:100FF0001AB1838A0B43838202E0838A8B43838204
:101000007047028A4FF6F0731A400282028A0A433E
:101010000282704782894FF2FF731A40828182896F
:101020000A438281704721B1828942F002028281A3
:1010300004E082894FF6FD731A4082817047028A6C
:101040004FF6DF731A400282028A0A430282704717
:1010500021B1028A42F48042028204E0028A4BF605
:10106000FF731A4002827047C1F308028280704702
:1010700001468888C0F308007047818941F001016A
:1010800081817047028BD2B20283028B42EA012235
:1010900002837047028B02F47F420283028B0A4371
:1010A0000283704721B1828A42F02002828204E0EA
:1010B000828A4FF6DF731A408282704721B1828A9A
:1010C00042F01002828204E0828A4FF6EF731A40E7
:1010D0008282704721B1828A42F00802828204E053
:1010E000828A4FF6F7731A408282704721B1828953
:1010F00042F40042828103E08289C2F30E028281BF
:10110000704721B1828A42F40062828204E0828ABE
:101110004FF2FF731A4082827047828A4FF6FB7348
:101120001A408282828A0A438282704721B1828A6F
:1011300042F00202828204E0828A4FF6FD731A4076
:101140008282704702460020B1F5007F00D100BFC7
:1011500013880B4201D0012000E00020704701F409
:101160000072B2F5007F00D100BFCA430280704711
:1011700070B502460024002300250020A1F510666A
:101180006A3E00D100BFC1F3421501F01F030126E2
:1011900006FA03F3012D02D19689334006E0022DB1
:1011A00002D1168A334001E0968A33400C120126A0
:1011B00006FA04F41688344013B10CB1012000E0A3
:1011C000002070BD10B500220023A1F510646A3C18
:1011D00000D100BF0A1201249440A3B2DC43048072
:1011E00010BD0000003801400044004000480040AD
:1011F000004C00400050004031490143314A116029
:10120000704770B5002100230F22C4780CB32D4C19
:10121000246804F4E064C4F5E064210AC1F1040325
:10122000CA40447804FA03F1847814402143090148
:10123000254C0678A155047804F01F050124AC4024
:1012400005786D114FF0E02606EB8505C5F80041E5
:1012500009E0047804F01F050124AC401B4D06781A
:10126000761145F8264070BD194A0A400243154BD5
:101270001B1F1A60704739B1124A121D12680243CF
:10128000104B1B1D1A6006E00E4A121D12688243A5
:101290000C4B1B1D1A607047042808D14FF0E02149
:1012A000096941F004014FF0E022116107E04FF0BD
:1012B000E021096921F004014FF0E022116170473B
:1012C0000000FA050CED00E000E400E080E100E041
:1012D00080FFFF1F10B50121C802FFF7C2FB0021EC
:1012E0004FF40060FFF7BDFB10BD0021164A1268E5
:1012F00022F4C0710143144A116070470021124A60
:10130000126822F07F0100F07F0211430E4A116043
:10131000704701200D490860704700F07F010A4ABC
:10132000121F1160704740F08001074A121F1160C0
:1013300070470548001D0068C0B270470020024990
:10134000091D086070470000042C0040A48005427D
:101350004FF0E02148617047012808D14FF0E021AB
:10136000096941F001014FF0E02211610EE0811C9A
:1013700008D14FF0E021096921F001014FF0E0228E
:10138000116103E000214FF0E0229161704740B10C
:101390004FF0E021096941F002014FF0E0221161B4
:1013A00007E04FF0E021096921F002014FF0E0224F
:1013B000116170474FF0E0208069704710B5014619
:1013C000002200230020CB10022B03D14FF0E02499
:1013D000226902E04FF0E024E26901248C401442CB
:1013E00001D0012000E0002010BD000010B504462F
:1013F000FE48844208D10121C014FFF725FB0021DB
:10140000E014FFF721FBC4E0B4F1804F08D10121C3
:101410000846FFF726FB00210120FFF722FBB8E07A
:10142000F348844208D101210220FFF71AFB002172
:101430000220FFF716FBACE0EE48844208D1012100
:101440000420FFF70EFB00210420FFF70AFBA0E0B9
:10145000E948844208D101210820FFF702FB00215E
:101460000820FFF7FEFA94E0E448844208D1012105
:101470001020FFF7F6FA00211020FFF7F2FA88E0BB
:10148000DF48844208D101212020FFF7EAFA002139
:101490002020FFF7E6FA7CE0DA48844208D10121F7
:1014A0004014FFF7D1FA00216014FFF7CDFA70E085
:1014B000D548844209D10121C804FFF7C5FA0021AB
:1014C0004FF40020FFF7C0FA63E0D048844209D10E
:1014D00001210805FFF7B8FA00214FF48010FFF74B
:1014E000B3FA56E0CA48844209D101214805FFF702
:1014F000ABFA00214FF40010FFF7A6FA49E0C54807
:10150000844208D101214020FFF7ABFA002140209E
:10151000FFF7A7FA3DE0C048844208D101218020AE
:10152000FFF79FFA00218020FFF79BFA31E0BB48CC
:10153000844208D101218015FFF793FA0021A015FC
:10154000FFF78FFA25E0B648844209D1012108044B
:10155000FFF77AFA00214FF48030FFF775FA18E0B0
:10156000B048844209D101214804FFF76DFA0021F7
:101570004FF40030FFF768FA0BE0AB48844208D123
:1015800001218804FFF760FA00214FF48020FFF763
:101590005BFA10BD00220288944B98420ED0994B02
:1015A00098420BD0B0F1804F08D0914B984205D0B3
:1015B000904B984202D0904B984204D14FF68F73D3
:1015C0001A404B881A438D4B984207D08C4B984257
:1015D00004D04FF6FF431A40CB881A4302808B8811
:1015E00083850B880385814B98420BD0854B9842AD
:1015F00008D08B4B984205D08A4B984202D08A4B38
:10160000984201D10B7A038601238382704770B51B
:10161000002400220023058C4FF6FE763540058419
:10162000028C8388048B4FF68F752C40B51E2C409E
:101630000D882C43751E2A400D892A434D882A4364
:101640006A4DA8420BD06F4DA84208D0744DA842F5
:1016500005D0744DA84202D0734DA84213D14FF665
:10166000F7752A404D892A434FF6FB752A408D882D
:101670002A434FF6FF652B404FF6FF552B408D89CF
:101680002B43CD892B4383800483CD8885860284B8
:1016900070BD70B5002400220023058C4FF6EF7654
:1016A00035400584028C8388048B48F6FF752C40F6
:1016B0004FF6FF452C400D884FF6FF7606EA0525CC
:1016C0002C434FF6DF752A400D8906EA05152A439B
:1016D0004D8806EA05152A43444DA84202D0494DDB
:1016E000A8421DD14FF67F752A404D894FF6FF76EF
:1016F00006EA05152A434FF6BF752A408D8806EA8B
:1017000005152A434FF6FF352B404FF2FF752B404E
:101710008D8906EA85052B43CD8906EA85052B438D
:1017200083800483CD880587028470BD70B5002452
:1017300000220023058C4FF6FF6635400584028C9D
:101740008388848B4FF68F752C404FF6FC752C40A8
:101750000D882C434FF6FF552A400D894FF6FF7632
:1017600006EA05252A434D8806EA05252A431F4D2A
:10177000A84202D0234DA8421DD14FF2FF752A4046
:101780004D894FF6FF7606EA05252A434FF6FF35C9
:101790002A408D8806EA05252A434EF6FF752B4020
:1017A0004DF6FF752B408D8906EA05152B43CD8933
:1017B00006EA05152B4383808483CD8885870284C0
:1017C00070BD70B5002200230024058C4EF6FF7614
:1017D00035400584038C8488828B48F6FF752A4047
:1017E0004FF6FF452A400D8820E00000002C014004
:1017F0000004004000080040000C004000100040C1
:101800000014004000340140004C014000500140F1
:101810000054014000180040001C0040002000401F
:101820000040014000440140004801404FF6FF766F
:1018300006EA05252A434DF6FF752B400D8906EA79
:1018400005352B434D8806EA05352B43FA4DA84252
:1018500002D0FA4DA84208D14BF6FF752C408D8975
:101860004FF6FF7606EA85152C4384808283CD8867
:10187000A0F84050038470BD828B4FF2FF331A40B2
:101880008283828B4FF6FF7303EA01231A4382831C
:101890007047F0B50C461546002200210026078C43
:1018A0004EF6FF7C07EA0C070784828B018C4FF60B
:1018B000FF7707EA043640F6FF473A404FF6FF77D6
:1018C00007EA05273A434FF6FF7707EA03373A431B
:1018D000D94FB8420ED0D94FB8420BD0B0F1804F9B
:1018E00008D0D74FB84205D0D64FB84202D0D64F15
:1018F000B84206D14DF6FF77394046F48057394358
:1019000005E047F6FF57394044F480573943828356
:101910000184F0BD828B4FF6F3731A408283828B71
:101920000A4382837047F0B50C4615460022002119
:101930000026078C4FF6FF6C07EA0C070784828BA2
:10194000018C4FF6FF7707EA04264FF60C773A40F2
:101950004FF6FF7707EA03172F433A43B64FB842D3
:101960000ED0B64FB8420BD0B0F1804F08D0B44F74
:10197000B84205D0B34FB84202D0B34FB84206D1F7
:101980004FF6FF57394046F48077394305E04FF270
:10199000FF57394044F48077394382830184F0BD96
:1019A000028B4FF2FF331A400283028B4FF6FF7314
:1019B00003EA01231A4302837047F0B50C4615462B
:1019C000002200210026078C4FF6EF7C07EA0C0767
:1019D0000784028B018C4FF6FF7707EA041640F666
:1019E000FF473A404FF6FF7707EA03373A434FF68F
:1019F000FF7707EA05273A438F4FB8420ED08F4F43
:101A0000B8420BD0B0F1804F08D08D4FB84205D00E
:101A10008C4FB84202D08C4FB84206D14FF6DF77D8
:101A2000394046F01007394305E04FF65F773940FB
:101A300044F01007394302830184F0BD028B4FF656
:101A4000F3731A400283028B0A4302837047F0B596
:101A50000C46154600220021068C4FF6FE773E40CC
:101A60000684028B018C4FF60C7632407E1C06EA0F
:101A700003162E433243704EB0420ED06F4EB0422A
:101A80000BD0B0F1804F08D06D4EB04205D06D4EF6
:101A9000B04202D06C4EB04206D14FF6FD763140D6
:101AA00044F00106314305E04FF6F576314044F04D
:101AB0000106314302830184F0BD70B505460C4632
:101AC0005D4885420ED05D4885420BD0B5F1804F10
:101AD00008D05B48854205D05A48854202D05A4812
:101AE000854200D100E000BF208850B92389A28838
:101AF00061882846FFF7ABFFE1882846FFF79EFF85
:101B000025E0208804280AD12389A28861882846F4
:101B1000FFF753FFE1882846FFF742FF17E02088D0
:101B200008280AD12389A28861882846FFF7FBFE8E
:101B3000E1882846FFF7EEFE09E02389A288618844
:101B40002846FFF7A6FEE1882846FFF795FE70BD00
:101B50002DE9F04105460C4600260127608808B9AA
:101B6000022600E00026A088012801D1022700E01B
:101B700001272088A0B92389A28861882846FFF719
:101B800066FFE1882846FFF759FF23893A46314628
:101B90002846FFF712FFE1882846FFF701FF13E010
:101BA0002389A28861882846FFF707FFE188284635
:101BB000FFF7F6FE23893A4631462846FFF747FFEE
:101BC000E1882846FFF73AFFBDE8F0810A884B8894
:101BD0001A438B881A43CB881A430B891A434B89C3
:101BE0001A438B891A43A0F8442070474FF6FF71BF
:101BF000818000210180C1804180017270470021F5
:101C0000018041808180C180018141818181C181C8
:101C10007047002101804180012181800021C18025
:101C2000018170470021018041808180C180018154
:101C30004181818170470000002C01400034014047
:101C40000004004000080040000C004021B1028860
:101C500042F00102028004E002884FF6FE731A404F
:101C60000280704731B1B0F8442042F40042A0F83D
:101C7000442005E0B0F84420C2F30E02A0F844204E
:101C800070471AB183890B43838102E083898B43B8
:101C9000838170478182704741EA0203A0F848308F
:101CA00070471AB183890B43838102E083898B4398
:101CB0008381704701894FF6F872114001817047A6
:101CC0000A46002101894FF68F73194011430181A3
:101CD000704730B504460D4629462046FFF7F0FF11
:101CE000208940F00700208130BD2DE9F0410446F5
:101CF0000D4616461F46602D06D13B460122314651
:101D00002046FFF75AFE05E03B46012231462046B9
:101D1000FFF79DFE29462046FFF7D2FF208940F0BD
:101D200007002081BDE8F08130B50C460021018913
:101D3000C9B24FF6FF7505EA03251543254329432C
:101D4000018130BD2DE9F04105460E461746984603
:101D5000002443463A4631462846FFF7E5FF2C89E2
:101D60004FF6F870044044F007044FF68F700440BB
:101D700044F070042C81BDE8F081F0B504460D46B6
:101D800016461F463B46324629462046FFF7CCFF03
:101D9000208940F480402081F0BD01858282704717
:101DA0000A46002101884FF68F73194011430180C4
:101DB0007047F0B50C4615461E4600210022002350
:101DC0000189028B038C4FF6F877394021434FF697
:101DD000FC473A4040F201173A434FF6DD773B406B
:101DE0004FF6FF7707EA06172F433B430181028333
:101DF0000384F0BD0A460021018B4FF68F73194012
:101E00001143018370470A460021018B48F6FF7396
:101E100019404FF6FF7303EA022319430183704709
:101E20000A460021818B4FF68F731940114381833D
:101E300070470A460021818B48F6FF7319404FF620
:101E4000FF7303EA022319438183704721B102889B
:101E500042F08002028004E002884FF67F731A404D
:101E60000280704721B1828842F00402828004E03F
:101E700082884FF6FB731A408280704721B18288B6
:101E800042F00802828004E082884FF6F7731A401D
:101E90008280704721B1828842F00102828004E092
:101EA00082884FF6FE731A40828070470A460021EE
:101EB000018B4FF6F77319401143018370470A46AF
:101EC0000021018B4FF2FF7319404FF6FF7303EAB5
:101ED00002231943018370470A460021818B4FF684
:101EE000F77319401143818370470A460021818BA3
:101EF0004FF2FF7319404FF6FF7303EA02231943B1
:101F0000818370470A460021018B4FF6FB7319400D
:101F10001143018370470A460021018B4FF6FF33BE
:101F200019404FF6FF7303EA0223194301837047F8
:101F30000A460021818B4FF6FB73194011438183C0
:101F400070470A460021818B4FF6FF3319404FF648
:101F5000FF7303EA02231943818370470A46002175
:101F6000018B4FF67F7319401143018370470A4676
:101F70000021018BC1F30E014FF6FF7303EA022328
:101F80001943018370470A460021818B4FF67F7306
:101F900019401143818370470A460021818BC1F3A8
:101FA0000E014FF6FF7303EA022319438183704742
:101FB0000A460021018C4FF6FD731940114301843C
:101FC00070470A460021018C4FF6F7731940114300
:101FD000018470470A460021018C4FF6DF731940D7
:101FE0004FF6FF7303EA02131943018470470A4650
:101FF0000021018C4FF67F7319404FF6FF7303EAFF
:1020000002131943018470470A460021018C4FF6E0
:10201000FF5319404FF6FF7303EA0223194301846B
:1020200070470A460021018C4FF2FF7319404FF6AA
:10203000FF7303EA02231943018470470A46002113
:10204000018C4DF6FF7319404FF6FF7303EA02331C
:1020500019430184704730B5002301248C40A3B29A
:10206000048C9C430484048C02FA01F5ADB22C4329
:10207000048430BD30B5002304248C40A3B2048C0A
:102080009C430484048C02FA01F5ADB22C43048411
:1020900030BD70B5034600200024184618300125D5
:1020A0008D40ACB21D8CA5431D8409B1082909D10E
:1020B00000EB6100056825F07005056005681543B3
:1020C00005600EE00D1FC5F34E052844056825F494
:1020D000E045056005684FF6FF7606EA02263543BF
:1020E000056070BD21B1028842F00202028004E066
:1020F00002884FF6FD731A400280704721B10288B2
:1021000042F00402028004E002884FF6FB731A409A
:102110000280704721B1828842F08002828004E010
:1021200082884FF67F731A408280704702884FF68C
:10213000F7731A40028002880A430280704782883F
:102140004FF68F731A40828082880A4382807047DC
:1021500002894FF6F8731A40028102890A4302810C
:10216000704702894FF67F731A40028102890A4341
:1021700002817047818470478185704781867047EE
:102180000187704781877047A0F840107047028828
:102190004FF6FF431A40028002880A4302807047CC
:1021A0000146888E70470146088F70470146888F28
:1021B00070470146B1F8400070470146888C70476F
:1021C0000146088D704702460020138A0B4201D059
:1021D000012000E000207047CA430282704730B5FA
:1021E0000246002000230024158A05EA0103958990
:1021F00005EA010413B10CB1012000E0002030BD5C
:10220000CA430282704700000648804706480047DC
:10221000FEE7FEE7FEE7FEE7FEE7FEE7FEE7FEE796
:10222000FEE7FEE7F10200203101002070B5044610
:102230000D4640214448FEF792FFA1B24248FEF706
:1022400013FF00BF40214048FEF77CFF0028F9D073
:10225000204670BD70B504460020FFF77DF80120D0
:10226000FFF77AF807E0002503E01020FFF7A6F853
:102270000546002DF9D02000A4F10104F3D1801E01
:10228000FFF76AF870BD00B587B0E020ADF8180020
:1022900018208DF81B0003208DF81A0006A92B4882
:1022A000FEF706F901210803FEF7B4FB00212848D8
:1022B000FEF7E3FC0020ADF804004FF48270ADF8A7
:1022C00006000020ADF80800ADF80A00ADF80C00DB
:1022D0004FF40070ADF80E000020ADF81000ADF81E
:1022E00012000720ADF8140001A91A48FEF720FCDF
:1022F00001211848FEF7C1FC07B000BD10B5044627
:1023000000BF02211348FEF73CFD0028F9D021460A
:102310001048FEF7E3FC10BD10B500BF02210D48C8
:10232000FEF72FFD0028F9D000210A48FEF7D6FC61
:1023300000BF01210748FEF724FD0028F9D0054819
:10234000FEF7CEFCC0B210BD0038014000080140CD
:10235000003800400030014010B5FEF7F5F94FF4A9
:102360008030FEF711FAFEF74EFA044600BF002C4B
:10237000FDD00020FEF789FA0020FEF78FFA00203A
:10238000FEF795FA4FF4E0114FF48030FEF760FA53
:102390000120FEF769FA00BF3920FEF718FA00287D
:1023A000FAD00220FEF763FA00BFFEF769FA0828A8
:1023B000FBD10020FEF749FA01210420FEF72AFB99
:1023C00001210820FEF726FB01211020FEF722FB49
:1023D00001212020FEF71EFB01214020FEF71AFB01
:1023E00001210846FEF716FB10BD10B50020FEF7D0
:1023F000CEFF6FF00400FEF74FFF0020FEF7ACFFAA
:1024000042F22830FEF7A4FF10BD10B586B0044696
:102410004FF40070ADF8140003208DF8160018205A
:102420008DF8170005A96F48FEF742F84FF4806059
:10243000ADF8140004208DF8170005A96948FEF7CF
:1024400037F801218803FEF7E5FA01218803FEF73A
:10245000E1FA01940020ADF80800ADF80A00ADF8EB
:102460000C00ADF810000C20ADF80E0001A95E487C
:10247000FEF701FD40F225515B48FEF770FE012298
:1024800040F225515848FEF78EFD01215648FEF7CF
:102490007EFD06B010BD08B54020ADF80000032059
:1024A0008DF8020014208DF8030069464F48FDF7AF
:1024B000FFFF8020ADF8000003208DF802001420FB
:1024C0008DF8030069464948FDF7F2FF08BD08B5DD
:1024D0004FF4A060FEF790FE1C208DF80000002055
:1024E0008DF801008DF8020001208DF80300684688
:1024F000FEF787FE08BD10B50121C802FEF797FA66
:102500004FF4C070FEF7F1FE4120FEF7F7FE5020B9
:10251000FEF709FFFEF712FFFEF7FBFE10BD10B538
:102520005020FEF7FAFEFEF709FF10BD00B589B096
:1025300001210820FEF76EFA4FF48060ADF820000C
:1025400010208DF8230003208DF8220008A92748C9
:10255000FDF7AEFF01210846FEF769FA42F20F705F
:10256000ADF8080041F61F40ADF804000020ADF8BA
:102570000A00ADF8060001A94FF08040FFF70AF805
:102580006020ADF810000020ADF818000120ADF873
:1025900012004FF41670ADF8160004A94FF08040F9
:1025A000FFF7C4F80821C806FFF796FC0122402176
:1025B0000806FFF766FB01218807FFF747FB09B014
:1025C00000BD10B5FFF7C8FE4FF41650FFF71DFF12
:1025D00007A000F03DF80DA000F03AF8FFF705FF66
:1025E00010BD00000008014000380140000C01400F
:1025F0000A4472697665725F4D43555F496E69742E
:10260000B3F5CABCBBAFCDEAB3C900000A5553410C
:102610005254315F436F6E66696775726174696F9A
:102620006EB3F5CABCBBAFCDEAB3C900064C074DCB
:1026300006E0E06840F0010394E807009847103492
:10264000AC42F6D3FDF778FDA0260020C02600207E
:10265000014A024900F013B82D2200202860002012
:1026600002E008C8121F08C1002AFAD1704770475B
:10267000002001E001C1121F002AFBD170472DE9A3
:10268000F04116460F460446002503E03946B047A0
:102690006D1C641C20780028F8D12846BDE8F08124
:1026A000C0260020006000202C00000060260020D2
:1026B000EC2600202C60002004040000702600207E
:1026C00000A24A0400000000000000000102030410
:1026D00006070809000000000102030401020304C8
:0C26E000060708090204060800000000BC
:0400000520000131A5
:00000001FF
