:020000040800F2
:10000000A81F0020392A00087D0300087F0300088C
:1000100083030008870300088B030008000000002A
:100020000000000000000000000000008F03000836
:1000300091030008000000009303000895030008E6
:10004000532A0008532A0008532A0008532A00089C
:10005000532A0008532A0008532A0008532A00088C
:10006000532A0008532A0008BF030008532A000837
:10007000532A0008532A0008532A0008532A00086C
:10008000532A0008532A0008532A0008532A00085C
:10009000532A0008532A0008532A0008C9030008FD
:1000A000532A0008532A0008532A0008532A00083C
:1000B000532A000897030008AB030008532A0008DE
:1000C000532A0008532A0008532A0008532A00081C
:1000D000532A0008F3030008532A0008532A000893
:1000E000532A0008532A0008532A0008532A0008FC
:1000F000532A0008532A0008532A0008532A0008EC
:10010000532A0008532A0008532A0008532A0008DB
:1001100023040008532A0008532A0008532A000821
:10012000532A0008532A0008532A0008532A0008BB
:10013000DFF80CD005F016FF004800471302000856
:10014000A81F002010B57B480078C043794908708B
:10015000084602784FF48071774800F040FD7548FA
:1001600002784FF40041744800F039FD714802787C
:100170000421724800F033FD6E48027820216F4858
:1001800000F02DFD00BF40216D4801F0C7FA0028A6
:10019000F9D040216A4801F0CEFA6321684801F0A5
:1001A0004FFA10BD10B567480068C16C654800681B
:1001B0008847644800686449426C62480068904718
:1001C00060480068016D5F480068884710BD10B541
:1001D00059485C490968086010205A4909688880B4
:1001E0005A485849096888608015564909688881C5
:1001F0005648544909680861802052490968888234
:1002000053485049096888614E48006804F058FF17
:1002100010BD0EB503F0B1F803F0E3FB04F07EFD72
:1002200003F05DFC03F059FE02F000FF04F018FB40
:1002300002F0E7FD05F00FFAFFF7C9FF45A005F052
:10024000CFFEC8230022114601A802F04FFF012073
:10025000434B0090DDE9011203F0E0F800234FF476
:10026000FA72194601A802F041FF0020AFF22B13E9
:1002700000900220DDE9011203F0D0F8394908703E
:1002800000233222194601A802F030FF0020364B2D
:1002900000900320DDE9011203F0C0F800233222B0
:1002A000194601A802F022FF0020304B00900420E4
:1002B000DDE9011203F0B2F800234FF4FA72194697
:1002C00001A802F013FF0020AFF2271300900520D1
:1002D000DDE9011203F0A2F800231922194601A852
:1002E00002F004FF0020224B00900620DDE90112FD
:1002F00003F094F800231922194601A802F0F6FE33
:1003000000201C4B00900720DDE9011203F086F865
:1003100000231922194601A802F0E8FE0020164B1E
:1003200000900820DDE9011203F078F801E003F005
:1003300019F9FCE70100002000080140000C014011
:1003400000500040AC0000200400002000100140DC
:10035000003001406D61696E20646F6E650D0A00AA
:10036000894C000800000020BF3B0008D93C000871
:10037000CB430008C139000851490008704700BF4D
:10038000FEE700BFFEE700BFFEE700BFFEE77047E5
:1003900070477047704710B501202D4909680876ED
:1003A00001212C4802F08CF910BD10B501202A491A
:1003B000096808760121294802F082F910BD10B5BC
:1003C000102002F006FA10BD10B54FF4807002F054
:1003D000EFF901280CD122480068416D20480068DF
:1003E000884720A005F0FCFD4FF4807002F0F1F981
:1003F00010BD10B540F225511C4801F0A5F978B1A7
:1004000020211A4801F097F9184801F01DF9044617
:10041000204603F0FAF940F22551144801F0BEF9E4
:1004200010BD10B5002440F22551114801F08CF99F
:1004300068B10F4801F008F9C4B221460D480068C0
:1004400003F02BFC40F22551094801F0A7F910BD3B
:1004500090000020000400409400002000080040AC
:10046000AC0000204952510D0A0000000038014044
:10047000004C0040880000207CB50546AC1D94F976
:100480000200002803DB94F90200032807DD94F939
:10049000021095A005F0A4FD4FF0FF307CBD94F94B
:1004A0000500002803DB94F90500032807DD94F913
:1004B000051093A005F094FD6FF00100EEE7207A9F
:1004C000E179A27941EA0221CDE900102079E678AC
:1004D00040EA062294F9053094F902108EA005F046
:1004E0007FFD0020DAE770B50546AC1D9AA005F047
:1004F00077FD9E48006800F11C0620222946304600
:1005000005F045F920223146994800681C3005F075
:100510003EF92079E67840EA0622A17894480068FE
:10052000D0F8D430924800689847E079A67940EA3C
:10053000062261798D480068D0F8D4308B48006875
:10054000984770BD7FB50546AC1DA078012802DB39
:10055000A078032807DDA17863A005F041FD4FF0E6
:10056000FF3004B070BDE079012802DBE079032898
:1005700006DD617962A005F033FD6FF00100F0E760
:10058000207BE17AA27A41EA0221627A237A42EA66
:100590000322E379CDE90032CDE90210A079667932
:1005A00040EA06232079E67840EA0622A1787148DD
:1005B00005F016FD0020D4E72DE9F0410546AC1DFD
:1005C0006DA005F00DFD6948006800F11C062022B1
:1005D0002946304605F0DBF82022314664480068A1
:1005E0001C3005F0D4F8A079677940EA072003B2FF
:1005F0002079E77840EA0722A1785D480068D0F8C2
:10060000D8605B480068B047E07AA77A40EA0720E4
:1006100003B2607A277A40EA0722E17953480068FA
:10062000D0F8D86051480068B047BDE8F08170B597
:100630000546AC1DA078B42806DDA17855A005F0CC
:10064000CFFC4FF0FF3070BDA17858A005F0C8FC7A
:100650000020F8E770B50446A51D59A005F0C0FCC0
:1006600020222146424800681C3005F090F8A97805
:1006700058480068026B574800689047A978564868
:100680000068026B54480068904770BD00B589B09F
:10069000142104A805F094F801208DF81000002022
:1006A0008DF811003248006890F8C2008DF81200F1
:1006B00002208DF8130000208DF814002B480068EC
:1006C00090F8C2008DF815000D2002900798009058
:1006D000BDF82000ADF80400012004A90EC903F004
:1006E00037F909B000BD0000D7F3C2D6B7BDCFF2CD
:1006F000B2CECAFDB3F6B4EDA3BA25640D0A00006C
:10070000D3D2C2D6B7BDCFF2B2CECAFDB3F6B4EDE6
:10071000A3BA25640D0A00000D0A0D0A0D0AD7F3CD
:10072000C2D6B7BDCFF2A3BA256420CBD9B6C8A331
:10073000BA25640D0AD3D2C2D6B7BDCFF2A3BA256B
:100740006420CBD9B6C8A3BA25640D0AD0F2BAC5C5
:10075000A3BA25640D0A00000D0AD6B4D0D0D4CBBC
:10076000B6AFD6B8C1EE0D0A00000000940000201C
:1007700090000020346A00080D0AD6B4D0D0CBAB6C
:10078000C2D6D7D4B6A8D2E5C2EBCAFDC3FCC1EE2F
:100790000D0A0000B6E6BBFABDC7B6C8B2CECAFDA8
:1007A000B3F6B4EDA3BA25640D0A00000D0AB6E64F
:1007B000BBFABDC7B6C8A3BA25640D0A0000000085
:1007C0000D0AD6B4D0D0B6E6BBFAD6B8C1EE0D0A43
:1007D0000000000074000020780000200CB500200C
:1007E000019000906C48006840F480306A490860CD
:1007F00000BF6948006800F4003000900198401C78
:100800000190009818B90198B0F5A06FF1D1624835
:10081000006800F4003010B10120009001E00020D9
:1008200000900098012843D15C48006840F0100017
:100830005A4908600846006820F00300086008462E
:10084000006840F002000860534840685249486020
:100850000846406848600846406840F48060486048
:100860000846406820F47C1048600846406840F420
:10087000E81048600846006840F08070086000BFDB
:100880004548006800F000700028F9D042484068F0
:1008900020F00300404948600846406840F00200EC
:1008A000486000BF3C48406800F00C000828F9D1BF
:1008B0000CBD10B5FFF792FF10BD10B536480068AB
:1008C00040F0010034490860084640683449084057
:1008D0003149486008460068324908402E4908609E
:1008E0000846006820F4802008600846406820F42C
:1008F000FE0048604FF41F008860FFF7DAFF4FF0FA
:1009000000602949086010BD10B5002100200022B8
:10091000214B5B6803F00C0121B1042906D00829A2
:1009200028D107E0214B224C236027E01F4B204CAD
:10093000236023E0184B5B6803F47010164B5B6870
:1009400003F48032022303EB904022B9194B434356
:10095000174C23600DE0104B5B6803F4003323B1A8
:10096000144B4343124C236003E0104B4343104CA1
:10097000236003E00D4B0E4C236000BF00BF064B0D
:100980005B68C3F303130C4CE15C094B1B68CB4061
:10099000074C236010BD0000001002400020024000
:1009A0000000FFF8FFFFF6FE08ED00E000127A00FD
:1009B0002400002000093D002800002010B5044656
:1009C000CC48844208D10121042000F02DFB0021F5
:1009D000042000F029FB46E0C748844208D10121E9
:1009E000082000F021FB0021082000F01DFB3AE068
:1009F000C248844208D10121102000F015FB0021DB
:100A0000102000F011FB2EE0BD48844208D10121E6
:100A1000202000F009FB0021202000F005FB22E04F
:100A2000B848844208D10121402000F0FDFA00219D
:100A3000402000F0F9FA16E0B348844208D10121C1
:100A4000802000F0F1FA0021802000F0EDFA0AE0A9
:100A5000AE48844207D10121801500F0E5FA00215B
:100A6000A01500F0E1FA10BD10B50121084600F014
:100A7000DBFA0021012000F0D7FA10BD2DE9F0418A
:100A8000024600250026002000230024002791F8BC
:100A900003C00CF00F0591F803C00CF0100CBCF172
:100AA000000F03D091F802C04CEA050591F800C090
:100AB000BCF1000F31D0146800202BE04FF0010C86
:100AC0000CFA00F3B1F800C00CEA03069E4220D1F4
:100AD00083004FF00F0C0CFA03F7BC4305FA03FC3C
:100AE0004CEA040491F803C0BCF1280F06D14FF082
:100AF000010C0CFA00FCC2F814C00AE091F803C023
:100B0000BCF1480F05D14FF0010C0CFA00FCC2F803
:100B100010C0401C0828D1D31460B1F800C0BCF14B
:100B2000FF0F34DD546800202EE000F1080C4FF078
:100B3000010808FA0CF3B1F800C00CEA03069E4263
:100B400021D183004FF00F0C0CFA03F7BC4305FAD8
:100B500003FC4CEA040491F803C0BCF1280F05D152
:100B600000F1080C08FA0CF8C2F8148091F803C0E0
:100B7000BCF1480F07D100F1080C4FF0010808FA4A
:100B80000CF8C2F81080401C0828CED35460BDE891
:100B9000F0814FF6FF710180022181700421C17044
:100BA00070470246002093680B400BB1012000E023
:100BB000002070470146886880B2704702460020D6
:100BC000D3680B400BB1012000E0002070470146C4
:100BD000C86880B2704701617047416170470AB1CF
:100BE000016100E041617047C16070474FF480329D
:100BF0000A4382618161826182698269704702462B
:100C00000020434B18684FF68073184040EA0210EA
:100C100008433F4B186070473E49C8617047F0B5C4
:100C20000A46002300240021002500F00046B6F10A
:100C3000004F02D1364EF16901E0354E7168C0F3C4
:100C4000034583B200F44016B6F5401F08D121F0E9
:100C500070612F4E766826F070662D4F7E6012E030
:100C600000F48016B6F5801F06D1032606FA05F4B7
:100C7000A14341F0706106E0460D360103FA06F625
:100C8000B14341F0706122B1460D360103FA06F618
:100C9000314300F00046B6F1004F02D11C4EF16125
:100CA00001E01B4E7160F0BD30B500228B071C0FB8
:100CB0000F2303FA04F2164B08338C1053F8243038
:100CC0009343134C08348D1044F8253023468C1080
:100CD00053F824308C07240F00FA04F423430C4CFF
:100CE00008348D1044F8253030BD0A49DC310860E5
:100CF0007047000000080140000C01400010014056
:100D00000014014000180140001C01400020014077
:100D10000000014000002042DF48006840F0010070
:100D2000DD49086008464068DC490840DA49486007
:100D300008460068DA490840D74908600846006854
:100D400020F4802008600846406820F4FE004860D7
:100D50004FF41F0088607047CF49096821F4803143
:100D6000CD4A11601146096821F480211160B0F567
:100D7000803F03D0B0F5802F0ED106E0C649096848
:100D800041F48031C44A116007E0C349096841F465
:100D9000A021C14A116000E000BF00BF704710B53C
:100DA00001460022002300204A11012A02D1BA4C38
:100DB000236806E0022A02D1B74C236A01E0B64C50
:100DC000636A01F01F02012494401C400CB1012011
:100DD00000E0002010BD38B5002000900024002560
:100DE00000BF3120FFF7DBFF05460098401C009054
:100DF0000098B0F5A06F01D0002DF2D03120FFF7A0
:100E0000CEFF08B1012400E00024204638BD014691
:100E10000020A14A106820F0F80040EAC1001060EC
:100E20007047A04908607047024600209A4B5868F6
:100E300020F47C1042EA01031843974B5860704736
:100E400098490866704701460020934A506820F090
:100E500003000843506070478F48406800F00C0062
:100E60007047014600208C4A506820F0F00008438B
:100E70005060704701460020874A506820F4E060C7
:100E800008435060704701460020834A506820F4B0
:100E9000605040EAC1005060704729B17E4A527AE2
:100EA00002437D4B5A7204E07B4A527A82437A4B6A
:100EB0005A7270477B49D83108607047014600205C
:100EC000754A506820F44040084350607047002144
:100ED000714A20321170704A82F82010012802D025
:100EE00004280AD104E001216B4A2032117005E088
:100EF0000521694A2032117000E000BF00BF704731
:100F00006949086070476449096A0143624A11628D
:100F10007047654944390860704730B500210022A8
:100F2000002400235C4D6D6805F00C0121B10429FB
:100F300005D0082923D105E05C4D056022E05B4D1A
:100F400005601FE0544D6D6805F47012524D6D68D8
:100F500005F48034022505EB92421CB9544D5543EB
:100F600005600BE04C4D6D6805F400351DB1504D2A
:100F70005543056002E04D4D5543056002E04B4D81
:100F8000056000BF00BF444D6D6805F0F001090920
:100F9000484D6B5C0568DD4045603F4D6D6805F46C
:100FA000E061090A434D6B5C4568DD4085603A4D60
:100FB0006D6805F46051C90A3E4D6B5C4568DD40C3
:100FC000C560354D6D6805F44041890B3A4D6B5C49
:100FD000C568B5FBF3F5056130BD29B12E4A5269EC
:100FE00002432D4B5A6104E02B4A526982432A4B3B
:100FF0005A61704729B1284A92690243264B9A6187
:1010000004E0254A92698243234B9A61704729B1D3
:10101000214AD2690243204BDA6104E01E4AD269B8
:1010200082431D4BDA61704729B11B4AD2680243E3
:10103000194BDA6004E0184AD2688243164BDA6032
:10104000704729B1144A12690243134B1A6104E034
:10105000114A12698243104B1A6170471249403994
:10106000086070470F49C86470470B49C8717047E2
:101070000948406A40F0807007494862704701465D
:101080000020054A92680A400AB1012000E00020D1
:101090007047014988727047001002400000FFF855
:1010A000FFFFF6FE000042428004424200127A0036
:1010B00000093D00380000204800002010B504461B
:1010C000BE48844208D101218014FFF7ADFF002102
:1010D000A014FFF7A9FF16E0B948844208D1012106
:1010E0000014FFF7AEFF00212014FFF7AAFF0AE06B
:1010F000B448844207D10121C013FFF7A2FF0021A9
:10110000E013FFF79EFF10BD10B50022028802F425
:1011100041520B884C8823438C882343CC8823433B
:101120000C8923434C8923438C892343CC89234353
:101130001A430280838B4FF2FF74234083830B8A10
:10114000038210BD2DE9F04F85B005460C464FF0E7
:10115000000902274FF000084FF0010B0026B246AD
:10116000A88B4FF240010840A88302202884B5F8DC
:101170001C90A068022801D100BF38E0A08810B9F7
:101180004FF0010B01E04FF0020B8D48854200D17A
:1011900000E000BF6846FFF7C0FEDDF800A0E08871
:1011A000B0F5007F0AD14FEA1A2000EB8000400022
:1011B000A168B0FBF1F0401D86B20BE04FEA4B1086
:1011C000BAFBF0F000EB80004000A168B0FBF1F04A
:1011D000401D86B20A20B6FBF0F606F00108A6EB29
:1011E0000800C0F34F074FF6FF7000EA0828022FEF
:1011F00001DBFF2F02DD02274FF00008E08840EA04
:10120000080038432884A088A189084361880843DE
:101210002188084340F4006040EA0909A5F81C90C1
:1012200005B0BDE8F08F0021018041808180C18040
:10123000018141818181C1810721018270470021A3
:10124000018041808180C1800221816000218181F3
:10125000704721B1028842F04002028004E0028817
:101260004FF6BF731A400280704721B1828B42F45F
:101270008062828304E0828B4FF6FF331A408283C0
:10128000704730B5002400230C110125A540ABB2F6
:101290001AB185881D43858002E085889D4385803D
:1012A00030BD1AB183880B43838002E083888B436F
:1012B00083807047818170470146888970474FF667
:1012C000FF62914204D0028842F48072028004E0FE
:1012D00002884FF6FF631A400280704721B182886E
:1012E00042F00402828004E082884FF6FB731A40C9
:1012F0008280704702884FF2FF731A400280028892
:101300000A4302807047018841F480510180704790
:1013100021B1028842F40052028004E002884DF6B6
:10132000FF731A400280704702460020012901D055
:10133000108B00E0908A70470146088A7047B1F52B
:10134000804F04D1028842F48042028004E0028887
:101350004BF6FF731A400280704702460020138943
:101360000B400BB1012000E000207047CA4302810E
:101370007047F0B50246002000240023002501F04C
:101380000F070126BE40B4B20B1101269E40B3B236
:10139000968806EA03051689264016B10DB101208C
:1013A00000E00020F0BD10B5002201F00F04012381
:1013B000A3409AB2D343038110BD00000030014026
:1013C00000380040003C004010B50446FB48844211
:1013D00009D101218803FFF727FE00214FF4804047
:1013E000FFF722FE32E0F648844209D10121480489
:1013F000FFF727FE00214FF40030FFF722FE25E023
:10140000F048844209D101218804FFF71AFE002127
:101410004FF48020FFF715FE18E0EB48844209D115
:101420000121C804FFF70DFE00214FF40020FFF753
:1014300008FE0BE0E548844208D101210805FFF7CA
:1014400000FE00214FF48010FFF7FBFD10BD2DE9D9
:10145000F04786B005460E460024A24600BFA146CE
:101460000027B08900B100BF2F462C8A4CF6FF70D0
:101470000440F08804432C82AC894EF6F3100440FB
:10148000B08831890843718908430443AC81AC8A30
:101490004FF6FF400440B0890443AC8201A8FFF737
:1014A0003CFDC648874202D1DDF810A001E0DDF81E
:1014B0000CA0A88900F4004040B10AEBCA0000EB80
:1014C0000A1031684900B0FBF1F807E00AEBCA00E6
:1014D00000EB0A1031688900B0FBF1F86420B8FB1A
:1014E000F0F004012009642101FB1089A88900F4AF
:1014F000004040B1322000EBC900B0FBF1F000F039
:101500000700044308E0322000EB09106421B0FB1F
:10151000F1F000F00F0004432C8106B0BDE8F08725
:101520004FF41651016000218180C18001810C219E
:10153000418100218181704710B502460020108A48
:101540004FF2FF0318400B884C8823438C882343B9
:10155000CC8823431843108210BD002101804180B4
:101560008180C180704721B1828942F4005282811A
:1015700004E082894DF6FF731A4082817047F0B50E
:101580000346002400260025002040F66A17B942D1
:1015900000D100BF1846C1F3421401F01F06012715
:1015A00007FA06F5012C01D10C3004E0022C01D120
:1015B000103000E014301AB107682F43076002E0D2
:1015C0000768AF430760F0BD1AB1838A0B4383827B
:1015D00002E0838A8B4383827047028A4FF6F0735E
:1015E0001A400282028A0A430282704782894FF2BD
:1015F000FF731A40828182890A438281704721B138
:10160000828942F00202828104E082894FF6FD73F2
:101610001A4082817047028A4FF6DF731A400282B5
:10162000028A0A430282704721B1028A42F4804250
:10163000028204E0028A4BF6FF731A40028270476E
:10164000C1F308028280704701468888C0F3080011
:101650007047818941F0010181817047028BD2B2CC
:101660000283028B42EA012202837047028B02F45A
:101670007F420283028B0A430283704721B1828A30
:1016800042F02002828204E0828A4FF6DF731A4021
:101690008282704721B1828A42F01002828204E085
:1016A000828A4FF6EF731A408282704721B1828A94
:1016B00042F00802828204E0828A4FF6F7731A40F1
:1016C0008282704721B1828942F40042828103E024
:1016D0008289C2F30E028281704721B1828A42F46C
:1016E0000062828204E0828A4FF2FF731A40828293
:1016F0007047828A4FF6FB731A408282828A0A43BD
:101700008282704721B1828A42F00202828204E022
:10171000828A4FF6FD731A4082827047024600208B
:10172000B1F5007F00D100BF13880B400BB1012041
:1017300000E00020704701F40072B2F5007F00D194
:1017400000BFCA430280704770B5024600240023E0
:101750000025002040F66A16B14200D100BFC1F357
:10176000421501F01F03012606FA03F3012D02D1F1
:101770009689334006E0022D02D1168A334001E0FB
:10178000968A33400C12012606FA04F41688344077
:1017900013B10CB1012000E0002070BD10B5002293
:1017A000002340F66A14A14200D100BF0A120124AE
:1017B0009440A3B2DC43048010BD00000038014017
:1017C0000044004000480040004C004000500040F1
:1017D00031490143314A1160704770B5002100233F
:1017E0000F22C47804B32D4C246804F4E064C4F5DB
:1017F000E064210AC1F10403CA40447804FA03F109
:101800008478144021430901254C0678A1550478B9
:1018100004F01F050124AC4005786D11AD0005F101
:10182000E025C5F8004109E0047804F01F05012413
:10183000AC401C4D0678761145F8264070BD1A4A1A
:101840000A400243154B1B1F1A60704739B1134AF7
:10185000121D12680243114B1B1D1A6006E00F4A4D
:10186000121D126882430D4B1B1D1A60704704281D
:1018700008D14FF0E021096941F004014FF0E02266
:10188000116107E04FF0E021096921F004014FF0F8
:10189000E0221161704700000000FA050CED00E045
:1018A00000E400E080E100E080FFFF1F10B5044687
:1018B000FE48844208D10121C014FFF7B5FB002186
:1018C000E014FFF7B1FBC4E0B4F1804F08D101216F
:1018D0000846FFF7B6FB00210120FFF7B2FBB8E096
:1018E000F348844208D101210220FFF7AAFB00211E
:1018F0000220FFF7A6FBACE0EE48844208D10121AC
:101900000420FFF79EFB00210420FFF79AFBA0E0D4
:10191000E948844208D101210820FFF792FB002109
:101920000820FFF78EFB94E0E448844208D10121AF
:101930001020FFF786FB00211020FFF782FB88E0D4
:10194000DF48844208D101212020FFF77AFB0021E3
:101950002020FFF776FB7CE0DA48844208D10121A1
:101960004014FFF761FB00216014FFF75DFB70E09E
:10197000D548844209D10121C804FFF755FB002155
:101980004FF40020FFF750FB63E0D048844209D1B8
:1019900001210805FFF748FB00214FF48010FFF7F5
:1019A00043FB56E0CA48844209D101214805FFF7AC
:1019B0003BFB00214FF40010FFF736FB49E0C54820
:1019C000844208D101214020FFF73BFB0021402049
:1019D000FFF737FB3DE0C048844208D10121802059
:1019E000FFF72FFB00218020FFF72BFB31E0BB48E6
:1019F000844208D101218015FFF723FB0021A015A7
:101A0000FFF71FFB25E0B648844209D101210804F5
:101A1000FFF70AFB00214FF48030FFF705FB18E0C9
:101A2000B048844209D101214804FFF7FDFA0021A2
:101A30004FF40030FFF7F8FA0BE0AB48844208D1CE
:101A400001218804FFF7F0FA00214FF48020FFF70E
:101A5000EBFA10BD00220288944B98420ED0994BAD
:101A600098420BD0B0F1804F08D0914B984205D0EE
:101A7000904B984202D0904B984204D14FF68F730E
:101A80001A404B881A438D4B984207D08C4B984292
:101A900004D04FF6FF431A40CB881A4302808B884C
:101AA00083850B880385814B98420BD0854B9842E8
:101AB00008D08B4B984205D08A4B984202D08A4B73
:101AC000984201D10B7A038601238382704770B557
:101AD000002400220023058C4FF6FE763540058455
:101AE000028C8388048B4FF68F752C40B51E2C40DA
:101AF0000D882C43751E2A400D892A434D882A43A0
:101B00006A4DA8420BD06F4DA84208D0744DA84230
:101B100005D0744DA84202D0734DA84213D14FF6A0
:101B2000F7752A404D892A434FF6FB752A408D8868
:101B30002A434FF6FF652B404FF6FF552B408D890A
:101B40002B43CD892B4383800483CD8885860284F3
:101B500070BD70B5002400220023058C4FF6EF768F
:101B600035400584028C8388048B48F6FF752C4031
:101B70004FF6FF452C400D884FF6FF7606EA052507
:101B80002C434FF6DF752A400D8906EA05152A43D6
:101B90004D8806EA05152A43444DA84202D0494D16
:101BA000A8421DD14FF67F752A404D894FF6FF762A
:101BB00006EA05152A434FF6BF752A408D8806EAC6
:101BC00005152A434FF6FF352B404FF2FF752B408A
:101BD0008D8906EA85052B43CD8906EA85052B43C9
:101BE00083800483CD880587028470BD70B500248E
:101BF00000220023058C4FF6FF6635400584028CD9
:101C00008388848B4FF68F752C404FF6FC752C40E3
:101C10000D882C434FF6FF552A400D894FF6FF766D
:101C200006EA05252A434D8806EA05252A431F4D65
:101C3000A84202D0234DA8421DD14FF2FF752A4081
:101C40004D894FF6FF7606EA05252A434FF6FF3504
:101C50002A408D8806EA05252A434EF6FF752B405B
:101C60004DF6FF752B408D8906EA05152B43CD896E
:101C700006EA05152B4383808483CD8885870284FB
:101C800070BD70B5002200230024058C4EF6FF764F
:101C900035400584038C8488828B48F6FF752A4082
:101CA0004FF6FF452A400D8820E00000002C01403F
:101CB0000004004000080040000C004000100040FC
:101CC0000014004000340140004C0140005001402D
:101CD0000054014000180040001C0040002000405B
:101CE0000040014000440140004801404FF6FF76AB
:101CF00006EA05252A434DF6FF752B400D8906EAB5
:101D000005352B434D8806EA05352B43FA4DA8428D
:101D100002D0FA4DA84208D14BF6FF752C408D89B0
:101D20004FF6FF7606EA85152C4384808283CD88A2
:101D3000A0F84050038470BD828B4FF2FF331A40ED
:101D40008283828B4FF6FF7303EA01231A43828357
:101D50007047F0B50C461546002200210026078C7E
:101D60004EF6FF7C07EA0C070784828B018C4FF646
:101D7000FF7707EA043640F6FF473A404FF6FF7711
:101D800007EA05273A434FF6FF7707EA03373A4356
:101D9000D94FB8420ED0D94FB8420BD0B0F1804FD6
:101DA00008D0D74FB84205D0D64FB84202D0D64F50
:101DB000B84206D14DF6FF77394046F48057394393
:101DC00005E047F6FF57394044F480573943828392
:101DD0000184F0BD828B4FF6F3731A408283828BAD
:101DE0000A4382837047F0B50C4615460022002155
:101DF0000026078C4FF6FF6C07EA0C070784828BDE
:101E0000018C4FF6FF7707EA04264FF60C773A402D
:101E10004FF6FF7707EA03172F433A43B64FB8420E
:101E20000ED0B64FB8420BD0B0F1804F08D0B44FAF
:101E3000B84205D0B34FB84202D0B34FB84206D132
:101E40004FF6FF57394046F48077394305E04FF2AB
:101E5000FF57394044F48077394382830184F0BDD1
:101E6000028B4FF2FF331A400283028B4FF6FF734F
:101E700003EA01231A4302837047F0B50C46154666
:101E8000002200210026078C4FF6EF7C07EA0C07A2
:101E90000784028B018C4FF6FF7707EA041640F6A1
:101EA000FF473A404FF6FF7707EA03373A434FF6CA
:101EB000FF7707EA05273A438F4FB8420ED08F4F7E
:101EC000B8420BD0B0F1804F08D08D4FB84205D04A
:101ED0008C4FB84202D08C4FB84206D14FF6DF7714
:101EE000394046F01007394305E04FF65F77394037
:101EF00044F01007394302830184F0BD028B4FF692
:101F0000F3731A400283028B0A4302837047F0B5D1
:101F10000C46154600220021068C4FF6FE773E4007
:101F20000684028B018C4FF60C7632407E1C06EA4A
:101F300003162E433243704EB0420ED06F4EB04265
:101F40000BD0B0F1804F08D06D4EB04205D06D4E31
:101F5000B04202D06C4EB04206D14FF6FD76314011
:101F600044F00106314305E04FF6F576314044F088
:101F70000106314302830184F0BD70B505460C466D
:101F80005D4885420ED05D4885420BD0B5F1804F4B
:101F900008D05B48854205D05A48854202D05A484D
:101FA000854200D100E000BF208850B92389A28873
:101FB00061882846FFF7ABFFE1882846FFF79EFFC0
:101FC00025E0208804280AD12389A2886188284630
:101FD000FFF753FFE1882846FFF742FF17E020880C
:101FE00008280AD12389A28861882846FFF7FBFECA
:101FF000E1882846FFF7EEFE09E02389A288618880
:102000002846FFF7A6FEE1882846FFF795FE70BD3B
:102010002DE9F04105460C4600260127608808B9E5
:10202000022600E00026A088012801D1022700E056
:1020300001272088A0B92389A28861882846FFF754
:1020400066FFE1882846FFF759FF23893A46314663
:102050002846FFF712FFE1882846FFF701FF13E04B
:102060002389A28861882846FFF707FFE188284670
:10207000FFF7F6FE23893A4631462846FFF747FF29
:10208000E1882846FFF73AFFBDE8F0810A884B88CF
:102090001A438B881A43CB881A430B891A434B89FE
:1020A0001A438B891A43A0F8442070474FF6FF71FA
:1020B000818000210180C180418001727047002130
:1020C000018041808180C180018141818181C18104
:1020D0007047002101804180012181800021C18061
:1020E000018170470021018041808180C180018190
:1020F0004181818170470000002C01400034014083
:102100000004004000080040000C004021B102889B
:1021100042F00102028004E002884FF6FE731A408A
:102120000280704731B1B0F8442042F40042A0F878
:10213000442005E0B0F84420C2F30E02A0F8442089
:1021400070471AB183890B43838102E083898B43F3
:10215000838170478182704741EA0203A0F84830CA
:1021600070471AB183890B43838102E083898B43D3
:102170008381704701894FF6F872114001817047E1
:102180000A46002101894FF68F73194011430181DE
:10219000704730B504460D4629462046FFF7F0FF4C
:1021A000208940F00700208130BD2DE9F041044630
:1021B0000D4616461F46602D06D13B46012231468C
:1021C0002046FFF75AFE05E03B46012231462046F5
:1021D000FFF79DFE29462046FFF7D2FF208940F0F9
:1021E00007002081BDE8F08130B50C46002101894F
:1021F000C9B24FF6FF7505EA032515432543294368
:10220000018130BD2DE9F04105460E46174698463E
:10221000002443463A4631462846FFF7E5FF2C891D
:102220004FF6F870044044F007044FF68F700440F6
:1022300044F070042C81BDE8F081F0B504460D46F1
:1022400016461F463B46324629462046FFF7CCFF3E
:10225000208940F480402081F0BD01858282704752
:102260000A46002101884FF68F73194011430180FF
:102270007047F0B50C4615461E460021002200238B
:102280000189028B038C4FF6F877394021434FF6D2
:10229000FC473A4040F201173A434FF6DD773B40A6
:1022A0004FF6FF7707EA06172F433B43018102836E
:1022B0000384F0BD0A460021018B4FF68F7319404D
:1022C0001143018370470A460021018B48F6FF73D2
:1022D00019404FF6FF7303EA022319430183704745
:1022E0000A460021818B4FF68F7319401143818379
:1022F00070470A460021818B48F6FF7319404FF65C
:10230000FF7303EA022319438183704721B10288D6
:1023100042F08002028004E002884FF67F731A4088
:102320000280704721B1828842F00402828004E07A
:1023300082884FF6FB731A408280704721B18288F1
:1023400042F00802828004E082884FF6F7731A4058
:102350008280704721B1828842F00102828004E0CD
:1023600082884FF6FE731A40828070470A46002129
:10237000018B4FF6F77319401143018370470A46EA
:102380000021018B4FF2FF7319404FF6FF7303EAF0
:1023900002231943018370470A460021818B4FF6BF
:1023A000F77319401143818370470A460021818BDE
:1023B0004FF2FF7319404FF6FF7303EA02231943EC
:1023C000818370470A460021018B4FF6FB73194049
:1023D0001143018370470A460021018B4FF6FF33FA
:1023E00019404FF6FF7303EA022319430183704734
:1023F0000A460021818B4FF6FB73194011438183FC
:1024000070470A460021818B4FF6FF3319404FF683
:10241000FF7303EA02231943818370470A460021B0
:10242000018B4FF67F7319401143018370470A46B1
:102430000021018BC1F30E014FF6FF7303EA022363
:102440001943018370470A460021818B4FF67F7341
:1024500019401143818370470A460021818BC1F3E3
:102460000E014FF6FF7303EA02231943818370477D
:102470000A460021018C4FF6FD7319401143018477
:1024800070470A460021018C4FF6F773194011433B
:10249000018470470A460021018C4FF6DF73194012
:1024A0004FF6FF7303EA02131943018470470A468B
:1024B0000021018C4FF67F7319404FF6FF7303EA3A
:1024C00002131943018470470A460021018C4FF61C
:1024D000FF5319404FF6FF7303EA022319430184A7
:1024E00070470A460021018C4FF2FF7319404FF6E6
:1024F000FF7303EA02231943018470470A4600214F
:10250000018C4DF6FF7319404FF6FF7303EA023357
:1025100019430184704730B5002301248C40A3B2D5
:10252000048C9C430484048C02FA01F5ADB22C4364
:10253000048430BD30B5002304248C40A3B2048C45
:102540009C430484048C02FA01F5ADB22C4304844C
:1025500030BD70B503460020002418461830012510
:102560008D40ACB21D8CA5431D8409B1082909D149
:1025700000EB6100056825F07005056005681543EE
:1025800005600EE00D1FC5F34E052844056825F4CF
:10259000E045056005684FF6FF7606EA02263543FA
:1025A000056070BD21B1028842F00202028004E0A1
:1025B00002884FF6FD731A400280704721B10288ED
:1025C00042F00402028004E002884FF6FB731A40D6
:1025D0000280704721B1828842F08002828004E04C
:1025E00082884FF67F731A408280704702884FF6C8
:1025F000F7731A40028002880A430280704782887B
:102600004FF68F731A40828082880A438280704717
:1026100002894FF6F8731A40028102890A43028147
:10262000704702894FF67F731A40028102890A437C
:102630000281704781847047818570478186704729
:102640000187704781877047A0F840107047028863
:102650004FF6FF431A40028002880A430280704707
:102660000146888E70470146088F70470146888F63
:1026700070470146B1F8400070470146888C7047AA
:102680000146088D704702460020138A0B400BB1AB
:10269000012000E000207047CA430282704730B535
:1026A0000246002000230024158A05EA01039589CB
:1026B00005EA010413B10CB1012000E0002030BD97
:1026C000CA43028270470000002044490860091D87
:1026D0000860091D0860091D086041483F49143120
:1026E0000860704700213D498279002A3AD00A46A5
:1026F000126803689A430B461A600A1D1268036841
:102700009A430B1D1A60027911440A6803681A4340
:102710000A60324A0832126803689A432F4B083322
:102720001A601A1D126803689A432C4B0C331A6006
:102730004279102A0ED11A1F126803681A43274BD8
:1027400008331A601A1D126803681A43234B0C33AE
:102750001A600DE02149427911440A6803681A435E
:102760000A6005E0027911440A6803689A430A6026
:1027700070470021016001710C21417100218171BC
:1027800070471649103109680143144A103211602C
:10279000704701460020114A143212680A400AB1FB
:1027A000012000E0002070470C4914310860704798
:1027B000014600200022094B1B6803EA0102074B77
:1027C00014331B680B4013B10AB1012000E0002054
:1027D000704702491431086070470000000401404E
:1027E000FFFF0F0001684FF6FE72114001600021EB
:1027F000016041608160C1608D49884208D18C4987
:102800000839496841F00F01894A083A51608AE065
:1028100087491431884208D185490839496841F00F
:10282000F001834A083A51607DE0814928318842AD
:1028300008D17F490839496841F470617C4A083AF7
:10284000516070E07A493C31884208D178490839B2
:10285000496841F47041764A083A516063E074492E
:102860005031884208D172490839496841F47021D1
:102870006F4A083A516056E06D496431884208D188
:102880006B490839496841F47001694A083A516056
:1028900049E067497831884208D165490839496873
:1028A00041F07061624A083A51603CE061498842F7
:1028B00006D1011F096841F00F01021F116032E0CB
:1028C0005C491431884208D15A49091F096841F00E
:1028D000F001584A121F116025E0564928318842FC
:1028E00008D15449091F096841F47061514A121F07
:1028F000116018E04F493C31884208D14D49091F09
:10290000096841F470414B4A121F11600BE04949BC
:102910005031884207D14749091F096841F47021A5
:10292000444A121F1160704710B50022026847F632
:10293000F0739A430C6A8B6823430C6923434C69F8
:1029400023438C692343CC6923434C6A23438C6A19
:1029500023431A430260CB6843600B6883604B6873
:10296000C36010BD0021016041608160C1600161F0
:1029700041618161C161016241628162704721B13F
:10298000026842F00102026004E002684FF6FE7342
:102990001A40026070471AB103680B43036002E0FB
:1029A00003688B4303607047416070470146486885
:1029B00080B2704701460020002201F080531BB115
:1029C0001C4B083B1A6802E0194B083B1A6802EAE4
:1029D00001030BB1012000E00020704700F080519E
:1029E00019B11449091F086002E01149083948600B
:1029F000704701460020002201F080531BB10D4BAF
:102A0000083B1A6802E00A4B083B1A6802EA010315
:102A10000BB1012000E00020704700F0805119B197
:102A20000449091F086002E00149083948607047FD
:102A30000800024008040240064880470648004754
:102A4000FEE7FEE7FEE7FEE7FEE7FEE7FEE7FEE75E
:102A5000FEE7FEE7BB0800083101000808B54FF4A7
:102A60008070ADF8000010208DF8030003208DF871
:102A700002006946FE48FEF701F84FF40040ADF849
:102A8000000010208DF8030003208DF80200694635
:102A9000F748FDF7F3FF0420ADF8000010208DF893
:102AA000030003208DF802006946F248FDF7E6FFB7
:102AB0002020ADF8000010208DF8030003208DF8D1
:102AC00002006946EB48FDF7D9FF0420ADF800008D
:102AD00010208DF8030003208DF802006946E648B7
:102AE000FDF7CCFF01F079FC02F08FFD08BD7047C7
:102AF00000B585B001218803FEF77CFA0121C804E6
:102B0000FEF785FA01210805FEF781FA4FF40070FF
:102B1000ADF8100003208DF8120018208DF8130076
:102B200004A9D348FDF7AAFF4FF48060ADF8100068
:102B300004208DF8130004A9CD48FDF79FFF4FF442
:102B40008060ADF8100003208DF8120018208DF879
:102B5000130004A9C948FDF791FF4FF40060ADF8D8
:102B6000100004208DF8130004A9C448FDF786FF67
:102B70004FF48050ADF8100003208DF8120018209B
:102B80008DF8130004A9BD48FDF778FF0420ADF8C7
:102B900010008DF8130004A9B748FDF76FFFB8487F
:102BA000FEF712FC4FF4E13000900020ADF8040075
:102BB000ADF80600ADF80800ADF80C000C20ADF83B
:102BC0000A006946AE48FEF742FCAE48FEF7FCFB41
:102BD0004FF4165000906946AA48FEF738FCAA4800
:102BE000FEF7F2FB4FF4E13000906946A648FEF78D
:102BF0002EFC40F22551A248FEF7D0FD40F22551AF
:102C0000A048FEF7CBFD012240F225519C48FEF77B
:102C1000B6FC012240F225519A48FEF7B0FC012192
:102C20009748FEF7A0FC01219648FEF79CFC012185
:102C30009548FEF798FC01F02EFE05B000BD0EB5DC
:102C40004FF48070ADF8000003208DF8020048209A
:102C50008DF8030069468948FDF710FF4FF4807036
:102C6000FFF7B7FD08210220FEF71EF800208DF8BF
:102C700008000C208DF809004FF4807001900120AD
:102C80008DF80A0001A8FFF72DFD0EBD00B58BB031
:102C900001210846FEF7A1F97C48FFF7A3FD7C4817
:102CA00000907C4801900020029021200390002099
:102CB0000490802005900020069007902020089026
:102CC0000002099000200A9069467048FFF72CFE28
:102CD0004FF40070FFF782FE01216C48FFF74FFEB2
:102CE0000BB000BD00B587B001210803FEF782F9E3
:102CF000E020ADF8180018208DF81B0003208DF897
:102D00001A0006A95A48FDF7B9FE1020ADF81800C0
:102D10008DF81B0003208DF81A0006A95448FDF712
:102D2000ADFE01A95C48FEF7EFF90020ADF8040004
:102D30004FF48270ADF806000020ADF80800ADF841
:102D40000A00ADF80C004FF40070ADF80E0008203A
:102D5000ADF810000020ADF812000720ADF8140007
:102D600001A94D48FEF7D0F901214B48FEF771FA51
:102D700007B000BD10B500F0CDFE01F043FB10BD63
:102D800008B54FF44070FEF723FD1D208DF80000BC
:102D900000208DF8010001208DF803006846FEF741
:102DA0001CFD1E208DF8000001208DF801008DF81B
:102DB00003006846FEF711FD25208DF80000022073
:102DC0008DF8010001208DF803006846FEF705FD2F
:102DD00034208DF8000003208DF8010001208DF8CB
:102DE00003006846FEF7F9FC17208DF80000052067
:102DF0008DF8010001208DF803006846FEF7EDFC18
:102E000008BD10B5FDF788FF4FF48030FDF7A4FF33
:102E1000FDF7E1FF044600BF002CFDD00020FEF7C7
:102E200020F80020FEF726F80020FEF72CF84FF4DB
:102E3000E0114FF48030FDF7F7FF0120FEF700F8B6
:102E400000BF3920FDF7ABFF0028FAD00220FDF7C4
:102E5000FAFF00BFFEF700F80828FBD10020FDF7BD
:102E6000E0FF01210420FEF7C5F80121082015E04C
:102E700000080140000C0140001401400010014016
:102E800000380140004C004000500040300002403B
:102E900004480040EC1A002000300140FEF7AAF878
:102EA00001211020FEF7A6F801212020FEF7A2F84C
:102EB00001214020FEF79EF801210846FEF79AF80E
:102EC000FFF75EFF01211348FDF7A9FEFFF7C6FDDE
:102ED000FFF70EFE10A003F083F8FFF708FE15A021
:102EE00003F07EF8FFF7D2FE1AA003F079F8FFF79F
:102EF000A6FE1FA003F074F8FFF7F4FE23A003F072
:102F00006FF8FFF737FF28A003F06AF8642000F09D
:102F10007EF910BD0002300055534152545F436F9B
:102F20006E66696775726174696F6E20444F4E45B5
:102F3000210D0A005359535449434B5F436F6E664A
:102F4000696775726174696F6E20444F4E45210D3B
:102F50000A000000444D415F436F6E6669677572F9
:102F60006174696F6E20444F4E45210D0A000000C8
:102F7000455854495F436F6E66696775726174693D
:102F80006F6E20444F4E45210D0A00005350495F9B
:102F9000436F6E66696775726174696F6E20444F26
:102FA0004E45210D0A00000054494D5F436F6E6687
:102FB000696775726174696F6E20444F4E45210DCB
:102FC0000A0000000020FE490968C908FD4AB1FB5B
:102FD000F2F14FF0E0229269B2FBF1F1F94A501A96
:102FE000511088420CDAF849097849B10021F64AB3
:102FF0001170F6490968F34A1144F44A116008E077
:10300000F349884205DDF049097811B90121EE4AFA
:103010001170EE4909680144EE4A914202DB002139
:10302000EA4A1160E94909680844704770B5E44804
:103030000068C108B1F1807F00D31DE021F07F401E
:10304000401E4FF0E022506150170F22002807DA8F
:1030500013071D0EE04B00F00F04241F1D5503E065
:1030600013071C0EDD4B1C5400BF00204FF0E02264
:1030700090610720106100BF6FF00400FEF7F7FBBE
:1030800070BD1CB5CF4A91FBF2F212B2ADF8002030
:10309000CC4A91FBF2F302FB13124FF47A7392FBCA
:1030A000F3F212B2ADF80220C64A91FBF2F302FB32
:1030B00013124FF47A7392FBF3F403FB142212B24F
:1030C000ADF80420009A0260BDF8042082801CBD87
:1030D00030B50446FFF776FF054629462046FFF740
:1030E000D0FF30BD00B5FFF76DFF00BD1CB500245B
:1030F000009401943B2905DCB2F57A7F02DAB3F53E
:103100007A7F05DB009C0460BDF8044084801CBD10
:103110000CB2ADF8004014B2ADF802401CB2ADF8EC
:103120000440009C0460BDF80440848000BFEEE7CA
:103130001CB50B8814881B1B1BB2ADF800304B88E4
:1031400054881B1B1BB2ADF802308B8894881B1B64
:103150001BB2ADF80430BDF90430002B0CDABDF819
:1031600002305B1E1BB2ADF80230BDF8043003F52F
:103170007A731BB2ADF80430BDF90230002B0CDAC3
:10318000BDF800305B1E1BB2ADF80030BDF8023058
:1031900003F57A731BB2ADF80230BDF90030002B95
:1031A00005DABDF800303C331BB2ADF80030009BAF
:1031B0000360BDF8043083801CBD02468A4203DAF6
:1031C000501A844B18447047501AFCE70146B1F975
:1031D00000007C4A5043B1F9022002EB4203C3EBEA
:1031E000C21200EBC200B1F904201044704730B5A0
:1031F0000446FFF7E7FE054600BFFFF7E3FE431B6B
:10320000002B01DA73480344A342F6D330BD30B536
:1032100003464FF47A704343FFF7D4FE054600BFE0
:10322000FFF7D0FE441B002C01DA6A4804449C429C
:10323000F6D330BD30B503466948834200DD30BD6A
:1032400060484343FFF7BEFE044600BFFFF7BAFEE7
:10325000051B002D01DA5F4805449D42F6DB00BFE7
:10326000EDE703B5BDF900003B2809DCBDF902001C
:10327000B0F57A7F04DABDF90400B0F57A7F00DB9F
:103280000CBDBDF90000FFF7D5FFBDF90200FFF747
:10329000BEFFBDF90400FFF7AAFF00BFF0E730B59D
:1032A00003460C4615460022002100BF09E04D48A8
:1032B00000EB0210807B10B94A4800EB0211501C51
:1032C000C2B20A2AF3DB09B9002030BD012088739D
:1032D0000C71CD8000208881488108810B600846F0
:1032E000F3E770B504460D46A089E188884202D113
:1032F0004FF0FF3070BD23892679216803FB06104B
:103300003246294602F043FA2089401C80B2E18807
:1033100090FBF1F201FB12002081A089401CA081EA
:103320000020E7E770B504460D46A08910B94FF0BC
:10333000FF3070BD63892679206803FB06013246A1
:10334000284602F024FA6089401C80B2E18890FB94
:10335000F1F201FB12006081A089401EA0810020D3
:10336000E7E70146888970470146C8888A89801A3C
:1033700080B27047002181737047002000211A4AF3
:103380001268916200BF46E0FF2100EB400202EBB1
:10339000C002164B03F82210002100EB400202EBA2
:1033A000C00203EB8202516200EB400202EBC0025A
:1033B00003EB8202516000EB400202EBC00217E017
:1033C0002400002040420F00540000205000002044
:1033D00020A107000087930318ED00E000E400E05F
:1033E000C0448403DC030020580000207C0400203B
:1033F00003EB8202116100EB400202EBC00203EB1F
:103400008202516100EB400202EBC00203EB820238
:103410009162411CC8B20F28B6DB70472DE9FF4707
:1034200080469946DDF830A0002500BF33E005EB6B
:10343000450000EBC500AA4901EB800090F90000AF
:10344000401C30BB05EB450000EBC50001EB8004E0
:1034500068B2207084F8018084F802A001A8FFF708
:10346000B5FE6060FFF7AEFDE060C4F82490002078
:103470006083A083A062FFF7A5FD206199480078D2
:10348000401C9849087008460078C0F10F00487049
:1034900003E0681CC5B20F2DC9DB00BF0F2D04D19E
:1034A0004FF0FF3004B0BDE8F0878F480068806AB5
:1034B000D8B968B205EB450101EBC501884A02F8AD
:1034C0002100002005EB450101EBC50102EB810164
:1034D000886205EB450000EBC500114601EB80005A
:1034E0008149096888620020DCE77F480768006836
:1034F000866A00BF60687168884202DDA662BC62AD
:1035000009E0B06A18B9B4620020A06203E037464F
:10351000B66A002EEED100BF94F90000C2E710B5E4
:103520000246714803680068816A00BF91F9000093
:10353000904211D1886A9862FF200870002048628A
:1035400068480078401E674C207020460078C0F123
:103550000F006070002010BD0B46896A0029E5D17C
:10356000481EF8E72DE9F0415F480068846A0026AC
:103570000025002745E0FFF725FD05462846E168C0
:10358000FFF71BFE0646206A28B1206AB04237DCEE
:103590000020206234E06068B04231DC17B9514845
:1035A00045600127A07808B9E56004E0A07801280B
:1035B00001D1A068E060FFF705FD2061606A08B1F5
:1035C000606A8047FFF7FEFC6061A08A218A401A8A
:1035D00020836168E0680844444990FBF1F201FBF4
:1035E0001200A060FFF7EEFCA168884201DD012017
:1035F00000E00020618B08446083A08B401CA08306
:10360000A46A002CB7D18FB1FFF7DCFC3549886084
:103610000A4651689068FFF7D0FD3249C8600846F5
:103620000069C96808442F4908610027BDE8F08196
:103630002DE9F04105460E46174617B90020BDE8B2
:10364000F08105EB450000EBC500254901EB800446
:10365000206A00B92662FFF785FF206A08B90020BA
:10366000EDE70120EBE77CB51F4804680EE0608BB6
:10367000A18BCDE90010238B94F901101CA0626886
:1036800002F0AEFC00206083A083A46A002CEED17F
:10369000FFF798FC0546244801682846FFF78DFD92
:1036A000214908600F480069642148431E490968A0
:1036B00090FBF1F01C490860FFF784FC05460948BF
:1036C000037819482946026818A002F089FCFFF720
:1036D00079FC154908600020024908617CBD0000A2
:1036E0007C0400201007002058000020008793036E
:1036F000B1E0BAC53A256409BCE4B8F43A256409D6
:10370000B5A5B4CECAB1BCE43A256409D4CBD0D0B7
:10371000B4CECAFD3A256409B3ACCAB1B4CECAFD71
:103720003A2564090D0A00005C000020B5B1C7B05D
:10373000CAB1BCE4A3BA25647573A3AC435055CA9F
:10374000B9D3C3C2CAA3BA256425252CC8CECEF1ED
:10375000CAFDC1BFA3BA2564200D0A0D0A0D0A0DCA
:103760000A0D0A0000200021B04A1170B04A117001
:10377000B04A1170B04A117000BF04E00021AF4A96
:103780001154411CC8B23228F8DB70470146F829B1
:1037900007D0FD2902D0FE2909D105E04FF67D6052
:1037A00070474FF67860FBE74FF67E60F8E7084613
:1037B000F6E710B5014600228878CC78031900BFDF
:1037C00005E0881D805C184483B2501CC2B20878A2
:1037D0009042F6DCD8B210BD2DE9F04188B0074622
:1037E0000C4615461E46DDF83880E0B28DF8000024
:1037F0008DF802500696CDF81C8020226946384686
:1038000001F0C5FF08B0BDE8F0812DE9F0410646A2
:10381000002500270024FD2E0CD18448007818B91B
:10382000FD20824908700BE0FFF79CFFFD207F49D7
:10383000087005E07D48007810B90020BDE8F081EF
:10384000FE2E02D07B480078C8B17A48007888B153
:10385000782E06D07D2E02D07E2E06D103E0FD26E6
:1038600003E0F82601E0FE2600BF00BF00207149FA
:10387000087009E001206F4908700020DEE7F82E8B
:1038800002D101206C490870694890F90020007845
:10389000401C40B2664B18706848865466480078F1
:1038A000002853D0012500206549088008E06348BE
:1038B000405D63490988084461490880681CC5B2B5
:1038C0005B4890F90000801EA842F0DC5B4F7F1C33
:1038D000002515E038785B4901EB4511897888426D
:1038E0000CD1584800EB45100078401D504991F923
:1038F0000010884202D1534800EB4514681CC5B241
:10390000032DE7DB14B9FFF72DFF1FE04B480078CC
:1039100060704A484078A07022784849891CA01DF0
:1039200001F035FF2078801C4449085CE070207865
:10393000C01C085C20712078001D085C6071214665
:1039400041480068FFF7CDFCFFF70CFF002075E74A
:103950000FB470B504460A9D20213C48006801F070
:103960002FFF3A4800680570FD2038490968487003
:10397000364800688470122205A934480068801D0A
:1039800001F005FF3248007830490968C8703048B6
:103990000078401C2E4908702C480068FFF709FF8A
:1039A0002A4909680871F820284909684871294896
:1039B00001682648006801F0B0F870BC5DF814FB9F
:1039C00000B589B004E0079810B101A807998847AD
:1039D00001A91D480068FFF7A5FC0028F3D009B035
:1039E00000BD10B5322220211B48FFF758FC1649B4
:1039F0000860FFF7B7FE134C0B2020700120A07069
:103A00001648A0611648E061203406202070A0709E
:103A10001448A0611448E06120340F202070042075
:103A2000A0701248A0611248E06110BD690000203A
:103A3000680000206A0000206B000020100E0020AB
:103A40006C0000205007002070000020640000205F
:103A50006E000020A4000020B0070020E70400084A
:103A600079040008550600082F060008B90500086B
:103A7000450500082DE9F04704460D46284602F0AA
:103A800003F98146A16801F0FEFE8046664901F017
:103A9000A2FE074602F027F986B2A5812079012807
:103AA00006D0022809D003280CD0042814D10EE037
:103AB00031462068FEF7C2FD0EE031462068FEF771
:103AC000BFFD09E031462068FEF7BCFD04E0314649
:103AD0002068FEF7B9FD00BF00BFBDE8F08753487E
:103AE000534908600320087140F24650C88051488D
:103AF0008860AFF27F0008634C484F49086004209B
:103B0000087140F24650C8804A488860AFF29B0076
:103B10000863704700B589B001210820FDF777FAE6
:103B20000C20ADF8200018208DF8230003208DF81C
:103B3000220008A94148FCF7A1FF3C48FDF7B6FE6A
:103B40003A48FEF717FB44F62060ADF818003C48F1
:103B500000683C49B0FBF1F080B2ADF814000020E1
:103B6000ADF81A00ADF8160005A93048FDF772FF50
:103B70006020ADF804000120ADF806000020ADF88B
:103B80000C0044F62060ADF80A0001A92748FEF7B2
:103B90002DF808212548FEF7FFFB01A92348FEF771
:103BA00070F808212148FEF700FC01211F48FEF7AC
:103BB000ADFB01211D48FEF7A9FA09B000BD00B513
:103BC000D1B0642138A801F0FBFD1F480068D0F88F
:103BD000D8201D480168684690471B480068B0F926
:103BE000102019480068B0F90E1018A002F0F8F97A
:103BF00015480068B0F91200009013480068B0F949
:103C0000103011480068B0F90E2012A138A802F057
:103C1000F7F90221012001F0C0FB38AA0021084673
:103C200001F062FC51B000BD0000AF43000C004049
:103C3000440E00201CC7B140780E0020000801404F
:103C40002400002040420F009C000020256409252C
:103C5000640D0A00583A25642C593A25642C5A3AC6
:103C600025640D0A0000000070B504460D46552D70
:103C700002D1002060802071657100BF4021404862
:103C8000FDF74CFD0028F9D029463D48FDF7D8FC4A
:103C900040213B48FDF74FFD70BD4279502A03D1CA
:103CA000A1F12D02427016E04279552A13D1027912
:103CB0004AB9418042884FF6FF7303EA02224280EC
:103CC0000122027107E00279012A04D142880A43E5
:103CD000428002220271704708B52A4800680079C4
:103CE000022838D1284909688989C1F15A00002879
:103CF00001DB014600E041428231224A12685288CB
:103D0000914204DD02201F49096808700EE01D4839
:103D100000684088B0F5967F04DA012019490968E7
:103D2000087003E00020174909680870154800680A
:103D3000408800901348006843787F2213A11748F9
:103D400002F05EF90221012001F027FB134A002155
:103D5000084601F0C9FB1248007828B150210948F3
:103D60000068FFF781FF04E0552106480068FFF76F
:103D70007BFF0B480078C0430949087008BD00006C
:103D8000004C004088000020740000204325633A66
:103D900025642C6D6D3A25640D0A0000AC0E0020E0
:103DA0008C00002010B50446B020015904F17C00BD
:103DB000884704F14400A16F884747F6FF70A4F8D4
:103DC000B400A4F8B60047F6FF71A068FEF732FC15
:103DD00010BD70B504460D460026012D01D1012607
:103DE00008E0022D01D1002604E01DB994F8D100AD
:103DF000C043C6B284F8D15094F8D30028B1A18A48
:103E000032462069FCF7EBFE04E0A18A32462069C5
:103E1000FCF7E5FE94F8D100F0B9207B012806D02C
:103E2000022809D003280CD0042814D10EE0002168
:103E30006068FEF703FC0EE000216068FEF700FCFE
:103E400009E000216068FEF7FDFB04E000216068E6
:103E5000FEF7FAFB00BF00BF70BD2DE9F04104463C
:103E60000D4617461E46022084F83C00294620468F
:103E7000FFF7AFFF38B2A4F8C2002046FFF792FF69
:103E8000012D05D147F6FF703044A4F8C40006E0C8
:103E9000022D04D147F6FF70801BA4F8C400BDE8D2
:103EA000F08110B50446A068FEF7E7FBA4F8B40063
:103EB000B4F8B40010BD70B504460E461546012096
:103EC00084F83C0031462046FFF783FF28B2A4F86F
:103ED000C2002046FFF766FF70BD1CB5E021FE481A
:103EE000006801F06DFCE021FC48006801F068FC0E
:103EF0000020F94909680870F948F749096888609D
:103F00000005F549096848600120F349096808730C
:103F1000F448F149096808610820EF490968888276
:103F20000220ED490968C882EF48012100234203BD
:103F3000CDE90010ED49E8480068443000F0B4FBDA
:103F4000EB48012100231A46CDE90010E949E24877
:103F500000687C3000F0A8FB0120E0490968087087
:103F6000E548DE4909688860C004DC4909684860A2
:103F70000220DA4909680873DA48D84909680861F3
:103F80001020D649096888820820D4490968C88267
:103F90000120D249096881F8D300D34801210023C8
:103FA0004203CDE90010D149CC480068443000F00C
:103FB0007BFBCF48012100231A46CDE90010CD49F3
:103FC000C64800687C3000F06FFB47F6FF70C349BD
:103FD0000968A1F8B400C0490968A1F8B400BF4954
:103FE0000968A1F8B600BC490968A1F8B6004FF00D
:103FF0007E50BA4909680864B74909680864AFF295
:104000004910B6490968C1F8D400B3490968C1F834
:10401000D400AFF27110B1490968C1F8DC00AE49B3
:104020000968C1F8DC00AFF2CD10AC490968C1F8ED
:10403000D800A9490968C1F8D800B048A74909685B
:10404000C1F8C800A4490968C1F8C8001CBD2DE921
:10405000F04104460E4604F17C05207858B99E488C
:104060000068B0F8B4009D490968B1F8B410401A6E
:10407000C4F8BC000DE0207801280AD197480068F8
:10408000B0F8B40094490968B1F8B410401AC4F803
:10409000BC00D4F8BC0001F0EEFD074632463946BC
:1040A00028462B6B984794F8D000012802D1686A03
:1040B00068620AE094F8D000022804D1686A80F0AF
:1040C0000040686201E000206862686ABDE8F08133
:1040D0002DE9F04105460E4605F14404D5F8B80037
:1040E00001F0C9FD0746324639462046236B984702
:1040F0008349606A01F050FE02D28148606206E0A6
:104100000021606A01F03EFE01D200206062606A18
:10411000BDE8F0812DE9FF5F824600200390029008
:104120009AF8D10008B9BDE8FF9F5046DAF8DC10D4
:1041300088479AF81800F0B100208AF81800BAF8F9
:10414000B600B0F5004F0ADBBAF8B6004FF6FF71C3
:10415000081ABAF8B4100844CAF8B80012E0BAF85D
:10416000B4004FF6FF71081ABAF8B610084440427E
:10417000CAF8B80006E0BAF8B400BAF8B610401AA7
:10418000CAF8B800BAF8B400AAF8B600DAF8B8006D
:10419000002803DD01208AF8D0000FE0DAF8B8002B
:1041A000002808DA02208AF8D000DAF8B800404285
:1041B000CAF8B80002E000208AF8D0009AF83C0063
:1041C00001282CD14448006890F8D100434909687F
:1041D00091F8D11088420ED13F480068B0F9C20072
:1041E0003E490968B1F9C210884204D10021504605
:1041F000FFF72DFF0390BAF9C20001F03CFD06461F
:10420000DAF8401001F03FFB0546039901F0E3FAAC
:10421000044621465046FFF75BFF0290A1E09AF862
:104220003C00022857D1BAF8C410BAF8B420881A52
:10423000002801DB014600E04142B1F5FA7F2DDAAA
:10424000BAF9C20001F025FDCDE90001BAF8C400B9
:10425000BAF8B410A0EB010BBBF1000F01DB59461B
:1042600001E0CBF10001084601F013FD06460022F3
:10427000244B01F091FC8046DDE9002301F01AFC9B
:10428000044601F044FD00B2AAF8C000BAF9C0002B
:104290000A2807DA0A20AAF8C00003E0BAF8C20028
:1042A000AAF8C000BAF8C40047F6FF71884239DAAC
:1042B000BAF8C400BAF8B410884229DABAF9C000D2
:1042C00001F0D9FC0546DAF8401001F0DCFA0446AA
:1042D0002146504618E044E0900000209400002061
:1042E00000040040000C014000007A440000344209
:1042F0000000C842CDCC4C3E000800405555054159
:1043000000C0794400407F40FFF7E2FE029028E0C1
:10431000002211465046DAF8D430984700208AF837
:104320003C001EE0BAF8C400BAF8B41088420FDDB1
:10433000BAF9C00001F09FFC0546DAF8401001F020
:10434000A2FA044621465046FFF7C2FE029008E05A
:10435000002211465046DAF8D430984700208AF8F7
:104360003C00029801F0A6FC00B2AAF8CE009AF830
:104370000C00012806D002280CD0032812D00428F3
:1043800020D117E0BAF8CE2091B2DAF80400FEF797
:1043900055F917E0BAF8CE2091B2DAF80400FEF72A
:1043A0004FF90FE0BAF8CE2091B2DAF80400FEF728
:1043B00049F907E0BAF8CE2091B2DAF80400FEF726
:1043C00043F900BF00BF00BFADE610B57848FFF766
:1043D000A1FE7848FFF79EFE10BD08B5764800683C
:1043E000808A76490968898A0843ADF80000102060
:1043F0008DF8030001208DF8020069467048FCF733
:104400003DFB08BD00B58BB001210846FCF7FFFD60
:104410000320ADF8280018208DF82B0003208DF81C
:104420002A000AA96748FCF729FB4FF08040FDF7F6
:104430003DFA4FF08040FDF79DFE4FF47A70ADF8E5
:1044400020004820ADF81C000020ADF82200ADF897
:104450001E0007A94FF08040FDF7FCFA6020ADF880
:104460000C000120ADF80E000020ADF814004FF450
:104470007A70ADF8120003A9C006FDF728FB0821E9
:10448000C806FDF773FF4FF47A70ADF8120003A968
:10449000C006FDF75EFB0821C806FDF770FF01218D
:1044A0008807FDF733FF01218807FDF72FFE002164
:1044B0004FF08040FEF7C2F800214FF08040FEF739
:1044C000BFF801210620FCF7A2FDC320ADF82800AB
:1044D00004208DF82B0003208DF82A000AA9384803
:1044E000FCF7CCFA3848FDF7E1F93848FDF7DEF97A
:1044F0004FF6FF70ADF820000020ADF81C00ADF8BD
:104500002200ADF81E0007A92F48FDF7A3FA07A95E
:104510002E48FDF79FFA00231A4603212A48FDF78B
:10452000A8FE00231A4603212848FDF7A2FE68468C
:10453000FDF7CFFD0320ADF8080069462248FDF7DE
:104540001CFD69462148FDF718FD01211E48FDF7B5
:10455000DDFE01211D48FDF7D9FE01211A48FEF7B5
:10456000AFF801211948FEF7ABF8012211461648B1
:10457000FDF7E7FD012211461448FDF7E2FD012198
:104580001148FDF7C3FD01211048FDF7BFFD0A49A1
:104590000968886847F6FF71FEF74CF80749096813
:1045A000886847F6FF71FEF745F80BB000BD0000C4
:1045B000BC0E00209C0F00209000002094000020E2
:1045C000000C0140000801400004004000080040C9
:1045D0002DE9F04704460D46164600272660656023
:1045E000D4E9000101F049F9A060A168E06901F097
:1045F000F2F8E061D4E9020101F03FF98246A169D5
:1046000001F041F98046A168206901F03CF981463A
:10461000414601F0E0F80746E169606901F033F9CD
:104620008046394601F0D7F86062A068E06094F8EF
:104630002C0088B3D4E9090101F0AEFB07D3A06ACE
:1046400080F000484046616A01F0A6FB25D20021B7
:10465000606901F097FB08D03946A06A01F00DF9B6
:104660008046616901F041F9E061D4E9090101F096
:1046700093FB02D2A06A60620BE0A06A80F000485F
:104680004046616A01F088FB03D2A06A80F00040D6
:104690006062A06ABDE8F087FFE7606AFAE7002180
:1046A000C160C161816070472DE9F04704460D4645
:1046B00016461F46DDE908893821204601F080F8BA
:1046C00025616661A761AFF2F7002063AFF23100A8
:1046D000606384F82C80C4F82890BDE8F08700005F
:1046E0002DE9F05F82468B46BBF1530F0DD19AF84E
:1046F0000C00552809D18AF8000053208AF80100DF
:1047000000208AF80B00BDE8F09F8AF80CB09AF8F8
:10471000000000B9F7E79AF80B100AF1020000F860
:1047200001B09AF80B00401C8AF80B009AF80B00B5
:1047300009285AD19AF802109AF8032041EA022176
:1047400009B2B42201FB02F0C11700EB5141C913B9
:10475000AAF80E109AF804109AF8052041EA0221EE
:1047600009B2B42201FB02F0C11700EB5141C91399
:10477000AAF810109AF806109AF8072041EA0221C8
:1047800009B2B42201FB02F0C11700EB5141C91379
:10479000AAF812109AF808109AF8092041EA0221A2
:1047A00008B201F076FA06460022604B01F0F4F9F7
:1047B00004465F4A5F4B01F0D6F8804601F0C6FA26
:1047C000CAF81400BAF80E00BAF81010401A00B275
:1047D000AAF81800BAF80E00BAF81010084400B28F
:1047E000AAF81A0001208AF80D0000BF8BE770B507
:1047F00006460C46002509E005F116004E4B195CF3
:104800002046D4F8D4209047681CC5B20B2DF3DBAA
:10481000607B28B9E0222146304600F0B8FF70BD29
:104820002046D4F8DC108847E089A4F8C800208A24
:10483000A4F8CA00608AA4F8CC006069C4F8D0006B
:104840002046D4F8DC108847E0222146304600F0AC
:104850009EFF00BFE3E70021417341700170704784
:1048600010B5364836490860E0213548006800F048
:10487000A7FF344832490968C1F8D400AFF291006B
:104880002F490968C1F8D800AFF235002C490968F2
:10489000C1F8DC0010BD00B585B001218804FCF72B
:1048A000B6FB4FF48060ADF8100003208DF81200C5
:1048B00018208DF8130004A92348FCF7DFF84FF403
:1048C0000060ADF8100004208DF8130004A91E4804
:1048D000FCF7D4F81D48FCF777FD4FF41650009014
:1048E0000020ADF80400ADF80600ADF80800ADF802
:1048F0000C000C20ADF80A0069461448FCF7A7FD2F
:1049000040F224411148FCF749FF012240F22441C2
:104910000E48FCF734FE01210C48FCF724FE01226E
:1049200040210A48FCF750FE05B000BD004075402C
:10493000A4703D0AD7434240EC1A00203C120020EC
:104940009C000020E1460008000C014000480040A7
:1049500070B5594890F9000010B101287ED184E06B
:1049600056480068007802287ED155480068808942
:104970005A283ADD524909688989C1F1B40001F029
:104980007AF906464F480068D0F8C810304600F063
:104990007AFF054601F08EF904B24A4800682346C2
:1049A00014220121D0F8D85046480068A84744494D
:1049B00009688989C1F1B40001F05DF906464248F1
:1049C0000068D0F8C810304600F05DFF054601F0E1
:1049D00071F904B23C480068234614220221D0F841
:1049E000D85039480068A84735E0354909688889B2
:1049F00001F04AF9064633480068D0F8C81030463E
:104A000000F041FF054601F055F904B22D48006859
:104A1000234614220221D0F8D8502A480068A8471B
:104A200027490968888901F02FF906462648006859
:104A3000D0F8C810304600F026FF054601F03AF9DC
:104A400004B221480068234614220121D0F8D8502E
:104A50001D480068A8471848007801E02AE003E0F4
:104A6000401C40B21449087024E01648006890F8D1
:104A70003C00F0B91448006890F83C00C8B9002028
:104A80000D4908700D4800680078022811D00D48C3
:104A9000006828220121D0F8D4300A4800689847DD
:104AA0000948006828220121D0F8D430064800685F
:104AB000984700BF00BF70BDA00000208800002004
:104AC00074000020900000209400002070B504467F
:104AD0000D4600BF40212046FCF720FE0028F9D0FB
:104AE00040212046FCF727FE29462046FCF7A8FD7A
:104AF00070BD70B504460D4640219148FCF71BFE81
:104B0000A1B28F48FCF79CFD00BF40218C48FCF708
:104B100005FE0028F9D0204670BD2DE9FC41044671
:104B200088460025A71D611C4046FEF7DAFBA11C44
:104B30004046FEF7D6FB00BF1FE0785DFD2805D09C
:104B4000785DF82802D0785DFE2810D1785DFEF7F8
:104B50001DFE064630120190F0B2009001A94046B9
:104B6000FEF7BFFB69464046FEF7BBFB03E0791941
:104B70004046FEF7B6FB681CC5B22078A842DCDCD4
:104B8000E078FD2805D0E078F82802D0E078FE280B
:104B900010D1E078FEF7FAFD064630120190F0B22F
:104BA000009001A94046FEF79CFB69464046FEF78F
:104BB00098FB03E0E11C4046FEF793FB2079FD28BB
:104BC00005D02079F82802D02079FE2810D120794C
:104BD000FEF7DCFD064630120190F0B2009001A90C
:104BE0004046FEF77EFB69464046FEF77AFB03E04F
:104BF000211D4046FEF775FB611D4046FEF771FB27
:104C00000020BDE8FC812DE9F04704460025A61DE3
:104C100061784B48FFF75AFFA1784948FFF756FFE4
:104C200000BF1FE0705DFD2805D0705DF82802D040
:104C3000705DFE2810D1705DFEF7A8FD07464FEAB3
:104C4000272807F0FF0941463D48FFF73FFF494647
:104C50003B48FFF73BFF03E0715D3948FFF736FF44
:104C6000681CC5B22078A842DCDCE1783448FFF744
:104C70002DFF21793248FFF729FF61793048FFF78E
:104C800025FF0020BDE8F08708B569462D4800687B
:104C9000FEF748FB78B900BF40212948FCF73EFDEC
:104CA0000028F9D040212648FCF745FD009881B244
:104CB0002348FCF7C5FC08BD38B500240EE0601C95
:104CC000C4B29DF8001020480068583001551E48B5
:104CD000006880F858401F2C00D106E069461B4848
:104CE0000068FEF71FFB0028E9D000BF002C0EDD96
:104CF00015480068C16C144800688847124800686D
:104D0000426C1148016858310068904705E00E4830
:104D10000068016D0C480068884738BD10B54FF435
:104D20007A7201210A48FEF7BAFA064908604FF480
:104D30007A7201210748FEF7B2FA0449086010BDF3
:104D400000380140A4000020AC000020A800002092
:104D50001C1300200417002070B504460D4642F2D3
:104D60001070FE49088000BF02212046FCF7F5FACA
:104D700038B9FA4801880088401EF84A1080002996
:104D8000F2D129462046FCF795FA42F21070F34919
:104D9000088000BF01212046FCF7DFFA38B9EF4850
:104DA00001880088401EED4A10800029F2D120467B
:104DB000FCF782FAC0B270BD704770B504460E466B
:104DC00015462046E16A88473146A069FFF7C4FFCF
:104DD0002946A069FFF7C0FF2046A16A884770BD39
:104DE00070B504460D462046E16A88472946A06909
:104DF000FFF7B2FFFF21A069FFF7AEFF064620468E
:104E0000A16A8847304670BD2DE9F04704468846C0
:104E100016461F462046E16A88474146A069FFF7CB
:104E20009BFF8146002506E0FF21A069FFF794FF64
:104E30007055681CC5B2BD42F6DB2046A16A8847A2
:104E40004846BDE8F0872DE9F047044688461546F8
:104E50001E462046E16A88474146A069FFF77CFF6D
:104E60008146002706E015F8011BA069FFF774FFD3
:104E7000781CC7B2B742F6DB2046A16A884748468D
:104E8000BDE8F08710B50446607F022800D110BD50
:104E90002046616A88470E2220212046636B98478E
:104EA0002046216A88470220607700BF4FF4C37014
:104EB000AB49086000BFAA4801680068401EA84AC4
:104EC00010600029F7D100BF00BFE0E710B504462D
:104ED000607F012800D110BD2046616A88470F22FB
:104EE00020212046636B98472046216A884701208D
:104EF000607700BF4FF4C3709949086000BF9848BD
:104F000001680068401E964A10600029F7D100BF72
:104F100000BFE0E770B50446227F27212046636B7F
:104F20009847207F00F0400060B3202304F178020E
:104F300061212046256CA847FF22E2212046636BB1
:104F40009847002000B170BD207F00F0020008B13A
:104F50000220F8E7207F00F0040008B10420F2E707
:104F6000207F00F0060008B10620ECE7207F00F06B
:104F7000080008B10820E6E7207F00F00A0008B129
:104F80000A20E0E7FF20DEE770B504460D46204624
:104F9000616A88472022294604F1580000F0F7FB97
:104FA000202304F15802A0212046A66BB0470E2210
:104FB00020212046636B98472046216A884742F2A9
:104FC00010706649088000BF2046216B884738B1C1
:104FD000624801880088401E604A10800029F3D191
:104FE000227F27212046636B9847002070BD70B553
:104FF00004465C4800680721C26B20469047207732
:10500000207F00F0100038B156480068FF22E121EF
:10501000436B204698471DE0207F00F02000C8B970
:10502000207F00F04000A8B14E480068816C204607
:105030008847012507E04B4909687831485DFEF74C
:10504000E4FB681CC5B24748006890F87800401C33
:10505000A842F0DC70BD10B50446A188012220688A
:10506000FBF7BDFD00BF1E203D49086000BF3C4866
:1050700001680068401E3A4A10600029F7D100BF5D
:1050800010BD10B50446A18800222068FBF7A7FDDB
:1050900010BD10B50446A18A01222069FBF79FFDCF
:1050A00010BD10B50446A18A00222069FBF797FDC8
:1050B00010BD10B50446A189A068FBF772FD10BDB4
:1050C00038B50446A088ADF8000003208DF8020032
:1050D00010208DF8030069462068FBF7CFFCA08AFA
:1050E000ADF8000003208DF8020010208DF80300B9
:1050F00069462069FBF7C2FCA089ADF800000320D7
:105100008DF8020048208DF803006946A068FBF77F
:10511000B5FCAFF2BD002062AFF299006062AFF261
:105120008D00A062AFF28500E062AFF279002063EB
:10513000AFF279306063AFF2F120A063AFF25F307D
:10514000E063AFF23B302064AFF2C3106064AFF2B3
:105150003B20A064AFF2D320E06405E0B000002063
:105160004C000020AC000020AFF29F202065AFF281
:10517000811060652046616A88473F2221212046D0
:10518000636B98473F2222212046636B9847132286
:1051900024212046636B9847002225212046636B1B
:1051A00098470F2226212046636B984705233C4AE7
:1051B00030212046A56BA8470523394A2A212046DD
:1051C000A56BA8470523374A2A212046A56BA84787
:1051D000202231212046636B98470523324A2B2138
:1051E0002046A56BA847202232212046636B9847B2
:1051F0002E4802782C212046636B984720223321C9
:105200002046636B98472A4802782D212046636B1D
:105210009847202234212046636B9847254802781E
:105220002E212046636B9847202235212046636B50
:1052300098471B4802782F212046636B984720220D
:1052400036212046636B984707212046E26B904742
:105250002077227F27212046636B9847FF22E12198
:105260002046636B9847FF22E2212046636B9847F4
:105270000F2220212046636B98472046216A8847E9
:1052800000BF41F294100C49086000BF0A48016851
:105290000068401E084A10600029F7D100BF38BDE1
:1052A000D0000020B7000020BC000020C10000207A
:1052B000C6000020CB0000204C00002070B5044642
:1052C0000E4626B14021FE48FBF785FC03E0402155
:1052D000FB48FBF782FC4FF48051FA48FBF77DFC5A
:1052E00000251BE04FF40051F648FBF776FC04F074
:1052F000800028B14FF40041F248FBF76CFC04E059
:105300004FF40041EF48FBF768FC4FF40051ED48C3
:10531000FBF761FC6006040E681CC5B2082DE1DBDA
:105320004FF48051E748FBF756FC4021E448FBF777
:1053300052FC70BD70B504460D4605F1B001C8B20F
:105340000021FFF7BBFF102141EA14100021FFF7F5
:10535000B5FF04F00F0141F001000021FFF7AEFF9F
:1053600070BD10B500218D20FFF7A8FF002114208B
:10537000FFF7A4FF0021AF20FFF7A0FF10BD10B57D
:1053800000218D20FFF79AFF00211020FFF796FFE4
:105390000021AE20FFF792FF10BD2DE9F041054638
:1053A0000F46681EC4B219E004F1B001C8B2002172
:1053B000FFF784FF00210846FFF780FF002110203F
:1053C000FFF77CFF002605E001210020FFF776FFB4
:1053D000701CC6B2802EF7DB601CC4B2BC42E3DB9B
:1053E000BDE8F0812DE9F04107460E4690460025C4
:1053F0000024A8F12000C5B27F2F02DD0027B01CD9
:10540000C6B231463846FFF795FF002408E004EBAA
:105410000511AD4A505C0121FFF750FF601CC4B27A
:10542000082CF4DB701CC1B23846FFF783FF002460
:1054300009E004EB05110831A34A505C0121FFF794
:105440003DFF601CC4B2082CF3DBBDE8F08110B551
:105450000246012000E050430B1EA1F10104E1B21D
:10546000F9D110BD2DE9FF5F074691461D460E9EFE
:105470004FF0000A002433E0281B401EC1B20A206E
:10548000FFF7E5FFB9FBF0F00A21B0FBF1F201FBF9
:105490001208BAF1000F13D1681EA04210DDB8F156
:1054A000000F0BD1B34606EBDB71491001FB047111
:1054B000C8B220220199FFF795FF0FE04FF0010AD3
:1054C000B34606EBDB71491001FB0471C8B208F169
:1054D0003001CAB20199FFF785FF00BF601CC4B25A
:1054E000AC42C9DBBDE8FF9F2DE9F04106460F46FF
:1054F0001546002417E0285D0D2802D0285D0A28F3
:1055000002D1601CC4B211E02A5D39463046FFF773
:1055100069FF06F10800C6B2782E02DD0026B81C2D
:10552000C7B2601CC4B2285D0028E4D100BFBDE84A
:10553000F0812DE9F04180460E46154600273146A0
:105540004046FFF7F7FE00240AE0604A02EB8511AF
:10555000085D0121FFF7B2FE781CC7B2601CC4B21F
:10556000102CF2DB701CC1B24046FFF7E3FE0024B2
:105570000CE06900491C554A02EB4111085D01210C
:10558000FFF79CFE781CC7B2601CC4B2102CF0DB85
:10559000BDE8F0812DE9F05F06460F4690461C46B7
:1055A000DDF828A04FF0000BE11704EB5171C91092
:1055B000A4EBC10131B92046E11704EB5171C1F3ED
:1055C000C70506E02046E11704EB5171C910491CDC
:1055D000CDB23D4615E029463046FFF7ABFEB14659
:1055E0000BE059460BF1010B1AF801000121FFF7FE
:1055F00065FE09F1010000F0FF09C145F1DB681CFF
:10560000C5B2A542E7DBBDE8F09F08B54020ADF884
:10561000000010208DF8030003208DF80200694679
:105620002748FBF72BFA4FF47040ADF8000010202C
:105630008DF8030003208DF8020069462148FBF72E
:105640001DFA4FF470411F48FBF7C5FA40211C4872
:10565000FBF7C1FA08BD10B54FF480411948FBF7BC
:10566000BAFA6420FDF7D3FD4FF480411548FBF7EB
:10567000B4FAC820FDF7CBFD4FF480411148FBF789
:10568000AAFA0021AE20FFF719FE00210846FFF715
:1056900015FE00211020FFF711FE00214020FFF72A
:1056A0000DFE00218120FFF709FE0021CF20FFF72A
:1056B00005FE0021A120FFF701FE0021C82007E020
:1056C00000100140000C01403264000895020020E7
:1056D000FFF7F4FD0021A620FFF7F0FD0021A82030
:1056E000FFF7ECFD00213F20FFF7E8FD0021D3206C
:1056F000FFF7E4FD00210846FFF7E0FD0021D5207B
:10570000FFF7DCFD00218020FFF7D8FD0021D92024
:10571000FFF7D4FD0021F120FFF7D0FD0021DA20B2
:10572000FFF7CCFD00211220FFF7C8FD0021DB2090
:10573000FFF7C4FD00214020FFF7C0FD002120201D
:10574000FFF7BCFD00210220FFF7B8FD00218D20EE
:10575000FFF7B4FD00211420FFF7B0FD0021A420C5
:10576000FFF7ACFD0021A620FFF7A8FD0021AF2028
:10577000FFF7A4FD0021AF20FFF7A0FD08210120C5
:10578000FFF70BFE00210846FFF7D4FD10BD40EAED
:1057900001039B0703D009E008C9121F08C0042AAF
:1057A000FAD203E011F8013B00F8013B521EF9D296
:1057B0007047D2B201E000F8012B491EFBD27047BE
:1057C0000022F6E710B513460A4604461946FFF7CD
:1057D000F0FF204610BDF0B480EA0102D40F420071
:1057E000B2EB410F02D20246084611464A0042D0AF
:1057F000C30DDDB2C1F3C752AD1A202D35DAC1F3A6
:10580000160141F4000204B15242C5F1200602FA29
:1058100006F12A411044B3EBD05F23D0C4B1012D6F
:10582000A0EBC35009DCF0BC4FF0004202EAC352C7
:10583000DBB200F5000000F009BB400000F1807011
:1058400000EBC350A0F1807040EAD170490009E03C
:10585000490841EAC071A0EBC35000F500004008C0
:1058600000EBC350F0BC00F0E8BA6142012202EB49
:105870004101001BF6E7F0BC704781F00041AAE748
:1058800080F00040A7E780EA010210B502F0004373
:10589000400022D04A001FD0010E01EB1261C0F37C
:1058A0005600C2F3560240F4000042F40002A0FB8E
:1058B000022000047F39140400D0401C50EA12403A
:1058C00001D44000491EC2B20C0604EBD010401CAB
:1058D0004008802A02D003E0002010BD20F0010023
:1058E000002900DA0020184310BD30B480EA01021C
:1058F00002F0004530F0004221F0004013D090B19A
:10590000C30DD40DC2F31601C0F31600E41A41F41E
:10591000000140F400027D34914201D3641C00E098
:105920004900002C02DA30BC002070474FF4000020
:105930000023914201D3891A034340084FEA4101F1
:10594000F7D151B1914202D14FF0004105E002D2AE
:105950004FF0010101E06FF0010103EBC450284456
:1059600030BC00F06ABA2DE9FE4F804681EA0300A0
:10597000C00F0C46009021F0004123F00045B8EB29
:105980000200A94105D24046214690461C460B46DE
:10599000024623F00040104347D0270DC7F30A000A
:1059A000C3F30A510290401A019040286BDAC3F306
:1059B000130040F4801B0098924620B10023D2EBE4
:1059C000030A63EB0B0B01985946C0F140025046A5
:1059D00000F002FA06460D4650465946019A00F07C
:1059E0001AFA10EB08006141002487EA115284EA98
:1059F000E7731A4340D0009A62B3019A012A4FEA32
:105A0000075215DC001B61EB02014FF0004202EA75
:105A10000752CDE90042001C41F5801132462B4669
:105A200000F051FA03B0BDE8F08F40462146F9E797
:105A3000001B61EB0201001C41F5801300185B4163
:105A40002018A2F5001747EB030140EAD570B619FC
:105A50006D4111E06D084FEA360645EAC0754FEA20
:105A60000752001B61EB0201001C41F5801149083F
:105A70004FEA30000019514132462B4603B0BDE8D1
:105A8000F04F00F011BA0098012240000023D0EB43
:105A9000020263EBE073009821464FEAE074B8EB32
:105AA000000061EB0401E9E783F000435BE781F06C
:105AB000004158E72DE9FE4F81EA030404F0004459
:105AC00021F0004100944FF0000B23F0004350EA16
:105AD00001045ED052EA03045BD0C3F30A54C1F35D
