:020000040800F2
:10000000E0970020C51200086103000863030008A0
:10001000670300086B0300086F030008000000007E
:100020000000000000000000000000007303000852
:10003000750300080000000077030008790300083A
:10004000DF120008DF120008DF120008DF120008CC
:10005000DF120008DF120008DF120008DF120008BC
:10006000DF120008DF120008DF120008DF120008AC
:10007000DF120008DF120008DF120008DF1200089C
:10008000DF120008DF120008DF120008DF1200088C
:10009000DF120008DF120008DF1200087B030008EF
:1000A000DF120008DF120008DF120008DF1200086C
:1000B000DF120008DF120008DF120008DF1200085C
:1000C000DF120008DF120008DF120008DF1200084C
:1000D000DF120008DF120008DF120008DF1200083C
:1000E000DF120008DF120008DF120008DF1200082C
:1000F000DF120008DF120008DF120008DF1200081C
:10010000DF120008DF120008DF120008DF1200080B
:10011000DF120008DF120008DF120008DF120008FB
:10012000DF120008DF120008DF120008DF120008EB
:10013000DFF80CD002F004FC00480047D1020008B0
:10014000E097002010B57D480078C0437B490870D7
:10015000084602784FF48061794800F048FB774800
:1001600002780421774800F042FB10BD70B5764854
:10017000007802287ED1754A1268918C734A126801
:10018000106A002200F033FB704A1268918E6F4AA9
:100190001268106B002200F02AFB6C4A1268918EE4
:1001A0006A4A1268106B012200F021FB674A12684C
:1001B000918E664A1268106B002200F018FB634AA9
:1001C0001268918C614A1268106A012200F00FFBDC
:1001D0005E4A1268918E5D4A1268106B012200F02F
:1001E00006FB00244FE0594A1268918E574A126864
:1001F000106B002200F0FBFA55488068C5B2534AE4
:100200001268918E514A1268106B012200F0EFFAC9
:1002100000BF40214F4800F0FFFE0028F9D04021E8
:100220004C4800F006FF29464A4800F087FE4FF68A
:10023000FF7000EA0525454A1268918E434A12680C
:10024000106B002200F0D3FA41488068C0B2054329
:100250003E4A1268918E3D4A1268106B012200F0EE
:10026000C6FA00BF40213B4800F0D6FE0028F9D076
:10027000402100E02BE0374800F0DBFE29463548FE
:1002800000F05CFE641CB4F5963FACD300BF402187
:10029000304800F0C1FE0028F9D040212D4800F080
:1002A000C8FE0D212B4800F049FE00BF402129481F
:1002B00000F0B2FE0028F9D04021264800F0B9FE37
:1002C0000A21244800F03AFE00201F49087070BD42
:1002D0000EB5002401F0B9FA01F091FD01F072F8B9
:1002E00001F00CF9C8230022114601A801F066F9BB
:1002F0000120194B0090DDE9011201F0F7FA00230B
:100300004FF4FA72194601A801F058F90020AFF233
:10031000CB1300900420DDE9011201F0E7FA0F4948
:10032000087000E0641C01F00BFF0028FAD103E024
:1003300001F080FBFFF71AFFFAE700000100002040
:10034000000C0140001401402C000020540000204B
:100350000010014000380140CF1D000800000020BF
:10036000704700BFFEE700BFFEE700BFFEE700BF2B
:10037000FEE7704770477047704710B54FF48070C4
:1003800000F086FF012835D11D48007800BB1D4ACA
:100390001268918B1B4A12689069002200F027FABC
:1003A000184A1268918B174A12689069012200F06E
:1003B0001EFA144A1268918D124A1268906A01223C
:1003C00000F015FA0E480078401C0D49087011E045
:1003D0000B48007801280DD10A4A1268918D094A0C
:1003E0001268906A002200F002FA05480078401C6A
:1003F000034908704FF4807000F05BFF10BD0000EF
:100400002C0000205400002000210020674A1268C0
:1004100042F48032654B1A6000BF644A126802F4ED
:100420000030491C10B9B1F5A06FF6D15F4A1268CF
:1004300012F4003F01D0012000E00020012842D149
:100440005B4A126842F01002594B1A601A46126851
:1004500022F003021A601A46126842F002021A6081
:10046000524A5268514B5A601A4652685A601A46AC
:10047000526842F480625A601A46526822F47C1232
:100480005A601A46526842F4E8125A601A461268D4
:1004900042F080721A6000BF444A126812F0007F76
:1004A000FAD0424A526822F00302404B5A601A4680
:1004B000526842F002025A6000BF3C4A526802F0A1
:1004C0000C02082AF9D1704710B5FFF79DFF10BD47
:1004D00010B53648006840F001003449086008460D
:1004E000406834490840314948600846006832494C
:1004F00008402E4908600846006820F48020086003
:100500000846406820F4FE0048604FF41F008860F1
:10051000FFF7DAFF4FF000602849086010BD10B502
:10052000002100200022214B5B6803F00C0121B167
:10053000042906D0082928D107E0214B214C23604B
:1005400027E01F4B1F4C236023E0184B5B6803F42C
:100550007010164B5B6803F48032022303EB90406B
:1005600022B9194B4343174C23600DE00F4B5B68D6
:1005700013F4003F04D0144B4343124C236003E0B8
:100580000F4B43430F4C236003E00D4B0D4C236096
:1005900000BF00BF054B5B68C3F303130B4CE15C6A
:1005A000084B1B68CB40074C236010BD0010024075
:1005B000002002400000FFF8FFFFF6FE08ED00E01B
:1005C00000127A000400002000093D00080000200D
:1005D00010B50446CA48844208D10121042000F025
:1005E00023FB0021042000F01FFB46E0C5488442A5
:1005F00008D10121082000F017FB0021082000F09D
:1006000013FB3AE0C048844208D10121102000F0D9
:100610000BFB0021102000F007FB2EE0BB488442BA
:1006200008D10121202000F0FFFA0021202000F055
:10063000FBFA22E0B648844208D10121402000F0B4
:10064000F3FA0021402000F0EFFA16E0B1488442AE
:1006500008D10121802000F0E7FA0021802000F07D
:10066000E3FA0AE0AC48844207D10121801500F08A
:10067000DBFA0021A01500F0D7FA10BD10B501215A
:10068000084600F0D1FA0021012000F0CDFA10BD9B
:100690002DE9F04102460025002600200023002419
:1006A000002791F803C00CF00F0591F803C01CF06F
:1006B000100F03D091F802C04CEA050591F800C074
:1006C000BCF1000F31D0146800202BE04FF0010C7A
:1006D0000CFA00F3B1F800C00CEA03069E4220D1E8
:1006E00083004FF00F0C0CFA03F7BC4305FA03FC30
:1006F0004CEA040491F803C0BCF1280F06D14FF076
:10070000010C0CFA00FCC2F814C00AE091F803C016
:10071000BCF1480F05D14FF0010C0CFA00FCC2F8F7
:1007200010C0401C0828D1D31460B1F800C0BCF13F
:10073000FF0F34DD546800202EE000F1080C4FF06C
:10074000010808FA0CF3B1F800C00CEA03069E4257
:1007500021D183004FF00F0C0CFA03F7BC4305FACC
:1007600003FC4CEA040491F803C0BCF1280F05D146
:1007700000F1080C08FA0CF8C2F8148091F803C0D4
:10078000BCF1480F07D100F1080C4FF0010808FA3E
:100790000CF8C2F81080401C0828CED35460BDE885
:1007A000F0814FF6FF710180022181700421C17038
:1007B00070470246002093680B4201D0012000E000
:1007C000002070470146886880B2704702460020CA
:1007D000D3680B4201D0012000E0002070470146A1
:1007E000C86880B2704701617047416170470AB1C3
:1007F000016100E041617047C16070474FF4803291
:100800000A4382618161826182698269704702461E
:100810000020424B18684FF68073184040EA0210DF
:1008200008433E4B186070473D49C8617047F0B5BA
:100830000A46002300240021002500F00046B6F1FE
:10084000004F02D1354EF16901E0344E7168C0F3BA
:10085000034583B200F44016B6F5401F08D121F0DD
:1008600070612E4E766826F070662C4F7E6012E026
:1008700000F48016B6F5801F06D1032606FA05F4AB
:10088000A14341F0706106E0460D360103FA06F619
:10089000B14341F0706122B1460D360103FA06F60C
:1008A000314300F00046B6F1004F02D11B4EF1611A
:1008B00001E01A4E7160F0BD30B500228B071C0FAD
:1008C0000F2303FA04F2154B08338C1053F824302D
:1008D0009343124C08348D1044F8253023468C1075
:1008E00053F824308C07240F00FA04F423430B4CF4
:1008F00008348D1044F8253030BD0A49086070472F
:1009000000080140000C01400010014000140140AB
:1009100000180140001C014000200140000001407F
:1009200000002042DC002042DB48006840F001006B
:10093000D949086008464068D8490840D649486007
:1009400008460068D6490840D34908600846006850
:1009500020F4802008600846406820F4FE004860CB
:100960004FF41F0088607047CB49096821F480313B
:10097000C94A11601146096821F480211160B0F55F
:10098000803F03D0B0F5802F0ED106E0C249096840
:1009900041F48031C04A116007E0BF49096841F461
:1009A000A021BD4A116000E000BF00BF704710B534
:1009B00001460022002300204A11012A02D1B64C30
:1009C000236806E0022A02D1B34C236A01E0B24C4C
:1009D000636A01F01F02012494401C4201D00120EF
:1009E00000E0002010BD70B500240025002600BFE7
:1009F0003120FFF7DCFF0646641CB4F5A06F01D080
:100A0000002EF5D03120FFF7D2FF08B1012500E01C
:100A10000025284670BD014600209F4A106820F03E
:100A2000F80040EAC100106070479E4908607047B6
:100A300002460020984B586820F47C1042EA0103DB
:100A40001843954B586070479649086670470146B1
:100A50000020914A506820F003000843506070471E
:100A60008D48406800F00C007047014600208A4A1B
:100A7000506820F0F00008435060704701460020A5
:100A8000854A506820F4E060084350607047014692
:100A90000020814A506820F4605040EAC100506054
:100AA000704729B17C4A527A02437B4B5A7204E068
:100AB000794A527A8243784B5A7270477A49086071
:100AC000704701460020744A506820F440400843B3
:100AD000506070470021754A11706F4A82F82010EB
:100AE000012802D0042808D103E001216F4A1170C7
:100AF00004E005216D4A117000E000BF00BF70479F
:100B00006B49086070476449096A0143624A11628F
:100B10007047674944390860704730B500210022AA
:100B2000002400235C4D6D6805F00C0121B10429FF
:100B300005D0082923D105E05E4D056022E05D4D1A
:100B400005601FE0544D6D6805F47012524D6D68DC
:100B500005F48034022505EB92421CB9564D5543ED
:100B600005600BE04C4D6D6815F4003F03D0524D0D
:100B70005543056002E04F4D5543056002E04D4D81
:100B8000056000BF00BF444D6D6805F0F001090924
:100B90004A4D6B5C0568DD4045603F4D6D6805F46E
:100BA000E061090A454D6B5C4568DD4085603A4D62
:100BB0006D6805F46051C90A404D6B5C4568DD40C5
:100BC000C560354D6D6805F44041890B3C4D6B5C4B
:100BD000C568B5FBF3F5056130BD29B12E4A5269F0
:100BE00002432D4B5A6104E02B4A526982432A4B3F
:100BF0005A61704729B1284A92690243264B9A618B
:100C000004E0254A92698243234B9A61704729B1D7
:100C1000214AD2690243204BDA6104E01E4AD269BC
:100C200082431D4BDA61704729B11B4AD2680243E7
:100C3000194BDA6004E0184AD2688243164BDA6036
:100C4000704729B1144A12690243134B1A6104E038
:100C5000114A12698243104B1A6170471449403996
:100C6000086070470F49C86470470B49C8717047E6
:100C70000948406A40F08070074948627047014661
:100C80000020054A92680A4201D0012000E00020BD
:100C90007047014988727047001002400000FFF859
:100CA000FFFFF6FE00004242D80042422010024000
:100CB0008004424200127A0000093D001800002022
:100CC0002800002010B50446FB48844209D10121C8
:100CD0008803FFF7A9FF00214FF48040FFF7A4FF2E
:100CE00032E0F648844209D101214804FFF7A9FF08
:100CF00000214FF40030FFF7A4FF25E0F0488442C4
:100D000009D101218804FFF79CFF00214FF48020C6
:100D1000FFF797FF18E0EB48844209D10121C8048E
:100D2000FFF78FFF00214FF40020FFF78AFF0BE051
:100D3000E548844208D101210805FFF782FF002120
:100D40004FF48010FFF77DFF10BD2DE9F04786B00E
:100D500005460E460024A24600BFA1460027B089E2
:100D600000B100BF2F462C8A4CF6FF700440F0887B
:100D700004432C82AC894EF6F3100440B0883189CC
:100D80000843718908430443AC81AC8A4FF6FF40A5
:100D90000440B0890443AC8201A8FFF7BEFEC648F8
:100DA000874202D1DDF810A001E0DDF80CA0A8898F
:100DB00010F4004F08D00AEBCA0000EB0A103168AB
:100DC0004900B0FBF1F807E00AEBCA0000EB0A109B
:100DD00031688900B0FBF1F86420B8FBF0F0040141
:100DE0002009642101FB1089A88910F4004F08D064
:100DF000322000EBC900B0FBF1F000F00700044323
:100E000008E0322000EB09106421B0FBF1F000F0A3
:100E10000F0004432C8106B0BDE8F0874FF4165153
:100E2000016000218180C18001810C21418100216C
:100E30008181704710B502460020108A4FF2FF03EF
:100E400018400B884C8823438C882343CC88234349
:100E50001843108210BD0021018041808180C18033
:100E6000704721B1828942F40052828104E0828974
:100E70004DF6FF731A4082817047F0B50346002497
:100E8000002600250020A1F510676A3F00D100BFB1
:100E90001846C1F3421401F01F06012707FA06F5B0
:100EA000012C01D10C3004E0022C01D1103000E003
:100EB00014301AB107682F43076002E00768AF4398
:100EC0000760F0BD1AB1838A0B43838202E0838AF4
:100ED0008B4383827047028A4FF6F0731A40028276
:100EE000028A0A430282704782894FF2FF731A40D6
:100EF000828182890A438281704721B1828942F0CE
:100F00000202828104E082894FF6FD731A408281D9
:100F10007047028A4FF6DF731A400282028A0A4340
:100F20000282704721B1028A42F48042028204E0C8
:100F3000028A4BF6FF731A4002827047C1F308021F
:100F40008280704701468888C0F308007047818915
:100F500041F0010181817047028BD2B20283028B82
:100F600042EA012202837047028B02F47F4202832D
:100F7000028B0A430283704721B1828A42F0200229
:100F8000828204E0828A4FF6DF731A4082827047C1
:100F900021B1828A42F01002828204E0828A4FF6F6
:100FA000EF731A408282704721B1828A42F00802B0
:100FB000828204E0828A4FF6F7731A408282704779
:100FC00021B1828942F40042828103E08289C2F326
:100FD0000E028281704721B1828A42F400628282CD
:100FE00004E0828A4FF2FF731A4082827047828A3D
:100FF0004FF6FB731A408282828A0A4382827047CC
:1010000021B1828A42F00202828204E0828A4FF693
:10101000FD731A408282704702460020B1F5007FBE
:1010200000D100BF13880B4201D0012000E0002056
:10103000704701F40072B2F5007F00D100BFCA43CF
:101040000280704770B5024600240023002500206E
:10105000A1F510666A3E00D100BFC1F3421501F050
:101060001F03012606FA03F3012D02D196893340AE
:1010700006E0022D02D1168A334001E0968A334001
:101080000C12012606FA04F41688344013B10CB190
:10109000012000E0002070BD10B500220023A1F562
:1010A00010646A3C00D100BF0A1201249440A3B22C
:1010B000DC43048010BD00000038014000440040C3
:1010C00000480040004C00400050004031490143BE
:1010D000314A1160704770B5002100230F22C47897
:1010E0000CB32D4C246804F4E064C4F5E064210AD8
:1010F000C1F10403CA40447804FA03F1847814402F
:1011000021430901254C0678A155047804F01F05F8
:101110000124AC4005786D114FF0E02606EB850503
:10112000C5F8004109E0047804F01F050124AC4033
:101130001B4D0678761145F8264070BD194A0A40C5
:101140000243154B1B1F1A60704739B1124A121D1A
:1011500012680243104B1B1D1A6006E00E4A121D56
:10116000126882430C4B1B1D1A607047042808D17B
:101170004FF0E021096941F004014FF0E0221161D4
:1011800007E04FF0E021096921F004014FF0E0226F
:10119000116170470000FA050CED00E000E400E08A
:1011A00080E100E080FFFF1F002044490860091D26
:1011B0000860091D0860091D086041483F49143155
:1011C0000860704700213D498279002A3AD00A46DA
:1011D000126803689A430B461A600A1D1268036876
:1011E0009A430B1D1A60027911440A6803681A4376
:1011F0000A60324A0832126803689A432F4B083358
:101200001A601A1D126803689A432C4B0C331A603B
:101210004279102A0ED11A1F126803681A43274B0D
:1012200008331A601A1D126803681A43234B0C33E3
:101230001A600DE02149427911440A6803681A4393
:101240000A6005E0027911440A6803689A430A605B
:1012500070470021016001710C21417100218171F1
:1012600070471649103109680143144A1032116061
:10127000704701460020114A143212680A4201D018
:10128000012000E0002070470C49143108607047CD
:10129000014600200022094B1B6803EA0102074BAC
:1012A00014331B680B4202D00AB1012000E0002079
:1012B0007047024914310860704700000004014083
:1012C000FFFF0F000648804706480047FEE7FEE79D
:1012D000FEE7FEE7FEE7FEE7FEE7FEE7FEE7FEE7E6
:1012E000D10400083101000808B54FF48060ADF862
:1012F000000010208DF8030003208DF802006946DD
:101300006048FFF7C5F90420ADF8000010208DF803
:10131000030003208DF8020069465B48FFF7B8F927
:1013200008BD704700B585B001218803FFF762FC56
:101330004FF40070ADF8100003208DF81200182053
:101340008DF8130004A95148FFF7A2F94FF480600B
:10135000ADF8100004208DF8130004A94B48FFF7E6
:1013600097F94B48FFF7AEFC4FF4E12000900020C6
:10137000ADF80400ADF80600ADF80800ADF80C00BB
:101380000C20ADF80A0069464148FFF7DEFC012158
:101390003F48FFF766FD05B000BD1CB508210020E1
:1013A000FFF78AFA4FF48070009000208DF8040057
:1013B00008208DF8050001208DF806006846FFF72B
:1013C00001FF1CBD38B5FFF7AFFA4FF48030FFF7CF
:1013D000CBFAFFF708FB044600BF002CFDD000202D
:1013E000FFF743FB0020FFF749FB0020FFF74FFB0F
:1013F0004FF4E0114FF48030FFF71AFB0120FFF7A4
:1014000023FB00BF3920FFF7D2FA0028FAD00220D0
:10141000FFF71DFB00BFFFF723FB0828FBD10020CF
:10142000FFF703FB01210420FFF7E4FB0121082063
:10143000FFF7E0FB01211020FFF7DCFB012120205A
:10144000FFF7D8FB01214020FFF7D4FB012108461C
:10145000FFF7D0FB17208DF8000000208DF8010069
:101460008DF8020001208DF803006846FFF733FE77
:10147000FFF73AFFFFF755FFFFF754FFFFF78DFF28
:1014800038BD0000000C014000140140000801407C
:10149000003801400020FE490968C908FD4AB1FB37
:1014A000F2F14FF0E0229269B2FBF1F1F94A501AE1
:1014B000511088420CDAF849097849B10021F64AFE
:1014C0001170F6490968F34A1144F44A116008E0C2
:1014D000F349884205DDF049097811B90121EE4A46
:1014E0001170EE4909680144EE4A914202DB002185
:1014F000EA4A1160E94909680844704770B5E44850
:101500000068C108B1F1807F00D31DE021F07F4069
:10151000401E4FF0E022506150170F22002807DADA
:1015200013071D0EE04B00F00F04241F1D5503E0B0
:1015300013071C0EDD4B1C5400BF00204FF0E022AF
:1015400090610720106100BF6FF00400FFF70EFEEE
:1015500070BD1CB5CF4A91FBF2F212B2ADF800207B
:10156000CC4A91FBF2F302FB13124FF47A7392FB15
:10157000F3F212B2ADF80220C64A91FBF2F302FB7D
:1015800013124FF47A7392FBF3F403FB142212B29A
:10159000ADF80420009A0260BDF8042082801CBDD2
:1015A00030B50446FFF776FF054629462046FFF78B
:1015B000D0FF30BD00B5FFF76DFF00BD1CB50024A6
:1015C000009401943B2905DCB2F57A7F02DAB3F589
:1015D0007A7F05DB009C0460BDF8044084801CBD5C
:1015E0000CB2ADF8004014B2ADF802401CB2ADF838
:1015F0000440009C0460BDF80440848000BFEEE716
:101600001CB50B8814881B1B1BB2ADF800304B882F
:1016100054881B1B1BB2ADF802308B8894881B1BAF
:101620001BB2ADF80430BDF90430002B0CDABDF864
:1016300002305B1E1BB2ADF80230BDF8043003F57A
:101640007A731BB2ADF80430BDF90230002B0CDA0E
:10165000BDF800305B1E1BB2ADF80030BDF80230A3
:1016600003F57A731BB2ADF80230BDF90030002BE0
:1016700005DABDF800303C331BB2ADF80030009BFA
:101680000360BDF8043083801CBD02468A4203DA41
:10169000501A844B18447047501AFCE70146B1F9C0
:1016A00000007C4A5043B1F9022002EB4203C3EB35
:1016B000C21200EBC200B1F904201044704730B5EB
:1016C0000446FFF7E7FE054600BFFFF7E3FE431BB6
:1016D000002B01DA73480344A342F6D330BD30B582
:1016E00003464FF47A704343FFF7D4FE054600BF2C
:1016F000FFF7D0FE441B002C01DA6A4804449C42E8
:10170000F6D330BD30B503466948834200DD30BDB5
:1017100060484343FFF7BEFE044600BFFFF7BAFE32
:10172000051B002D01DA5F4805449D42F6DB00BF32
:10173000EDE703B5BDF900003B2809DCBDF9020067
:10174000B0F57A7F04DABDF90400B0F57A7F00DBEA
:101750000CBDBDF90000FFF7D5FFBDF90200FFF792
:10176000BEFFBDF90400FFF7AAFF00BFF0E730B5E8
:1017700003460C4615460022002100BF09E04D48F3
:1017800000EB0210807B10B94A4800EB0211501C9C
:10179000C2B20A2AF3DB09B9002030BD01208873E8
:1017A0000C71CD8000208881488108810B6008463B
:1017B000F3E770B504460D46A089E188884202D15E
:1017C0004FF0FF3070BD23892679216803FB061096
:1017D0003246294601F07AF82089401C80B2E1881F
:1017E00090FBF1F201FB12002081A089401CA08136
:1017F0000020E7E770B504460D46A08910B94FF008
:10180000FF3070BD63892679206803FB06013246EC
:10181000284601F05BF86089401C80B2E18890FBAB
:10182000F1F201FB12006081A089401EA08100201E
:10183000E7E70146888970470146C8888A89801A87
:1018400080B27047002181737047002000211A4A3E
:101850001268916200BF46E0FF2100EB400202EBFC
:10186000C002164B03F82210002100EB400202EBED
:10187000C00203EB8202516200EB400202EBC002A5
:1018800003EB8202516000EB400202EBC00217E062
:101890000400002040420F003400002030000020EF
:1018A00020A107000087930318ED00E000E400E0AA
:1018B000C04484035C00002038000020FC000020AD
:1018C00003EB8202116100EB400202EBC00203EB6A
:1018D0008202516100EB400202EBC00203EB820284
:1018E0009162411CC8B20F28B6DB70472DE9FF4753
:1018F00080469946DDF830A0002500BF33E005EBB7
:10190000450000EBC500AA4901EB800090F90000FA
:10191000401C26D105EB450000EBC50001EB80041F
:1019200068B2207084F8018084F802A001A8FFF753
:10193000B5FE6060FFF7AEFDE060C4F824900020C3
:101940006083A083A062FFF7A5FD2061994800781D
:10195000401C9849087008460078C0F10F00487094
:1019600003E0681CC5B20F2DC9DB00BF0F2D04D1E9
:101970004FF0FF3004B0BDE8F0878F480068806A00
:10198000D8B968B205EB450101EBC501884A02F8F8
:101990002100002005EB450101EBC50102EB8101AF
:1019A000886205EB450000EBC500114601EB8000A5
:1019B0008149096888620020DCE77F480768006881
:1019C000866A00BF60687168884202DDA662BC62F8
:1019D00009E0B06A18B9B4620020A06203E037469B
:1019E000B66A002EEED100BF94F90000C2E710B530
:1019F0000246714803680068816A00BF91F90000DF
:101A0000904211D1886A9862FF20087000204862D5
:101A100068480078401E674C207020460078C0F16E
:101A20000F006070002010BD0B46896A0029E5D1C7
:101A3000481EF8E72DE9F0415F480068846A0026F7
:101A40000025002745E0FFF725FD05462846E1680B
:101A5000FFF71BFE0646206A28B1206AB04237DC39
:101A60000020206234E06068B04231DC17B9514890
:101A700045600127A07808B9E56004E0A078012856
:101A800001D1A068E060FFF705FD2061606A08B140
:101A9000606A8047FFF7FEFC6061A08A218A401AD5
:101AA00020836168E0680844444990FBF1F201FB3F
:101AB0001200A060FFF7EEFCA168884201DD012062
:101AC00000E00020618B08446083A08B401CA08351
:101AD000A46A002CB7D18FB1FFF7DCFC35498860D0
:101AE0000A4651689068FFF7D0FD3249C860084641
:101AF0000069C96808442F4908610027BDE8F081E2
:101B00002DE9F04105460E46174617B90020BDE8FD
:101B1000F08105EB450000EBC500254901EB800491
:101B2000206A00B92662FFF785FF206A08B9002005
:101B3000EDE70120EBE77CB51F4804680EE0608B01
:101B4000A18BCDE90010238B94F901101CA06268D1
:101B500000F008FF00206083A083A46A002CEED16F
:101B6000FFF798FC0546244801682846FFF78DFDDD
:101B7000214908600F480069642148431E490968EB
:101B800090FBF1F01C490860FFF784FC054609480A
:101B9000037819482946026818A000F0E3FEFFF711
:101BA00079FC154908600020024908617CBD0000ED
:101BB000FC000020900300203800002000879303E1
:101BC000B1E0BAC53A256409BCE4B8F43A25640921
:101BD000B5A5B4CECAB1BCE43A256409D4CBD0D003
:101BE000B4CECAFD3A256409B3ACCAB1B4CECAFDBD
:101BF0003A2564090D0A00003C000020B5B1C7B0C9
:101C0000CAB1BCE4A3BA25647573A3AC435055CAEA
:101C1000B9D3C3C2CAA3BA256425252CC8CECEF138
:101C2000CAFDC1BFA3BA2564200D0A0D0A0D0A0D15
:101C30000A0D0A0000200021F74A1170F74A1170BE
:101C4000F74A1170F74A117000BF04E00021F64A0C
:101C50001154411CC8B23228F8DB70470146FD29F7
:101C600003D0F82901D0FE2901D1012070470020BE
:101C7000FCE713B50C466946EC480068FFF799FD90
:101C800000981CBD0146F82907D0FD2902D0FE2985
:101C900009D105E04FF67D6070474FF67860FBE7AD
:101CA0004FF67E60F8E70846F6E70146002200237B
:101CB000012205E0881C805C184483B2501CC2B22B
:101CC00091F90000801E9042F4DCD8B270472DE9F3
:101CD000F04105460024AF1C00BF3EE0012C2BDD87
:101CE00095F90000401EA04226DD385DFFF7B6FFE3
:101CF00010B3385DFFF7C6FF064600BF4021CC4851
:101D0000FFF78AF90028F9D04021C948FFF791F977
:101D10003112C748FFF712F900BF4021C448FFF74E
:101D20007BF90028F9D04021C148FFF782F9F1B2D0
:101D3000BF48FFF703F90EE000BF4021BC48FFF7A2
:101D40006BF90028F9D04021B948FFF772F9395DE5
:101D5000B748FFF7F3F8601CC4B295F90000A04241
:101D6000BCDC0020BDE8F0812DE9FC4105460024E3
:101D7000AF1C00BF24E0012C1BDD95F90000401EC4
:101D8000A04216DD385DFFF769FF90B1385DFFF7BF
:101D900079FF064630120190F0B2009001A9A348E5
:101DA0000068FFF706FD6946A0480068FFF701FDDF
:101DB00004E039199D480068FFF7FBFC601CC4B2C1
:101DC00095F90000A042D6DC0020BDE8FC8108B5F2
:101DD000694696480068FFF70DFD78B900BF4021BD
:101DE0009348FFF719F90028F9D040219048FFF7F0
:101DF00020F9009881B28E48FFF7A0F808BD10B511
:101E000048F6B80201218B48FFF7B1FC874908600A
:101E1000322220218848FFF7AAFC88490860FFF792
:101E200009FF874C0C2020700120607020341420A2
:101E30002070042060702034082020700220607020
:101E400020340A202070032060702034122020707B
:101E50000520607010BD2DE9F04188B007460C46A2
:101E600015461E46DDF838808DF8004068B28DF8C2
:101E700001000696CDF81C8020226946384600F005
:101E800025FD08B0BDE8F0812DE9F04105460024AC
:101E900000270026FD2D0CD15F48007818B9FD20E1
:101EA0005D4908700BE0FFF7C5FEFD205A49087038
:101EB00005E05948007810B90020BDE8F081FE2DFA
:101EC00002D057480078C8B15548007888B1782DBD
:101ED00006D07D2D02D07E2D06D103E0FD2503E046
:101EE000F82501E0FE2500BF00BF00204C49087026
:101EF00009E001204A4908700020DEE7F82D02D1F0
:101F0000012048490870454890F900200078401C9D
:101F100040B2424B1870444885544248007800282B
:101F200041D0012400204749088008E03E48005D78
:101F300044490988084443490880601CC4B23748B2
:101F400090F90000801EA042F0DC374F7F1C002477
:101F500016E038783A4901EB441191F901108842B2
:101F60000CD1374800EB441090F900002B4991F94F
:101F70000010884202D1324800EB4416601CC4B203
:101F8000052CE6DB16B9FFF755FE0CE096F90020AC
:101F90002549B01C00F09AFC314628480068FFF73C
:101FA00008FCFFF747FE002087E730B589B00546FB
:101FB0000020034602220521009001A8FFF74BFFF5
:101FC0000DF10604FD202070022060701E4800788C
:101FD000A0701D480078401C1B49087001A8FFF73D
:101FE00064FEE070F820207101A8FFF7BDFE09B083
:101FF00030BD70B50546AC1C1348007860731248BC
:102000000078401C104908702846FFF74EFE2074E7
:102010002846FFF7A9FE70BD4700002041000020C0
:102020004800002042000020B00A00204C000020A0
:1020300000380140E20A0020700400205000002017
:10204000D0030020440000204600002070B5054663
:10205000AC1CFD2020700320607038480078E072CE
:1020600036480078401C354908702846FFF71DFEA9
:102070002073F82060732846FFF776FE70BD70B5B8
:102080000546AC1CFD202070042060702B480078B1
:10209000E0732A480078401C284908702846FFF75A
:1020A00004FE2074F82060742846FFF75DFE70BDC2
:1020B00070B592B004460026A07808B912B070BD81
:1020C0006078022801D1A67908E06078032801D160
:1020D000267A03E06078012800D1A67A0020034622
:1020E00005220821009002A8FFF7B5FE202202A9D0
:1020F0000AA800F0EBFB0DF12A05FD202870052051
:102100006870AE706078E870002028710B48007825
:1021100068710A480078401C084908700AA8FFF74F
:10212000C4FDA871F820E8710AA8FFF71DFE202160
:10213000204600F0E4FB00BFC0E70000460000209E
:1021400038B500244421FE48006800F0D8FBFD4863
:10215000FB49096808604020F94909688880F94806
:10216000F749096888608020F54909688881F64840
:10217000F349096808618015F14909688882F248C5
:10218000EF49096888610120ED4909688883EE48B4
:10219000EB49096808620820E94909688884EA4827
:1021A000E749096888620220E54909688885E648A8
:1021B000E349096808630420E14909688886E24820
:1021C000DF49096888631020DD4909688887DF488E
:1021D000DB490968086410208DF8030003208DF89E
:1021E0000200D74800688088ADF80000D44909682B
:1021F00008686946FEF74CFAD14800688089ADF856
:102200000000CF49096888686946FEF741FACC4862
:102210000068808BADF80000C94909688869694683
:10222000FEF736FAC6480068808CADF80000C44955
:102230000968086A6946FEF72BFAC1480068808D74
:10224000ADF80000BE490968886A6946FEF720FAC1
:10225000BB480068808EADF80000B9490968086B7A
:102260006946FEF715FAB64A1268918EB44A1268AA
:10227000106BFEF7B8FAB2480068808FADF8000026
:10228000AF490968886B6946FEF702FA48208DF865
:102290000300AB480068808AADF80000A8490968CF
:1022A00008696946FEF7F4F9FF20ADF80000A4497B
:1022B0000968086C6946FEF7EBF9A14A1268918F2C
:1022C0009F4A1268906B0022FEF791FA802112203B
:1022D00000F0B2FA08B1012038BD3220FFF7FFF953
:1022E0000B2000F0C8FA732801D00220F4E70A207E
:1022F00000F0C1FA762801D00220EDE700240AE0C0
:10230000934A02EB44025178914A12F8140000F00B
:1023100093FA601C84B2A82CF2D30020DCE72DE9EC
:10232000F0410446E72500260027012C06D0022CA8
:1023300008D0032C0AD0042C10D10BE0E5255A2636
:102340005C270BE0E5255826602707E0E525842675
:102350004C2703E0E5259626402700BF00BF29460D
:10236000132000F069FA3146012000F065FA394681
:10237000022000F061FABDE8F0812DE9F041044649
:10238000802522265E2734B1012C08D0032C0AD0E8
:10239000042C10D10BE0402511262F270BE06625D9
:1023A0001B264B2707E099252826712703E0C02527
:1023B00033268D2700BF00BF29464F2000F03CFA8E
:1023C0002946502000F038FA0021512000F034FA5C
:1023D0003146522000F030FA3946532000F02CFAF2
:1023E0002946542000F028FA9E21582000F024FAB3
:1023F000BDE8F08170B50446002534B1012C06D04B
:10240000032C06D0042C08D105E0B02505E0982562
:1024100003E0182501E0302500BF00BF2946552004
:1024200000F00AFA70BD70B50446402534B1012CA5
:1024300006D0032C06D0042C08D105E0302505E099
:10244000382503E0502501E0602500BF00BF294684
:10245000562000F0F1F970BD2DE9F0410446042545
:10246000C0268027072C1DD2DFE804F01C04080CCE
:102470001014180024258026802713E014258026B8
:1024800080270FE01425C02680270BE01425402666
:10249000402707E014258026C02703E01425A02646
:1024A000402700BF00BF29463A2000F0C5F9314659
:1024B000682000F0C1F93946672000F0BDF9BDE899
:1024C000F0812DE9F04705460E469046994605EB0A
:1024D00048001FFA80FA06EB490087B2B7F5447F3F
:1024E00002DDA7F5447087B2032000F0C4F904466A
:1024F00004F0F0040AF00301284661F39F0004434E
:102500002146032000F098F9C5F38701192000F057
:1025100093F9CAF387011A2000F08EF9322000F0F7
:10252000AAF9044604F0C00407F00701304661F33D
:10253000DF000443C6F3C701172000F07DF909E06E
:1025400054000020000C0140000801400010014030
:10255000F82A0008C7F3C701182000F06DF9BDE89C
:10256000F087000008B5D74800688089ADF8000002
:1025700010208DF8030003208DF80200D14909686E
:1025800088686946FEF784F8CE4A12689189CD4A78
:1025900012689068FEF727F908BD08B5C9480068B9
:1025A0008089ADF8000048208DF8030003208DF8E5
:1025B0000200C449096888686946FEF769F808BDE1
:1025C00008B58020ADF8000048208DF803000320F6
:1025D0008DF802006946BC48FEF75AF88021BA48D7
:1025E000FEF701F94020ADF8000010208DF803003F
:1025F0006946B548FEF74CF84021B348FEF7F3F8BA
:10260000FFF7B0FF08BD10B5AE4A12689189AD4A18
:10261000126890680122FEF7EAF8AA4A12689188C7
:10262000A84A126810680122FEF7E1F83220FFF78D
:1026300046F8A44A12689189A24A1268906800225A
:10264000FEF7D5F83220FFF73AF89E4A12689188D3
:102650009C4A126810680022FEF7C9F810BD10B538
:10266000984A12689189974A126890680022FEF78A
:10267000BEF83220FFF723F8924A12689188914AF7
:10268000126810680122FEF7B2F83220FFF717F83F
:102690008C4A126891898B4A126890680122FEF771
:1026A000A6F83220FFF70BF810BD10B53220FFF767
:1026B00006F8844A12689189824A12689068012259
:1026C000FEF795F87F4A126891887E4A1268106872
:1026D0000122FEF78CF83220FEF7F1FF794A1268EA
:1026E0009188784A126810680022FEF780F832203C
:1026F000FEF7E5FF734A12689189724A1268906882
:102700000022FEF774F83220FEF7D9FF10BD70B535
:102710000446002631E014F0800F09D0694A12689F
:102720009189684A126890680122FEF760F808E013
:10273000644A12689189634A126890680022FEF721
:1027400056F86006040E3220FEF7B9FF5D4A1268A3
:1027500091885C4A126810680122FEF748F832201E
:10276000FEF7ADFF574A12689188564A1268106802
:102770000022FEF73CF8701CC6B2082ECBDBFFF738
:102780000CFF3220FEF79BFF4E4A126891884D4A9B
:10279000126810680122FEF72AF83220FEF78FFF38
:1027A000484A12689189474A12689068FEF701F812
:1027B00008B1012500E00025424A12689188414A8B
:1027C000126810680022FEF712F8FFF7CBFE2846C9
:1027D00070BD70B50024FFF7E0FE082526E032202A
:1027E000FEF76DFF374A12689188364A1268106802
:1027F0000122FDF7FCFF6006040E324A126891893F
:10280000304A12689068FDF7D4FF08B1601CC4B26A
:102810003220FEF754FF2B4A12689188294A126829
:1028200010680022FDF7E3FF681EC5B2002DD6DC5C
:10283000FFF798FE204670BD70B505460C46002691
:10284000FFF7E1FE4220FFF762FF00B1012664209E
:10285000FEF735FF2846FFF75AFF00B10126642036
:10286000FEF72DFF2046FFF752FF00B10126FFF7CC
:10287000F6FE304670BD70B504460025FFF7C3FE76
:102880004220FFF744FF6420FEF719FF2046FFF7C0
:102890003EFF6420FEF713FFFFF7E1FE6420FEF722
:1028A0000EFFFFF7B0FE4320FFF731FF6420FEF775
:1028B00006FFFFF78EFF0546FFF7F7FEFFF7CFFE97
:1028C000284670BD54000020000C014040EA01037E
:1028D0009B0703D009E008C9121F08C0042AFAD2D6
:1028E00003E011F8013B00F8013B521EF9D270479A
:1028F000D2B201E000F8012B491EFBD27047002242
:10290000F6E710B513460A4604461946FFF7F0FFEE
:10291000204610BD30B50B46014600202022012480
:1029200009E021FA02F59D4205D303FA02F5491B9D
:1029300004FA02F52844151EA2F10102F1DC30BDB3
:10294000064C074D06E0E06840F0010394E80700FC
:1029500098471034AC42F6D3FDF7EEFB482C000844
:10296000682C00080FB4054B10B503A9044A02985F
:1029700000F018F810BC5DF814FB0000731C000890
:102980005800002002E008C8121F08C1002AFAD12E
:1029900070477047002001E001C1121F002AFBD1DF
:1029A000704700002DE9FF4F89B09A460446002584
:1029B00097E0252833D10027641C4E49B8460122F0
:1029C0002378203B02FA03F0084202D00743641C3C
:1029D000F6E720782E2819D114F8010F47F00407E4
:1029E0002A280ED06FF02F022078A0F1300109299B
:1029F0000CD808EB880102EB410100EB0108641CD4
:102A0000F2E70A98641C50F8048B0A90207800289A
:102A10006BD0642808D0692806D0752820D052468B
:102A20000B9990476D1C5BE00A994FF00A0901C9A8
:102A30000A91002804DAC0F100004FF02D0102E0F5
:102A4000390504D52B218DF82010012103E0F90769
:102A500004D02021F7E78B4608AE0EE00021FAE70C
:102A60000A994FF00A0901C90A91F7E74946FFF7A9
:102A700051FF01F1300106F8011D0028F6D1ADEB40
:102A8000060000F12009780701D44FF00108C8457D
:102A900002DDA8EB090000E000208046002706E0E8
:102AA00008A85246C05D0B9990476D1C7F1C5F457E
:102AB000F6DB04E0302052460B9990476D1CB8F1CC
:102AC0000001A8F10108F5DC05E016F8010B5246FB
:102AD0000B9990476D1CB9F10001A9F10109F4DCD3
:102AE000641C207800287FF464AF0DB02846BDE850
:102AF000F08F0000092801003A0440D012143280FF
:102B00001716180419021A7B03060C0015003E0064
:102B1000703A713572117300A20211817A207B1C08
:102B20007C287D3C7E557F68807681808288838F7B
:102B3000849685A386AF87C488D789E813E0000010
:102B400010000D001428A505AB072475256326A5E4
:102B50009F78A068A103A6DFA7DFA8F0A990AA9498
:102B600013E50E610F4B16021E2721022291290741
:102B7000330B350B371D3871392A3C784D404E20C8
:102B800069006B4074198D4F8E008F00900091008A
:102B9000920096009A80B084B10CB20EB382B80A4B
:102BA000431444F0453446584728483A59885A88CF
:102BB0005B445C675D495E0E6404652066059404B1
:102BC00095086C0A6D554F80508051005222535E1B
:102BD000548009036E116F9F5500564057406A405C
:102BE0000140024013E71500589E41083F0075055B
:102BF00076E14C0077013DC24B09C9604138341180
:102C00003B02A48996009730982099309A849B299A
:102C10009C039D4C9E3F78047901C8F0790FC80051
:102C20007910C87E790AC880790BC801790CC80F61
:102C3000790DC8207909C8807902C8C07903C840D5
:102C40007905C83079260900682C000800000020AA
:102C50005C00000084290008C42C00085C000020EF
:102C600084970000942900080000000000A24A0494
:102C7000000000000000000001020304060708092C
:102C80000000000001020304010203040607080912
:102C90000204060800000000000000000000000020
:102CA000A403002000000000FF000000000000005E
:102CB0000000000000000000000000009C930020C5
:042CC0000000000010
:0400000508000131BD
:00000001FF
