:020000040800F2
:10000000D8170020D1000008A9030008A7030008A2
:1000100000000000000000000000000000000000E0
:100020000000000000000000000000006906000859
:100030000000000000000000110400081D07000877
:100040000101000800000000010100080101000892
:10005000010100080101000801010008F501000884
:100060000000000001010008010100080101000872
:100070000101000801010008010100080000000062
:10008000010100080000000000000000010100085C
:100090000101000801010008010100080101000838
:1000A00001010008010100080101000881070008A2
:1000B000010100080348854600F068F80048004741
:1000C000B10D0008D817002080F3088870470000A1
:1000D0000C4880F308880C480168090E0B4A9142CD
:1000E00005D10B480B4901600B480C4901600C48D5
:1000F00080470C480047FEE7FEE7FEE7FEE7FEE725
:10010000FEE70000D8170020040000001F000000D8
:100110001810024001000000000001400000000033
:1001200021070008B500000830B50B460146002045
:100130002022012409E00D46D5409D4205D31D46ED
:100140009540491B2546954040191546521E002DE5
:10015000F1DC30BD03460B439B0703D009E008C91F
:10016000121F08C0042AFAD203E00B780370401C67
:10017000491C521EF9D270470321001D401E03780E
:1001800012021A43491EF9D510467047064C012544
:10019000064E05E0E36807CC2B430C3C984710342F
:1001A000B442F7D3FFF78AFF7C0F00089C0F0008CA
:1001B00010B50C480C490068C008401E88420CD895
:1001C0000A4948610A480722C3691B021B0A4C04FA
:1001D0002343C361002088610A610420C04300F00A
:1001E00091FA10BD3C000020FFFFFF0000E000E09E
:1001F00004ED00E0704700000246401A8A4201DA2E
:100200000149401870470000008793030149C86006
:100210007047000000200240F0B50B2706463F045F
:10022000384600F067F804280FD1084C20690225F1
:1002300028432061666120694021084320613846D7
:1002400000F058F82169A9432161F0BD0020024067
:1002500008490420CA68D20701D001207047CA6843
:10026000D20601D502207047C9684907FBD5032093
:1002700070470000002002400248016980221143BB
:100280000161704700200240F8B5064600200B27A8
:100290003F0400900D46384600F02CF8042815D194
:1002A0000B4C20690121084320613580384600F05D
:1002B00021F8042806D1B61C280C00963080384658
:1002C00000F018F82169490849002161F8BD0000D3
:1002D0000020024004480169090603D50349416032
:1002E0000349416070470000002002402301674538
:1002F000AB89EFCD00B50346FFF7AAFF02E0FFF799
:10030000A7FF5B1E012803D0002B00D1052000BDF4
:10031000002BF4D1FAE7F0B50022012423460D6842
:1003200093401D409D422AD10D79012D01D0022D0F
:1003300012D1876855000326AE40B74387604E79D7
:10034000AE4085682E43866085889D43858085887C
:100350008B7993401D438580066855000323AB408D
:100360009E4306600E790768AE403E430660C6684D
:100370009E43C660CB79AB40C5682B43C360521C1B
:10038000102ACBD3F0BD4B07DB0E9A40C90810B53D
:1003900089000818016A0F249C40A1430162016A88
:1003A0001143016210BDFEE7704708B51B21684686
:1003B000017001214170817000F002F808BD000059
:1003C00030B5837801210278002B15D094080E4BAC
:1003D000A400E41823689207D50EFF22AA40934395
:1003E00042789207120EAA401A4322600078C00693
:1003F000C00E8140054804E0D006C00E814003488D
:100400008030016030BD000000E400E000E100E069
:10041000704710B5044680890B46002813D06089C8
:1004200022792168504341181846FFF793FE6089EE
:10043000E188401C80B2FFF777FE6181A089401EF1
:10044000A081002010BD0020C04310BDF0B50546BE
:1004500000230C4C18461E013619B77B002F00D123
:1004600030465B1CDBB20A2BF5D3002808D00123F1
:1004700083730171C2800021818141810181056006
:10048000F0BD00005410002010B504468089E288B9
:10049000904202D10020C04310BD208922792368F8
:1004A0005043C018FFF756FE2089E188401C80B2F7
:1004B000FFF73AFE2181A089401CA081002010BDD9
:1004C000044A0029516901D0014300E08143516190
:1004D0007047000000100240044A0029916901D0D1
:1004E000014300E081439161704700000010024029
:1004F000F8B5564D0446686800210C22544E104051
:1005000005D0042803D0082803D00C281AD0266070
:100510001AE06968686803228902D2030F0F10404D
:10052000BF1C00280AD0E86A0107090F3046491CA1
:10053000FFF7FAFD78430146216005E0454839465A
:100540004143F9E7444820606868444F0006000FC3
:100550003B5C20680246DA4062606B685B055B0FBB
:10056000FB5CDA40A2602B6BDB0501D43C4B05E061
:100570006B685B0401D4530800E09308E3602B6BC5
:100580005F06384B03D4374F1237276100E02361F1
:100590002F6BFF0601D4666100E060612F6BBF071F
:1005A0000ED02F6BBF07BF0F012F0BD02F6BBF07D4
:1005B000BF0F022F08D02F6BFF43BF0706D006E006
:1005C000A26104E0A06102E0A36100E0A6612F6BDC
:1005D000BF03BF0F0FD02F6BBF03BF0F012F0CD076
:1005E0002F6BBF03BF0F022F09D02F6BBF03BF0FAD
:1005F000032F06D006E0E26104E0E06102E0E3617F
:1006000000E0E6612F6B3F03BF0F0FD02A6B120390
:10061000920F012A0CD0286B0003800F022809D00A
:10062000286B0003800F032806D006E0226204E056
:10063000206202E0236200E02662286B000602D4FA
:1006400005486062F8BD6162F8BD0000001002401C
:1006500000127A0000093D00006CDC022C00002032
:10066000809FD50000800000704700001CB500216D
:10067000224801910091026801231B041A43026081
:100680005B000522120304681C400094019C641C5A
:100690000194009C002C02D1019C9442F3D1026889
:1006A000920328D501210091154A1121116041685A
:1006B00041604168416041687F22D20391434160BB
:1006C000416811221204114341600168012212069F
:1006D0001143016001688901FCD5416889088900DE
:1006E0004160416802221143416041680907890F56
:1006F0000229FAD11CBD00911CBD0000001002406F
:1007000000200240042204490428086902D09043D2
:10071000086170471043FBE700E000E0704700000D
:1007200010B5144801680122114301604168124A62
:10073000114041600168114A1140016001680122C5
:1007400092049143016041683F2212049143416049
:10075000C16A09090901C162016BFF225432914348
:100760000163416B49084900416300218160FFF743
:100770007DFF10BD001002400CB8FF08FFFFF6FE21
:10078000F8B5384D384C2946204600F04CF9002881
:1007900066D02021204600F0E5F8204600F0C8F998
:1007A000C1B268460170314800220068304E477A75
:1007B0003B0000F0D5F907050B111B223B4C510003
:1007C000FD2901D1012141722AA028E009024180BE
:1007D0000221417230A022E042880A434280114641
:1007E0000322427237A000F0ABF935E081804188E6
:1007F000C180042141723DA011E0F82912D042725B
:100800004021204600F008F90028F9D04021204678
:1008100000F0A8F83146204600F08EF93AA000F02A
:100820008FF919E0052141723FA0F8E7427240219B
:10083000204600F0F1F80028F9D04021204600F0D1
:1008400091F83146204600F077F93DA0E7E74448AB
:1008500069460068FFF718FE2946204600F084F834
:10086000F8BD00000501050000380140240000200B
:10087000FFFF0000CAD5B5BDD6A1CDB7A3ACCFC28E
:10088000D2BBB2BDBDD3CAD5B9CCBCFEB4F3D0A1E6
:10089000B8DF38CEBB0D0A00CAD5B5BDB9CCBCFE99
:1008A000B4F3D0A1B8DF38CEBB2CCFC2D2BBB2BD1F
:1008B000BDD3CAD5B9CCBCFEB4F3D0A1B5CD38CE2A
:1008C000BB0D0A00CAD5B5BDB9CCBCFEB4F3D0A1EE
:1008D000B5CD38CEBB3A25642CCFC2D2BBB2BDBD9C
:1008E000D3CAD5D0A3D1E9BACD0D0A00CAD5B5BDBA
:1008F000D0A3D1E9BACD2CCFC2D2BBB2BDBDD3CA31
:10090000D5D6A1CEB20D0A00CAD5B5BDD6A1CEB2FC
:10091000D3D0CEF32CB7B5BBD82D31D6D8D0C2BDED
:10092000D3CAD50D0A000000CAD5B5BDD6A1CEB236
:100930002CCFC2D2BBB2BDB2C1B3FDD2B30D0A003F
:10094000B2C1B3FDD6D0CAD5B5BDCAFDBEDDA3AC1C
:10095000B4F2B6CFD6D8D0C2BDD3CAD50D0A0000E6
:1009600010000020016270470A0C012191400162D1
:1009700070470029016802D00122114301E04908B3
:10098000490001607047000030B5012189B088033B
:10099000FFF7A2FD01218804FFF792FD1B4D002205
:1009A00006212846FFF7EFFC002207212846FFF723
:1009B000EAFCC020069002206946087700248C7764
:1009C0000120C8770320487706A92846FFF7A3FC33
:1009D000E1200594400201940294039400900C20BD
:1009E0000B4C04906946204600F04EF8094D204615
:1009F0002946FFF7B9FF01222946204600F02FF8CB
:100A000001212046FFF7B5FF09B030BD00040048C2
:100A100000380140050105000246D26900200A4263
:100A200000D00120704730B50A04130E012214468D
:100A300000258C40012B0ED0022B0ED08368090CB0
:100A40002340C0698A401040002B02D0002800D00B
:100A50000125284630BD0368F1E74368EFE710B58C
:100A60000B041C0E01238B40022C02D0032C02D05D
:100A700002E0001D00E008300168002A01D019439F
:100A800000E09943016010BD30B5044600688BB0AA
:100A90000D46400840002060606803210903884338
:100AA000A9680143616020681C49EA6808406968D8
:100AB00011432A69024311432160A06803210902FE
:100AC000884369690143A1606846FFF711FD144836
:100AD000844201D106980AE01248844201D1079865
:100AE00005E01148844201D1089800E0029821688D
:100AF0000904296800D54000FFF716FB2A68520850
:100B00008A4200D8401C2168090404D50107074A1D
:100B1000490F10400843A0810BB030BDF3E9FFFF3F
:100B2000003801400044004000480040F0FF000051
:100B3000808CC005C00D7047C905C90D018570477F
:100B40000FB410B503A9044B044A029800F024F82E
:100B500010BC08BC04B01847E90C00085000002085
:100B600030B47446641E2578641CAB4200D21D4626
:100B7000635D5B00E31830BC184702E008C8121F31
:100B800008C1002AFAD170477047002001E001C176
:100B9000121F002AFBD17047FFB58DB00446002517
:100BA00006E025280AD0109A0F999047641C6D1C06
:100BB00020780028F5D1284611B0F0BD002701218A
:100BC000484A009700E00743641C23780846203B0E
:100BD00098401042F7D120782E2817D104200743DF
:100BE0006078641C2A280CD10E98641C02C80091FD
:100BF0000E900BE000990A22514330394018641CD2
:100C000000902078014630390929F3D9207800284E
:100C1000D1D0642808D0692806D075281ED0109A33
:100C20000F9990476D1C5BE00A200E99019001C955
:100C30000E91002802DA40422D2102E0390504D548
:100C40002B216A461172012103E0F90704D020210B
:100C5000F7E70BAE0B910DE00021FAE70A200E99A1
:100C6000019001C90E91F7E70199FFF75DFA303164
:100C7000761E31700028F7D103A8801B2030019028
:100C8000780701D5009801E0012000900199884281
:100C900001DD401A00E000200027009006E002A8D5
:100CA000109AC05D0F9990476D1C7F1C0B9887426E
:100CB000F5DB04E0109A30200F9990476D1C0099E5
:100CC000481E00900029F5DC05E03078109A761C6B
:100CD0000F9990476D1C0199481E01900029F4DC82
:100CE000641C65E70928010070B5094C05464021E0
:100CF0002046FFF737FEA9B22046FFF71DFF40212F
:100D00002046FFF789FE0028F9D0284670BD000074
:100D10000038014070B5164814490068FFF704FA1E
:100D200014498A6901461046FFF7FEF9124B00226A
:100D3000191A5C101148A14207D20578002D04D081
:100D400002704468E318436006E0A14204D90378C6
:100D5000002B01D1012303704368094C5B18A342A7
:100D600000D342604068081870BD000000127A008D
:100D70003C00002000E000E040420F001400002092
:100D80000087930310B50168074A114001225207FA
:100D9000914207D14168054C21600068FFF794F942
:100DA0002068804710BD00000000FE2F28000020B2
:100DB000FFF7FEF9FFF7F9FAFFF7E6FD012212034C
:100DC00001214E48FFF742FB4D4C2061FFF7A2FF87
:100DD000A0604CA0FFF7B4FE514D524E2868407AF7
:100DE00000280DD1FFF796FFA168FFF705FA4E49DD
:100DF000884205DD4DA0FFF7A3FE3046FFF7C2FF96
:100E00002868407A052821D1FFF784FFA060286870
:100E10004088800A401C2070FFF75CFA3420FFF7FE
:100E2000F5F9002005E080028019FFF7F5F96078F8
:100E3000401C60702178C0B28842F4D32868417A9F
:100E4000491C417261783BA0FFF77AFE2C4920696A
:100E5000C91CFFF7DEFA002841D12968E078CA886A
:100E60001218CA806768F917890FC919890889009B
:100E70007A1A23490C31511808707F1C6760B80733
:100E800011D1002F0FD01E480C30FFF775F9010269
:100E90001B48090A0C30C078000601432148001F96
:100EA0003818FFF7F1F92868A7784088642178435B
:100EB000FFF73AF96268904206DC394625A0FFF751
:100EC0003FFEA0780A30A07028686268418891428D
:100ED00005D1417A491C417220A0FFF731FE2868F4
:100EE000407A072800D079E7FFF7C6F90FA0FFF78F
:100EF00027FE3046FFF746FF70E700005400002051
:100F000000000020626F6F746C6F61646572207303
:100F1000746172742E2E2E2E2E2E2E0D0A000000BD
:100F20002400002000200008404B4C006A756D70C2
:100F300000000000D2B3B2C1B3FDCDEAB1CF3A2573
:100F4000642CCFC2D2BBB2BDBDD3CAD5CAFDBEDDF3
:100F50000D0A0000256425250D0A0000CAFDBEDD2E
:100F6000BDD3CAD5CDEAB1CF2CCFC2D2BBB2BDD78B
:100F7000BCB1B8D0A3D1E9BACD0D0A009C0F0008CE
:100F800000000020540000007A0B0008F00F000859
:100F900054000020841700008A0B000800000000A5
:100FA0000000000000000000000000000000000041
:100FB00000000000000000009C1300200000000062
:100FC000C81300200000000000000000010203041C
:100FD0000102030406070809006CDC02000000009F
:100FE00000000000010203040607080900000000D9
:04000005080000B53A
:00000001FF
